{
  "_format": "hh-sol-artifact-1",
  "contractName": "DeFund",
  "sourceName": "contracts/DeFund.sol",
  "abi": [
    {
      "inputs": [
        {
          "internalType": "uint256",
          "name": "_id",
          "type": "uint256"
        },
        {
          "internalType": "address",
          "name": "_owner",
          "type": "address"
        },
        {
          "internalType": "enum DeFundFactory.FundraiserType",
          "name": "_type",
          "type": "uint8"
        },
        {
          "internalType": "enum DeFundFactory.FundraiserCategory",
          "name": "_category",
          "type": "uint8"
        },
        {
          "internalType": "string",
          "name": "_name",
          "type": "string"
        },
        {
          "internalType": "string",
          "name": "_initialDescription",
          "type": "string"
        },
        {
          "internalType": "uint256",
          "name": "_endDate",
          "type": "uint256"
        },
        {
          "internalType": "uint8",
          "name": "_goalAmount",
          "type": "uint8"
        }
      ],
      "stateMutability": "nonpayable",
      "type": "constructor"
    },
    {
      "inputs": [
        {
          "internalType": "string",
          "name": "_picture",
          "type": "string"
        },
        {
          "internalType": "bool",
          "name": "makeDefault",
          "type": "bool"
        }
      ],
      "name": "addImage",
      "outputs": [],
      "stateMutability": "nonpayable",
      "type": "function"
    },
    {
      "inputs": [],
      "name": "closeAndRevertDonations",
      "outputs": [],
      "stateMutability": "nonpayable",
      "type": "function"
    },
    {
      "inputs": [],
      "name": "i_category",
      "outputs": [
        {
          "internalType": "enum DeFundFactory.FundraiserCategory",
          "name": "",
          "type": "uint8"
        }
      ],
      "stateMutability": "view",
      "type": "function"
    },
    {
      "inputs": [],
      "name": "i_endDate",
      "outputs": [
        {
          "internalType": "uint256",
          "name": "",
          "type": "uint256"
        }
      ],
      "stateMutability": "view",
      "type": "function"
    },
    {
      "inputs": [],
      "name": "i_goalAmount",
      "outputs": [
        {
          "internalType": "uint256",
          "name": "",
          "type": "uint256"
        }
      ],
      "stateMutability": "view",
      "type": "function"
    },
    {
      "inputs": [],
      "name": "i_id",
      "outputs": [
        {
          "internalType": "uint256",
          "name": "",
          "type": "uint256"
        }
      ],
      "stateMutability": "view",
      "type": "function"
    },
    {
      "inputs": [],
      "name": "i_owner",
      "outputs": [
        {
          "internalType": "address",
          "name": "",
          "type": "address"
        }
      ],
      "stateMutability": "view",
      "type": "function"
    },
    {
      "inputs": [],
      "name": "i_type",
      "outputs": [
        {
          "internalType": "enum DeFundFactory.FundraiserType",
          "name": "",
          "type": "uint8"
        }
      ],
      "stateMutability": "view",
      "type": "function"
    },
    {
      "inputs": [
        {
          "internalType": "uint256",
          "name": "_amount",
          "type": "uint256"
        },
        {
          "internalType": "address",
          "name": "_tokenAddress",
          "type": "address"
        }
      ],
      "name": "makeDonation",
      "outputs": [],
      "stateMutability": "payable",
      "type": "function"
    },
    {
      "inputs": [
        {
          "internalType": "address",
          "name": "",
          "type": "address"
        }
      ],
      "name": "s_balances",
      "outputs": [
        {
          "internalType": "uint256",
          "name": "",
          "type": "uint256"
        }
      ],
      "stateMutability": "view",
      "type": "function"
    },
    {
      "inputs": [],
      "name": "s_defaultImage",
      "outputs": [
        {
          "internalType": "uint256",
          "name": "",
          "type": "uint256"
        }
      ],
      "stateMutability": "view",
      "type": "function"
    },
    {
      "inputs": [
        {
          "internalType": "uint256",
          "name": "",
          "type": "uint256"
        }
      ],
      "name": "s_descriptions",
      "outputs": [
        {
          "internalType": "string",
          "name": "",
          "type": "string"
        }
      ],
      "stateMutability": "view",
      "type": "function"
    },
    {
      "inputs": [
        {
          "internalType": "address",
          "name": "",
          "type": "address"
        },
        {
          "internalType": "address",
          "name": "",
          "type": "address"
        }
      ],
      "name": "s_donors",
      "outputs": [
        {
          "internalType": "uint256",
          "name": "",
          "type": "uint256"
        }
      ],
      "stateMutability": "view",
      "type": "function"
    },
    {
      "inputs": [
        {
          "internalType": "uint256",
          "name": "",
          "type": "uint256"
        }
      ],
      "name": "s_images",
      "outputs": [
        {
          "internalType": "string",
          "name": "",
          "type": "string"
        }
      ],
      "stateMutability": "view",
      "type": "function"
    },
    {
      "inputs": [],
      "name": "s_name",
      "outputs": [
        {
          "internalType": "string",
          "name": "",
          "type": "string"
        }
      ],
      "stateMutability": "view",
      "type": "function"
    },
    {
      "inputs": [],
      "name": "s_status",
      "outputs": [
        {
          "internalType": "enum DeFundFactory.FundraiserStatus",
          "name": "",
          "type": "uint8"
        }
      ],
      "stateMutability": "view",
      "type": "function"
    },
    {
      "inputs": [
        {
          "internalType": "uint256",
          "name": "_pictureIdx",
          "type": "uint256"
        }
      ],
      "name": "setDefaultPicture",
      "outputs": [],
      "stateMutability": "nonpayable",
      "type": "function"
    },
    {
      "inputs": [
        {
          "internalType": "string",
          "name": "_description",
          "type": "string"
        }
      ],
      "name": "setDefaultPicture",
      "outputs": [],
      "stateMutability": "nonpayable",
      "type": "function"
    },
    {
      "inputs": [
        {
          "internalType": "uint256",
          "name": "_amount",
          "type": "uint256"
        },
        {
          "internalType": "address",
          "name": "_tokenAddress",
          "type": "address"
        }
      ],
      "name": "withdrawFunds",
      "outputs": [],
      "stateMutability": "nonpayable",
      "type": "function"
    }
  ],
  "bytecode": "0x6101606040523480156200001257600080fd5b506040516200255e3803806200255e833981810160405281019062000038919062000362565b87608081815250508673ffffffffffffffffffffffffffffffffffffffff1660a08173ffffffffffffffffffffffffffffffffffffffff1660601b815250508560028111156200008d576200008c620005b5565b5b60c0816002811115620000a557620000a4620005b5565b5b60f81b81525050846005811115620000c257620000c1620005b5565b5b60e0816005811115620000da57620000d9620005b5565b5b60f81b815250508360039080519060200190620000f9929190620001c1565b5060008390806001815401808255809150506001900390600052602060002001600090919091909150908051906020019062000137929190620001c1565b503373ffffffffffffffffffffffffffffffffffffffff166101408173ffffffffffffffffffffffffffffffffffffffff1660601b815250508161010081815250508060ff1661012081815250506000600460006101000a81548160ff02191690836004811115620001ae57620001ad620005b5565b5b02179055505050505050505050620006d7565b828054620001cf9062000549565b90600052602060002090601f016020900481019282620001f357600085556200023f565b82601f106200020e57805160ff19168380011785556200023f565b828001600101855582156200023f579182015b828111156200023e57825182559160200191906001019062000221565b5b5090506200024e919062000252565b5090565b5b808211156200026d57600081600090555060010162000253565b5090565b600062000288620002828462000492565b62000469565b905082815260208101848484011115620002a757620002a662000647565b5b620002b484828562000513565b509392505050565b600081519050620002cd8162000667565b92915050565b600081519050620002e48162000681565b92915050565b600081519050620002fb8162000692565b92915050565b600082601f83011262000319576200031862000642565b5b81516200032b84826020860162000271565b91505092915050565b6000815190506200034581620006a3565b92915050565b6000815190506200035c81620006bd565b92915050565b600080600080600080600080610100898b03121562000386576200038562000651565b5b6000620003968b828c0162000334565b9850506020620003a98b828c01620002bc565b9750506040620003bc8b828c01620002ea565b9650506060620003cf8b828c01620002d3565b955050608089015167ffffffffffffffff811115620003f357620003f26200064c565b5b620004018b828c0162000301565b94505060a089015167ffffffffffffffff8111156200042557620004246200064c565b5b620004338b828c0162000301565b93505060c0620004468b828c0162000334565b92505060e0620004598b828c016200034b565b9150509295985092959890939650565b60006200047562000488565b90506200048382826200057f565b919050565b6000604051905090565b600067ffffffffffffffff821115620004b057620004af62000613565b5b620004bb8262000656565b9050602081019050919050565b6000620004d582620004dc565b9050919050565b600073ffffffffffffffffffffffffffffffffffffffff82169050919050565b6000819050919050565b600060ff82169050919050565b60005b838110156200053357808201518184015260208101905062000516565b8381111562000543576000848401525b50505050565b600060028204905060018216806200056257607f821691505b60208210811415620005795762000578620005e4565b5b50919050565b6200058a8262000656565b810181811067ffffffffffffffff82111715620005ac57620005ab62000613565b5b80604052505050565b7f4e487b7100000000000000000000000000000000000000000000000000000000600052602160045260246000fd5b7f4e487b7100000000000000000000000000000000000000000000000000000000600052602260045260246000fd5b7f4e487b7100000000000000000000000000000000000000000000000000000000600052604160045260246000fd5b600080fd5b600080fd5b600080fd5b600080fd5b6000601f19601f8301169050919050565b6200067281620004c8565b81146200067e57600080fd5b50565b600681106200068f57600080fd5b50565b60038110620006a057600080fd5b50565b620006ae81620004fc565b8114620006ba57600080fd5b50565b620006c88162000506565b8114620006d457600080fd5b50565b60805160a05160601c60c05160f81c60e05160f81c61010051610120516101405160601c611e006200075e600039600050506000610921015260006104a1015260006110fe015260006105710152600081816106410152818161094501528181610f1401528181611007015281816110da0152611122015260006108fd0152611e006000f3fe6080604052600436106101145760003560e01c80638e828143116100a0578063c699db5111610064578063c699db51146103a6578063ca2b7220146103cf578063dba6335f146103fa578063f950e69c14610425578063ff2e100c1461045057610114565b80638e828143146102d0578063ab32eb69146102f9578063b22c70de14610336578063bba1964f14610352578063bf9f4aab1461037d57610114565b8063554abf52116100e7578063554abf52146101e95780636680ba7d14610214578063744bfe6114610251578063779fa30f1461027a578063853a6866146102a557610114565b80631ca5872c146101195780632a57854214610144578063369268661461018157806343394df4146101ac575b600080fd5b34801561012557600080fd5b5061012e610467565b60405161013b919061174f565b60405180910390f35b34801561015057600080fd5b5061016b600480360381019061016691906113e4565b61047a565b6040516101789190611867565b60405180910390f35b34801561018d57600080fd5b5061019661049f565b6040516101a39190611867565b60405180910390f35b3480156101b857600080fd5b506101d360048036038101906101ce91906114f6565b6104c3565b6040516101e09190611785565b60405180910390f35b3480156101f557600080fd5b506101fe61056f565b60405161020b919061176a565b60405180910390f35b34801561022057600080fd5b5061023b600480360381019061023691906114f6565b610593565b6040516102489190611785565b60405180910390f35b34801561025d57600080fd5b5061027860048036038101906102739190611523565b61063f565b005b34801561028657600080fd5b5061028f6108fb565b60405161029c9190611867565b60405180910390f35b3480156102b157600080fd5b506102ba61091f565b6040516102c79190611867565b60405180910390f35b3480156102dc57600080fd5b506102f760048036038101906102f291906114f6565b610943565b005b34801561030557600080fd5b50610320600480360381019061031b91906113b7565b610a22565b60405161032d9190611867565b60405180910390f35b610350600480360381019061034b9190611523565b610a3a565b005b34801561035e57600080fd5b50610367610e84565b6040516103749190611785565b60405180910390f35b34801561038957600080fd5b506103a4600480360381019061039f919061149a565b610f12565b005b3480156103b257600080fd5b506103cd60048036038101906103c89190611451565b611005565b005b3480156103db57600080fd5b506103e46110d2565b6040516103f19190611867565b60405180910390f35b34801561040657600080fd5b5061040f6110d8565b60405161041c91906116b9565b60405180910390f35b34801561043157600080fd5b5061043a6110fc565b6040516104479190611734565b60405180910390f35b34801561045c57600080fd5b50610465611120565b005b600460009054906101000a900460ff1681565b6006602052816000526040600020602052806000526040600020600091509150505481565b7f000000000000000000000000000000000000000000000000000000000000000081565b600181815481106104d357600080fd5b9060005260206000200160009150905080546104ee90611a77565b80601f016020809104026020016040519081016040528092919081815260200182805461051a90611a77565b80156105675780601f1061053c57610100808354040283529160200191610567565b820191906000526020600020905b81548152906001019060200180831161054a57829003601f168201915b505050505081565b7f000000000000000000000000000000000000000000000000000000000000000081565b600081815481106105a357600080fd5b9060005260206000200160009150905080546105be90611a77565b80601f01602080910402602001604051908101604052809291908181526020018280546105ea90611a77565b80156106375780601f1061060c57610100808354040283529160200191610637565b820191906000526020600020905b81548152906001019060200180831161061a57829003601f168201915b505050505081565b7f000000000000000000000000000000000000000000000000000000000000000073ffffffffffffffffffffffffffffffffffffffff163373ffffffffffffffffffffffffffffffffffffffff16146106cd576040517f08c379a00000000000000000000000000000000000000000000000000000000081526004016106c4906117e7565b60405180910390fd5b60008211610710576040517f08c379a000000000000000000000000000000000000000000000000000000000815260040161070790611807565b60405180910390fd5b6000600560008373ffffffffffffffffffffffffffffffffffffffff1673ffffffffffffffffffffffffffffffffffffffff16815260200190815260200160002054905080831115610797576040517f08c379a000000000000000000000000000000000000000000000000000000000815260040161078e906117c7565b60405180910390fd5b82816107a3919061194a565b600560008473ffffffffffffffffffffffffffffffffffffffff1673ffffffffffffffffffffffffffffffffffffffff16815260200190815260200160002081905550600073ffffffffffffffffffffffffffffffffffffffff168273ffffffffffffffffffffffffffffffffffffffff161415610867573373ffffffffffffffffffffffffffffffffffffffff166108fc849081150290604051600060405180830381858888f19350505050158015610861573d6000803e3d6000fd5b506108f6565b8173ffffffffffffffffffffffffffffffffffffffff1663a9059cbb33856040518363ffffffff1660e01b81526004016108a292919061170b565b602060405180830381600087803b1580156108bc57600080fd5b505af11580156108d0573d6000803e3d6000fd5b505050506040513d601f19601f820116820180604052508101906108f49190611424565b505b505050565b7f000000000000000000000000000000000000000000000000000000000000000081565b7f000000000000000000000000000000000000000000000000000000000000000081565b7f000000000000000000000000000000000000000000000000000000000000000073ffffffffffffffffffffffffffffffffffffffff163373ffffffffffffffffffffffffffffffffffffffff16146109d1576040517f08c379a00000000000000000000000000000000000000000000000000000000081526004016109c8906117e7565b60405180910390fd5b6001805490508110610a18576040517f08c379a0000000000000000000000000000000000000000000000000000000008152600401610a0f90611847565b60405180910390fd5b8060028190555050565b60056020528060005260406000206000915090505481565b60008211610a7d576040517f08c379a0000000000000000000000000000000000000000000000000000000008152600401610a74906117a7565b60405180910390fd5b600073ffffffffffffffffffffffffffffffffffffffff168173ffffffffffffffffffffffffffffffffffffffff161415610c5957813414610abe57600080fd5b81600660003373ffffffffffffffffffffffffffffffffffffffff1673ffffffffffffffffffffffffffffffffffffffff16815260200190815260200160002060008073ffffffffffffffffffffffffffffffffffffffff1673ffffffffffffffffffffffffffffffffffffffff16815260200190815260200160002054610b4691906118f4565b600660003373ffffffffffffffffffffffffffffffffffffffff1673ffffffffffffffffffffffffffffffffffffffff16815260200190815260200160002060008073ffffffffffffffffffffffffffffffffffffffff1673ffffffffffffffffffffffffffffffffffffffff1681526020019081526020016000208190555081600560008073ffffffffffffffffffffffffffffffffffffffff1673ffffffffffffffffffffffffffffffffffffffff16815260200190815260200160002054610c1191906118f4565b600560008073ffffffffffffffffffffffffffffffffffffffff1673ffffffffffffffffffffffffffffffffffffffff16815260200190815260200160002081905550610e80565b8073ffffffffffffffffffffffffffffffffffffffff166323b872dd3330856040518463ffffffff1660e01b8152600401610c96939291906116d4565b602060405180830381600087803b158015610cb057600080fd5b505af1158015610cc4573d6000803e3d6000fd5b505050506040513d601f19601f82011682018060405250810190610ce89190611424565b5081600660003373ffffffffffffffffffffffffffffffffffffffff1673ffffffffffffffffffffffffffffffffffffffff16815260200190815260200160002060008373ffffffffffffffffffffffffffffffffffffffff1673ffffffffffffffffffffffffffffffffffffffff16815260200190815260200160002054610d7191906118f4565b600660003373ffffffffffffffffffffffffffffffffffffffff1673ffffffffffffffffffffffffffffffffffffffff16815260200190815260200160002060008373ffffffffffffffffffffffffffffffffffffffff1673ffffffffffffffffffffffffffffffffffffffff1681526020019081526020016000208190555081600560008373ffffffffffffffffffffffffffffffffffffffff1673ffffffffffffffffffffffffffffffffffffffff16815260200190815260200160002054610e3c91906118f4565b600560008373ffffffffffffffffffffffffffffffffffffffff1673ffffffffffffffffffffffffffffffffffffffff168152602001908152602001600020819055505b5050565b60038054610e9190611a77565b80601f0160208091040260200160405190810160405280929190818152602001828054610ebd90611a77565b8015610f0a5780601f10610edf57610100808354040283529160200191610f0a565b820191906000526020600020905b815481529060010190602001808311610eed57829003601f168201915b505050505081565b7f000000000000000000000000000000000000000000000000000000000000000073ffffffffffffffffffffffffffffffffffffffff163373ffffffffffffffffffffffffffffffffffffffff1614610fa0576040517f08c379a0000000000000000000000000000000000000000000000000000000008152600401610f97906117e7565b60405180910390fd5b600182908060018154018082558091505060019003906000526020600020016000909190919091509080519060200190610fdb929190611250565b506001151581151514156110015760018080549050610ffa919061194a565b6002819055505b5050565b7f000000000000000000000000000000000000000000000000000000000000000073ffffffffffffffffffffffffffffffffffffffff163373ffffffffffffffffffffffffffffffffffffffff1614611093576040517f08c379a000000000000000000000000000000000000000000000000000000000815260040161108a906117e7565b60405180910390fd5b6000819080600181540180825580915050600190039060005260206000200160009091909190915090805190602001906110ce929190611250565b5050565b60025481565b7f000000000000000000000000000000000000000000000000000000000000000081565b7f000000000000000000000000000000000000000000000000000000000000000081565b7f000000000000000000000000000000000000000000000000000000000000000073ffffffffffffffffffffffffffffffffffffffff163373ffffffffffffffffffffffffffffffffffffffff16146111ae576040517f08c379a00000000000000000000000000000000000000000000000000000000081526004016111a5906117e7565b60405180910390fd5b600060048111156111c2576111c1611b09565b5b600460009054906101000a900460ff1660048111156111e4576111e3611b09565b5b14611224576040517f08c379a000000000000000000000000000000000000000000000000000000000815260040161121b90611827565b60405180910390fd5b60048060006101000a81548160ff0219169083600481111561124957611248611b09565b5b0217905550565b82805461125c90611a77565b90600052602060002090601f01602090048101928261127e57600085556112c5565b82601f1061129757805160ff19168380011785556112c5565b828001600101855582156112c5579182015b828111156112c45782518255916020019190600101906112a9565b5b5090506112d291906112d6565b5090565b5b808211156112ef5760008160009055506001016112d7565b5090565b6000611306611301846118a7565b611882565b90508281526020810184848401111561132257611321611b9b565b5b61132d848285611a35565b509392505050565b60008135905061134481611d85565b92915050565b60008135905061135981611d9c565b92915050565b60008151905061136e81611d9c565b92915050565b600082601f83011261138957611388611b96565b5b81356113998482602086016112f3565b91505092915050565b6000813590506113b181611db3565b92915050565b6000602082840312156113cd576113cc611ba5565b5b60006113db84828501611335565b91505092915050565b600080604083850312156113fb576113fa611ba5565b5b600061140985828601611335565b925050602061141a85828601611335565b9150509250929050565b60006020828403121561143a57611439611ba5565b5b60006114488482850161135f565b91505092915050565b60006020828403121561146757611466611ba5565b5b600082013567ffffffffffffffff81111561148557611484611ba0565b5b61149184828501611374565b91505092915050565b600080604083850312156114b1576114b0611ba5565b5b600083013567ffffffffffffffff8111156114cf576114ce611ba0565b5b6114db85828601611374565b92505060206114ec8582860161134a565b9150509250929050565b60006020828403121561150c5761150b611ba5565b5b600061151a848285016113a2565b91505092915050565b6000806040838503121561153a57611539611ba5565b5b6000611548858286016113a2565b925050602061155985828601611335565b9150509250929050565b61156c8161197e565b82525050565b61157b816119ff565b82525050565b61158a81611a11565b82525050565b61159981611a23565b82525050565b60006115aa826118d8565b6115b481856118e3565b93506115c4818560208601611a44565b6115cd81611baa565b840191505092915050565b60006115e56010836118e3565b91506115f082611bbb565b602082019050919050565b6000611608602f836118e3565b915061161382611be4565b604082019050919050565b600061162b6041836118e3565b915061163682611c33565b606082019050919050565b600061164e6011836118e3565b915061165982611ca8565b602082019050919050565b60006116716025836118e3565b915061167c82611cd1565b604082019050919050565b6000611694600f836118e3565b915061169f82611d20565b602082019050919050565b6116b3816119f5565b82525050565b60006020820190506116ce6000830184611563565b92915050565b60006060820190506116e96000830186611563565b6116f66020830185611563565b61170360408301846116aa565b949350505050565b60006040820190506117206000830185611563565b61172d60208301846116aa565b9392505050565b60006020820190506117496000830184611572565b92915050565b60006020820190506117646000830184611581565b92915050565b600060208201905061177f6000830184611590565b92915050565b6000602082019050818103600083015261179f818461159f565b905092915050565b600060208201905081810360008301526117c0816115d8565b9050919050565b600060208201905081810360008301526117e0816115fb565b9050919050565b600060208201905081810360008301526118008161161e565b9050919050565b6000602082019050818103600083015261182081611641565b9050919050565b6000602082019050818103600083015261184081611664565b9050919050565b6000602082019050818103600083015261186081611687565b9050919050565b600060208201905061187c60008301846116aa565b92915050565b600061188c61189d565b90506118988282611aa9565b919050565b6000604051905090565b600067ffffffffffffffff8211156118c2576118c1611b67565b5b6118cb82611baa565b9050602081019050919050565b600081519050919050565b600082825260208201905092915050565b60006118ff826119f5565b915061190a836119f5565b9250827fffffffffffffffffffffffffffffffffffffffffffffffffffffffffffffffff0382111561193f5761193e611ada565b5b828201905092915050565b6000611955826119f5565b9150611960836119f5565b92508282101561197357611972611ada565b5b828203905092915050565b6000611989826119d5565b9050919050565b60008115159050919050565b60008190506119aa82611d49565b919050565b60008190506119bd82611d5d565b919050565b60008190506119d082611d71565b919050565b600073ffffffffffffffffffffffffffffffffffffffff82169050919050565b6000819050919050565b6000611a0a8261199c565b9050919050565b6000611a1c826119af565b9050919050565b6000611a2e826119c2565b9050919050565b82818337600083830152505050565b60005b83811015611a62578082015181840152602081019050611a47565b83811115611a71576000848401525b50505050565b60006002820490506001821680611a8f57607f821691505b60208210811415611aa357611aa2611b38565b5b50919050565b611ab282611baa565b810181811067ffffffffffffffff82111715611ad157611ad0611b67565b5b80604052505050565b7f4e487b7100000000000000000000000000000000000000000000000000000000600052601160045260246000fd5b7f4e487b7100000000000000000000000000000000000000000000000000000000600052602160045260246000fd5b7f4e487b7100000000000000000000000000000000000000000000000000000000600052602260045260246000fd5b7f4e487b7100000000000000000000000000000000000000000000000000000000600052604160045260246000fd5b600080fd5b600080fd5b600080fd5b600080fd5b6000601f19601f8301169050919050565b7f43616e6e6f74206465706f736974203000000000000000000000000000000000600082015250565b7f536f7272792c2063616e2774207769746864726177206d6f7265207468616e2060008201527f746f74616c20646f6e6174696f6e730000000000000000000000000000000000602082015250565b7f596f75206d75737420626520746865206f776e6572206f66207468652066756e60008201527f6472616973657220746f20706572666f726d2074686973206f7065726174696f60208201527f6e00000000000000000000000000000000000000000000000000000000000000604082015250565b7f43616e6e6f742077697468647261772030000000000000000000000000000000600082015250565b7f596f752063616e206f6e6c7920636c6f7365206163746976652066756e64726160008201527f6973657273000000000000000000000000000000000000000000000000000000602082015250565b7f496d616765206e6f7420666f756e640000000000000000000000000000000000600082015250565b60068110611d5a57611d59611b09565b5b50565b60058110611d6e57611d6d611b09565b5b50565b60038110611d8257611d81611b09565b5b50565b611d8e8161197e565b8114611d9957600080fd5b50565b611da581611990565b8114611db057600080fd5b50565b611dbc816119f5565b8114611dc757600080fd5b5056fea26469706673582212209735178e3c9eaf63210d2c4c3c3dbee54f8bd2115fc08656e02e686d682f2c9b64736f6c63430008070033",
  "linkReferences": {},
  "deployedLinkReferences": {}
}