{
  "_format": "hh-sol-artifact-1",
  "contractName": "DeFund",
  "sourceName": "contracts/DeFund.sol",
  "abi": [
    {
      "inputs": [
        {
          "internalType": "uint256",
          "name": "_id",
          "type": "uint256"
        },
        {
          "internalType": "address",
          "name": "_owner",
          "type": "address"
        },
        {
          "internalType": "enum DeFundModel.FundraiserType",
          "name": "_type",
          "type": "uint8"
        },
        {
          "internalType": "enum DeFundModel.FundraiserCategory",
          "name": "_category",
          "type": "uint8"
        },
        {
          "internalType": "string",
          "name": "_name",
          "type": "string"
        },
        {
          "internalType": "string",
          "name": "_initialDescription",
          "type": "string"
        },
        {
          "internalType": "uint256",
          "name": "_endDate",
          "type": "uint256"
        },
        {
          "internalType": "uint256",
          "name": "_goalAmount",
          "type": "uint256"
        }
      ],
      "stateMutability": "nonpayable",
      "type": "constructor"
    },
    {
      "inputs": [],
      "name": "DeFund__not_implemented",
      "type": "error"
    },
    {
      "inputs": [
        {
          "internalType": "string",
          "name": "_picture",
          "type": "string"
        },
        {
          "internalType": "bool",
          "name": "makeDefault",
          "type": "bool"
        }
      ],
      "name": "addImage",
      "outputs": [],
      "stateMutability": "nonpayable",
      "type": "function"
    },
    {
      "inputs": [],
      "name": "closeAndRevertDonations",
      "outputs": [],
      "stateMutability": "nonpayable",
      "type": "function"
    },
    {
      "inputs": [],
      "name": "getAllDetails",
      "outputs": [
        {
          "internalType": "uint256",
          "name": "id",
          "type": "uint256"
        },
        {
          "internalType": "address",
          "name": "owner",
          "type": "address"
        },
        {
          "internalType": "enum DeFundModel.FundraiserType",
          "name": "fType",
          "type": "uint8"
        },
        {
          "internalType": "enum DeFundModel.FundraiserCategory",
          "name": "category",
          "type": "uint8"
        },
        {
          "internalType": "uint256",
          "name": "endDate",
          "type": "uint256"
        },
        {
          "internalType": "uint256",
          "name": "goalAmount",
          "type": "uint256"
        },
        {
          "internalType": "string[]",
          "name": "descriptions",
          "type": "string[]"
        },
        {
          "internalType": "string[]",
          "name": "images",
          "type": "string[]"
        },
        {
          "internalType": "uint256",
          "name": "defaultImage",
          "type": "uint256"
        },
        {
          "internalType": "string",
          "name": "name",
          "type": "string"
        },
        {
          "internalType": "enum DeFundModel.FundraiserStatus",
          "name": "status",
          "type": "uint8"
        },
        {
          "internalType": "uint256",
          "name": "balances",
          "type": "uint256"
        }
      ],
      "stateMutability": "view",
      "type": "function"
    },
    {
      "inputs": [],
      "name": "i_category",
      "outputs": [
        {
          "internalType": "enum DeFundModel.FundraiserCategory",
          "name": "",
          "type": "uint8"
        }
      ],
      "stateMutability": "view",
      "type": "function"
    },
    {
      "inputs": [],
      "name": "i_endDate",
      "outputs": [
        {
          "internalType": "uint256",
          "name": "",
          "type": "uint256"
        }
      ],
      "stateMutability": "view",
      "type": "function"
    },
    {
      "inputs": [],
      "name": "i_goalAmount",
      "outputs": [
        {
          "internalType": "uint256",
          "name": "",
          "type": "uint256"
        }
      ],
      "stateMutability": "view",
      "type": "function"
    },
    {
      "inputs": [],
      "name": "i_id",
      "outputs": [
        {
          "internalType": "uint256",
          "name": "",
          "type": "uint256"
        }
      ],
      "stateMutability": "view",
      "type": "function"
    },
    {
      "inputs": [],
      "name": "i_owner",
      "outputs": [
        {
          "internalType": "address",
          "name": "",
          "type": "address"
        }
      ],
      "stateMutability": "view",
      "type": "function"
    },
    {
      "inputs": [],
      "name": "i_type",
      "outputs": [
        {
          "internalType": "enum DeFundModel.FundraiserType",
          "name": "",
          "type": "uint8"
        }
      ],
      "stateMutability": "view",
      "type": "function"
    },
    {
      "inputs": [
        {
          "internalType": "address",
          "name": "_donorAddress",
          "type": "address"
        },
        {
          "internalType": "uint256",
          "name": "_amount",
          "type": "uint256"
        },
        {
          "internalType": "address",
          "name": "_tokenAddress",
          "type": "address"
        }
      ],
      "name": "makeDonation",
      "outputs": [
        {
          "internalType": "bool",
          "name": "",
          "type": "bool"
        }
      ],
      "stateMutability": "payable",
      "type": "function"
    },
    {
      "inputs": [
        {
          "internalType": "address",
          "name": "",
          "type": "address"
        }
      ],
      "name": "s_balances",
      "outputs": [
        {
          "internalType": "uint256",
          "name": "",
          "type": "uint256"
        }
      ],
      "stateMutability": "view",
      "type": "function"
    },
    {
      "inputs": [],
      "name": "s_defaultImage",
      "outputs": [
        {
          "internalType": "uint256",
          "name": "",
          "type": "uint256"
        }
      ],
      "stateMutability": "view",
      "type": "function"
    },
    {
      "inputs": [
        {
          "internalType": "uint256",
          "name": "",
          "type": "uint256"
        }
      ],
      "name": "s_descriptions",
      "outputs": [
        {
          "internalType": "string",
          "name": "",
          "type": "string"
        }
      ],
      "stateMutability": "view",
      "type": "function"
    },
    {
      "inputs": [
        {
          "internalType": "address",
          "name": "",
          "type": "address"
        },
        {
          "internalType": "address",
          "name": "",
          "type": "address"
        }
      ],
      "name": "s_donors",
      "outputs": [
        {
          "internalType": "uint256",
          "name": "",
          "type": "uint256"
        }
      ],
      "stateMutability": "view",
      "type": "function"
    },
    {
      "inputs": [
        {
          "internalType": "uint256",
          "name": "",
          "type": "uint256"
        }
      ],
      "name": "s_images",
      "outputs": [
        {
          "internalType": "string",
          "name": "",
          "type": "string"
        }
      ],
      "stateMutability": "view",
      "type": "function"
    },
    {
      "inputs": [],
      "name": "s_name",
      "outputs": [
        {
          "internalType": "string",
          "name": "",
          "type": "string"
        }
      ],
      "stateMutability": "view",
      "type": "function"
    },
    {
      "inputs": [],
      "name": "s_status",
      "outputs": [
        {
          "internalType": "enum DeFundModel.FundraiserStatus",
          "name": "",
          "type": "uint8"
        }
      ],
      "stateMutability": "view",
      "type": "function"
    },
    {
      "inputs": [
        {
          "internalType": "uint256",
          "name": "_pictureIdx",
          "type": "uint256"
        }
      ],
      "name": "setDefaultPicture",
      "outputs": [],
      "stateMutability": "nonpayable",
      "type": "function"
    },
    {
      "inputs": [
        {
          "internalType": "string",
          "name": "_description",
          "type": "string"
        }
      ],
      "name": "setDefaultPicture",
      "outputs": [],
      "stateMutability": "nonpayable",
      "type": "function"
    },
    {
      "inputs": [
        {
          "internalType": "uint256",
          "name": "_amount",
          "type": "uint256"
        },
        {
          "internalType": "address",
          "name": "_tokenAddress",
          "type": "address"
        }
      ],
      "name": "withdrawFunds",
      "outputs": [],
      "stateMutability": "nonpayable",
      "type": "function"
    }
  ],
  "bytecode": "0x6101606040523480156200001257600080fd5b5060405162001c0f38038062001c0f8339810160408190526200003591620002b5565b60808890526001600160601b0319606088901b1660a052856002811115620000615762000061620003bf565b60c0816002811115620000785762000078620003bf565b60f81b905250846005811115620000935762000093620003bf565b60e0816005811115620000aa57620000aa620003bf565b60f81b9052508351620000c590600390602087019062000133565b5060008054600181018255908052835162000108917f290decd9548b62a8d60345a988386fc84ba6bc95484008f6362f93160ef3e5630190602086019062000133565b503360601b61014052610100919091526101205250506004805460ff1916905550620003eb92505050565b828054620001419062000382565b90600052602060002090601f016020900481019282620001655760008555620001b0565b82601f106200018057805160ff1916838001178555620001b0565b82800160010185558215620001b0579182015b82811115620001b057825182559160200191906001019062000193565b50620001be929150620001c2565b5090565b5b80821115620001be5760008155600101620001c3565b805160068110620001e957600080fd5b919050565b805160038110620001e957600080fd5b600082601f8301126200021057600080fd5b81516001600160401b03808211156200022d576200022d620003d5565b604051601f8301601f19908116603f01168101908282118183101715620002585762000258620003d5565b816040528381526020925086838588010111156200027557600080fd5b600091505b838210156200029957858201830151818301840152908201906200027a565b83821115620002ab5760008385830101525b9695505050505050565b600080600080600080600080610100898b031215620002d357600080fd5b885160208a01519098506001600160a01b0381168114620002f357600080fd5b96506200030360408a01620001ee565b95506200031360608a01620001d9565b60808a01519095506001600160401b03808211156200033157600080fd5b6200033f8c838d01620001fe565b955060a08b01519150808211156200035657600080fd5b50620003658b828c01620001fe565b60c08b015160e0909b0151999c989b509699959894979350505050565b600181811c908216806200039757607f821691505b60208210811415620003b957634e487b7160e01b600052602260045260246000fd5b50919050565b634e487b7160e01b600052602160045260246000fd5b634e487b7160e01b600052604160045260246000fd5b60805160a05160601c60c05160f81c60e05160f81c61010051610120516101405160601c611762620004ad6000396000610f1b0152600081816102b701528181610b6e01528181610ef00152610fcd01526000818161017c0152610b4d01526000818161041c0152610b2c0152600081816101dd0152610b0b0152600081816103d001528181610527015281816108ee0152818161098b01528181610a3701528181610aea0152610e2f0152600081816102830152610ac901526117626000f3fe6080604052600436106100ef5760003560e01c80631ca5872c146100f45780632a57854214610124578063369268661461016a57806343394df41461019e578063554abf52146101cb5780636680ba7d1461020c578063744bfe611461022c57806374e781b31461024e578063779fa30f14610271578063853a6866146102a55780638e828143146102d9578063ab32eb69146102f9578063bba1964f14610326578063bf9f4aab1461033b578063c699db511461035b578063ca2b72201461037b578063ccc5d7d414610391578063dba6335f146103be578063f950e69c1461040a578063ff2e100c1461044b575b600080fd5b34801561010057600080fd5b5060045461010e9060ff1681565b60405161011b91906114ac565b60405180910390f35b34801561013057600080fd5b5061015c61013f366004611220565b600660209081526000928352604080842090915290825290205481565b60405190815260200161011b565b34801561017657600080fd5b5061015c7f000000000000000000000000000000000000000000000000000000000000000081565b3480156101aa57600080fd5b506101be6101b9366004611337565b610460565b60405161011b91906114c8565b3480156101d757600080fd5b506101ff7f000000000000000000000000000000000000000000000000000000000000000081565b60405161011b91906114ba565b34801561021857600080fd5b506101be610227366004611337565b61050c565b34801561023857600080fd5b5061024c610247366004611350565b61051c565b005b61026161025c366004611259565b610774565b604051901515815260200161011b565b34801561027d57600080fd5b5061015c7f000000000000000000000000000000000000000000000000000000000000000081565b3480156102b157600080fd5b5061015c7f000000000000000000000000000000000000000000000000000000000000000081565b3480156102e557600080fd5b5061024c6102f4366004611337565b6108e3565b34801561030557600080fd5b5061015c6103143660046111fc565b60056020526000908152604090205481565b34801561033257600080fd5b506101be610973565b34801561034757600080fd5b5061024c6103563660046112ec565b610980565b34801561036757600080fd5b5061024c6103763660046112b8565b610a2c565b34801561038757600080fd5b5061015c60025481565b34801561039d57600080fd5b506103a6610ab4565b60405161011b9c9b9a99989796959493929190611542565b3480156103ca57600080fd5b506103f27f000000000000000000000000000000000000000000000000000000000000000081565b6040516001600160a01b03909116815260200161011b565b34801561041657600080fd5b5061043e7f000000000000000000000000000000000000000000000000000000000000000081565b60405161011b919061149e565b34801561045757600080fd5b5061024c610e24565b6001818154811061047057600080fd5b90600052602060002001600091509050805461048b9061165a565b80601f01602080910402602001604051908101604052809291908181526020018280546104b79061165a565b80156105045780601f106104d957610100808354040283529160200191610504565b820191906000526020600020905b8154815290600101906020018083116104e757829003601f168201915b505050505081565b6000818154811061047057600080fd5b336001600160a01b037f0000000000000000000000000000000000000000000000000000000000000000161461056d5760405162461bcd60e51b8152600401610564906114db565b60405180910390fd5b600082116105b15760405162461bcd60e51b8152602060048201526011602482015270043616e6e6f74207769746864726177203607c1b6044820152606401610564565b60006004805460ff16908111156105ca576105ca6116ab565b141561061f5760405162461bcd60e51b815260206004820152603060248201526000805160206116ed83398151915260448201526f7220746861742069732061637469766560801b6064820152608401610564565b6001600160a01b038116600090815260056020526040902054808311156106a05760405162461bcd60e51b815260206004820152602f60248201527f536f7272792c2063616e2774207769746864726177206d6f7265207468616e2060448201526e746f74616c20646f6e6174696f6e7360881b6064820152608401610564565b6106aa8382611643565b6001600160a01b03831660008181526005602052604090209190915561075b57604051600090339085908381818185875af1925050503d806000811461070c576040519150601f19603f3d011682016040523d82523d6000602084013e610711565b606091505b50509050806107555760405162461bcd60e51b815260206004820152601060248201526f2a3930b739b332b9103330b4b632b21760811b6044820152606401610564565b50505050565b604051630cdeca0960e01b815260040160405180910390fd5b6000806004805460ff169081111561078e5761078e6116ab565b146107e65760405162461bcd60e51b815260206004820152603460248201526000805160206116ed833981519152604482015273722074686174206973206e6f742061637469766560601b6064820152608401610564565b600083116108295760405162461bcd60e51b815260206004820152601060248201526f043616e6e6f74206465706f73697420360841b6044820152606401610564565b6001600160a01b03821661075b5782341461084357600080fd5b6001600160a01b03841660009081526006602090815260408083208380529091529020546108729084906115ea565b6001600160a01b03851660009081526006602090815260408083208380528252909120919091556005905260008051602061170d833981519152546108b89084906115ea565b60008052600560205260008051602061170d833981519152556108d9610eee565b5060019392505050565b336001600160a01b037f0000000000000000000000000000000000000000000000000000000000000000161461092b5760405162461bcd60e51b8152600401610564906114db565b600154811061096e5760405162461bcd60e51b815260206004820152600f60248201526e125b5859d9481b9bdd08199bdd5b99608a1b6044820152606401610564565b600255565b6003805461048b9061165a565b336001600160a01b037f000000000000000000000000000000000000000000000000000000000000000016146109c85760405162461bcd60e51b8152600401610564906114db565b6001805480820182556000919091528251610a0a917fb10e2d527612073b26eecdfd717e6a320cf44b4afac2b0732d9fcbe2b7fa0cf6019060208501906110bb565b5060018115151415610a285760018054610a249190611643565b6002555b5050565b336001600160a01b037f00000000000000000000000000000000000000000000000000000000000000001614610a745760405162461bcd60e51b8152600401610564906114db565b600080546001810182559080528151610a28917f290decd9548b62a8d60345a988386fc84ba6bc95484008f6362f93160ef3e563019060208401906110bb565b600080600080600080606080600060606000807f00000000000000000000000000000000000000000000000000000000000000007f00000000000000000000000000000000000000000000000000000000000000007f00000000000000000000000000000000000000000000000000000000000000007f00000000000000000000000000000000000000000000000000000000000000007f00000000000000000000000000000000000000000000000000000000000000007f0000000000000000000000000000000000000000000000000000000000000000600060016002546003600460009054906101000a900460ff1660056000806001600160a01b03166001600160a01b031681526020019081526020016000205485805480602002602001604051908101604052809291908181526020016000905b82821015610c99578382906000526020600020018054610c0c9061165a565b80601f0160208091040260200160405190810160405280929190818152602001828054610c389061165a565b8015610c855780601f10610c5a57610100808354040283529160200191610c85565b820191906000526020600020905b815481529060010190602001808311610c6857829003601f168201915b505050505081526020019060010190610bed565b50505050955084805480602002602001604051908101604052809291908181526020016000905b82821015610d6c578382906000526020600020018054610cdf9061165a565b80601f0160208091040260200160405190810160405280929190818152602001828054610d0b9061165a565b8015610d585780601f10610d2d57610100808354040283529160200191610d58565b820191906000526020600020905b815481529060010190602001808311610d3b57829003601f168201915b505050505081526020019060010190610cc0565b505050509450828054610d7e9061165a565b80601f0160208091040260200160405190810160405280929190818152602001828054610daa9061165a565b8015610df75780601f10610dcc57610100808354040283529160200191610df7565b820191906000526020600020905b815481529060010190602001808311610dda57829003601f168201915b505050505092509b509b509b509b509b509b509b509b509b509b509b509b50909192939495969798999a9b565b336001600160a01b037f00000000000000000000000000000000000000000000000000000000000000001614610e6c5760405162461bcd60e51b8152600401610564906114db565b60006004805460ff1690811115610e8557610e856116ab565b14610ee05760405162461bcd60e51b815260206004820152602560248201527f596f752063616e206f6e6c7920636c6f7365206163746976652066756e647261604482015264697365727360d81b6064820152608401610564565b6004805460ff191681179055565b7f000000000000000000000000000000000000000000000000000000000000000015611002576000610fc97f00000000000000000000000000000000000000000000000000000000000000006001600160a01b0316630ec3b0276040518163ffffffff1660e01b815260040160206040518083038186803b158015610f7257600080fd5b505afa158015610f86573d6000803e3d6000fd5b505050506040513d601f19601f82011682018060405250810190610faa919061129b565b60008052600560205260008051602061170d8339815191525490611004565b90507f00000000000000000000000000000000000000000000000000000000000000008110611000576004805460ff191660011790555b505b565b6000806110108361103b565b905069d3c21bcecceda10000006110278583611624565b6110319190611602565b9150505b92915050565b600080826001600160a01b031663feaf968c6040518163ffffffff1660e01b815260040160a06040518083038186803b15801561107757600080fd5b505afa15801561108b573d6000803e3d6000fd5b505050506040513d601f19601f820116820180604052508101906110af9190611375565b50919695505050505050565b8280546110c79061165a565b90600052602060002090601f0160209004810192826110e9576000855561112f565b82601f1061110257805160ff191683800117855561112f565b8280016001018555821561112f579182015b8281111561112f578251825591602001919060010190611114565b5061113b92915061113f565b5090565b5b8082111561113b5760008155600101611140565b600082601f83011261116557600080fd5b81356001600160401b038082111561117f5761117f6116c1565b604051601f8301601f19908116603f011681019082821181831017156111a7576111a76116c1565b816040528381528660208588010111156111c057600080fd5b836020870160208301376000602085830101528094505050505092915050565b80516001600160501b03811681146111f757600080fd5b919050565b60006020828403121561120e57600080fd5b8135611219816116d7565b9392505050565b6000806040838503121561123357600080fd5b823561123e816116d7565b9150602083013561124e816116d7565b809150509250929050565b60008060006060848603121561126e57600080fd5b8335611279816116d7565b9250602084013591506040840135611290816116d7565b809150509250925092565b6000602082840312156112ad57600080fd5b8151611219816116d7565b6000602082840312156112ca57600080fd5b81356001600160401b038111156112e057600080fd5b61103184828501611154565b600080604083850312156112ff57600080fd5b82356001600160401b0381111561131557600080fd5b61132185828601611154565b9250506020830135801515811461124e57600080fd5b60006020828403121561134957600080fd5b5035919050565b6000806040838503121561136357600080fd5b82359150602083013561124e816116d7565b600080600080600060a0868803121561138d57600080fd5b611396866111e0565b94506020860151935060408601519250606086015191506113b9608087016111e0565b90509295509295909350565b600082825180855260208086019550808260051b84010181860160005b8481101561141057601f198684030189526113fe838351611451565b988401989250908301906001016113e2565b5090979650505050505050565b6006811061142d5761142d6116ab565b9052565b6005811061142d5761142d6116ab565b6003811061142d5761142d6116ab565b6000815180845260005b818110156114775760208185018101518683018201520161145b565b81811115611489576000602083870101525b50601f01601f19169290920160200192915050565b60208101611035828461141d565b602081016110358284611431565b602081016110358284611441565b6020815260006112196020830184611451565b60208082526041908201527f596f75206d75737420626520746865206f776e6572206f66207468652066756e60408201527f6472616973657220746f20706572666f726d2074686973206f7065726174696f6060820152603760f91b608082015260a00190565b8c81526001600160a01b038c1660208201526000610180611566604084018e611441565b611573606084018d61141d565b8a60808401528960a08401528060c08401526115918184018a6113c5565b905082810360e08401526115a581896113c5565b9050866101008401528281036101208401526115c18187611451565b9150506115d2610140830185611431565b826101608301529d9c50505050505050505050505050565b600082198211156115fd576115fd611695565b500190565b60008261161f57634e487b7160e01b600052601260045260246000fd5b500490565b600081600019048311821515161561163e5761163e611695565b500290565b60008282101561165557611655611695565b500390565b600181811c9082168061166e57607f821691505b6020821081141561168f57634e487b7160e01b600052602260045260246000fd5b50919050565b634e487b7160e01b600052601160045260246000fd5b634e487b7160e01b600052602160045260246000fd5b634e487b7160e01b600052604160045260246000fd5b6001600160a01b038116811461100057600080fdfe596f752063616e6e6f7420646f6e61746520746f20612066756e64726169736505b8ccbb9d4d8fb16ea74ce3c29a41f1b461fbdaff4714a0d9a8eb05499746bca2646970667358221220921212ace5dc2e8afecf73d0d18214ad511adc13b71be472703ef6561a0f1df564736f6c63430008070033",
  "linkReferences": {},
  "deployedLinkReferences": {}
}