{
  "_format": "hh-sol-artifact-1",
  "contractName": "DeFund",
  "sourceName": "contracts/DeFund.sol",
  "abi": [
    {
      "inputs": [
        {
          "internalType": "uint256",
          "name": "_id",
          "type": "uint256"
        },
        {
          "internalType": "address",
          "name": "_owner",
          "type": "address"
        },
        {
          "internalType": "enum DeFundModel.FundraiserType",
          "name": "_type",
          "type": "uint8"
        },
        {
          "internalType": "enum DeFundModel.FundraiserCategory",
          "name": "_category",
          "type": "uint8"
        },
        {
          "internalType": "string",
          "name": "_name",
          "type": "string"
        },
        {
          "internalType": "string",
          "name": "_initialDescription",
          "type": "string"
        },
        {
          "internalType": "uint256",
          "name": "_endDate",
          "type": "uint256"
        },
        {
          "internalType": "uint256",
          "name": "_goalAmount",
          "type": "uint256"
        }
      ],
      "stateMutability": "nonpayable",
      "type": "constructor"
    },
    {
      "inputs": [],
      "name": "DeFund__after_endDate",
      "type": "error"
    },
    {
      "inputs": [],
      "name": "DeFund__not_implemented",
      "type": "error"
    },
    {
      "inputs": [
        {
          "internalType": "string",
          "name": "_picture",
          "type": "string"
        },
        {
          "internalType": "bool",
          "name": "makeDefault",
          "type": "bool"
        }
      ],
      "name": "addImage",
      "outputs": [],
      "stateMutability": "nonpayable",
      "type": "function"
    },
    {
      "inputs": [],
      "name": "closeAndRevertDonations",
      "outputs": [],
      "stateMutability": "nonpayable",
      "type": "function"
    },
    {
      "inputs": [],
      "name": "getAllDetails",
      "outputs": [
        {
          "internalType": "uint256",
          "name": "id",
          "type": "uint256"
        },
        {
          "internalType": "address",
          "name": "owner",
          "type": "address"
        },
        {
          "internalType": "enum DeFundModel.FundraiserType",
          "name": "fType",
          "type": "uint8"
        },
        {
          "internalType": "enum DeFundModel.FundraiserCategory",
          "name": "category",
          "type": "uint8"
        },
        {
          "internalType": "uint256",
          "name": "endDate",
          "type": "uint256"
        },
        {
          "internalType": "uint256",
          "name": "goalAmount",
          "type": "uint256"
        },
        {
          "internalType": "string[]",
          "name": "descriptions",
          "type": "string[]"
        },
        {
          "internalType": "string[]",
          "name": "images",
          "type": "string[]"
        },
        {
          "internalType": "uint256",
          "name": "defaultImage",
          "type": "uint256"
        },
        {
          "internalType": "string",
          "name": "name",
          "type": "string"
        },
        {
          "internalType": "enum DeFundModel.FundraiserStatus",
          "name": "status",
          "type": "uint8"
        },
        {
          "internalType": "uint256",
          "name": "balances",
          "type": "uint256"
        }
      ],
      "stateMutability": "view",
      "type": "function"
    },
    {
      "inputs": [],
      "name": "getDescriptionsCount",
      "outputs": [
        {
          "internalType": "uint256",
          "name": "",
          "type": "uint256"
        }
      ],
      "stateMutability": "view",
      "type": "function"
    },
    {
      "inputs": [],
      "name": "getImagesCount",
      "outputs": [
        {
          "internalType": "uint256",
          "name": "",
          "type": "uint256"
        }
      ],
      "stateMutability": "view",
      "type": "function"
    },
    {
      "inputs": [],
      "name": "i_category",
      "outputs": [
        {
          "internalType": "enum DeFundModel.FundraiserCategory",
          "name": "",
          "type": "uint8"
        }
      ],
      "stateMutability": "view",
      "type": "function"
    },
    {
      "inputs": [],
      "name": "i_endDate",
      "outputs": [
        {
          "internalType": "uint256",
          "name": "",
          "type": "uint256"
        }
      ],
      "stateMutability": "view",
      "type": "function"
    },
    {
      "inputs": [],
      "name": "i_goalAmount",
      "outputs": [
        {
          "internalType": "uint256",
          "name": "",
          "type": "uint256"
        }
      ],
      "stateMutability": "view",
      "type": "function"
    },
    {
      "inputs": [],
      "name": "i_id",
      "outputs": [
        {
          "internalType": "uint256",
          "name": "",
          "type": "uint256"
        }
      ],
      "stateMutability": "view",
      "type": "function"
    },
    {
      "inputs": [],
      "name": "i_owner",
      "outputs": [
        {
          "internalType": "address",
          "name": "",
          "type": "address"
        }
      ],
      "stateMutability": "view",
      "type": "function"
    },
    {
      "inputs": [],
      "name": "i_type",
      "outputs": [
        {
          "internalType": "enum DeFundModel.FundraiserType",
          "name": "",
          "type": "uint8"
        }
      ],
      "stateMutability": "view",
      "type": "function"
    },
    {
      "inputs": [
        {
          "internalType": "address",
          "name": "_donorAddress",
          "type": "address"
        },
        {
          "internalType": "uint256",
          "name": "_amount",
          "type": "uint256"
        },
        {
          "internalType": "address",
          "name": "_tokenAddress",
          "type": "address"
        }
      ],
      "name": "makeDonation",
      "outputs": [
        {
          "internalType": "bool",
          "name": "",
          "type": "bool"
        }
      ],
      "stateMutability": "payable",
      "type": "function"
    },
    {
      "inputs": [
        {
          "internalType": "address",
          "name": "",
          "type": "address"
        }
      ],
      "name": "s_balances",
      "outputs": [
        {
          "internalType": "uint256",
          "name": "",
          "type": "uint256"
        }
      ],
      "stateMutability": "view",
      "type": "function"
    },
    {
      "inputs": [],
      "name": "s_defaultImage",
      "outputs": [
        {
          "internalType": "uint256",
          "name": "",
          "type": "uint256"
        }
      ],
      "stateMutability": "view",
      "type": "function"
    },
    {
      "inputs": [
        {
          "internalType": "uint256",
          "name": "",
          "type": "uint256"
        }
      ],
      "name": "s_descriptions",
      "outputs": [
        {
          "internalType": "string",
          "name": "",
          "type": "string"
        }
      ],
      "stateMutability": "view",
      "type": "function"
    },
    {
      "inputs": [
        {
          "internalType": "address",
          "name": "",
          "type": "address"
        },
        {
          "internalType": "address",
          "name": "",
          "type": "address"
        }
      ],
      "name": "s_donors",
      "outputs": [
        {
          "internalType": "uint256",
          "name": "",
          "type": "uint256"
        }
      ],
      "stateMutability": "view",
      "type": "function"
    },
    {
      "inputs": [
        {
          "internalType": "uint256",
          "name": "",
          "type": "uint256"
        }
      ],
      "name": "s_images",
      "outputs": [
        {
          "internalType": "string",
          "name": "",
          "type": "string"
        }
      ],
      "stateMutability": "view",
      "type": "function"
    },
    {
      "inputs": [],
      "name": "s_name",
      "outputs": [
        {
          "internalType": "string",
          "name": "",
          "type": "string"
        }
      ],
      "stateMutability": "view",
      "type": "function"
    },
    {
      "inputs": [],
      "name": "s_status",
      "outputs": [
        {
          "internalType": "enum DeFundModel.FundraiserStatus",
          "name": "",
          "type": "uint8"
        }
      ],
      "stateMutability": "view",
      "type": "function"
    },
    {
      "inputs": [
        {
          "internalType": "uint256",
          "name": "_pictureIdx",
          "type": "uint256"
        }
      ],
      "name": "setDefaultPicture",
      "outputs": [],
      "stateMutability": "nonpayable",
      "type": "function"
    },
    {
      "inputs": [
        {
          "internalType": "string",
          "name": "_description",
          "type": "string"
        }
      ],
      "name": "setDefaultPicture",
      "outputs": [],
      "stateMutability": "nonpayable",
      "type": "function"
    },
    {
      "inputs": [
        {
          "internalType": "uint256",
          "name": "_amount",
          "type": "uint256"
        },
        {
          "internalType": "address",
          "name": "_tokenAddress",
          "type": "address"
        }
      ],
      "name": "withdrawFunds",
      "outputs": [],
      "stateMutability": "nonpayable",
      "type": "function"
    }
  ],
  "bytecode": "0x6101606040523480156200001257600080fd5b5060405162001c4e38038062001c4e8339810160408190526200003591620002b5565b60808890526001600160601b0319606088901b1660a052856002811115620000615762000061620003bf565b60c0816002811115620000785762000078620003bf565b60f81b905250846005811115620000935762000093620003bf565b60e0816005811115620000aa57620000aa620003bf565b60f81b9052508351620000c590600390602087019062000133565b5060008054600181018255908052835162000108917f290decd9548b62a8d60345a988386fc84ba6bc95484008f6362f93160ef3e5630190602086019062000133565b503360601b61014052610100919091526101205250506004805460ff1916905550620003eb92505050565b828054620001419062000382565b90600052602060002090601f016020900481019282620001655760008555620001b0565b82601f106200018057805160ff1916838001178555620001b0565b82800160010185558215620001b0579182015b82811115620001b057825182559160200191906001019062000193565b50620001be929150620001c2565b5090565b5b80821115620001be5760008155600101620001c3565b805160068110620001e957600080fd5b919050565b805160038110620001e957600080fd5b600082601f8301126200021057600080fd5b81516001600160401b03808211156200022d576200022d620003d5565b604051601f8301601f19908116603f01168101908282118183101715620002585762000258620003d5565b816040528381526020925086838588010111156200027557600080fd5b600091505b838210156200029957858201830151818301840152908201906200027a565b83821115620002ab5760008385830101525b9695505050505050565b600080600080600080600080610100898b031215620002d357600080fd5b885160208a01519098506001600160a01b0381168114620002f357600080fd5b96506200030360408a01620001ee565b95506200031360608a01620001d9565b60808a01519095506001600160401b03808211156200033157600080fd5b6200033f8c838d01620001fe565b955060a08b01519150808211156200035657600080fd5b50620003658b828c01620001fe565b60c08b015160e0909b0151999c989b509699959894979350505050565b600181811c908216806200039757607f821691505b60208210811415620003b957634e487b7160e01b600052602260045260246000fd5b50919050565b634e487b7160e01b600052602160045260246000fd5b634e487b7160e01b600052604160045260246000fd5b60805160a05160601c60c05160f81c60e05160f81c61010051610120516101405160601c611793620004bb6000396000610f6c0152600081816102e201528181610bbf01528181610f41015261101e015260008181610192015281816108110152818161083a0152610b9e01526000818161045c0152610b7d0152600081816102080152610b5c015260008181610410015281816105670152818161093f015281816109dc01528181610a8801528181610b3b0152610e800152600081816102ae0152610b1a01526117936000f3fe6080604052600436106101055760003560e01c80631ca5872c1461010a5780632a5785421461013a578063369268661461018057806343394df4146101b457806352ddf862146101e1578063554abf52146101f65780636680ba7d14610237578063744bfe611461025757806374e781b314610279578063779fa30f1461029c578063853a6866146102d05780638742993d146103045780638e82814314610319578063ab32eb6914610339578063bba1964f14610366578063bf9f4aab1461037b578063c699db511461039b578063ca2b7220146103bb578063ccc5d7d4146103d1578063dba6335f146103fe578063f950e69c1461044a578063ff2e100c1461048b575b600080fd5b34801561011657600080fd5b506004546101249060ff1681565b60405161013191906114fd565b60405180910390f35b34801561014657600080fd5b50610172610155366004611271565b600660209081526000928352604080842090915290825290205481565b604051908152602001610131565b34801561018c57600080fd5b506101727f000000000000000000000000000000000000000000000000000000000000000081565b3480156101c057600080fd5b506101d46101cf366004611388565b6104a0565b6040516101319190611519565b3480156101ed57600080fd5b50600054610172565b34801561020257600080fd5b5061022a7f000000000000000000000000000000000000000000000000000000000000000081565b604051610131919061150b565b34801561024357600080fd5b506101d4610252366004611388565b61054c565b34801561026357600080fd5b506102776102723660046113a1565b61055c565b005b61028c6102873660046112aa565b610746565b6040519015158152602001610131565b3480156102a857600080fd5b506101727f000000000000000000000000000000000000000000000000000000000000000081565b3480156102dc57600080fd5b506101727f000000000000000000000000000000000000000000000000000000000000000081565b34801561031057600080fd5b50600154610172565b34801561032557600080fd5b50610277610334366004611388565b610934565b34801561034557600080fd5b5061017261035436600461124d565b60056020526000908152604090205481565b34801561037257600080fd5b506101d46109c4565b34801561038757600080fd5b5061027761039636600461133d565b6109d1565b3480156103a757600080fd5b506102776103b6366004611309565b610a7d565b3480156103c757600080fd5b5061017260025481565b3480156103dd57600080fd5b506103e6610b05565b6040516101319c9b9a99989796959493929190611593565b34801561040a57600080fd5b506104327f000000000000000000000000000000000000000000000000000000000000000081565b6040516001600160a01b039091168152602001610131565b34801561045657600080fd5b5061047e7f000000000000000000000000000000000000000000000000000000000000000081565b60405161013191906114ef565b34801561049757600080fd5b50610277610e75565b600181815481106104b057600080fd5b9060005260206000200160009150905080546104cb906116ab565b80601f01602080910402602001604051908101604052809291908181526020018280546104f7906116ab565b80156105445780601f1061051957610100808354040283529160200191610544565b820191906000526020600020905b81548152906001019060200180831161052757829003601f168201915b505050505081565b600081815481106104b057600080fd5b336001600160a01b037f000000000000000000000000000000000000000000000000000000000000000016146105ad5760405162461bcd60e51b81526004016105a49061152c565b60405180910390fd5b600082116105f15760405162461bcd60e51b8152602060048201526011602482015270043616e6e6f74207769746864726177203607c1b60448201526064016105a4565b6001600160a01b038116600090815260056020526040902054808311156106725760405162461bcd60e51b815260206004820152602f60248201527f536f7272792c2063616e2774207769746864726177206d6f7265207468616e2060448201526e746f74616c20646f6e6174696f6e7360881b60648201526084016105a4565b61067c8382611694565b6001600160a01b03831660008181526005602052604090209190915561072d57604051600090339085908381818185875af1925050503d80600081146106de576040519150601f19603f3d011682016040523d82523d6000602084013e6106e3565b606091505b50509050806107275760405162461bcd60e51b815260206004820152601060248201526f2a3930b739b332b9103330b4b632b21760811b60448201526064016105a4565b50505050565b604051630cdeca0960e01b815260040160405180910390fd5b6000806004805460ff1690811115610760576107606116fc565b146107ca5760405162461bcd60e51b815260206004820152603460248201527f596f752063616e6e6f7420646f6e61746520746f20612066756e647261697365604482015273722074686174206973206e6f742061637469766560601b60648201526084016105a4565b6000831161080d5760405162461bcd60e51b815260206004820152601060248201526f043616e6e6f74206465706f73697420360841b60448201526064016105a4565b60007f000000000000000000000000000000000000000000000000000000000000000011801561085c57507f000000000000000000000000000000000000000000000000000000000000000042115b1561087a5760405163601b6f4760e11b815260040160405180910390fd5b6001600160a01b03821661072d5782341461089457600080fd5b6001600160a01b03841660009081526006602090815260408083208380529091529020546108c390849061163b565b6001600160a01b03851660009081526006602090815260408083208380528252909120919091556005905260008051602061173e8339815191525461090990849061163b565b60008052600560205260008051602061173e8339815191525561092a610f3f565b5060019392505050565b336001600160a01b037f0000000000000000000000000000000000000000000000000000000000000000161461097c5760405162461bcd60e51b81526004016105a49061152c565b60015481106109bf5760405162461bcd60e51b815260206004820152600f60248201526e125b5859d9481b9bdd08199bdd5b99608a1b60448201526064016105a4565b600255565b600380546104cb906116ab565b336001600160a01b037f00000000000000000000000000000000000000000000000000000000000000001614610a195760405162461bcd60e51b81526004016105a49061152c565b6001805480820182556000919091528251610a5b917fb10e2d527612073b26eecdfd717e6a320cf44b4afac2b0732d9fcbe2b7fa0cf60190602085019061110c565b5060018115151415610a795760018054610a759190611694565b6002555b5050565b336001600160a01b037f00000000000000000000000000000000000000000000000000000000000000001614610ac55760405162461bcd60e51b81526004016105a49061152c565b600080546001810182559080528151610a79917f290decd9548b62a8d60345a988386fc84ba6bc95484008f6362f93160ef3e5630190602084019061110c565b600080600080600080606080600060606000807f00000000000000000000000000000000000000000000000000000000000000007f00000000000000000000000000000000000000000000000000000000000000007f00000000000000000000000000000000000000000000000000000000000000007f00000000000000000000000000000000000000000000000000000000000000007f00000000000000000000000000000000000000000000000000000000000000007f0000000000000000000000000000000000000000000000000000000000000000600060016002546003600460009054906101000a900460ff1660056000806001600160a01b03166001600160a01b031681526020019081526020016000205485805480602002602001604051908101604052809291908181526020016000905b82821015610cea578382906000526020600020018054610c5d906116ab565b80601f0160208091040260200160405190810160405280929190818152602001828054610c89906116ab565b8015610cd65780601f10610cab57610100808354040283529160200191610cd6565b820191906000526020600020905b815481529060010190602001808311610cb957829003601f168201915b505050505081526020019060010190610c3e565b50505050955084805480602002602001604051908101604052809291908181526020016000905b82821015610dbd578382906000526020600020018054610d30906116ab565b80601f0160208091040260200160405190810160405280929190818152602001828054610d5c906116ab565b8015610da95780601f10610d7e57610100808354040283529160200191610da9565b820191906000526020600020905b815481529060010190602001808311610d8c57829003601f168201915b505050505081526020019060010190610d11565b505050509450828054610dcf906116ab565b80601f0160208091040260200160405190810160405280929190818152602001828054610dfb906116ab565b8015610e485780601f10610e1d57610100808354040283529160200191610e48565b820191906000526020600020905b815481529060010190602001808311610e2b57829003601f168201915b505050505092509b509b509b509b509b509b509b509b509b509b509b509b50909192939495969798999a9b565b336001600160a01b037f00000000000000000000000000000000000000000000000000000000000000001614610ebd5760405162461bcd60e51b81526004016105a49061152c565b60006004805460ff1690811115610ed657610ed66116fc565b14610f315760405162461bcd60e51b815260206004820152602560248201527f596f752063616e206f6e6c7920636c6f7365206163746976652066756e647261604482015264697365727360d81b60648201526084016105a4565b6004805460ff191681179055565b7f00000000000000000000000000000000000000000000000000000000000000001561105357600061101a7f00000000000000000000000000000000000000000000000000000000000000006001600160a01b0316630ec3b0276040518163ffffffff1660e01b815260040160206040518083038186803b158015610fc357600080fd5b505afa158015610fd7573d6000803e3d6000fd5b505050506040513d601f19601f82011682018060405250810190610ffb91906112ec565b60008052600560205260008051602061173e8339815191525490611055565b90507f00000000000000000000000000000000000000000000000000000000000000008110611051576004805460ff191660011790555b505b565b6000806110618361108c565b905069d3c21bcecceda10000006110788583611675565b6110829190611653565b9150505b92915050565b600080826001600160a01b031663feaf968c6040518163ffffffff1660e01b815260040160a06040518083038186803b1580156110c857600080fd5b505afa1580156110dc573d6000803e3d6000fd5b505050506040513d601f19601f8201168201806040525081019061110091906113c6565b50919695505050505050565b828054611118906116ab565b90600052602060002090601f01602090048101928261113a5760008555611180565b82601f1061115357805160ff1916838001178555611180565b82800160010185558215611180579182015b82811115611180578251825591602001919060010190611165565b5061118c929150611190565b5090565b5b8082111561118c5760008155600101611191565b600082601f8301126111b657600080fd5b81356001600160401b03808211156111d0576111d0611712565b604051601f8301601f19908116603f011681019082821181831017156111f8576111f8611712565b8160405283815286602085880101111561121157600080fd5b836020870160208301376000602085830101528094505050505092915050565b80516001600160501b038116811461124857600080fd5b919050565b60006020828403121561125f57600080fd5b813561126a81611728565b9392505050565b6000806040838503121561128457600080fd5b823561128f81611728565b9150602083013561129f81611728565b809150509250929050565b6000806000606084860312156112bf57600080fd5b83356112ca81611728565b92506020840135915060408401356112e181611728565b809150509250925092565b6000602082840312156112fe57600080fd5b815161126a81611728565b60006020828403121561131b57600080fd5b81356001600160401b0381111561133157600080fd5b611082848285016111a5565b6000806040838503121561135057600080fd5b82356001600160401b0381111561136657600080fd5b611372858286016111a5565b9250506020830135801515811461129f57600080fd5b60006020828403121561139a57600080fd5b5035919050565b600080604083850312156113b457600080fd5b82359150602083013561129f81611728565b600080600080600060a086880312156113de57600080fd5b6113e786611231565b945060208601519350604086015192506060860151915061140a60808701611231565b90509295509295909350565b600082825180855260208086019550808260051b84010181860160005b8481101561146157601f1986840301895261144f8383516114a2565b98840198925090830190600101611433565b5090979650505050505050565b6006811061147e5761147e6116fc565b9052565b6005811061147e5761147e6116fc565b6003811061147e5761147e6116fc565b6000815180845260005b818110156114c8576020818501810151868301820152016114ac565b818111156114da576000602083870101525b50601f01601f19169290920160200192915050565b60208101611086828461146e565b602081016110868284611482565b602081016110868284611492565b60208152600061126a60208301846114a2565b60208082526041908201527f596f75206d75737420626520746865206f776e6572206f66207468652066756e60408201527f6472616973657220746f20706572666f726d2074686973206f7065726174696f6060820152603760f91b608082015260a00190565b8c81526001600160a01b038c16602082015260006101806115b7604084018e611492565b6115c4606084018d61146e565b8a60808401528960a08401528060c08401526115e28184018a611416565b905082810360e08401526115f68189611416565b90508661010084015282810361012084015261161281876114a2565b915050611623610140830185611482565b826101608301529d9c50505050505050505050505050565b6000821982111561164e5761164e6116e6565b500190565b60008261167057634e487b7160e01b600052601260045260246000fd5b500490565b600081600019048311821515161561168f5761168f6116e6565b500290565b6000828210156116a6576116a66116e6565b500390565b600181811c908216806116bf57607f821691505b602082108114156116e057634e487b7160e01b600052602260045260246000fd5b50919050565b634e487b7160e01b600052601160045260246000fd5b634e487b7160e01b600052602160045260246000fd5b634e487b7160e01b600052604160045260246000fd5b6001600160a01b038116811461105157600080fdfe05b8ccbb9d4d8fb16ea74ce3c29a41f1b461fbdaff4714a0d9a8eb05499746bca26469706673582212207a03c23ca5e5a53a66b531f4f43932f2d8db07c6871adfb7158852dd0b8fcb7764736f6c63430008070033",
  "linkReferences": {},
  "deployedLinkReferences": {}
}