{
  "_format": "hh-sol-artifact-1",
  "contractName": "DeFund",
  "sourceName": "contracts/DeFund.sol",
  "abi": [
    {
      "inputs": [
        {
          "internalType": "uint256",
          "name": "_id",
          "type": "uint256"
        },
        {
          "internalType": "address",
          "name": "_owner",
          "type": "address"
        },
        {
          "internalType": "enum DeFundFactory.FundraiserType",
          "name": "_type",
          "type": "uint8"
        },
        {
          "internalType": "enum DeFundFactory.FundraiserCategory",
          "name": "_category",
          "type": "uint8"
        },
        {
          "internalType": "uint256",
          "name": "_endDate",
          "type": "uint256"
        },
        {
          "internalType": "string",
          "name": "_name",
          "type": "string"
        },
        {
          "internalType": "string",
          "name": "_initialDescription",
          "type": "string"
        }
      ],
      "stateMutability": "nonpayable",
      "type": "constructor"
    },
    {
      "inputs": [],
      "name": "i_category",
      "outputs": [
        {
          "internalType": "enum DeFundFactory.FundraiserCategory",
          "name": "",
          "type": "uint8"
        }
      ],
      "stateMutability": "view",
      "type": "function"
    },
    {
      "inputs": [],
      "name": "i_endDate",
      "outputs": [
        {
          "internalType": "uint256",
          "name": "",
          "type": "uint256"
        }
      ],
      "stateMutability": "view",
      "type": "function"
    },
    {
      "inputs": [],
      "name": "i_id",
      "outputs": [
        {
          "internalType": "uint256",
          "name": "",
          "type": "uint256"
        }
      ],
      "stateMutability": "view",
      "type": "function"
    },
    {
      "inputs": [],
      "name": "i_owner",
      "outputs": [
        {
          "internalType": "address",
          "name": "",
          "type": "address"
        }
      ],
      "stateMutability": "view",
      "type": "function"
    },
    {
      "inputs": [],
      "name": "i_type",
      "outputs": [
        {
          "internalType": "enum DeFundFactory.FundraiserType",
          "name": "",
          "type": "uint8"
        }
      ],
      "stateMutability": "view",
      "type": "function"
    },
    {
      "inputs": [
        {
          "internalType": "uint256",
          "name": "_amount",
          "type": "uint256"
        },
        {
          "internalType": "address",
          "name": "_tokenAddress",
          "type": "address"
        }
      ],
      "name": "makeDonation",
      "outputs": [],
      "stateMutability": "payable",
      "type": "function"
    },
    {
      "inputs": [
        {
          "internalType": "address",
          "name": "",
          "type": "address"
        }
      ],
      "name": "s_balances",
      "outputs": [
        {
          "internalType": "uint256",
          "name": "",
          "type": "uint256"
        }
      ],
      "stateMutability": "view",
      "type": "function"
    },
    {
      "inputs": [
        {
          "internalType": "uint256",
          "name": "",
          "type": "uint256"
        }
      ],
      "name": "s_descriptions",
      "outputs": [
        {
          "internalType": "string",
          "name": "",
          "type": "string"
        }
      ],
      "stateMutability": "view",
      "type": "function"
    },
    {
      "inputs": [
        {
          "internalType": "address",
          "name": "",
          "type": "address"
        },
        {
          "internalType": "address",
          "name": "",
          "type": "address"
        }
      ],
      "name": "s_donors",
      "outputs": [
        {
          "internalType": "uint256",
          "name": "",
          "type": "uint256"
        }
      ],
      "stateMutability": "view",
      "type": "function"
    },
    {
      "inputs": [],
      "name": "s_name",
      "outputs": [
        {
          "internalType": "string",
          "name": "",
          "type": "string"
        }
      ],
      "stateMutability": "view",
      "type": "function"
    },
    {
      "inputs": [],
      "name": "s_status",
      "outputs": [
        {
          "internalType": "enum DeFundFactory.FundraiserStatus",
          "name": "",
          "type": "uint8"
        }
      ],
      "stateMutability": "view",
      "type": "function"
    },
    {
      "inputs": [
        {
          "internalType": "uint256",
          "name": "_amount",
          "type": "uint256"
        },
        {
          "internalType": "address",
          "name": "_tokenAddress",
          "type": "address"
        }
      ],
      "name": "withdrawFunds",
      "outputs": [],
      "stateMutability": "nonpayable",
      "type": "function"
    }
  ],
  "bytecode": "0x6101406040523480156200001257600080fd5b5060405162001ada38038062001ada83398181016040528101906200003891906200033e565b86608081815250508573ffffffffffffffffffffffffffffffffffffffff1660a08173ffffffffffffffffffffffffffffffffffffffff1660601b815250508460028111156200008d576200008c6200056e565b5b60c0816002811115620000a557620000a46200056e565b5b60f81b81525050836005811115620000c257620000c16200056e565b5b60e0816005811115620000da57620000d96200056e565b5b60f81b81525050826101008181525050816001908051906020019062000102929190620001b4565b5060008190806001815401808255809150506001900390600052602060002001600090919091909150908051906020019062000140929190620001b4565b503373ffffffffffffffffffffffffffffffffffffffff166101208173ffffffffffffffffffffffffffffffffffffffff1660601b815250506000600260006101000a81548160ff02191690836004811115620001a257620001a16200056e565b5b02179055505050505050505062000676565b828054620001c29062000502565b90600052602060002090601f016020900481019282620001e6576000855562000232565b82601f106200020157805160ff191683800117855562000232565b8280016001018555821562000232579182015b828111156200023157825182559160200191906001019062000214565b5b50905062000241919062000245565b5090565b5b808211156200026057600081600090555060010162000246565b5090565b60006200027b620002758462000458565b6200042f565b9050828152602081018484840111156200029a576200029962000600565b5b620002a7848285620004cc565b509392505050565b600081519050620002c08162000620565b92915050565b600081519050620002d7816200063a565b92915050565b600081519050620002ee816200064b565b92915050565b600082601f8301126200030c576200030b620005fb565b5b81516200031e84826020860162000264565b91505092915050565b60008151905062000338816200065c565b92915050565b600080600080600080600060e0888a03121562000360576200035f6200060a565b5b6000620003708a828b0162000327565b9750506020620003838a828b01620002af565b9650506040620003968a828b01620002dd565b9550506060620003a98a828b01620002c6565b9450506080620003bc8a828b0162000327565b93505060a088015167ffffffffffffffff811115620003e057620003df62000605565b5b620003ee8a828b01620002f4565b92505060c088015167ffffffffffffffff81111562000412576200041162000605565b5b620004208a828b01620002f4565b91505092959891949750929550565b60006200043b6200044e565b905062000449828262000538565b919050565b6000604051905090565b600067ffffffffffffffff821115620004765762000475620005cc565b5b62000481826200060f565b9050602081019050919050565b60006200049b82620004a2565b9050919050565b600073ffffffffffffffffffffffffffffffffffffffff82169050919050565b6000819050919050565b60005b83811015620004ec578082015181840152602081019050620004cf565b83811115620004fc576000848401525b50505050565b600060028204905060018216806200051b57607f821691505b602082108114156200053257620005316200059d565b5b50919050565b62000543826200060f565b810181811067ffffffffffffffff82111715620005655762000564620005cc565b5b80604052505050565b7f4e487b7100000000000000000000000000000000000000000000000000000000600052602160045260246000fd5b7f4e487b7100000000000000000000000000000000000000000000000000000000600052602260045260246000fd5b7f4e487b7100000000000000000000000000000000000000000000000000000000600052604160045260246000fd5b600080fd5b600080fd5b600080fd5b600080fd5b6000601f19601f8301169050919050565b6200062b816200048e565b81146200063757600080fd5b50565b600681106200064857600080fd5b50565b600381106200065957600080fd5b50565b6200066781620004c2565b81146200067357600080fd5b50565b60805160a05160601c60c05160f81c60e05160f81c610100516101205160601c611404620006d660003960005050600061030f01526000610bf7015260006103330152600081816104030152610bd3015260006106bf01526114046000f3fe6080604052600436106100a75760003560e01c8063779fa30f11610064578063779fa30f146101d0578063ab32eb69146101fb578063b22c70de14610238578063bba1964f14610254578063dba6335f1461027f578063f950e69c146102aa576100a7565b80631ca5872c146100ac5780632a578542146100d75780633692686614610114578063554abf521461013f5780636680ba7d1461016a578063744bfe61146101a7575b600080fd5b3480156100b857600080fd5b506100c16102d5565b6040516100ce9190610f05565b60405180910390f35b3480156100e357600080fd5b506100fe60048036038101906100f99190610c85565b6102e8565b60405161010b9190610fdd565b60405180910390f35b34801561012057600080fd5b5061012961030d565b6040516101369190610fdd565b60405180910390f35b34801561014b57600080fd5b50610154610331565b6040516101619190610f20565b60405180910390f35b34801561017657600080fd5b50610191600480360381019061018c9190610cf2565b610355565b60405161019e9190610f3b565b60405180910390f35b3480156101b357600080fd5b506101ce60048036038101906101c99190610d1f565b610401565b005b3480156101dc57600080fd5b506101e56106bd565b6040516101f29190610fdd565b60405180910390f35b34801561020757600080fd5b50610222600480360381019061021d9190610c58565b6106e1565b60405161022f9190610fdd565b60405180910390f35b610252600480360381019061024d9190610d1f565b6106f9565b005b34801561026057600080fd5b50610269610b43565b6040516102769190610f3b565b60405180910390f35b34801561028b57600080fd5b50610294610bd1565b6040516102a19190610e6f565b60405180910390f35b3480156102b657600080fd5b506102bf610bf5565b6040516102cc9190610eea565b60405180910390f35b600260009054906101000a900460ff1681565b6004602052816000526040600020602052806000526040600020600091509150505481565b7f000000000000000000000000000000000000000000000000000000000000000081565b7f000000000000000000000000000000000000000000000000000000000000000081565b6000818154811061036557600080fd5b90600052602060002001600091509050805461038090611188565b80601f01602080910402602001604051908101604052809291908181526020018280546103ac90611188565b80156103f95780601f106103ce576101008083540402835291602001916103f9565b820191906000526020600020905b8154815290600101906020018083116103dc57829003601f168201915b505050505081565b7f000000000000000000000000000000000000000000000000000000000000000073ffffffffffffffffffffffffffffffffffffffff163373ffffffffffffffffffffffffffffffffffffffff161461048f576040517f08c379a000000000000000000000000000000000000000000000000000000000815260040161048690610f5d565b60405180910390fd5b600082116104d2576040517f08c379a00000000000000000000000000000000000000000000000000000000081526004016104c990610fbd565b60405180910390fd5b6000600360008373ffffffffffffffffffffffffffffffffffffffff1673ffffffffffffffffffffffffffffffffffffffff16815260200190815260200160002054905080831115610559576040517f08c379a000000000000000000000000000000000000000000000000000000000815260040161055090610f9d565b60405180910390fd5b8281610565919061106a565b600360008473ffffffffffffffffffffffffffffffffffffffff1673ffffffffffffffffffffffffffffffffffffffff16815260200190815260200160002081905550600073ffffffffffffffffffffffffffffffffffffffff168273ffffffffffffffffffffffffffffffffffffffff161415610629573373ffffffffffffffffffffffffffffffffffffffff166108fc849081150290604051600060405180830381858888f19350505050158015610623573d6000803e3d6000fd5b506106b8565b8173ffffffffffffffffffffffffffffffffffffffff1663a9059cbb33856040518363ffffffff1660e01b8152600401610664929190610ec1565b602060405180830381600087803b15801561067e57600080fd5b505af1158015610692573d6000803e3d6000fd5b505050506040513d601f19601f820116820180604052508101906106b69190610cc5565b505b505050565b7f000000000000000000000000000000000000000000000000000000000000000081565b60036020528060005260406000206000915090505481565b6000821161073c576040517f08c379a000000000000000000000000000000000000000000000000000000000815260040161073390610f7d565b60405180910390fd5b600073ffffffffffffffffffffffffffffffffffffffff168173ffffffffffffffffffffffffffffffffffffffff1614156109185781341461077d57600080fd5b81600460003373ffffffffffffffffffffffffffffffffffffffff1673ffffffffffffffffffffffffffffffffffffffff16815260200190815260200160002060008073ffffffffffffffffffffffffffffffffffffffff1673ffffffffffffffffffffffffffffffffffffffff168152602001908152602001600020546108059190611014565b600460003373ffffffffffffffffffffffffffffffffffffffff1673ffffffffffffffffffffffffffffffffffffffff16815260200190815260200160002060008073ffffffffffffffffffffffffffffffffffffffff1673ffffffffffffffffffffffffffffffffffffffff1681526020019081526020016000208190555081600360008073ffffffffffffffffffffffffffffffffffffffff1673ffffffffffffffffffffffffffffffffffffffff168152602001908152602001600020546108d09190611014565b600360008073ffffffffffffffffffffffffffffffffffffffff1673ffffffffffffffffffffffffffffffffffffffff16815260200190815260200160002081905550610b3f565b8073ffffffffffffffffffffffffffffffffffffffff166323b872dd3330856040518463ffffffff1660e01b815260040161095593929190610e8a565b602060405180830381600087803b15801561096f57600080fd5b505af1158015610983573d6000803e3d6000fd5b505050506040513d601f19601f820116820180604052508101906109a79190610cc5565b5081600460003373ffffffffffffffffffffffffffffffffffffffff1673ffffffffffffffffffffffffffffffffffffffff16815260200190815260200160002060008373ffffffffffffffffffffffffffffffffffffffff1673ffffffffffffffffffffffffffffffffffffffff16815260200190815260200160002054610a309190611014565b600460003373ffffffffffffffffffffffffffffffffffffffff1673ffffffffffffffffffffffffffffffffffffffff16815260200190815260200160002060008373ffffffffffffffffffffffffffffffffffffffff1673ffffffffffffffffffffffffffffffffffffffff1681526020019081526020016000208190555081600360008373ffffffffffffffffffffffffffffffffffffffff1673ffffffffffffffffffffffffffffffffffffffff16815260200190815260200160002054610afb9190611014565b600360008373ffffffffffffffffffffffffffffffffffffffff1673ffffffffffffffffffffffffffffffffffffffff168152602001908152602001600020819055505b5050565b60018054610b5090611188565b80601f0160208091040260200160405190810160405280929190818152602001828054610b7c90611188565b8015610bc95780601f10610b9e57610100808354040283529160200191610bc9565b820191906000526020600020905b815481529060010190602001808311610bac57829003601f168201915b505050505081565b7f000000000000000000000000000000000000000000000000000000000000000081565b7f000000000000000000000000000000000000000000000000000000000000000081565b600081359050610c2881611389565b92915050565b600081519050610c3d816113a0565b92915050565b600081359050610c52816113b7565b92915050565b600060208284031215610c6e57610c6d611247565b5b6000610c7c84828501610c19565b91505092915050565b60008060408385031215610c9c57610c9b611247565b5b6000610caa85828601610c19565b9250506020610cbb85828601610c19565b9150509250929050565b600060208284031215610cdb57610cda611247565b5b6000610ce984828501610c2e565b91505092915050565b600060208284031215610d0857610d07611247565b5b6000610d1684828501610c43565b91505092915050565b60008060408385031215610d3657610d35611247565b5b6000610d4485828601610c43565b9250506020610d5585828601610c19565b9150509250929050565b610d688161109e565b82525050565b610d778161111f565b82525050565b610d8681611131565b82525050565b610d9581611143565b82525050565b6000610da682610ff8565b610db08185611003565b9350610dc0818560208601611155565b610dc98161124c565b840191505092915050565b6000610de1603383611003565b9150610dec8261125d565b604082019050919050565b6000610e04601083611003565b9150610e0f826112ac565b602082019050919050565b6000610e27602f83611003565b9150610e32826112d5565b604082019050919050565b6000610e4a601183611003565b9150610e5582611324565b602082019050919050565b610e6981611115565b82525050565b6000602082019050610e846000830184610d5f565b92915050565b6000606082019050610e9f6000830186610d5f565b610eac6020830185610d5f565b610eb96040830184610e60565b949350505050565b6000604082019050610ed66000830185610d5f565b610ee36020830184610e60565b9392505050565b6000602082019050610eff6000830184610d6e565b92915050565b6000602082019050610f1a6000830184610d7d565b92915050565b6000602082019050610f356000830184610d8c565b92915050565b60006020820190508181036000830152610f558184610d9b565b905092915050565b60006020820190508181036000830152610f7681610dd4565b9050919050565b60006020820190508181036000830152610f9681610df7565b9050919050565b60006020820190508181036000830152610fb681610e1a565b9050919050565b60006020820190508181036000830152610fd681610e3d565b9050919050565b6000602082019050610ff26000830184610e60565b92915050565b600081519050919050565b600082825260208201905092915050565b600061101f82611115565b915061102a83611115565b9250827fffffffffffffffffffffffffffffffffffffffffffffffffffffffffffffffff0382111561105f5761105e6111ba565b5b828201905092915050565b600061107582611115565b915061108083611115565b925082821015611093576110926111ba565b5b828203905092915050565b60006110a9826110f5565b9050919050565b60008115159050919050565b60008190506110ca8261134d565b919050565b60008190506110dd82611361565b919050565b60008190506110f082611375565b919050565b600073ffffffffffffffffffffffffffffffffffffffff82169050919050565b6000819050919050565b600061112a826110bc565b9050919050565b600061113c826110cf565b9050919050565b600061114e826110e2565b9050919050565b60005b83811015611173578082015181840152602081019050611158565b83811115611182576000848401525b50505050565b600060028204905060018216806111a057607f821691505b602082108114156111b4576111b3611218565b5b50919050565b7f4e487b7100000000000000000000000000000000000000000000000000000000600052601160045260246000fd5b7f4e487b7100000000000000000000000000000000000000000000000000000000600052602160045260246000fd5b7f4e487b7100000000000000000000000000000000000000000000000000000000600052602260045260246000fd5b600080fd5b6000601f19601f8301169050919050565b7f596f75206d75737420626520746865206f776e6572206f66207468652066756e60008201527f6472616973657220746f20776974686472617700000000000000000000000000602082015250565b7f43616e6e6f74206465706f736974203000000000000000000000000000000000600082015250565b7f536f7272792c2063616e2774207769746864726177206d6f7265207468616e2060008201527f746f74616c20646f6e6174696f6e730000000000000000000000000000000000602082015250565b7f43616e6e6f742077697468647261772030000000000000000000000000000000600082015250565b6006811061135e5761135d6111e9565b5b50565b60058110611372576113716111e9565b5b50565b60038110611386576113856111e9565b5b50565b6113928161109e565b811461139d57600080fd5b50565b6113a9816110b0565b81146113b457600080fd5b50565b6113c081611115565b81146113cb57600080fd5b5056fea2646970667358221220499bf4025d627d258bc39e29aa05d62e89b5ceb6f3a77bad455c757600f9c08964736f6c63430008070033",
  "linkReferences": {},
  "deployedLinkReferences": {}
}