{
  "_format": "hh-sol-artifact-1",
  "contractName": "DeFundFactory",
  "sourceName": "contracts/DeFundFactory.sol",
  "abi": [
    {
      "inputs": [],
      "stateMutability": "nonpayable",
      "type": "constructor"
    },
    {
      "inputs": [],
      "name": "DeFundFactory__deposit__less_than_declared",
      "type": "error"
    },
    {
      "inputs": [],
      "name": "DeFundFactory__deposit__token_not_allowed",
      "type": "error"
    },
    {
      "inputs": [],
      "name": "DeFundFactory__deposit__zero_deposit",
      "type": "error"
    },
    {
      "inputs": [],
      "name": "DeFundFactory__not_implemented",
      "type": "error"
    },
    {
      "anonymous": false,
      "inputs": [
        {
          "indexed": true,
          "internalType": "uint256",
          "name": "fundraiserId",
          "type": "uint256"
        },
        {
          "indexed": true,
          "internalType": "address",
          "name": "creator",
          "type": "address"
        },
        {
          "indexed": false,
          "internalType": "string",
          "name": "title",
          "type": "string"
        },
        {
          "indexed": false,
          "internalType": "enum DeFundModel.FundraiserType",
          "name": "fundraiserType",
          "type": "uint8"
        },
        {
          "indexed": false,
          "internalType": "enum DeFundModel.FundraiserCategory",
          "name": "category",
          "type": "uint8"
        },
        {
          "indexed": false,
          "internalType": "uint256",
          "name": "endDate",
          "type": "uint256"
        },
        {
          "indexed": false,
          "internalType": "uint256",
          "name": "goalAmount",
          "type": "uint256"
        }
      ],
      "name": "FundraiserCreated",
      "type": "event"
    },
    {
      "anonymous": false,
      "inputs": [
        {
          "indexed": true,
          "internalType": "address",
          "name": "previousOwner",
          "type": "address"
        },
        {
          "indexed": true,
          "internalType": "address",
          "name": "newOwner",
          "type": "address"
        }
      ],
      "name": "OwnershipTransferred",
      "type": "event"
    },
    {
      "anonymous": false,
      "inputs": [
        {
          "indexed": true,
          "internalType": "address",
          "name": "creator",
          "type": "address"
        },
        {
          "indexed": false,
          "internalType": "address",
          "name": "tokenAddress",
          "type": "address"
        },
        {
          "indexed": false,
          "internalType": "uint256",
          "name": "previousBalance",
          "type": "uint256"
        },
        {
          "indexed": false,
          "internalType": "uint256",
          "name": "newBalance",
          "type": "uint256"
        }
      ],
      "name": "UserBalanceChanged",
      "type": "event"
    },
    {
      "inputs": [
        {
          "internalType": "address",
          "name": "_tokenAddress",
          "type": "address"
        }
      ],
      "name": "allowToken",
      "outputs": [],
      "stateMutability": "nonpayable",
      "type": "function"
    },
    {
      "inputs": [
        {
          "internalType": "bytes",
          "name": "",
          "type": "bytes"
        }
      ],
      "name": "checkUpkeep",
      "outputs": [
        {
          "internalType": "bool",
          "name": "upkeepNeeded",
          "type": "bool"
        },
        {
          "internalType": "bytes",
          "name": "",
          "type": "bytes"
        }
      ],
      "stateMutability": "view",
      "type": "function"
    },
    {
      "inputs": [
        {
          "internalType": "enum DeFundModel.FundraiserType",
          "name": "_type",
          "type": "uint8"
        },
        {
          "internalType": "enum DeFundModel.FundraiserCategory",
          "name": "_category",
          "type": "uint8"
        },
        {
          "internalType": "string",
          "name": "_name",
          "type": "string"
        },
        {
          "internalType": "string",
          "name": "_description",
          "type": "string"
        },
        {
          "internalType": "uint256",
          "name": "_endDate",
          "type": "uint256"
        },
        {
          "internalType": "uint256",
          "name": "_goalAmount",
          "type": "uint256"
        }
      ],
      "name": "createFundraiser",
      "outputs": [
        {
          "internalType": "uint256",
          "name": "fundraiserId",
          "type": "uint256"
        }
      ],
      "stateMutability": "nonpayable",
      "type": "function"
    },
    {
      "inputs": [
        {
          "internalType": "address",
          "name": "_targetFundraiser",
          "type": "address"
        },
        {
          "internalType": "address",
          "name": "_tokenAddress",
          "type": "address"
        },
        {
          "internalType": "uint256",
          "name": "_amount",
          "type": "uint256"
        },
        {
          "internalType": "uint32",
          "name": "_intervalHours",
          "type": "uint32"
        }
      ],
      "name": "createRecurringPayment",
      "outputs": [
        {
          "internalType": "uint256",
          "name": "recurringPaymentId",
          "type": "uint256"
        }
      ],
      "stateMutability": "nonpayable",
      "type": "function"
    },
    {
      "inputs": [
        {
          "internalType": "uint256",
          "name": "_amount",
          "type": "uint256"
        },
        {
          "internalType": "address",
          "name": "_tokenAddress",
          "type": "address"
        }
      ],
      "name": "depositFunds",
      "outputs": [],
      "stateMutability": "payable",
      "type": "function"
    },
    {
      "inputs": [
        {
          "internalType": "address",
          "name": "_fundraiserAddress",
          "type": "address"
        },
        {
          "internalType": "uint256",
          "name": "_amount",
          "type": "uint256"
        },
        {
          "internalType": "address",
          "name": "_tokenAddress",
          "type": "address"
        }
      ],
      "name": "donateByAddress",
      "outputs": [],
      "stateMutability": "nonpayable",
      "type": "function"
    },
    {
      "inputs": [
        {
          "internalType": "uint256",
          "name": "_fundraiserId",
          "type": "uint256"
        },
        {
          "internalType": "uint256",
          "name": "_amount",
          "type": "uint256"
        },
        {
          "internalType": "address",
          "name": "_tokenAddress",
          "type": "address"
        }
      ],
      "name": "donateById",
      "outputs": [],
      "stateMutability": "nonpayable",
      "type": "function"
    },
    {
      "inputs": [
        {
          "internalType": "address",
          "name": "_token",
          "type": "address"
        }
      ],
      "name": "getMyBalance",
      "outputs": [
        {
          "internalType": "uint256",
          "name": "balance",
          "type": "uint256"
        }
      ],
      "stateMutability": "view",
      "type": "function"
    },
    {
      "inputs": [
        {
          "internalType": "address",
          "name": "_tokenAddress",
          "type": "address"
        }
      ],
      "name": "isTokenAllowed",
      "outputs": [
        {
          "internalType": "bool",
          "name": "",
          "type": "bool"
        }
      ],
      "stateMutability": "view",
      "type": "function"
    },
    {
      "inputs": [],
      "name": "owner",
      "outputs": [
        {
          "internalType": "address",
          "name": "",
          "type": "address"
        }
      ],
      "stateMutability": "view",
      "type": "function"
    },
    {
      "inputs": [
        {
          "internalType": "bytes",
          "name": "",
          "type": "bytes"
        }
      ],
      "name": "performUpkeep",
      "outputs": [],
      "stateMutability": "nonpayable",
      "type": "function"
    },
    {
      "inputs": [],
      "name": "renounceOwnership",
      "outputs": [],
      "stateMutability": "nonpayable",
      "type": "function"
    },
    {
      "inputs": [
        {
          "internalType": "uint256",
          "name": "",
          "type": "uint256"
        }
      ],
      "name": "s_allowedERC20Tokens",
      "outputs": [
        {
          "internalType": "address",
          "name": "",
          "type": "address"
        }
      ],
      "stateMutability": "view",
      "type": "function"
    },
    {
      "inputs": [
        {
          "internalType": "uint256",
          "name": "",
          "type": "uint256"
        }
      ],
      "name": "s_fundraisers",
      "outputs": [
        {
          "internalType": "address",
          "name": "",
          "type": "address"
        }
      ],
      "stateMutability": "view",
      "type": "function"
    },
    {
      "inputs": [
        {
          "internalType": "address",
          "name": "",
          "type": "address"
        },
        {
          "internalType": "uint256",
          "name": "",
          "type": "uint256"
        }
      ],
      "name": "s_fundraisersByOwner",
      "outputs": [
        {
          "internalType": "uint256",
          "name": "",
          "type": "uint256"
        }
      ],
      "stateMutability": "view",
      "type": "function"
    },
    {
      "inputs": [],
      "name": "s_lastTimeStamp",
      "outputs": [
        {
          "internalType": "uint256",
          "name": "",
          "type": "uint256"
        }
      ],
      "stateMutability": "view",
      "type": "function"
    },
    {
      "inputs": [],
      "name": "s_priceFeed",
      "outputs": [
        {
          "internalType": "contract AggregatorV3Interface",
          "name": "",
          "type": "address"
        }
      ],
      "stateMutability": "view",
      "type": "function"
    },
    {
      "inputs": [
        {
          "internalType": "uint256",
          "name": "",
          "type": "uint256"
        }
      ],
      "name": "s_recurringPayments",
      "outputs": [
        {
          "internalType": "address",
          "name": "owner",
          "type": "address"
        },
        {
          "internalType": "address",
          "name": "target",
          "type": "address"
        },
        {
          "internalType": "address",
          "name": "tokenAddress",
          "type": "address"
        },
        {
          "internalType": "uint256",
          "name": "amount",
          "type": "uint256"
        },
        {
          "internalType": "uint32",
          "name": "intervalHours",
          "type": "uint32"
        },
        {
          "internalType": "uint256",
          "name": "lastExecution",
          "type": "uint256"
        },
        {
          "internalType": "enum DeFundModel.RecurringPaymentStatus",
          "name": "status",
          "type": "uint8"
        }
      ],
      "stateMutability": "view",
      "type": "function"
    },
    {
      "inputs": [
        {
          "internalType": "address",
          "name": "",
          "type": "address"
        },
        {
          "internalType": "uint256",
          "name": "",
          "type": "uint256"
        }
      ],
      "name": "s_recurringPaymentsByOwner",
      "outputs": [
        {
          "internalType": "uint256",
          "name": "",
          "type": "uint256"
        }
      ],
      "stateMutability": "view",
      "type": "function"
    },
    {
      "inputs": [
        {
          "internalType": "address",
          "name": "",
          "type": "address"
        },
        {
          "internalType": "address",
          "name": "",
          "type": "address"
        }
      ],
      "name": "s_userBalances",
      "outputs": [
        {
          "internalType": "uint256",
          "name": "",
          "type": "uint256"
        }
      ],
      "stateMutability": "view",
      "type": "function"
    },
    {
      "inputs": [
        {
          "internalType": "address",
          "name": "newOwner",
          "type": "address"
        }
      ],
      "name": "transferOwnership",
      "outputs": [],
      "stateMutability": "nonpayable",
      "type": "function"
    },
    {
      "inputs": [
        {
          "internalType": "uint256",
          "name": "_amount",
          "type": "uint256"
        },
        {
          "internalType": "address",
          "name": "_tokenAddress",
          "type": "address"
        }
      ],
      "name": "withdrawFunds",
      "outputs": [],
      "stateMutability": "nonpayable",
      "type": "function"
    }
  ],
  "bytecode": "0x608060405260006001556000600255610e10600b5534801561002057600080fd5b5061002a33610059565b600a80546001600160a01b031916739326bfa02add2366b30bacb125260af641031331179055426003556100a9565b600080546001600160a01b038381166001600160a01b0319831681178455604051919092169283917f8be0079c531659141344cd1fd0a4f28419497f9722a3daafe3b4186f6b6457e09190a35050565b613a4c806100b86000396000f3fe6080604052600436106200011c5760003560e01c80630ec3b02714620001215780631a94cb33146200016057806321eb73f014620001e95780632c186fcf146200020e5780633485404314620002355780633d958db7146200025c57806340decd3a14620002815780634585e33b14620002a657806357f93b7114620002cb5780635a370cb414620002f05780636e04ff0d1462000315578063715018a6146200034a578063744bfe6114620003625780637e3ef7cd14620003875780638da5cb5b14620003ce5780638db9459f14620003e6578063b0a6169c146200040b578063b53472ef1462000447578063f2fde38b146200046c578063f785de231462000491578063f9d03e4614620004a8578063f9eaee0d14620004e2575b600080fd5b3480156200012e57600080fd5b50600a5462000143906001600160a01b031681565b6040516001600160a01b0390911681526020015b60405180910390f35b3480156200016d57600080fd5b50620001d46200017f366004620019e8565b60086020526000908152604090208054600182015460028301546003840154600485015460058601546006909601546001600160a01b03958616969486169590931693919263ffffffff909116919060ff1687565b60405162000157979695949392919062001aaa565b348015620001f657600080fd5b506200014362000208366004620019e8565b62000518565b3480156200021b57600080fd5b50620002336200022d36600462001a28565b62000543565b005b3480156200024257600080fd5b506200024d60035481565b60405190815260200162000157565b3480156200026957600080fd5b506200024d6200027b36600462001763565b6200056d565b3480156200028e57600080fd5b5062000233620002a036600462001790565b6200059f565b348015620002b357600080fd5b5062000233620002c5366004620017f5565b6200073a565b348015620002d857600080fd5b506200024d620002ea36600462001937565b6200099f565b348015620002fd57600080fd5b506200024d6200030f36600462001763565b62000ae5565b3480156200032257600080fd5b506200033a620003343660046200183a565b62000b02565b6040516200015792919062001b4d565b3480156200035757600080fd5b506200023362000dcd565b3480156200036f57600080fd5b50620002336200038136600462001a02565b62000e0f565b3480156200039457600080fd5b506200024d620003a6366004620016a8565b3360009081526005602090815260408083206001600160a01b03949094168352929052205490565b348015620003db57600080fd5b506200014362000fa4565b348015620003f357600080fd5b506200024d6200040536600462001705565b62000fb3565b3480156200041857600080fd5b506200024d6200042a366004620016cd565b600560209081526000928352604080842090915290825290205481565b3480156200045457600080fd5b506200023362000466366004620016a8565b62001083565b3480156200047957600080fd5b50620002336200048b366004620016a8565b62001109565b62000233620004a236600462001a02565b620011b2565b348015620004b557600080fd5b5062000143620004c7366004620019e8565b6006602052600090815260409020546001600160a01b031681565b348015620004ef57600080fd5b506200050762000501366004620016a8565b620012d8565b604051901515815260200162000157565b600481815481106200052957600080fd5b6000918252602090912001546001600160a01b0316905081565b60008381526006602052604090205462000568906001600160a01b031683836200059f565b505050565b600960205281600052604060002081815481106200058a57600080fd5b90600052602060002001600091509150505481565b60008211620005e75760405162461bcd60e51b815260206004820152600f60248201526e043616e6e6f7420646f6e617465203608c1b60448201526064015b60405180910390fd5b3360009081526005602090815260408083206001600160a01b0385168452909152902054808311156200062e5760405162461bcd60e51b8152600401620005de9062001bf9565b6200063a838262001d49565b3360009081526005602090815260408083206001600160a01b0387168085529252909120919091556200071b576000846001600160a01b03166374e781b3853387876040518563ffffffff1660e01b81526004016200069c9392919062001b09565b6020604051808303818588803b158015620006b657600080fd5b505af1158015620006cb573d6000803e3d6000fd5b50505050506040513d601f19601f82011682018060405250810190620006f29190620017d1565b905080620007145760405162461bcd60e51b8152600401620005de9062001c5a565b5062000734565b60405163730d669f60e11b815260040160405180910390fd5b50505050565b60005b600254811015620005685760008181526008602052604081206006015460ff16600181111562000771576200077162001d97565b146200077d576200098a565b6001600082815260086020908152604091829020600101548251632aa55fa960e11b815292516001600160a01b039091169263554abf52926004808301939192829003018186803b158015620007d257600080fd5b505afa158015620007e7573d6000803e3d6000fd5b505050506040513d601f19601f820116820180604052508101906200080d919062001917565b600281111562000821576200082162001d97565b146200082d576200098a565b600081815260086020908152604080832060010154815163072961cb60e21b815291516001600160a01b0390911692631ca5872c9260048082019391829003018186803b1580156200087e57600080fd5b505afa15801562000893573d6000803e3d6000fd5b505050506040513d601f19601f82011682018060405250810190620008b99190620018f4565b6004811115620008cd57620008cd62001d97565b14620008d9576200098a565b6000818152600860209081526040808320600381015481546001600160a01b03908116865260058552838620600290930154168552925290912054101562000921576200098a565b600081815260086020526040902060040154620009469063ffffffff16603c62001d1a565b6200095390603c62001d1a565b600082815260086020526040902060050154620009779163ffffffff169062001cff565b4211156200098a576200098a816200134a565b80620009968162001d63565b9150506200073d565b6001805490620009b190829062001cff565b600181905550600081338b8b8b8b8b8b8b8b604051620009d19062001632565b620009e69a9998979695949392919062001c84565b604051809103906000f08015801562000a03573d6000803e3d6000fd5b509050806006600084815260200190815260200160002060006101000a8154816001600160a01b0302191690836001600160a01b0316021790555060076000336001600160a01b03166001600160a01b03168152602001908152602001600020829080600181540180825580915050600190039060005260206000200160009091909190915055336001600160a01b0316827f2a3720f62d1e85b04f6fdde0ad0f608f61ce672e8bd70c9f4f887b6a9febcf778a8a8e8e8a8a60405162000ad09695949392919062001baf565b60405180910390a35098975050505050505050565b600760205281600052604060002081815481106200058a57600080fd5b600060606000600b546003544262000b1b919062001d49565b11905060008060015411801562000b3457506000600254115b90506000805b60025481101562000d9b5760008181526008602052604081206006015460ff16600181111562000b6e5762000b6e62001d97565b1462000b7a5762000d86565b6001600082815260086020908152604091829020600101548251632aa55fa960e11b815292516001600160a01b039091169263554abf52926004808301939192829003018186803b15801562000bcf57600080fd5b505afa15801562000be4573d6000803e3d6000fd5b505050506040513d601f19601f8201168201806040525081019062000c0a919062001917565b600281111562000c1e5762000c1e62001d97565b1462000c2a5762000d86565b600081815260086020908152604080832060010154815163072961cb60e21b815291516001600160a01b0390911692631ca5872c9260048082019391829003018186803b15801562000c7b57600080fd5b505afa15801562000c90573d6000803e3d6000fd5b505050506040513d601f19601f8201168201806040525081019062000cb69190620018f4565b600481111562000cca5762000cca62001d97565b1462000cd65762000d86565b6000818152600860209081526040808320600381015481546001600160a01b03908116865260058552838620600290930154168552925290912054101562000d1e5762000d86565b60008181526008602052604090206004015462000d439063ffffffff16603c62001d1a565b62000d5090603c62001d1a565b60008281526008602052604090206005015462000d749163ffffffff169062001cff565b42111562000d86576001915062000d9b565b8062000d928162001d63565b91505062000b3a565b5082801562000da75750815b801562000db15750805b6040805160208101909152600081529097909650945050505050565b3362000dd862000fa4565b6001600160a01b03161462000e015760405162461bcd60e51b8152600401620005de9062001c25565b62000e0d6000620015e2565b565b6000821162000e555760405162461bcd60e51b8152602060048201526011602482015270043616e6e6f74207769746864726177203607c1b6044820152606401620005de565b3360009081526005602090815260408083206001600160a01b03851684529091529020548083111562000e9c5760405162461bcd60e51b8152600401620005de9062001bf9565b62000ea8838262001d49565b3360009081526005602090815260408083206001600160a01b0387168085529252909120919091556200071b57604051600090339085908381818185875af1925050503d806000811462000f19576040519150601f19603f3d011682016040523d82523d6000602084013e62000f1e565b606091505b505090508062000f425760405162461bcd60e51b8152600401620005de9062001c5a565b503360008181526005602090815260408083206001600160a01b0387168452909152902054600080516020620039f783398151915290849062000f86878662001d49565b60405162000f979392919062001b2c565b60405180910390a2505050565b6000546001600160a01b031690565b6000600254600162000fc6919062001cff565b600281815560008281526008602052604081208054336001600160a01b03199182161782556001808301805483166001600160a01b038d8116919091179091559483018054909216948a169490941790556003810187905560048101805463ffffffff191663ffffffff881617905560060180549394509092909160ff1990911690830217905550336000908152600960209081526040822080546001810182559083529120018190556200107b816200134a565b949350505050565b336200108e62000fa4565b6001600160a01b031614620010b75760405162461bcd60e51b8152600401620005de9062001c25565b600480546001810182556000919091527f8a35acfbc15ff81a39ae7d344fd709f28e8600b4aa8c65c6b64bfe7fe36bd19b0180546001600160a01b0319166001600160a01b0392909216919091179055565b336200111462000fa4565b6001600160a01b0316146200113d5760405162461bcd60e51b8152600401620005de9062001c25565b6001600160a01b038116620011a45760405162461bcd60e51b815260206004820152602660248201527f4f776e61626c653a206e6577206f776e657220697320746865207a65726f206160448201526564647265737360d01b6064820152608401620005de565b620011af81620015e2565b50565b81620011d15760405163a5964f3f60e01b815260040160405180910390fd5b3360009081526005602090815260408083206001600160a01b038516808552925290912054906200126757823410156200121e57604051633d814a7160e21b815260040160405180910390fd5b3360009081526005602090815260408083208380529091529020546200124690849062001cff565b33600090815260056020908152604080832083805290915290205562001290565b6200127282620012d8565b6200071b57604051634324405d60e01b815260040160405180910390fd5b3360008181526005602090815260408083206001600160a01b038716845290915290819020549051600080516020620039f78339815191529162000f97918691869162001b2c565b6000805b6004548110156200134157826001600160a01b03166004828154811062001307576200130762001dad565b6000918252602090912001546001600160a01b031614156200132c5750600192915050565b80620013388162001d63565b915050620012dc565b50600092915050565b600081815260086020818152604080842080546001600160a01b039081168652600584528286206002830154909116865283529084205493859052919052600301548110620015ca57600082815260086020526040902060030154620013b1908262001d49565b600083815260086020818152604080842080546001600160a01b0390811686526005845282862060028301548216875284529185209590955586845291905260019092015490911690816001600160a01b0316631ca5872c6040518163ffffffff1660e01b815260040160206040518083038186803b1580156200143457600080fd5b505afa15801562001449573d6000803e3d6000fd5b505050506040513d601f19601f820116820180604052508101906200146f9190620018f4565b600481111562001483576200148362001d97565b1480156200151957506001816001600160a01b031663554abf526040518163ffffffff1660e01b815260040160206040518083038186803b158015620014c857600080fd5b505afa158015620014dd573d6000803e3d6000fd5b505050506040513d601f19601f8201168201806040525081019062001503919062001917565b600281111562001517576200151762001d97565b145b15620015c857600083815260086020526040908190206003810154815460029092015492516374e781b360e01b81526001600160a01b03808616946374e781b3946200157093908316928592169060040162001b09565b6020604051808303818588803b1580156200158a57600080fd5b505af11580156200159f573d6000803e3d6000fd5b50505050506040513d601f19601f82011682018060405250810190620015c69190620017d1565b505b505b50600090815260086020526040902042600590910155565b600080546001600160a01b038381166001600160a01b0319831681178455604051919092169283917f8be0079c531659141344cd1fd0a4f28419497f9722a3daafe3b4186f6b6457e09190a35050565b611c0f8062001de883390190565b80356001600160a01b03811681146200165857600080fd5b919050565b60008083601f8401126200167057600080fd5b5081356001600160401b038111156200168857600080fd5b602083019150836020828501011115620016a157600080fd5b9250929050565b600060208284031215620016bb57600080fd5b620016c68262001640565b9392505050565b60008060408385031215620016e157600080fd5b620016ec8362001640565b9150620016fc6020840162001640565b90509250929050565b600080600080608085870312156200171c57600080fd5b620017278562001640565b9350620017376020860162001640565b925060408501359150606085013563ffffffff811681146200175857600080fd5b939692955090935050565b600080604083850312156200177757600080fd5b620017828362001640565b946020939093013593505050565b600080600060608486031215620017a657600080fd5b620017b18462001640565b925060208401359150620017c86040850162001640565b90509250925092565b600060208284031215620017e457600080fd5b81518015158114620016c657600080fd5b600080602083850312156200180957600080fd5b82356001600160401b038111156200182057600080fd5b6200182e858286016200165d565b90969095509350505050565b6000602082840312156200184d57600080fd5b81356001600160401b03808211156200186557600080fd5b818401915084601f8301126200187a57600080fd5b8135818111156200188f576200188f62001dc3565b604051601f8201601f19908116603f01168101908382118183101715620018ba57620018ba62001dc3565b81604052828152876020848701011115620018d457600080fd5b826020860160208301376000928101602001929092525095945050505050565b6000602082840312156200190757600080fd5b815160058110620016c657600080fd5b6000602082840312156200192a57600080fd5b8151620016c68162001dd9565b60008060008060008060008060c0898b0312156200195457600080fd5b8835620019618162001dd9565b97506020890135600681106200197657600080fd5b965060408901356001600160401b03808211156200199357600080fd5b620019a18c838d016200165d565b909850965060608b0135915080821115620019bb57600080fd5b50620019ca8b828c016200165d565b999c989b5096999598969760808701359660a0013595509350505050565b600060208284031215620019fb57600080fd5b5035919050565b6000806040838503121562001a1657600080fd5b82359150620016fc6020840162001640565b60008060006060848603121562001a3e57600080fd5b8335925060208401359150620017c86040850162001640565b6006811062001a6a5762001a6a62001d97565b9052565b6003811062001a6a5762001a6a62001d97565b81835281816020850137506000828201602090810191909152601f909101601f19169091010190565b6001600160a01b0388811682528781166020830152861660408201526060810185905263ffffffff8416608082015260a0810183905260e081016002831062001af75762001af762001d97565b8260c083015298975050505050505050565b6001600160a01b0393841681526020810192909252909116604082015260600190565b6001600160a01b039390931683526020830191909152604082015260600190565b821515815260006020604081840152835180604085015260005b8181101562001b855785810183015185820160600152820162001b67565b8181111562001b98576000606083870101525b50601f01601f191692909201606001949350505050565b60a08152600062001bc560a08301888a62001a81565b905062001bd6602083018762001a6e565b62001be5604083018662001a57565b606082019390935260800152949350505050565b6020808252601290820152714e6f7420656e6f7567682062616c616e636560701b604082015260600190565b6020808252818101527f4f776e61626c653a2063616c6c6572206973206e6f7420746865206f776e6572604082015260600190565b60208082526010908201526f2a3930b739b332b9103330b4b632b21760811b604082015260600190565b8a81526001600160a01b038a166020820152600061010062001caa604084018c62001a6e565b62001cb9606084018b62001a57565b80608084015262001cce818401898b62001a81565b905082810360a084015262001ce581878962001a81565b60c0840195909552505060e0015298975050505050505050565b6000821982111562001d155762001d1562001d81565b500190565b600063ffffffff8083168185168183048111821515161562001d405762001d4062001d81565b02949350505050565b60008282101562001d5e5762001d5e62001d81565b500390565b600060001982141562001d7a5762001d7a62001d81565b5060010190565b634e487b7160e01b600052601160045260246000fd5b634e487b7160e01b600052602160045260246000fd5b634e487b7160e01b600052603260045260246000fd5b634e487b7160e01b600052604160045260246000fd5b60038110620011af57600080fdfe6101606040523480156200001257600080fd5b5060405162001c0f38038062001c0f8339810160408190526200003591620002b5565b60808890526001600160601b0319606088901b1660a052856002811115620000615762000061620003bf565b60c0816002811115620000785762000078620003bf565b60f81b905250846005811115620000935762000093620003bf565b60e0816005811115620000aa57620000aa620003bf565b60f81b9052508351620000c590600390602087019062000133565b5060008054600181018255908052835162000108917f290decd9548b62a8d60345a988386fc84ba6bc95484008f6362f93160ef3e5630190602086019062000133565b503360601b61014052610100919091526101205250506004805460ff1916905550620003eb92505050565b828054620001419062000382565b90600052602060002090601f016020900481019282620001655760008555620001b0565b82601f106200018057805160ff1916838001178555620001b0565b82800160010185558215620001b0579182015b82811115620001b057825182559160200191906001019062000193565b50620001be929150620001c2565b5090565b5b80821115620001be5760008155600101620001c3565b805160068110620001e957600080fd5b919050565b805160038110620001e957600080fd5b600082601f8301126200021057600080fd5b81516001600160401b03808211156200022d576200022d620003d5565b604051601f8301601f19908116603f01168101908282118183101715620002585762000258620003d5565b816040528381526020925086838588010111156200027557600080fd5b600091505b838210156200029957858201830151818301840152908201906200027a565b83821115620002ab5760008385830101525b9695505050505050565b600080600080600080600080610100898b031215620002d357600080fd5b885160208a01519098506001600160a01b0381168114620002f357600080fd5b96506200030360408a01620001ee565b95506200031360608a01620001d9565b60808a01519095506001600160401b03808211156200033157600080fd5b6200033f8c838d01620001fe565b955060a08b01519150808211156200035657600080fd5b50620003658b828c01620001fe565b60c08b015160e0909b0151999c989b509699959894979350505050565b600181811c908216806200039757607f821691505b60208210811415620003b957634e487b7160e01b600052602260045260246000fd5b50919050565b634e487b7160e01b600052602160045260246000fd5b634e487b7160e01b600052604160045260246000fd5b60805160a05160601c60c05160f81c60e05160f81c61010051610120516101405160601c611762620004ad6000396000610f1b0152600081816102b701528181610b6e01528181610ef00152610fcd01526000818161017c0152610b4d01526000818161041c0152610b2c0152600081816101dd0152610b0b0152600081816103d001528181610527015281816108ee0152818161098b01528181610a3701528181610aea0152610e2f0152600081816102830152610ac901526117626000f3fe6080604052600436106100ef5760003560e01c80631ca5872c146100f45780632a57854214610124578063369268661461016a57806343394df41461019e578063554abf52146101cb5780636680ba7d1461020c578063744bfe611461022c57806374e781b31461024e578063779fa30f14610271578063853a6866146102a55780638e828143146102d9578063ab32eb69146102f9578063bba1964f14610326578063bf9f4aab1461033b578063c699db511461035b578063ca2b72201461037b578063ccc5d7d414610391578063dba6335f146103be578063f950e69c1461040a578063ff2e100c1461044b575b600080fd5b34801561010057600080fd5b5060045461010e9060ff1681565b60405161011b91906114ac565b60405180910390f35b34801561013057600080fd5b5061015c61013f366004611220565b600660209081526000928352604080842090915290825290205481565b60405190815260200161011b565b34801561017657600080fd5b5061015c7f000000000000000000000000000000000000000000000000000000000000000081565b3480156101aa57600080fd5b506101be6101b9366004611337565b610460565b60405161011b91906114c8565b3480156101d757600080fd5b506101ff7f000000000000000000000000000000000000000000000000000000000000000081565b60405161011b91906114ba565b34801561021857600080fd5b506101be610227366004611337565b61050c565b34801561023857600080fd5b5061024c610247366004611350565b61051c565b005b61026161025c366004611259565b610774565b604051901515815260200161011b565b34801561027d57600080fd5b5061015c7f000000000000000000000000000000000000000000000000000000000000000081565b3480156102b157600080fd5b5061015c7f000000000000000000000000000000000000000000000000000000000000000081565b3480156102e557600080fd5b5061024c6102f4366004611337565b6108e3565b34801561030557600080fd5b5061015c6103143660046111fc565b60056020526000908152604090205481565b34801561033257600080fd5b506101be610973565b34801561034757600080fd5b5061024c6103563660046112ec565b610980565b34801561036757600080fd5b5061024c6103763660046112b8565b610a2c565b34801561038757600080fd5b5061015c60025481565b34801561039d57600080fd5b506103a6610ab4565b60405161011b9c9b9a99989796959493929190611542565b3480156103ca57600080fd5b506103f27f000000000000000000000000000000000000000000000000000000000000000081565b6040516001600160a01b03909116815260200161011b565b34801561041657600080fd5b5061043e7f000000000000000000000000000000000000000000000000000000000000000081565b60405161011b919061149e565b34801561045757600080fd5b5061024c610e24565b6001818154811061047057600080fd5b90600052602060002001600091509050805461048b9061165a565b80601f01602080910402602001604051908101604052809291908181526020018280546104b79061165a565b80156105045780601f106104d957610100808354040283529160200191610504565b820191906000526020600020905b8154815290600101906020018083116104e757829003601f168201915b505050505081565b6000818154811061047057600080fd5b336001600160a01b037f0000000000000000000000000000000000000000000000000000000000000000161461056d5760405162461bcd60e51b8152600401610564906114db565b60405180910390fd5b600082116105b15760405162461bcd60e51b8152602060048201526011602482015270043616e6e6f74207769746864726177203607c1b6044820152606401610564565b60006004805460ff16908111156105ca576105ca6116ab565b141561061f5760405162461bcd60e51b815260206004820152603060248201526000805160206116ed83398151915260448201526f7220746861742069732061637469766560801b6064820152608401610564565b6001600160a01b038116600090815260056020526040902054808311156106a05760405162461bcd60e51b815260206004820152602f60248201527f536f7272792c2063616e2774207769746864726177206d6f7265207468616e2060448201526e746f74616c20646f6e6174696f6e7360881b6064820152608401610564565b6106aa8382611643565b6001600160a01b03831660008181526005602052604090209190915561075b57604051600090339085908381818185875af1925050503d806000811461070c576040519150601f19603f3d011682016040523d82523d6000602084013e610711565b606091505b50509050806107555760405162461bcd60e51b815260206004820152601060248201526f2a3930b739b332b9103330b4b632b21760811b6044820152606401610564565b50505050565b604051630cdeca0960e01b815260040160405180910390fd5b6000806004805460ff169081111561078e5761078e6116ab565b146107e65760405162461bcd60e51b815260206004820152603460248201526000805160206116ed833981519152604482015273722074686174206973206e6f742061637469766560601b6064820152608401610564565b600083116108295760405162461bcd60e51b815260206004820152601060248201526f043616e6e6f74206465706f73697420360841b6044820152606401610564565b6001600160a01b03821661075b5782341461084357600080fd5b6001600160a01b03841660009081526006602090815260408083208380529091529020546108729084906115ea565b6001600160a01b03851660009081526006602090815260408083208380528252909120919091556005905260008051602061170d833981519152546108b89084906115ea565b60008052600560205260008051602061170d833981519152556108d9610eee565b5060019392505050565b336001600160a01b037f0000000000000000000000000000000000000000000000000000000000000000161461092b5760405162461bcd60e51b8152600401610564906114db565b600154811061096e5760405162461bcd60e51b815260206004820152600f60248201526e125b5859d9481b9bdd08199bdd5b99608a1b6044820152606401610564565b600255565b6003805461048b9061165a565b336001600160a01b037f000000000000000000000000000000000000000000000000000000000000000016146109c85760405162461bcd60e51b8152600401610564906114db565b6001805480820182556000919091528251610a0a917fb10e2d527612073b26eecdfd717e6a320cf44b4afac2b0732d9fcbe2b7fa0cf6019060208501906110bb565b5060018115151415610a285760018054610a249190611643565b6002555b5050565b336001600160a01b037f00000000000000000000000000000000000000000000000000000000000000001614610a745760405162461bcd60e51b8152600401610564906114db565b600080546001810182559080528151610a28917f290decd9548b62a8d60345a988386fc84ba6bc95484008f6362f93160ef3e563019060208401906110bb565b600080600080600080606080600060606000807f00000000000000000000000000000000000000000000000000000000000000007f00000000000000000000000000000000000000000000000000000000000000007f00000000000000000000000000000000000000000000000000000000000000007f00000000000000000000000000000000000000000000000000000000000000007f00000000000000000000000000000000000000000000000000000000000000007f0000000000000000000000000000000000000000000000000000000000000000600060016002546003600460009054906101000a900460ff1660056000806001600160a01b03166001600160a01b031681526020019081526020016000205485805480602002602001604051908101604052809291908181526020016000905b82821015610c99578382906000526020600020018054610c0c9061165a565b80601f0160208091040260200160405190810160405280929190818152602001828054610c389061165a565b8015610c855780601f10610c5a57610100808354040283529160200191610c85565b820191906000526020600020905b815481529060010190602001808311610c6857829003601f168201915b505050505081526020019060010190610bed565b50505050955084805480602002602001604051908101604052809291908181526020016000905b82821015610d6c578382906000526020600020018054610cdf9061165a565b80601f0160208091040260200160405190810160405280929190818152602001828054610d0b9061165a565b8015610d585780601f10610d2d57610100808354040283529160200191610d58565b820191906000526020600020905b815481529060010190602001808311610d3b57829003601f168201915b505050505081526020019060010190610cc0565b505050509450828054610d7e9061165a565b80601f0160208091040260200160405190810160405280929190818152602001828054610daa9061165a565b8015610df75780601f10610dcc57610100808354040283529160200191610df7565b820191906000526020600020905b815481529060010190602001808311610dda57829003601f168201915b505050505092509b509b509b509b509b509b509b509b509b509b509b509b50909192939495969798999a9b565b336001600160a01b037f00000000000000000000000000000000000000000000000000000000000000001614610e6c5760405162461bcd60e51b8152600401610564906114db565b60006004805460ff1690811115610e8557610e856116ab565b14610ee05760405162461bcd60e51b815260206004820152602560248201527f596f752063616e206f6e6c7920636c6f7365206163746976652066756e647261604482015264697365727360d81b6064820152608401610564565b6004805460ff191681179055565b7f000000000000000000000000000000000000000000000000000000000000000015611002576000610fc97f00000000000000000000000000000000000000000000000000000000000000006001600160a01b0316630ec3b0276040518163ffffffff1660e01b815260040160206040518083038186803b158015610f7257600080fd5b505afa158015610f86573d6000803e3d6000fd5b505050506040513d601f19601f82011682018060405250810190610faa919061129b565b60008052600560205260008051602061170d8339815191525490611004565b90507f00000000000000000000000000000000000000000000000000000000000000008110611000576004805460ff191660011790555b505b565b6000806110108361103b565b905069d3c21bcecceda10000006110278583611624565b6110319190611602565b9150505b92915050565b600080826001600160a01b031663feaf968c6040518163ffffffff1660e01b815260040160a06040518083038186803b15801561107757600080fd5b505afa15801561108b573d6000803e3d6000fd5b505050506040513d601f19601f820116820180604052508101906110af9190611375565b50919695505050505050565b8280546110c79061165a565b90600052602060002090601f0160209004810192826110e9576000855561112f565b82601f1061110257805160ff191683800117855561112f565b8280016001018555821561112f579182015b8281111561112f578251825591602001919060010190611114565b5061113b92915061113f565b5090565b5b8082111561113b5760008155600101611140565b600082601f83011261116557600080fd5b81356001600160401b038082111561117f5761117f6116c1565b604051601f8301601f19908116603f011681019082821181831017156111a7576111a76116c1565b816040528381528660208588010111156111c057600080fd5b836020870160208301376000602085830101528094505050505092915050565b80516001600160501b03811681146111f757600080fd5b919050565b60006020828403121561120e57600080fd5b8135611219816116d7565b9392505050565b6000806040838503121561123357600080fd5b823561123e816116d7565b9150602083013561124e816116d7565b809150509250929050565b60008060006060848603121561126e57600080fd5b8335611279816116d7565b9250602084013591506040840135611290816116d7565b809150509250925092565b6000602082840312156112ad57600080fd5b8151611219816116d7565b6000602082840312156112ca57600080fd5b81356001600160401b038111156112e057600080fd5b61103184828501611154565b600080604083850312156112ff57600080fd5b82356001600160401b0381111561131557600080fd5b61132185828601611154565b9250506020830135801515811461124e57600080fd5b60006020828403121561134957600080fd5b5035919050565b6000806040838503121561136357600080fd5b82359150602083013561124e816116d7565b600080600080600060a0868803121561138d57600080fd5b611396866111e0565b94506020860151935060408601519250606086015191506113b9608087016111e0565b90509295509295909350565b600082825180855260208086019550808260051b84010181860160005b8481101561141057601f198684030189526113fe838351611451565b988401989250908301906001016113e2565b5090979650505050505050565b6006811061142d5761142d6116ab565b9052565b6005811061142d5761142d6116ab565b6003811061142d5761142d6116ab565b6000815180845260005b818110156114775760208185018101518683018201520161145b565b81811115611489576000602083870101525b50601f01601f19169290920160200192915050565b60208101611035828461141d565b602081016110358284611431565b602081016110358284611441565b6020815260006112196020830184611451565b60208082526041908201527f596f75206d75737420626520746865206f776e6572206f66207468652066756e60408201527f6472616973657220746f20706572666f726d2074686973206f7065726174696f6060820152603760f91b608082015260a00190565b8c81526001600160a01b038c1660208201526000610180611566604084018e611441565b611573606084018d61141d565b8a60808401528960a08401528060c08401526115918184018a6113c5565b905082810360e08401526115a581896113c5565b9050866101008401528281036101208401526115c18187611451565b9150506115d2610140830185611431565b826101608301529d9c50505050505050505050505050565b600082198211156115fd576115fd611695565b500190565b60008261161f57634e487b7160e01b600052601260045260246000fd5b500490565b600081600019048311821515161561163e5761163e611695565b500290565b60008282101561165557611655611695565b500390565b600181811c9082168061166e57607f821691505b6020821081141561168f57634e487b7160e01b600052602260045260246000fd5b50919050565b634e487b7160e01b600052601160045260246000fd5b634e487b7160e01b600052602160045260246000fd5b634e487b7160e01b600052604160045260246000fd5b6001600160a01b038116811461100057600080fdfe596f752063616e6e6f7420646f6e61746520746f20612066756e64726169736505b8ccbb9d4d8fb16ea74ce3c29a41f1b461fbdaff4714a0d9a8eb05499746bca26469706673582212200c53822b2b628800b1eef3df5cae4c108700f55b70247c4b912621bf0203e95964736f6c63430008070033c74b13afc7ea4cc43b81bbda4c6db15d24751ccde1c9eae797e941d0510830cda26469706673582212204ea9212464f236e749f64921741843a592ad14b022f65d22c9e67bca45b40be464736f6c63430008070033",
  "linkReferences": {},
  "deployedLinkReferences": {}
}