{
  "_format": "hh-sol-artifact-1",
  "contractName": "DeFundFactory",
  "sourceName": "contracts/DeFundFactory.sol",
  "abi": [
    {
      "inputs": [],
      "stateMutability": "nonpayable",
      "type": "constructor"
    },
    {
      "inputs": [],
      "name": "DeFundFactory__deposit__less_than_declared",
      "type": "error"
    },
    {
      "inputs": [],
      "name": "DeFundFactory__deposit__token_not_allowed",
      "type": "error"
    },
    {
      "inputs": [],
      "name": "DeFundFactory__deposit__zero_deposit",
      "type": "error"
    },
    {
      "inputs": [],
      "name": "DeFundFactory__not_implemented",
      "type": "error"
    },
    {
      "anonymous": false,
      "inputs": [
        {
          "indexed": true,
          "internalType": "uint256",
          "name": "fundraiserId",
          "type": "uint256"
        },
        {
          "indexed": true,
          "internalType": "address",
          "name": "creator",
          "type": "address"
        },
        {
          "indexed": false,
          "internalType": "string",
          "name": "title",
          "type": "string"
        },
        {
          "indexed": false,
          "internalType": "enum DeFundModel.FundraiserType",
          "name": "fundraiserType",
          "type": "uint8"
        },
        {
          "indexed": false,
          "internalType": "enum DeFundModel.FundraiserCategory",
          "name": "category",
          "type": "uint8"
        },
        {
          "indexed": false,
          "internalType": "uint256",
          "name": "endDate",
          "type": "uint256"
        },
        {
          "indexed": false,
          "internalType": "uint256",
          "name": "goalAmount",
          "type": "uint256"
        }
      ],
      "name": "FundraiserCreated",
      "type": "event"
    },
    {
      "anonymous": false,
      "inputs": [
        {
          "indexed": true,
          "internalType": "address",
          "name": "previousOwner",
          "type": "address"
        },
        {
          "indexed": true,
          "internalType": "address",
          "name": "newOwner",
          "type": "address"
        }
      ],
      "name": "OwnershipTransferred",
      "type": "event"
    },
    {
      "anonymous": false,
      "inputs": [
        {
          "indexed": true,
          "internalType": "address",
          "name": "creator",
          "type": "address"
        },
        {
          "indexed": false,
          "internalType": "address",
          "name": "tokenAddress",
          "type": "address"
        },
        {
          "indexed": false,
          "internalType": "uint256",
          "name": "previousBalance",
          "type": "uint256"
        },
        {
          "indexed": false,
          "internalType": "uint256",
          "name": "newBalance",
          "type": "uint256"
        }
      ],
      "name": "UserBalanceChanged",
      "type": "event"
    },
    {
      "inputs": [
        {
          "internalType": "address",
          "name": "_tokenAddress",
          "type": "address"
        }
      ],
      "name": "allowToken",
      "outputs": [],
      "stateMutability": "nonpayable",
      "type": "function"
    },
    {
      "inputs": [
        {
          "internalType": "uint256",
          "name": "_id",
          "type": "uint256"
        }
      ],
      "name": "cancelRecurringPayment",
      "outputs": [],
      "stateMutability": "nonpayable",
      "type": "function"
    },
    {
      "inputs": [
        {
          "internalType": "bytes",
          "name": "",
          "type": "bytes"
        }
      ],
      "name": "checkUpkeep",
      "outputs": [
        {
          "internalType": "bool",
          "name": "upkeepNeeded",
          "type": "bool"
        },
        {
          "internalType": "bytes",
          "name": "",
          "type": "bytes"
        }
      ],
      "stateMutability": "view",
      "type": "function"
    },
    {
      "inputs": [
        {
          "internalType": "enum DeFundModel.FundraiserType",
          "name": "_type",
          "type": "uint8"
        },
        {
          "internalType": "enum DeFundModel.FundraiserCategory",
          "name": "_category",
          "type": "uint8"
        },
        {
          "internalType": "string",
          "name": "_name",
          "type": "string"
        },
        {
          "internalType": "string",
          "name": "_description",
          "type": "string"
        },
        {
          "internalType": "uint256",
          "name": "_endDate",
          "type": "uint256"
        },
        {
          "internalType": "uint256",
          "name": "_goalAmount",
          "type": "uint256"
        }
      ],
      "name": "createFundraiser",
      "outputs": [
        {
          "internalType": "uint256",
          "name": "fundraiserId",
          "type": "uint256"
        }
      ],
      "stateMutability": "nonpayable",
      "type": "function"
    },
    {
      "inputs": [
        {
          "internalType": "address",
          "name": "_targetFundraiser",
          "type": "address"
        },
        {
          "internalType": "address",
          "name": "_tokenAddress",
          "type": "address"
        },
        {
          "internalType": "uint256",
          "name": "_amount",
          "type": "uint256"
        },
        {
          "internalType": "uint32",
          "name": "_intervalHours",
          "type": "uint32"
        }
      ],
      "name": "createRecurringPayment",
      "outputs": [
        {
          "internalType": "uint256",
          "name": "recurringPaymentId",
          "type": "uint256"
        }
      ],
      "stateMutability": "nonpayable",
      "type": "function"
    },
    {
      "inputs": [
        {
          "internalType": "uint256",
          "name": "_amount",
          "type": "uint256"
        },
        {
          "internalType": "address",
          "name": "_tokenAddress",
          "type": "address"
        }
      ],
      "name": "depositFunds",
      "outputs": [],
      "stateMutability": "payable",
      "type": "function"
    },
    {
      "inputs": [
        {
          "internalType": "address",
          "name": "_fundraiserAddress",
          "type": "address"
        },
        {
          "internalType": "uint256",
          "name": "_amount",
          "type": "uint256"
        },
        {
          "internalType": "address",
          "name": "_tokenAddress",
          "type": "address"
        }
      ],
      "name": "donateByAddress",
      "outputs": [],
      "stateMutability": "nonpayable",
      "type": "function"
    },
    {
      "inputs": [
        {
          "internalType": "uint256",
          "name": "_fundraiserId",
          "type": "uint256"
        },
        {
          "internalType": "uint256",
          "name": "_amount",
          "type": "uint256"
        },
        {
          "internalType": "address",
          "name": "_tokenAddress",
          "type": "address"
        }
      ],
      "name": "donateById",
      "outputs": [],
      "stateMutability": "nonpayable",
      "type": "function"
    },
    {
      "inputs": [
        {
          "internalType": "address",
          "name": "_token",
          "type": "address"
        }
      ],
      "name": "getMyBalance",
      "outputs": [
        {
          "internalType": "uint256",
          "name": "balance",
          "type": "uint256"
        }
      ],
      "stateMutability": "view",
      "type": "function"
    },
    {
      "inputs": [],
      "name": "getMyRecurringPayments",
      "outputs": [
        {
          "components": [
            {
              "internalType": "uint256",
              "name": "id",
              "type": "uint256"
            },
            {
              "internalType": "address",
              "name": "owner",
              "type": "address"
            },
            {
              "internalType": "address",
              "name": "target",
              "type": "address"
            },
            {
              "internalType": "address",
              "name": "tokenAddress",
              "type": "address"
            },
            {
              "internalType": "uint256",
              "name": "amount",
              "type": "uint256"
            },
            {
              "internalType": "uint32",
              "name": "intervalHours",
              "type": "uint32"
            },
            {
              "internalType": "uint256",
              "name": "lastExecution",
              "type": "uint256"
            },
            {
              "internalType": "enum DeFundModel.RecurringPaymentStatus",
              "name": "status",
              "type": "uint8"
            }
          ],
          "internalType": "struct DeFundModel.RecurringPaymentDisposition[]",
          "name": "recurringPayments",
          "type": "tuple[]"
        }
      ],
      "stateMutability": "view",
      "type": "function"
    },
    {
      "inputs": [
        {
          "internalType": "address",
          "name": "_tokenAddress",
          "type": "address"
        }
      ],
      "name": "isTokenAllowed",
      "outputs": [
        {
          "internalType": "bool",
          "name": "",
          "type": "bool"
        }
      ],
      "stateMutability": "view",
      "type": "function"
    },
    {
      "inputs": [
        {
          "internalType": "enum DeFundModel.FundraiserStatus",
          "name": "_status",
          "type": "uint8"
        }
      ],
      "name": "listFundraisersByStatus",
      "outputs": [
        {
          "components": [
            {
              "internalType": "uint256",
              "name": "id",
              "type": "uint256"
            },
            {
              "internalType": "address",
              "name": "addr",
              "type": "address"
            },
            {
              "internalType": "address",
              "name": "owner",
              "type": "address"
            },
            {
              "internalType": "enum DeFundModel.FundraiserType",
              "name": "fType",
              "type": "uint8"
            },
            {
              "internalType": "enum DeFundModel.FundraiserCategory",
              "name": "category",
              "type": "uint8"
            },
            {
              "internalType": "uint256",
              "name": "endDate",
              "type": "uint256"
            },
            {
              "internalType": "uint256",
              "name": "goalAmount",
              "type": "uint256"
            },
            {
              "internalType": "string",
              "name": "description",
              "type": "string"
            },
            {
              "internalType": "string",
              "name": "defaultImage",
              "type": "string"
            },
            {
              "internalType": "string",
              "name": "name",
              "type": "string"
            },
            {
              "internalType": "enum DeFundModel.FundraiserStatus",
              "name": "status",
              "type": "uint8"
            }
          ],
          "internalType": "struct DeFundModel.FundraiserItem[]",
          "name": "fundraisersByStatus",
          "type": "tuple[]"
        }
      ],
      "stateMutability": "view",
      "type": "function"
    },
    {
      "inputs": [],
      "name": "owner",
      "outputs": [
        {
          "internalType": "address",
          "name": "",
          "type": "address"
        }
      ],
      "stateMutability": "view",
      "type": "function"
    },
    {
      "inputs": [
        {
          "internalType": "bytes",
          "name": "",
          "type": "bytes"
        }
      ],
      "name": "performUpkeep",
      "outputs": [],
      "stateMutability": "nonpayable",
      "type": "function"
    },
    {
      "inputs": [],
      "name": "renounceOwnership",
      "outputs": [],
      "stateMutability": "nonpayable",
      "type": "function"
    },
    {
      "inputs": [
        {
          "internalType": "uint256",
          "name": "",
          "type": "uint256"
        }
      ],
      "name": "s_allowedERC20Tokens",
      "outputs": [
        {
          "internalType": "address",
          "name": "",
          "type": "address"
        }
      ],
      "stateMutability": "view",
      "type": "function"
    },
    {
      "inputs": [
        {
          "internalType": "uint256",
          "name": "",
          "type": "uint256"
        }
      ],
      "name": "s_fundraisers",
      "outputs": [
        {
          "internalType": "address",
          "name": "",
          "type": "address"
        }
      ],
      "stateMutability": "view",
      "type": "function"
    },
    {
      "inputs": [
        {
          "internalType": "address",
          "name": "",
          "type": "address"
        },
        {
          "internalType": "uint256",
          "name": "",
          "type": "uint256"
        }
      ],
      "name": "s_fundraisersByOwner",
      "outputs": [
        {
          "internalType": "uint256",
          "name": "",
          "type": "uint256"
        }
      ],
      "stateMutability": "view",
      "type": "function"
    },
    {
      "inputs": [],
      "name": "s_lastTimeStamp",
      "outputs": [
        {
          "internalType": "uint256",
          "name": "",
          "type": "uint256"
        }
      ],
      "stateMutability": "view",
      "type": "function"
    },
    {
      "inputs": [],
      "name": "s_priceFeed",
      "outputs": [
        {
          "internalType": "contract AggregatorV3Interface",
          "name": "",
          "type": "address"
        }
      ],
      "stateMutability": "view",
      "type": "function"
    },
    {
      "inputs": [
        {
          "internalType": "uint256",
          "name": "",
          "type": "uint256"
        }
      ],
      "name": "s_recurringPayments",
      "outputs": [
        {
          "internalType": "uint256",
          "name": "id",
          "type": "uint256"
        },
        {
          "internalType": "address",
          "name": "owner",
          "type": "address"
        },
        {
          "internalType": "address",
          "name": "target",
          "type": "address"
        },
        {
          "internalType": "address",
          "name": "tokenAddress",
          "type": "address"
        },
        {
          "internalType": "uint256",
          "name": "amount",
          "type": "uint256"
        },
        {
          "internalType": "uint32",
          "name": "intervalHours",
          "type": "uint32"
        },
        {
          "internalType": "uint256",
          "name": "lastExecution",
          "type": "uint256"
        },
        {
          "internalType": "enum DeFundModel.RecurringPaymentStatus",
          "name": "status",
          "type": "uint8"
        }
      ],
      "stateMutability": "view",
      "type": "function"
    },
    {
      "inputs": [
        {
          "internalType": "address",
          "name": "",
          "type": "address"
        },
        {
          "internalType": "uint256",
          "name": "",
          "type": "uint256"
        }
      ],
      "name": "s_recurringPaymentsByOwner",
      "outputs": [
        {
          "internalType": "uint256",
          "name": "",
          "type": "uint256"
        }
      ],
      "stateMutability": "view",
      "type": "function"
    },
    {
      "inputs": [
        {
          "internalType": "address",
          "name": "",
          "type": "address"
        },
        {
          "internalType": "address",
          "name": "",
          "type": "address"
        }
      ],
      "name": "s_userBalances",
      "outputs": [
        {
          "internalType": "uint256",
          "name": "",
          "type": "uint256"
        }
      ],
      "stateMutability": "view",
      "type": "function"
    },
    {
      "inputs": [
        {
          "internalType": "address",
          "name": "newOwner",
          "type": "address"
        }
      ],
      "name": "transferOwnership",
      "outputs": [],
      "stateMutability": "nonpayable",
      "type": "function"
    },
    {
      "inputs": [
        {
          "internalType": "uint256",
          "name": "_amount",
          "type": "uint256"
        },
        {
          "internalType": "address",
          "name": "_tokenAddress",
          "type": "address"
        }
      ],
      "name": "withdrawFunds",
      "outputs": [],
      "stateMutability": "nonpayable",
      "type": "function"
    }
  ],
  "bytecode": "0x608060405260006001556000600255610e10600b5534801561002057600080fd5b5061002a33610059565b600a80546001600160a01b031916739326bfa02add2366b30bacb125260af641031331179055426003556100a9565b600080546001600160a01b038381166001600160a01b0319831681178455604051919092169283917f8be0079c531659141344cd1fd0a4f28419497f9722a3daafe3b4186f6b6457e09190a35050565b614c0780620000b96000396000f3fe608060405260043610620001405760003560e01c80630d2952c214620001455780630ec3b02714620001825780631a94cb3314620001bd57806321eb73f0146200024d5780632c186fcf14620002725780633485404314620002995780633d958db714620002c05780633d96642914620002e557806340decd3a146200030c5780634585e33b146200033157806357f93b7114620003565780635a370cb4146200037b5780636e04ff0d14620003a0578063715018a614620003d5578063744bfe6114620003ed5780637e3ef7cd14620004125780638da5cb5b14620004595780638db9459f1462000471578063b0a6169c1462000496578063b53472ef14620004d2578063ce534c2d14620004f7578063f2fde38b146200051c578063f785de231462000541578063f9d03e461462000558578063f9eaee0d1462000592575b600080fd5b3480156200015257600080fd5b506200016a62000164366004620026f2565b620005c8565b60405162000179919062002a04565b60405180910390f35b3480156200018f57600080fd5b50600a54620001a4906001600160a01b031681565b6040516001600160a01b03909116815260200162000179565b348015620001ca57600080fd5b5062000237620001dc3660046200287f565b6008602052600090815260409020805460018201546002830154600384015460048501546005860154600687015460079097015495966001600160a01b03958616969486169590931693919263ffffffff9091169160ff1688565b6040516200017998979695949392919062002ce5565b3480156200025a57600080fd5b50620001a46200026c3660046200287f565b62001038565b3480156200027f57600080fd5b506200029762000291366004620028db565b62001063565b005b348015620002a657600080fd5b50620002b160035481565b60405190815260200162000179565b348015620002cd57600080fd5b50620002b1620002df3660046200256c565b6200108d565b348015620002f257600080fd5b50620002fd620010bf565b60405162000179919062002b40565b3480156200031957600080fd5b50620002976200032b3660046200259b565b620012a2565b3480156200033e57600080fd5b50620002976200035036600462002606565b6200143d565b3480156200036357600080fd5b50620002b16200037536600462002752565b620016a5565b3480156200038857600080fd5b50620002b16200039a3660046200256c565b620017eb565b348015620003ad57600080fd5b50620003c5620003bf3660046200264b565b62001808565b6040516200017992919062002bf3565b348015620003e257600080fd5b506200029762001ad6565b348015620003fa57600080fd5b50620002976200040c366004620028b3565b62001b18565b3480156200041f57600080fd5b50620002b16200043136600462002485565b3360009081526005602090815260408083206001600160a01b03949094168352929052205490565b3480156200046657600080fd5b50620001a462001cad565b3480156200047e57600080fd5b50620002b1620004903660046200250a565b62001cbc565b348015620004a357600080fd5b50620002b1620004b5366004620024cc565b600560209081526000928352604080842090915290825290205481565b348015620004df57600080fd5b5062000297620004f136600462002485565b62001d7d565b3480156200050457600080fd5b5062000297620005163660046200287f565b62001e03565b3480156200052957600080fd5b50620002976200053b36600462002485565b62001e8e565b6200029762000552366004620028b3565b62001f34565b3480156200056557600080fd5b50620001a4620005773660046200287f565b6006602052600090815260409020546001600160a01b031681565b3480156200059f57600080fd5b50620005b7620005b136600462002485565b6200205a565b604051901515815260200162000179565b60606000805b600154811015620006b957836004811115620005ee57620005ee62002ee1565b60008281526006602090815260409182902054825163072961cb60e21b815292516001600160a01b0390911692631ca5872c926004808301939192829003018186803b1580156200063e57600080fd5b505afa15801562000653573d6000803e3d6000fd5b505050506040513d601f19601f8201168201806040525081019062000679919062002712565b60048111156200068d576200068d62002ee1565b1415620006a45781620006a08162002ead565b9250505b80620006b08162002ead565b915050620005ce565b506000816001600160401b03811115620006d757620006d762002f0d565b6040519080825280602002602001820160405280156200071457816020015b62000700620023bf565b815260200190600190039081620006f65790505b5090508162000724579392505050565b60005b8281101562001030576000818152600660205260409020546001600160a01b03168560048111156200075d576200075d62002ee1565b816001600160a01b0316631ca5872c6040518163ffffffff1660e01b815260040160206040518083038186803b1580156200079757600080fd5b505afa158015620007ac573d6000803e3d6000fd5b505050506040513d601f19601f82011682018060405250810190620007d2919062002712565b6004811115620007e657620007e662002ee1565b14156200101a57806001600160a01b031663779fa30f6040518163ffffffff1660e01b815260040160206040518083038186803b1580156200082757600080fd5b505afa1580156200083c573d6000803e3d6000fd5b505050506040513d601f19601f8201168201806040525081019062000862919062002899565b83838151811062000877576200087762002ef7565b6020908102919091018101519190915260008381526006909152604090205483516001600160a01b0390911690849084908110620008b957620008b962002ef7565b6020026020010151602001906001600160a01b031690816001600160a01b031681525050806001600160a01b031663dba6335f6040518163ffffffff1660e01b815260040160206040518083038186803b1580156200091757600080fd5b505afa1580156200092c573d6000803e3d6000fd5b505050506040513d601f19601f82011682018060405250810190620009529190620024ac565b83838151811062000967576200096762002ef7565b6020026020010151604001906001600160a01b031690816001600160a01b031681525050806001600160a01b031663554abf526040518163ffffffff1660e01b815260040160206040518083038186803b158015620009c557600080fd5b505afa158015620009da573d6000803e3d6000fd5b505050506040513d601f19601f8201168201806040525081019062000a00919062002732565b83838151811062000a155762000a1562002ef7565b602002602001015160600190600281111562000a355762000a3562002ee1565b9081600281111562000a4b5762000a4b62002ee1565b81525050806001600160a01b031663f950e69c6040518163ffffffff1660e01b815260040160206040518083038186803b15801562000a8957600080fd5b505afa15801562000a9e573d6000803e3d6000fd5b505050506040513d601f19601f8201168201806040525081019062000ac49190620026d2565b83838151811062000ad95762000ad962002ef7565b602002602001015160800190600581111562000af95762000af962002ee1565b9081600581111562000b0f5762000b0f62002ee1565b81525050806001600160a01b031663bba1964f6040518163ffffffff1660e01b815260040160006040518083038186803b15801562000b4d57600080fd5b505afa15801562000b62573d6000803e3d6000fd5b505050506040513d6000823e601f3d908101601f1916820160405262000b8c919081019062002800565b83838151811062000ba15762000ba162002ef7565b602002602001015161012001819052506000816001600160a01b03166352ddf8626040518163ffffffff1660e01b815260040160206040518083038186803b15801562000bed57600080fd5b505afa15801562000c02573d6000803e3d6000fd5b505050506040513d601f19601f8201168201806040525081019062000c28919062002899565b111562000cd457604051636680ba7d60e01b8152600060048201526001600160a01b03821690636680ba7d9060240160006040518083038186803b15801562000c7057600080fd5b505afa15801562000c85573d6000803e3d6000fd5b505050506040513d6000823e601f3d908101601f1916820160405262000caf919081019062002800565b83838151811062000cc45762000cc462002ef7565b602002602001015160e001819052505b806001600160a01b031663369268666040518163ffffffff1660e01b815260040160206040518083038186803b15801562000d0e57600080fd5b505afa15801562000d23573d6000803e3d6000fd5b505050506040513d601f19601f8201168201806040525081019062000d49919062002899565b83838151811062000d5e5762000d5e62002ef7565b602002602001015160a0018181525050806001600160a01b031663853a68666040518163ffffffff1660e01b815260040160206040518083038186803b15801562000da857600080fd5b505afa15801562000dbd573d6000803e3d6000fd5b505050506040513d601f19601f8201168201806040525081019062000de3919062002899565b83838151811062000df85762000df862002ef7565b602002602001015160c0018181525050806001600160a01b031663ca2b72206040518163ffffffff1660e01b815260040160206040518083038186803b15801562000e4257600080fd5b505afa15801562000e57573d6000803e3d6000fd5b505050506040513d601f19601f8201168201806040525081019062000e7d919062002899565b816001600160a01b0316638742993d6040518163ffffffff1660e01b815260040160206040518083038186803b15801562000eb757600080fd5b505afa15801562000ecc573d6000803e3d6000fd5b505050506040513d601f19601f8201168201806040525081019062000ef2919062002899565b11156200101a57806001600160a01b03166343394df4826001600160a01b031663ca2b72206040518163ffffffff1660e01b815260040160206040518083038186803b15801562000f4257600080fd5b505afa15801562000f57573d6000803e3d6000fd5b505050506040513d601f19601f8201168201806040525081019062000f7d919062002899565b6040518263ffffffff1660e01b815260040162000f9c91815260200190565b60006040518083038186803b15801562000fb557600080fd5b505afa15801562000fca573d6000803e3d6000fd5b505050506040513d6000823e601f3d908101601f1916820160405262000ff4919081019062002800565b83838151811062001009576200100962002ef7565b602002602001015161010001819052505b5080620010278162002ead565b91505062000727565b509392505050565b600481815481106200104957600080fd5b6000918252602090912001546001600160a01b0316905081565b60008381526006602052604090205462001088906001600160a01b03168383620012a2565b505050565b60096020528160005260406000208181548110620010aa57600080fd5b90600052602060002001600091509150505481565b336000908152600960205260409020546060906001600160401b03811115620010ec57620010ec62002f0d565b6040519080825280602002602001820160405280156200116557816020015b620011516040805161010081018252600080825260208201819052918101829052606081018290526080810182905260a0810182905260c081018290529060e082015290565b8152602001906001900390816200110b5790505b50905060005b336000908152600960205260409020548110156200129e573360009081526009602052604081208054600892919084908110620011ac57620011ac62002ef7565b600091825260208083209091015483528281019390935260409182019020815161010081018352815481526001808301546001600160a01b039081169583019590955260028301548516938201939093526003820154909316606084015260048101546080840152600581015463ffffffff1660a0840152600681015460c08401526007810154909160e084019160ff169081111562001250576200125062002ee1565b600181111562001264576200126462002ee1565b815250508282815181106200127d576200127d62002ef7565b60200260200101819052508080620012959062002ead565b9150506200116b565b5090565b60008211620012ea5760405162461bcd60e51b815260206004820152600f60248201526e043616e6e6f7420646f6e617465203608c1b60448201526064015b60405180910390fd5b3360009081526005602090815260408083206001600160a01b038516845290915290205480831115620013315760405162461bcd60e51b8152600401620012e19062002c5a565b6200133d838262002e64565b3360009081526005602090815260408083206001600160a01b0387168085529252909120919091556200141e576000846001600160a01b03166374e781b3853387876040518563ffffffff1660e01b81526004016200139f93929190620029c0565b6020604051808303818588803b158015620013b957600080fd5b505af1158015620013ce573d6000803e3d6000fd5b50505050506040513d601f19601f82011682018060405250810190620013f59190620025e2565b905080620014175760405162461bcd60e51b8152600401620012e19062002cbb565b5062001437565b60405163730d669f60e11b815260040160405180910390fd5b50505050565b60005b600254811015620010885760008181526008602052604081206007015460ff16600181111562001474576200147462002ee1565b14620014805762001690565b6001600082815260086020908152604091829020600201548251632aa55fa960e11b815292516001600160a01b039091169263554abf52926004808301939192829003018186803b158015620014d557600080fd5b505afa158015620014ea573d6000803e3d6000fd5b505050506040513d601f19601f8201168201806040525081019062001510919062002732565b600281111562001524576200152462002ee1565b14620015305762001690565b600081815260086020908152604080832060020154815163072961cb60e21b815291516001600160a01b0390911692631ca5872c9260048082019391829003018186803b1580156200158157600080fd5b505afa15801562001596573d6000803e3d6000fd5b505050506040513d601f19601f82011682018060405250810190620015bc919062002712565b6004811115620015d057620015d062002ee1565b14620015dc5762001690565b6000818152600860209081526040808320600481015460018201546001600160a01b039081168652600585528386206003909301541685529252909120541015620016275762001690565b6000818152600860205260409020600501546200164c9063ffffffff16603c62002e35565b6200165990603c62002e35565b6000828152600860205260409020600601546200167d9163ffffffff169062002e1a565b42111562001690576200169081620020cc565b806200169c8162002ead565b91505062001440565b6001805490620016b790829062002e1a565b600181905550600081338b8b8b8b8b8b8b8b604051620016d7906200242c565b620016ec9a9998979695949392919062002d42565b604051809103906000f08015801562001709573d6000803e3d6000fd5b509050806006600084815260200190815260200160002060006101000a8154816001600160a01b0302191690836001600160a01b0316021790555060076000336001600160a01b03166001600160a01b03168152602001908152602001600020829080600181540180825580915050600190039060005260206000200160009091909190915055336001600160a01b0316827f2a3720f62d1e85b04f6fdde0ad0f608f61ce672e8bd70c9f4f887b6a9febcf778a8a8e8e8a8a604051620017d69695949392919062002c10565b60405180910390a35098975050505050505050565b60076020528160005260406000208181548110620010aa57600080fd5b600060606000600b546003544262001821919062002e64565b1190506000806001541180156200183a57506000600254115b90506000805b60025481101562001aa45760008181526008602052604081206007015460ff16600181111562001874576200187462002ee1565b14620018805762001a8f565b6001600082815260086020908152604091829020600201548251632aa55fa960e11b815292516001600160a01b039091169263554abf52926004808301939192829003018186803b158015620018d557600080fd5b505afa158015620018ea573d6000803e3d6000fd5b505050506040513d601f19601f8201168201806040525081019062001910919062002732565b600281111562001924576200192462002ee1565b14620019305762001a8f565b600081815260086020908152604080832060020154815163072961cb60e21b815291516001600160a01b0390911692631ca5872c9260048082019391829003018186803b1580156200198157600080fd5b505afa15801562001996573d6000803e3d6000fd5b505050506040513d601f19601f82011682018060405250810190620019bc919062002712565b6004811115620019d057620019d062002ee1565b14620019dc5762001a8f565b6000818152600860209081526040808320600481015460018201546001600160a01b03908116865260058552838620600390930154168552925290912054101562001a275762001a8f565b60008181526008602052604090206005015462001a4c9063ffffffff16603c62002e35565b62001a5990603c62002e35565b60008281526008602052604090206006015462001a7d9163ffffffff169062002e1a565b42111562001a8f576001915062001aa4565b8062001a9b8162002ead565b91505062001840565b5082801562001ab05750815b801562001aba5750805b6040805160208101909152600081529097909650945050505050565b3362001ae162001cad565b6001600160a01b03161462001b0a5760405162461bcd60e51b8152600401620012e19062002c86565b62001b1660006200236f565b565b6000821162001b5e5760405162461bcd60e51b8152602060048201526011602482015270043616e6e6f74207769746864726177203607c1b6044820152606401620012e1565b3360009081526005602090815260408083206001600160a01b03851684529091529020548083111562001ba55760405162461bcd60e51b8152600401620012e19062002c5a565b62001bb1838262002e64565b3360009081526005602090815260408083206001600160a01b0387168085529252909120919091556200141e57604051600090339085908381818185875af1925050503d806000811462001c22576040519150601f19603f3d011682016040523d82523d6000602084013e62001c27565b606091505b505090508062001c4b5760405162461bcd60e51b8152600401620012e19062002cbb565b503360008181526005602090815260408083206001600160a01b038716845290915290205460008051602062004bb283398151915290849062001c8f878662002e64565b60405162001ca093929190620029e3565b60405180910390a2505050565b6000546001600160a01b031690565b60025462001ccc81600162002e1a565b6002908155600082815260086020908152604080832085815560018082018054336001600160a01b03199182168117909255968301805488166001600160a01b038e811691909117909155600384018054909816908c16179096556004820189905560058201805463ffffffff191663ffffffff8a161790556007909101805460ff1916905593835260098252822080549384018155825290200181905562001d7581620020cc565b949350505050565b3362001d8862001cad565b6001600160a01b03161462001db15760405162461bcd60e51b8152600401620012e19062002c86565b600480546001810182556000919091527f8a35acfbc15ff81a39ae7d344fd709f28e8600b4aa8c65c6b64bfe7fe36bd19b0180546001600160a01b0319166001600160a01b0392909216919091179055565b6000818152600860205260409020600101546001600160a01b0316331462001e3e57604051634324405d60e01b815260040160405180910390fd5b60008181526008602052604081206007015460ff16600181111562001e675762001e6762002ee1565b141562001e8b576000818152600860205260409020600701805460ff191660011790555b50565b3362001e9962001cad565b6001600160a01b03161462001ec25760405162461bcd60e51b8152600401620012e19062002c86565b6001600160a01b03811662001f295760405162461bcd60e51b815260206004820152602660248201527f4f776e61626c653a206e6577206f776e657220697320746865207a65726f206160448201526564647265737360d01b6064820152608401620012e1565b62001e8b816200236f565b8162001f535760405163a5964f3f60e01b815260040160405180910390fd5b3360009081526005602090815260408083206001600160a01b0385168085529252909120549062001fe9578234101562001fa057604051633d814a7160e21b815260040160405180910390fd5b33600090815260056020908152604080832083805290915290205462001fc890849062002e1a565b33600090815260056020908152604080832083805290915290205562002012565b62001ff4826200205a565b6200141e57604051634324405d60e01b815260040160405180910390fd5b3360008181526005602090815260408083206001600160a01b03871684529091529081902054905160008051602062004bb28339815191529162001ca09186918691620029e3565b6000805b600454811015620020c357826001600160a01b03166004828154811062002089576200208962002ef7565b6000918252602090912001546001600160a01b03161415620020ae5750600192915050565b80620020ba8162002ead565b9150506200205e565b50600092915050565b600081815260086020818152604080842060018101546001600160a01b039081168652600584528286206003830154909116865283529084205493859052919052600401548110620023575760008281526008602052604090206004015462002136908262002e64565b600083815260086020818152604080842060018101546001600160a01b0390811686526005845282862060038301548216875284529185209590955586845291905260029092015490911690816001600160a01b0316631ca5872c6040518163ffffffff1660e01b815260040160206040518083038186803b158015620021bc57600080fd5b505afa158015620021d1573d6000803e3d6000fd5b505050506040513d601f19601f82011682018060405250810190620021f7919062002712565b60048111156200220b576200220b62002ee1565b148015620022a157506001816001600160a01b031663554abf526040518163ffffffff1660e01b815260040160206040518083038186803b1580156200225057600080fd5b505afa15801562002265573d6000803e3d6000fd5b505050506040513d601f19601f820116820180604052508101906200228b919062002732565b60028111156200229f576200229f62002ee1565b145b15620023555760008381526008602052604090819020600480820154600183015460039093015493516374e781b360e01b81526001600160a01b03868116956374e781b3959394620022fd9483169386939092169101620029c0565b6020604051808303818588803b1580156200231757600080fd5b505af11580156200232c573d6000803e3d6000fd5b50505050506040513d601f19601f82011682018060405250810190620023539190620025e2565b505b505b50600090815260086020526040902042600690910155565b600080546001600160a01b038381166001600160a01b0319831681178455604051919092169283917f8be0079c531659141344cd1fd0a4f28419497f9722a3daafe3b4186f6b6457e09190a35050565b604080516101608101825260008082526020820181905291810182905290606082019081526020016000815260200160008152602001600081526020016060815260200160608152602001606081526020016000600481111562002427576200242762002ee1565b905290565b611c4e8062002f6483390190565b60008083601f8401126200244d57600080fd5b5081356001600160401b038111156200246557600080fd5b6020830191508360208285010111156200247e57600080fd5b9250929050565b6000602082840312156200249857600080fd5b8135620024a58162002f23565b9392505050565b600060208284031215620024bf57600080fd5b8151620024a58162002f23565b60008060408385031215620024e057600080fd5b8235620024ed8162002f23565b91506020830135620024ff8162002f23565b809150509250929050565b600080600080608085870312156200252157600080fd5b84356200252e8162002f23565b93506020850135620025408162002f23565b925060408501359150606085013563ffffffff811681146200256157600080fd5b939692955090935050565b600080604083850312156200258057600080fd5b82356200258d8162002f23565b946020939093013593505050565b600080600060608486031215620025b157600080fd5b8335620025be8162002f23565b9250602084013591506040840135620025d78162002f23565b809150509250925092565b600060208284031215620025f557600080fd5b81518015158114620024a557600080fd5b600080602083850312156200261a57600080fd5b82356001600160401b038111156200263157600080fd5b6200263f858286016200243a565b90969095509350505050565b6000602082840312156200265e57600080fd5b81356001600160401b038111156200267557600080fd5b8201601f810184136200268757600080fd5b80356200269e620026988262002df0565b62002dbd565b818152856020838501011115620026b457600080fd5b81602084016020830137600091810160200191909152949350505050565b600060208284031215620026e557600080fd5b8151620024a58162002f39565b6000602082840312156200270557600080fd5b8135620024a58162002f47565b6000602082840312156200272557600080fd5b8151620024a58162002f47565b6000602082840312156200274557600080fd5b8151620024a58162002f55565b60008060008060008060008060c0898b0312156200276f57600080fd5b88356200277c8162002f55565b975060208901356200278e8162002f39565b965060408901356001600160401b0380821115620027ab57600080fd5b620027b98c838d016200243a565b909850965060608b0135915080821115620027d357600080fd5b50620027e28b828c016200243a565b999c989b5096999598969760808701359660a0013595509350505050565b6000602082840312156200281357600080fd5b81516001600160401b038111156200282a57600080fd5b8201601f810184136200283c57600080fd5b80516200284d620026988262002df0565b8181528560208385010111156200286357600080fd5b6200287682602083016020860162002e7e565b95945050505050565b6000602082840312156200289257600080fd5b5035919050565b600060208284031215620028ac57600080fd5b5051919050565b60008060408385031215620028c757600080fd5b823591506020830135620024ff8162002f23565b600080600060608486031215620028f157600080fd5b83359250602084013591506040840135620025d78162002f23565b6001600160a01b03169052565b600081518084526200293381602086016020860162002e7e565b601f01601f19169290920160200192915050565b600681106200295a576200295a62002ee1565b9052565b600581106200295a576200295a62002ee1565b600381106200295a576200295a62002ee1565b600281106200295a576200295a62002ee1565b81835281816020850137506000828201602090810191909152601f909101601f19169091010190565b6001600160a01b0393841681526020810192909252909116604082015260600190565b6001600160a01b039390931683526020830191909152604082015260600190565b60006020808301818452808551808352604092508286019150828160051b87010184880160005b8381101562002b3257603f198984030185528151610160815185528882015162002a588a8701826200290c565b508782015162002a6b898701826200290c565b5060608083015162002a808288018262002971565b505060808083015162002a968288018262002947565b505060a0828101519086015260c0808301519086015260e08083015181870183905262002ac68388018262002919565b92505050610100808301518683038288015262002ae4838262002919565b92505050610120808301518683038288015262002b02838262002919565b9250505061014080830151925062002b1d818701846200295e565b50958801959350509086019060010162002a2b565b509098975050505050505050565b602080825282518282018190526000919060409081850190868401855b8281101562002be657815180518552868101516001600160a01b039081168887015286820151811687870152606080830151909116908601526080808201519086015260a08082015163ffffffff169086015260c0808201519086015260e0908101519062002bcf8187018362002984565b505061010093909301929085019060010162002b5d565b5091979650505050505050565b821515815260406020820152600062001d75604083018462002919565b60a08152600062002c2660a08301888a62002997565b905062002c37602083018762002971565b62002c46604083018662002947565b606082019390935260800152949350505050565b6020808252601290820152714e6f7420656e6f7567682062616c616e636560701b604082015260600190565b6020808252818101527f4f776e61626c653a2063616c6c6572206973206e6f7420746865206f776e6572604082015260600190565b60208082526010908201526f2a3930b739b332b9103330b4b632b21760811b604082015260600190565b8881526001600160a01b0388811660208301528781166040830152861660608201526080810185905263ffffffff841660a082015260c08101839052610100810162002d3560e083018462002984565b9998505050505050505050565b8a81526001600160a01b038a166020820152600061010062002d68604084018c62002971565b62002d77606084018b62002947565b80608084015262002d8c818401898b62002997565b905082810360a084015262002da381878962002997565b60c0840195909552505060e0015298975050505050505050565b604051601f8201601f191681016001600160401b038111828210171562002de85762002de862002f0d565b604052919050565b60006001600160401b0382111562002e0c5762002e0c62002f0d565b50601f01601f191660200190565b6000821982111562002e305762002e3062002ecb565b500190565b600063ffffffff8083168185168183048111821515161562002e5b5762002e5b62002ecb565b02949350505050565b60008282101562002e795762002e7962002ecb565b500390565b60005b8381101562002e9b57818101518382015260200162002e81565b83811115620014375750506000910152565b600060001982141562002ec45762002ec462002ecb565b5060010190565b634e487b7160e01b600052601160045260246000fd5b634e487b7160e01b600052602160045260246000fd5b634e487b7160e01b600052603260045260246000fd5b634e487b7160e01b600052604160045260246000fd5b6001600160a01b038116811462001e8b57600080fd5b6006811062001e8b57600080fd5b6005811062001e8b57600080fd5b6003811062001e8b57600080fdfe6101606040523480156200001257600080fd5b5060405162001c4e38038062001c4e8339810160408190526200003591620002b5565b60808890526001600160601b0319606088901b1660a052856002811115620000615762000061620003bf565b60c0816002811115620000785762000078620003bf565b60f81b905250846005811115620000935762000093620003bf565b60e0816005811115620000aa57620000aa620003bf565b60f81b9052508351620000c590600390602087019062000133565b5060008054600181018255908052835162000108917f290decd9548b62a8d60345a988386fc84ba6bc95484008f6362f93160ef3e5630190602086019062000133565b503360601b61014052610100919091526101205250506004805460ff1916905550620003eb92505050565b828054620001419062000382565b90600052602060002090601f016020900481019282620001655760008555620001b0565b82601f106200018057805160ff1916838001178555620001b0565b82800160010185558215620001b0579182015b82811115620001b057825182559160200191906001019062000193565b50620001be929150620001c2565b5090565b5b80821115620001be5760008155600101620001c3565b805160068110620001e957600080fd5b919050565b805160038110620001e957600080fd5b600082601f8301126200021057600080fd5b81516001600160401b03808211156200022d576200022d620003d5565b604051601f8301601f19908116603f01168101908282118183101715620002585762000258620003d5565b816040528381526020925086838588010111156200027557600080fd5b600091505b838210156200029957858201830151818301840152908201906200027a565b83821115620002ab5760008385830101525b9695505050505050565b600080600080600080600080610100898b031215620002d357600080fd5b885160208a01519098506001600160a01b0381168114620002f357600080fd5b96506200030360408a01620001ee565b95506200031360608a01620001d9565b60808a01519095506001600160401b03808211156200033157600080fd5b6200033f8c838d01620001fe565b955060a08b01519150808211156200035657600080fd5b50620003658b828c01620001fe565b60c08b015160e0909b0151999c989b509699959894979350505050565b600181811c908216806200039757607f821691505b60208210811415620003b957634e487b7160e01b600052602260045260246000fd5b50919050565b634e487b7160e01b600052602160045260246000fd5b634e487b7160e01b600052604160045260246000fd5b60805160a05160601c60c05160f81c60e05160f81c61010051610120516101405160601c611793620004bb6000396000610f6c0152600081816102e201528181610bbf01528181610f41015261101e015260008181610192015281816108110152818161083a0152610b9e01526000818161045c0152610b7d0152600081816102080152610b5c015260008181610410015281816105670152818161093f015281816109dc01528181610a8801528181610b3b0152610e800152600081816102ae0152610b1a01526117936000f3fe6080604052600436106101055760003560e01c80631ca5872c1461010a5780632a5785421461013a578063369268661461018057806343394df4146101b457806352ddf862146101e1578063554abf52146101f65780636680ba7d14610237578063744bfe611461025757806374e781b314610279578063779fa30f1461029c578063853a6866146102d05780638742993d146103045780638e82814314610319578063ab32eb6914610339578063bba1964f14610366578063bf9f4aab1461037b578063c699db511461039b578063ca2b7220146103bb578063ccc5d7d4146103d1578063dba6335f146103fe578063f950e69c1461044a578063ff2e100c1461048b575b600080fd5b34801561011657600080fd5b506004546101249060ff1681565b60405161013191906114fd565b60405180910390f35b34801561014657600080fd5b50610172610155366004611271565b600660209081526000928352604080842090915290825290205481565b604051908152602001610131565b34801561018c57600080fd5b506101727f000000000000000000000000000000000000000000000000000000000000000081565b3480156101c057600080fd5b506101d46101cf366004611388565b6104a0565b6040516101319190611519565b3480156101ed57600080fd5b50600054610172565b34801561020257600080fd5b5061022a7f000000000000000000000000000000000000000000000000000000000000000081565b604051610131919061150b565b34801561024357600080fd5b506101d4610252366004611388565b61054c565b34801561026357600080fd5b506102776102723660046113a1565b61055c565b005b61028c6102873660046112aa565b610746565b6040519015158152602001610131565b3480156102a857600080fd5b506101727f000000000000000000000000000000000000000000000000000000000000000081565b3480156102dc57600080fd5b506101727f000000000000000000000000000000000000000000000000000000000000000081565b34801561031057600080fd5b50600154610172565b34801561032557600080fd5b50610277610334366004611388565b610934565b34801561034557600080fd5b5061017261035436600461124d565b60056020526000908152604090205481565b34801561037257600080fd5b506101d46109c4565b34801561038757600080fd5b5061027761039636600461133d565b6109d1565b3480156103a757600080fd5b506102776103b6366004611309565b610a7d565b3480156103c757600080fd5b5061017260025481565b3480156103dd57600080fd5b506103e6610b05565b6040516101319c9b9a99989796959493929190611593565b34801561040a57600080fd5b506104327f000000000000000000000000000000000000000000000000000000000000000081565b6040516001600160a01b039091168152602001610131565b34801561045657600080fd5b5061047e7f000000000000000000000000000000000000000000000000000000000000000081565b60405161013191906114ef565b34801561049757600080fd5b50610277610e75565b600181815481106104b057600080fd5b9060005260206000200160009150905080546104cb906116ab565b80601f01602080910402602001604051908101604052809291908181526020018280546104f7906116ab565b80156105445780601f1061051957610100808354040283529160200191610544565b820191906000526020600020905b81548152906001019060200180831161052757829003601f168201915b505050505081565b600081815481106104b057600080fd5b336001600160a01b037f000000000000000000000000000000000000000000000000000000000000000016146105ad5760405162461bcd60e51b81526004016105a49061152c565b60405180910390fd5b600082116105f15760405162461bcd60e51b8152602060048201526011602482015270043616e6e6f74207769746864726177203607c1b60448201526064016105a4565b6001600160a01b038116600090815260056020526040902054808311156106725760405162461bcd60e51b815260206004820152602f60248201527f536f7272792c2063616e2774207769746864726177206d6f7265207468616e2060448201526e746f74616c20646f6e6174696f6e7360881b60648201526084016105a4565b61067c8382611694565b6001600160a01b03831660008181526005602052604090209190915561072d57604051600090339085908381818185875af1925050503d80600081146106de576040519150601f19603f3d011682016040523d82523d6000602084013e6106e3565b606091505b50509050806107275760405162461bcd60e51b815260206004820152601060248201526f2a3930b739b332b9103330b4b632b21760811b60448201526064016105a4565b50505050565b604051630cdeca0960e01b815260040160405180910390fd5b6000806004805460ff1690811115610760576107606116fc565b146107ca5760405162461bcd60e51b815260206004820152603460248201527f596f752063616e6e6f7420646f6e61746520746f20612066756e647261697365604482015273722074686174206973206e6f742061637469766560601b60648201526084016105a4565b6000831161080d5760405162461bcd60e51b815260206004820152601060248201526f043616e6e6f74206465706f73697420360841b60448201526064016105a4565b60007f000000000000000000000000000000000000000000000000000000000000000011801561085c57507f000000000000000000000000000000000000000000000000000000000000000042115b1561087a5760405163601b6f4760e11b815260040160405180910390fd5b6001600160a01b03821661072d5782341461089457600080fd5b6001600160a01b03841660009081526006602090815260408083208380529091529020546108c390849061163b565b6001600160a01b03851660009081526006602090815260408083208380528252909120919091556005905260008051602061173e8339815191525461090990849061163b565b60008052600560205260008051602061173e8339815191525561092a610f3f565b5060019392505050565b336001600160a01b037f0000000000000000000000000000000000000000000000000000000000000000161461097c5760405162461bcd60e51b81526004016105a49061152c565b60015481106109bf5760405162461bcd60e51b815260206004820152600f60248201526e125b5859d9481b9bdd08199bdd5b99608a1b60448201526064016105a4565b600255565b600380546104cb906116ab565b336001600160a01b037f00000000000000000000000000000000000000000000000000000000000000001614610a195760405162461bcd60e51b81526004016105a49061152c565b6001805480820182556000919091528251610a5b917fb10e2d527612073b26eecdfd717e6a320cf44b4afac2b0732d9fcbe2b7fa0cf60190602085019061110c565b5060018115151415610a795760018054610a759190611694565b6002555b5050565b336001600160a01b037f00000000000000000000000000000000000000000000000000000000000000001614610ac55760405162461bcd60e51b81526004016105a49061152c565b600080546001810182559080528151610a79917f290decd9548b62a8d60345a988386fc84ba6bc95484008f6362f93160ef3e5630190602084019061110c565b600080600080600080606080600060606000807f00000000000000000000000000000000000000000000000000000000000000007f00000000000000000000000000000000000000000000000000000000000000007f00000000000000000000000000000000000000000000000000000000000000007f00000000000000000000000000000000000000000000000000000000000000007f00000000000000000000000000000000000000000000000000000000000000007f0000000000000000000000000000000000000000000000000000000000000000600060016002546003600460009054906101000a900460ff1660056000806001600160a01b03166001600160a01b031681526020019081526020016000205485805480602002602001604051908101604052809291908181526020016000905b82821015610cea578382906000526020600020018054610c5d906116ab565b80601f0160208091040260200160405190810160405280929190818152602001828054610c89906116ab565b8015610cd65780601f10610cab57610100808354040283529160200191610cd6565b820191906000526020600020905b815481529060010190602001808311610cb957829003601f168201915b505050505081526020019060010190610c3e565b50505050955084805480602002602001604051908101604052809291908181526020016000905b82821015610dbd578382906000526020600020018054610d30906116ab565b80601f0160208091040260200160405190810160405280929190818152602001828054610d5c906116ab565b8015610da95780601f10610d7e57610100808354040283529160200191610da9565b820191906000526020600020905b815481529060010190602001808311610d8c57829003601f168201915b505050505081526020019060010190610d11565b505050509450828054610dcf906116ab565b80601f0160208091040260200160405190810160405280929190818152602001828054610dfb906116ab565b8015610e485780601f10610e1d57610100808354040283529160200191610e48565b820191906000526020600020905b815481529060010190602001808311610e2b57829003601f168201915b505050505092509b509b509b509b509b509b509b509b509b509b509b509b50909192939495969798999a9b565b336001600160a01b037f00000000000000000000000000000000000000000000000000000000000000001614610ebd5760405162461bcd60e51b81526004016105a49061152c565b60006004805460ff1690811115610ed657610ed66116fc565b14610f315760405162461bcd60e51b815260206004820152602560248201527f596f752063616e206f6e6c7920636c6f7365206163746976652066756e647261604482015264697365727360d81b60648201526084016105a4565b6004805460ff191681179055565b7f00000000000000000000000000000000000000000000000000000000000000001561105357600061101a7f00000000000000000000000000000000000000000000000000000000000000006001600160a01b0316630ec3b0276040518163ffffffff1660e01b815260040160206040518083038186803b158015610fc357600080fd5b505afa158015610fd7573d6000803e3d6000fd5b505050506040513d601f19601f82011682018060405250810190610ffb91906112ec565b60008052600560205260008051602061173e8339815191525490611055565b90507f00000000000000000000000000000000000000000000000000000000000000008110611051576004805460ff191660011790555b505b565b6000806110618361108c565b905069d3c21bcecceda10000006110788583611675565b6110829190611653565b9150505b92915050565b600080826001600160a01b031663feaf968c6040518163ffffffff1660e01b815260040160a06040518083038186803b1580156110c857600080fd5b505afa1580156110dc573d6000803e3d6000fd5b505050506040513d601f19601f8201168201806040525081019061110091906113c6565b50919695505050505050565b828054611118906116ab565b90600052602060002090601f01602090048101928261113a5760008555611180565b82601f1061115357805160ff1916838001178555611180565b82800160010185558215611180579182015b82811115611180578251825591602001919060010190611165565b5061118c929150611190565b5090565b5b8082111561118c5760008155600101611191565b600082601f8301126111b657600080fd5b81356001600160401b03808211156111d0576111d0611712565b604051601f8301601f19908116603f011681019082821181831017156111f8576111f8611712565b8160405283815286602085880101111561121157600080fd5b836020870160208301376000602085830101528094505050505092915050565b80516001600160501b038116811461124857600080fd5b919050565b60006020828403121561125f57600080fd5b813561126a81611728565b9392505050565b6000806040838503121561128457600080fd5b823561128f81611728565b9150602083013561129f81611728565b809150509250929050565b6000806000606084860312156112bf57600080fd5b83356112ca81611728565b92506020840135915060408401356112e181611728565b809150509250925092565b6000602082840312156112fe57600080fd5b815161126a81611728565b60006020828403121561131b57600080fd5b81356001600160401b0381111561133157600080fd5b611082848285016111a5565b6000806040838503121561135057600080fd5b82356001600160401b0381111561136657600080fd5b611372858286016111a5565b9250506020830135801515811461129f57600080fd5b60006020828403121561139a57600080fd5b5035919050565b600080604083850312156113b457600080fd5b82359150602083013561129f81611728565b600080600080600060a086880312156113de57600080fd5b6113e786611231565b945060208601519350604086015192506060860151915061140a60808701611231565b90509295509295909350565b600082825180855260208086019550808260051b84010181860160005b8481101561146157601f1986840301895261144f8383516114a2565b98840198925090830190600101611433565b5090979650505050505050565b6006811061147e5761147e6116fc565b9052565b6005811061147e5761147e6116fc565b6003811061147e5761147e6116fc565b6000815180845260005b818110156114c8576020818501810151868301820152016114ac565b818111156114da576000602083870101525b50601f01601f19169290920160200192915050565b60208101611086828461146e565b602081016110868284611482565b602081016110868284611492565b60208152600061126a60208301846114a2565b60208082526041908201527f596f75206d75737420626520746865206f776e6572206f66207468652066756e60408201527f6472616973657220746f20706572666f726d2074686973206f7065726174696f6060820152603760f91b608082015260a00190565b8c81526001600160a01b038c16602082015260006101806115b7604084018e611492565b6115c4606084018d61146e565b8a60808401528960a08401528060c08401526115e28184018a611416565b905082810360e08401526115f68189611416565b90508661010084015282810361012084015261161281876114a2565b915050611623610140830185611482565b826101608301529d9c50505050505050505050505050565b6000821982111561164e5761164e6116e6565b500190565b60008261167057634e487b7160e01b600052601260045260246000fd5b500490565b600081600019048311821515161561168f5761168f6116e6565b500290565b6000828210156116a6576116a66116e6565b500390565b600181811c908216806116bf57607f821691505b602082108114156116e057634e487b7160e01b600052602260045260246000fd5b50919050565b634e487b7160e01b600052601160045260246000fd5b634e487b7160e01b600052602160045260246000fd5b634e487b7160e01b600052604160045260246000fd5b6001600160a01b038116811461105157600080fdfe05b8ccbb9d4d8fb16ea74ce3c29a41f1b461fbdaff4714a0d9a8eb05499746bca26469706673582212207a03c23ca5e5a53a66b531f4f43932f2d8db07c6871adfb7158852dd0b8fcb7764736f6c63430008070033c74b13afc7ea4cc43b81bbda4c6db15d24751ccde1c9eae797e941d0510830cda2646970667358221220c0423e060e8dc087c063dbd8b1fa45234eca304180e4d29afb3f122b8347434064736f6c63430008070033",
  "linkReferences": {},
  "deployedLinkReferences": {}
}