{
  "_format": "hh-sol-artifact-1",
  "contractName": "DeFundFactory",
  "sourceName": "contracts/DeFundFactory.sol",
  "abi": [
    {
      "inputs": [],
      "stateMutability": "nonpayable",
      "type": "constructor"
    },
    {
      "inputs": [],
      "name": "DeFundFactory__deposit__less_than_declared",
      "type": "error"
    },
    {
      "inputs": [],
      "name": "DeFundFactory__deposit__token_not_allowed",
      "type": "error"
    },
    {
      "inputs": [],
      "name": "DeFundFactory__deposit__zero_deposit",
      "type": "error"
    },
    {
      "inputs": [],
      "name": "DeFundFactory__not_implemented",
      "type": "error"
    },
    {
      "anonymous": false,
      "inputs": [
        {
          "indexed": true,
          "internalType": "uint256",
          "name": "fundraiserId",
          "type": "uint256"
        },
        {
          "indexed": true,
          "internalType": "address",
          "name": "creator",
          "type": "address"
        },
        {
          "indexed": false,
          "internalType": "string",
          "name": "title",
          "type": "string"
        },
        {
          "indexed": false,
          "internalType": "enum DeFundModel.FundraiserType",
          "name": "fundraiserType",
          "type": "uint8"
        },
        {
          "indexed": false,
          "internalType": "enum DeFundModel.FundraiserCategory",
          "name": "category",
          "type": "uint8"
        },
        {
          "indexed": false,
          "internalType": "uint256",
          "name": "endDate",
          "type": "uint256"
        },
        {
          "indexed": false,
          "internalType": "uint256",
          "name": "goalAmount",
          "type": "uint256"
        }
      ],
      "name": "FundraiserCreated",
      "type": "event"
    },
    {
      "anonymous": false,
      "inputs": [
        {
          "indexed": true,
          "internalType": "address",
          "name": "previousOwner",
          "type": "address"
        },
        {
          "indexed": true,
          "internalType": "address",
          "name": "newOwner",
          "type": "address"
        }
      ],
      "name": "OwnershipTransferred",
      "type": "event"
    },
    {
      "anonymous": false,
      "inputs": [
        {
          "indexed": true,
          "internalType": "address",
          "name": "creator",
          "type": "address"
        },
        {
          "indexed": false,
          "internalType": "address",
          "name": "tokenAddress",
          "type": "address"
        },
        {
          "indexed": false,
          "internalType": "uint256",
          "name": "previousBalance",
          "type": "uint256"
        },
        {
          "indexed": false,
          "internalType": "uint256",
          "name": "newBalance",
          "type": "uint256"
        }
      ],
      "name": "UserBalanceChanged",
      "type": "event"
    },
    {
      "inputs": [
        {
          "internalType": "address",
          "name": "_tokenAddress",
          "type": "address"
        }
      ],
      "name": "allowToken",
      "outputs": [],
      "stateMutability": "nonpayable",
      "type": "function"
    },
    {
      "inputs": [
        {
          "internalType": "uint256",
          "name": "_id",
          "type": "uint256"
        }
      ],
      "name": "cancelRecurringPayment",
      "outputs": [],
      "stateMutability": "nonpayable",
      "type": "function"
    },
    {
      "inputs": [
        {
          "internalType": "bytes",
          "name": "",
          "type": "bytes"
        }
      ],
      "name": "checkUpkeep",
      "outputs": [
        {
          "internalType": "bool",
          "name": "upkeepNeeded",
          "type": "bool"
        },
        {
          "internalType": "bytes",
          "name": "",
          "type": "bytes"
        }
      ],
      "stateMutability": "view",
      "type": "function"
    },
    {
      "inputs": [
        {
          "internalType": "enum DeFundModel.FundraiserType",
          "name": "_type",
          "type": "uint8"
        },
        {
          "internalType": "enum DeFundModel.FundraiserCategory",
          "name": "_category",
          "type": "uint8"
        },
        {
          "internalType": "string",
          "name": "_name",
          "type": "string"
        },
        {
          "internalType": "string",
          "name": "_description",
          "type": "string"
        },
        {
          "internalType": "uint256",
          "name": "_endDate",
          "type": "uint256"
        },
        {
          "internalType": "uint256",
          "name": "_goalAmount",
          "type": "uint256"
        }
      ],
      "name": "createFundraiser",
      "outputs": [
        {
          "internalType": "uint256",
          "name": "fundraiserId",
          "type": "uint256"
        }
      ],
      "stateMutability": "nonpayable",
      "type": "function"
    },
    {
      "inputs": [
        {
          "internalType": "address",
          "name": "_targetFundraiser",
          "type": "address"
        },
        {
          "internalType": "address",
          "name": "_tokenAddress",
          "type": "address"
        },
        {
          "internalType": "uint256",
          "name": "_amount",
          "type": "uint256"
        },
        {
          "internalType": "uint32",
          "name": "_intervalHours",
          "type": "uint32"
        }
      ],
      "name": "createRecurringPayment",
      "outputs": [
        {
          "internalType": "uint256",
          "name": "recurringPaymentId",
          "type": "uint256"
        }
      ],
      "stateMutability": "nonpayable",
      "type": "function"
    },
    {
      "inputs": [
        {
          "internalType": "uint256",
          "name": "_amount",
          "type": "uint256"
        },
        {
          "internalType": "address",
          "name": "_tokenAddress",
          "type": "address"
        }
      ],
      "name": "depositFunds",
      "outputs": [],
      "stateMutability": "payable",
      "type": "function"
    },
    {
      "inputs": [
        {
          "internalType": "address",
          "name": "_fundraiserAddress",
          "type": "address"
        },
        {
          "internalType": "uint256",
          "name": "_amount",
          "type": "uint256"
        },
        {
          "internalType": "address",
          "name": "_tokenAddress",
          "type": "address"
        }
      ],
      "name": "donateByAddress",
      "outputs": [],
      "stateMutability": "nonpayable",
      "type": "function"
    },
    {
      "inputs": [
        {
          "internalType": "uint256",
          "name": "_fundraiserId",
          "type": "uint256"
        },
        {
          "internalType": "uint256",
          "name": "_amount",
          "type": "uint256"
        },
        {
          "internalType": "address",
          "name": "_tokenAddress",
          "type": "address"
        }
      ],
      "name": "donateById",
      "outputs": [],
      "stateMutability": "nonpayable",
      "type": "function"
    },
    {
      "inputs": [
        {
          "internalType": "address",
          "name": "_token",
          "type": "address"
        }
      ],
      "name": "getMyBalance",
      "outputs": [
        {
          "internalType": "uint256",
          "name": "balance",
          "type": "uint256"
        }
      ],
      "stateMutability": "view",
      "type": "function"
    },
    {
      "inputs": [],
      "name": "getMyRecurringPayments",
      "outputs": [
        {
          "components": [
            {
              "internalType": "address",
              "name": "owner",
              "type": "address"
            },
            {
              "internalType": "address",
              "name": "target",
              "type": "address"
            },
            {
              "internalType": "address",
              "name": "tokenAddress",
              "type": "address"
            },
            {
              "internalType": "uint256",
              "name": "amount",
              "type": "uint256"
            },
            {
              "internalType": "uint32",
              "name": "intervalHours",
              "type": "uint32"
            },
            {
              "internalType": "uint256",
              "name": "lastExecution",
              "type": "uint256"
            },
            {
              "internalType": "enum DeFundModel.RecurringPaymentStatus",
              "name": "status",
              "type": "uint8"
            }
          ],
          "internalType": "struct DeFundModel.RecurringPaymentDisposition[]",
          "name": "recurringPayments",
          "type": "tuple[]"
        }
      ],
      "stateMutability": "view",
      "type": "function"
    },
    {
      "inputs": [
        {
          "internalType": "address",
          "name": "_tokenAddress",
          "type": "address"
        }
      ],
      "name": "isTokenAllowed",
      "outputs": [
        {
          "internalType": "bool",
          "name": "",
          "type": "bool"
        }
      ],
      "stateMutability": "view",
      "type": "function"
    },
    {
      "inputs": [],
      "name": "owner",
      "outputs": [
        {
          "internalType": "address",
          "name": "",
          "type": "address"
        }
      ],
      "stateMutability": "view",
      "type": "function"
    },
    {
      "inputs": [
        {
          "internalType": "bytes",
          "name": "",
          "type": "bytes"
        }
      ],
      "name": "performUpkeep",
      "outputs": [],
      "stateMutability": "nonpayable",
      "type": "function"
    },
    {
      "inputs": [],
      "name": "renounceOwnership",
      "outputs": [],
      "stateMutability": "nonpayable",
      "type": "function"
    },
    {
      "inputs": [
        {
          "internalType": "uint256",
          "name": "",
          "type": "uint256"
        }
      ],
      "name": "s_allowedERC20Tokens",
      "outputs": [
        {
          "internalType": "address",
          "name": "",
          "type": "address"
        }
      ],
      "stateMutability": "view",
      "type": "function"
    },
    {
      "inputs": [
        {
          "internalType": "uint256",
          "name": "",
          "type": "uint256"
        }
      ],
      "name": "s_fundraisers",
      "outputs": [
        {
          "internalType": "address",
          "name": "",
          "type": "address"
        }
      ],
      "stateMutability": "view",
      "type": "function"
    },
    {
      "inputs": [
        {
          "internalType": "address",
          "name": "",
          "type": "address"
        },
        {
          "internalType": "uint256",
          "name": "",
          "type": "uint256"
        }
      ],
      "name": "s_fundraisersByOwner",
      "outputs": [
        {
          "internalType": "uint256",
          "name": "",
          "type": "uint256"
        }
      ],
      "stateMutability": "view",
      "type": "function"
    },
    {
      "inputs": [],
      "name": "s_lastTimeStamp",
      "outputs": [
        {
          "internalType": "uint256",
          "name": "",
          "type": "uint256"
        }
      ],
      "stateMutability": "view",
      "type": "function"
    },
    {
      "inputs": [],
      "name": "s_priceFeed",
      "outputs": [
        {
          "internalType": "contract AggregatorV3Interface",
          "name": "",
          "type": "address"
        }
      ],
      "stateMutability": "view",
      "type": "function"
    },
    {
      "inputs": [
        {
          "internalType": "uint256",
          "name": "",
          "type": "uint256"
        }
      ],
      "name": "s_recurringPayments",
      "outputs": [
        {
          "internalType": "address",
          "name": "owner",
          "type": "address"
        },
        {
          "internalType": "address",
          "name": "target",
          "type": "address"
        },
        {
          "internalType": "address",
          "name": "tokenAddress",
          "type": "address"
        },
        {
          "internalType": "uint256",
          "name": "amount",
          "type": "uint256"
        },
        {
          "internalType": "uint32",
          "name": "intervalHours",
          "type": "uint32"
        },
        {
          "internalType": "uint256",
          "name": "lastExecution",
          "type": "uint256"
        },
        {
          "internalType": "enum DeFundModel.RecurringPaymentStatus",
          "name": "status",
          "type": "uint8"
        }
      ],
      "stateMutability": "view",
      "type": "function"
    },
    {
      "inputs": [
        {
          "internalType": "address",
          "name": "",
          "type": "address"
        },
        {
          "internalType": "uint256",
          "name": "",
          "type": "uint256"
        }
      ],
      "name": "s_recurringPaymentsByOwner",
      "outputs": [
        {
          "internalType": "uint256",
          "name": "",
          "type": "uint256"
        }
      ],
      "stateMutability": "view",
      "type": "function"
    },
    {
      "inputs": [
        {
          "internalType": "address",
          "name": "",
          "type": "address"
        },
        {
          "internalType": "address",
          "name": "",
          "type": "address"
        }
      ],
      "name": "s_userBalances",
      "outputs": [
        {
          "internalType": "uint256",
          "name": "",
          "type": "uint256"
        }
      ],
      "stateMutability": "view",
      "type": "function"
    },
    {
      "inputs": [
        {
          "internalType": "address",
          "name": "newOwner",
          "type": "address"
        }
      ],
      "name": "transferOwnership",
      "outputs": [],
      "stateMutability": "nonpayable",
      "type": "function"
    },
    {
      "inputs": [
        {
          "internalType": "uint256",
          "name": "_amount",
          "type": "uint256"
        },
        {
          "internalType": "address",
          "name": "_tokenAddress",
          "type": "address"
        }
      ],
      "name": "withdrawFunds",
      "outputs": [],
      "stateMutability": "nonpayable",
      "type": "function"
    }
  ],
  "bytecode": "0x608060405260006001556000600255610e10600b5534801561002057600080fd5b5061002a33610059565b600a80546001600160a01b031916739326bfa02add2366b30bacb125260af641031331179055426003556100a9565b600080546001600160a01b038381166001600160a01b0319831681178455604051919092169283917f8be0079c531659141344cd1fd0a4f28419497f9722a3daafe3b4186f6b6457e09190a35050565b613d96806100b86000396000f3fe608060405260043610620001345760003560e01c80630ec3b02714620001395780631a94cb33146200017857806321eb73f014620002015780632c186fcf146200022657806334854043146200024d5780633d958db714620002745780633d966429146200029957806340decd3a14620002c05780634585e33b14620002e557806357f93b71146200030a5780635a370cb4146200032f5780636e04ff0d1462000354578063715018a61462000389578063744bfe6114620003a15780637e3ef7cd14620003c65780638da5cb5b146200040d5780638db9459f1462000425578063b0a6169c146200044a578063b53472ef1462000486578063ce534c2d14620004ab578063f2fde38b14620004d0578063f785de2314620004f5578063f9d03e46146200050c578063f9eaee0d1462000546575b600080fd5b3480156200014657600080fd5b50600a546200015b906001600160a01b031681565b6040516001600160a01b0390911681526020015b60405180910390f35b3480156200018557600080fd5b50620001ec6200019736600462001c8f565b60086020526000908152604090208054600182015460028301546003840154600485015460058601546006909601546001600160a01b03958616969486169590931693919263ffffffff909116919060ff1687565b6040516200016f979695949392919062001d64565b3480156200020e57600080fd5b506200015b6200022036600462001c8f565b6200057c565b3480156200023357600080fd5b506200024b6200024536600462001ccf565b620005a7565b005b3480156200025a57600080fd5b506200026560035481565b6040519081526020016200016f565b3480156200028157600080fd5b50620002656200029336600462001a0a565b620005d1565b348015620002a657600080fd5b50620002b162000603565b6040516200016f919062001df1565b348015620002cd57600080fd5b506200024b620002df36600462001a37565b620007d5565b348015620002f257600080fd5b506200024b6200030436600462001a9c565b62000970565b3480156200031757600080fd5b50620002656200032936600462001bde565b62000bd5565b3480156200033c57600080fd5b50620002656200034e36600462001a0a565b62000d1c565b3480156200036157600080fd5b50620003796200037336600462001ae1565b62000d39565b6040516200016f92919062001e97565b3480156200039657600080fd5b506200024b62001004565b348015620003ae57600080fd5b506200024b620003c036600462001ca9565b62001046565b348015620003d357600080fd5b5062000265620003e53660046200194f565b3360009081526005602090815260408083206001600160a01b03949094168352929052205490565b3480156200041a57600080fd5b506200015b620011db565b3480156200043257600080fd5b506200026562000444366004620019ac565b620011ea565b3480156200045757600080fd5b50620002656200046936600462001974565b600560209081526000928352604080842090915290825290205481565b3480156200049357600080fd5b506200024b620004a53660046200194f565b620012a5565b348015620004b857600080fd5b506200024b620004ca36600462001c8f565b6200132b565b348015620004dd57600080fd5b506200024b620004ef3660046200194f565b620013b3565b6200024b6200050636600462001ca9565b62001459565b3480156200051957600080fd5b506200015b6200052b36600462001c8f565b6006602052600090815260409020546001600160a01b031681565b3480156200055357600080fd5b506200056b620005653660046200194f565b6200157f565b60405190151581526020016200016f565b600481815481106200058d57600080fd5b6000918252602090912001546001600160a01b0316905081565b600083815260066020526040902054620005cc906001600160a01b03168383620007d5565b505050565b60096020528160005260406000208181548110620005ee57600080fd5b90600052602060002001600091509150505481565b336000908152600960205260409020546060906001600160401b038111156200063057620006306200210d565b604051908082528060200260200182016040528015620006a157816020015b6200068d6040805160e081018252600080825260208201819052918101829052606081018290526080810182905260a081018290529060c082015290565b8152602001906001900390816200064f5790505b50905060005b33600090815260096020526040902054811015620007d1573360009081526009602052604081208054600892919084908110620006e857620006e8620020f7565b600091825260208083209091015483528281019390935260409182019020815160e08101835281546001600160a01b0390811682526001808401548216958301959095526002830154169281019290925260038101546060830152600481015463ffffffff166080830152600581015460a083015260068101549192909160c084019160ff90911690811115620007835762000783620020e1565b6001811115620007975762000797620020e1565b81525050828281518110620007b057620007b0620020f7565b60200260200101819052508080620007c890620020ad565b915050620006a7565b5090565b600082116200081d5760405162461bcd60e51b815260206004820152600f60248201526e043616e6e6f7420646f6e617465203608c1b60448201526064015b60405180910390fd5b3360009081526005602090815260408083206001600160a01b038516845290915290205480831115620008645760405162461bcd60e51b8152600401620008149062001f43565b62000870838262002093565b3360009081526005602090815260408083206001600160a01b03871680855292529091209190915562000951576000846001600160a01b03166374e781b3853387876040518563ffffffff1660e01b8152600401620008d29392919062001dad565b6020604051808303818588803b158015620008ec57600080fd5b505af115801562000901573d6000803e3d6000fd5b50505050506040513d601f19601f8201168201806040525081019062000928919062001a78565b9050806200094a5760405162461bcd60e51b8152600401620008149062001fa4565b506200096a565b60405163730d669f60e11b815260040160405180910390fd5b50505050565b60005b600254811015620005cc5760008181526008602052604081206006015460ff166001811115620009a757620009a7620020e1565b14620009b35762000bc0565b6001600082815260086020908152604091829020600101548251632aa55fa960e11b815292516001600160a01b039091169263554abf52926004808301939192829003018186803b15801562000a0857600080fd5b505afa15801562000a1d573d6000803e3d6000fd5b505050506040513d601f19601f8201168201806040525081019062000a43919062001bbe565b600281111562000a575762000a57620020e1565b1462000a635762000bc0565b600081815260086020908152604080832060010154815163072961cb60e21b815291516001600160a01b0390911692631ca5872c9260048082019391829003018186803b15801562000ab457600080fd5b505afa15801562000ac9573d6000803e3d6000fd5b505050506040513d601f19601f8201168201806040525081019062000aef919062001b9b565b600481111562000b035762000b03620020e1565b1462000b0f5762000bc0565b6000818152600860209081526040808320600381015481546001600160a01b03908116865260058552838620600290930154168552925290912054101562000b575762000bc0565b60008181526008602052604090206004015462000b7c9063ffffffff16603c62002064565b62000b8990603c62002064565b60008281526008602052604090206005015462000bad9163ffffffff169062002049565b42111562000bc05762000bc081620015f1565b8062000bcc81620020ad565b91505062000973565b600180549062000be790829062002049565b600181905550600081338b8b8b8b8b8b8b8b60405162000c0790620018d9565b62000c1c9a9998979695949392919062001fce565b604051809103906000f08015801562000c39573d6000803e3d6000fd5b509050806006600084815260200190815260200160002060006101000a8154816001600160a01b0302191690836001600160a01b0316021790555060076000336001600160a01b03166001600160a01b03168152602001908152602001600020829080600181540180825580915050600190039060005260206000200160009091909190915055336001600160a01b0316827f2a3720f62d1e85b04f6fdde0ad0f608f61ce672e8bd70c9f4f887b6a9febcf778a8a8e8e8a8a60405162000d069695949392919062001ef9565b60405180910390a3505b98975050505050505050565b60076020528160005260406000208181548110620005ee57600080fd5b600060606000600b546003544262000d52919062002093565b11905060008060015411801562000d6b57506000600254115b90506000805b60025481101562000fd25760008181526008602052604081206006015460ff16600181111562000da55762000da5620020e1565b1462000db15762000fbd565b6001600082815260086020908152604091829020600101548251632aa55fa960e11b815292516001600160a01b039091169263554abf52926004808301939192829003018186803b15801562000e0657600080fd5b505afa15801562000e1b573d6000803e3d6000fd5b505050506040513d601f19601f8201168201806040525081019062000e41919062001bbe565b600281111562000e555762000e55620020e1565b1462000e615762000fbd565b600081815260086020908152604080832060010154815163072961cb60e21b815291516001600160a01b0390911692631ca5872c9260048082019391829003018186803b15801562000eb257600080fd5b505afa15801562000ec7573d6000803e3d6000fd5b505050506040513d601f19601f8201168201806040525081019062000eed919062001b9b565b600481111562000f015762000f01620020e1565b1462000f0d5762000fbd565b6000818152600860209081526040808320600381015481546001600160a01b03908116865260058552838620600290930154168552925290912054101562000f555762000fbd565b60008181526008602052604090206004015462000f7a9063ffffffff16603c62002064565b62000f8790603c62002064565b60008281526008602052604090206005015462000fab9163ffffffff169062002049565b42111562000fbd576001915062000fd2565b8062000fc981620020ad565b91505062000d71565b5082801562000fde5750815b801562000fe85750805b6040805160208101909152600081529097909650945050505050565b336200100f620011db565b6001600160a01b031614620010385760405162461bcd60e51b8152600401620008149062001f6f565b62001044600062001889565b565b600082116200108c5760405162461bcd60e51b8152602060048201526011602482015270043616e6e6f74207769746864726177203607c1b604482015260640162000814565b3360009081526005602090815260408083206001600160a01b038516845290915290205480831115620010d35760405162461bcd60e51b8152600401620008149062001f43565b620010df838262002093565b3360009081526005602090815260408083206001600160a01b0387168085529252909120919091556200095157604051600090339085908381818185875af1925050503d806000811462001150576040519150601f19603f3d011682016040523d82523d6000602084013e62001155565b606091505b5050905080620011795760405162461bcd60e51b8152600401620008149062001fa4565b503360008181526005602090815260408083206001600160a01b038716845290915290205460008051602062003d41833981519152908490620011bd878662002093565b604051620011ce9392919062001dd0565b60405180910390a2505050565b6000546001600160a01b031690565b600254620011fa81600162002049565b600290815560008281526008602090815260408083208054336001600160a01b0319918216811783556001808401805484166001600160a01b038f8116919091179091559784018054909316978c16979097179091556003820189905560048201805463ffffffff191663ffffffff8a161790556006909101805460ff1916905583526009825282208054938401815582529020018190556200129d81620015f1565b949350505050565b33620012b0620011db565b6001600160a01b031614620012d95760405162461bcd60e51b8152600401620008149062001f6f565b600480546001810182556000919091527f8a35acfbc15ff81a39ae7d344fd709f28e8600b4aa8c65c6b64bfe7fe36bd19b0180546001600160a01b0319166001600160a01b0392909216919091179055565b6000818152600860205260409020546001600160a01b031633146200136357604051634324405d60e01b815260040160405180910390fd5b60008181526008602052604081206006015460ff1660018111156200138c576200138c620020e1565b1415620013b0576000818152600860205260409020600601805460ff191660011790555b50565b33620013be620011db565b6001600160a01b031614620013e75760405162461bcd60e51b8152600401620008149062001f6f565b6001600160a01b0381166200144e5760405162461bcd60e51b815260206004820152602660248201527f4f776e61626c653a206e6577206f776e657220697320746865207a65726f206160448201526564647265737360d01b606482015260840162000814565b620013b08162001889565b81620014785760405163a5964f3f60e01b815260040160405180910390fd5b3360009081526005602090815260408083206001600160a01b038516808552925290912054906200150e5782341015620014c557604051633d814a7160e21b815260040160405180910390fd5b336000908152600560209081526040808320838052909152902054620014ed90849062002049565b33600090815260056020908152604080832083805290915290205562001537565b62001519826200157f565b6200095157604051634324405d60e01b815260040160405180910390fd5b3360008181526005602090815260408083206001600160a01b03871684529091529081902054905160008051602062003d4183398151915291620011ce918691869162001dd0565b6000805b600454811015620015e857826001600160a01b031660048281548110620015ae57620015ae620020f7565b6000918252602090912001546001600160a01b03161415620015d35750600192915050565b80620015df81620020ad565b91505062001583565b50600092915050565b600081815260086020818152604080842080546001600160a01b039081168652600584528286206002830154909116865283529084205493859052919052600301548110620018715760008281526008602052604090206003015462001658908262002093565b600083815260086020818152604080842080546001600160a01b0390811686526005845282862060028301548216875284529185209590955586845291905260019092015490911690816001600160a01b0316631ca5872c6040518163ffffffff1660e01b815260040160206040518083038186803b158015620016db57600080fd5b505afa158015620016f0573d6000803e3d6000fd5b505050506040513d601f19601f8201168201806040525081019062001716919062001b9b565b60048111156200172a576200172a620020e1565b148015620017c057506001816001600160a01b031663554abf526040518163ffffffff1660e01b815260040160206040518083038186803b1580156200176f57600080fd5b505afa15801562001784573d6000803e3d6000fd5b505050506040513d601f19601f82011682018060405250810190620017aa919062001bbe565b6002811115620017be57620017be620020e1565b145b156200186f57600083815260086020526040908190206003810154815460029092015492516374e781b360e01b81526001600160a01b03808616946374e781b3946200181793908316928592169060040162001dad565b6020604051808303818588803b1580156200183157600080fd5b505af115801562001846573d6000803e3d6000fd5b50505050506040513d601f19601f820116820180604052508101906200186d919062001a78565b505b505b50600090815260086020526040902042600590910155565b600080546001600160a01b038381166001600160a01b0319831681178455604051919092169283917f8be0079c531659141344cd1fd0a4f28419497f9722a3daafe3b4186f6b6457e09190a35050565b611c0f806200213283390190565b80356001600160a01b0381168114620018ff57600080fd5b919050565b60008083601f8401126200191757600080fd5b5081356001600160401b038111156200192f57600080fd5b6020830191508360208285010111156200194857600080fd5b9250929050565b6000602082840312156200196257600080fd5b6200196d82620018e7565b9392505050565b600080604083850312156200198857600080fd5b6200199383620018e7565b9150620019a360208401620018e7565b90509250929050565b60008060008060808587031215620019c357600080fd5b620019ce85620018e7565b9350620019de60208601620018e7565b925060408501359150606085013563ffffffff81168114620019ff57600080fd5b939692955090935050565b6000806040838503121562001a1e57600080fd5b62001a2983620018e7565b946020939093013593505050565b60008060006060848603121562001a4d57600080fd5b62001a5884620018e7565b92506020840135915062001a6f60408501620018e7565b90509250925092565b60006020828403121562001a8b57600080fd5b815180151581146200196d57600080fd5b6000806020838503121562001ab057600080fd5b82356001600160401b0381111562001ac757600080fd5b62001ad58582860162001904565b90969095509350505050565b60006020828403121562001af457600080fd5b81356001600160401b038082111562001b0c57600080fd5b818401915084601f83011262001b2157600080fd5b81358181111562001b365762001b366200210d565b604051601f8201601f19908116603f0116810190838211818310171562001b615762001b616200210d565b8160405282815287602084870101111562001b7b57600080fd5b826020860160208301376000928101602001929092525095945050505050565b60006020828403121562001bae57600080fd5b8151600581106200196d57600080fd5b60006020828403121562001bd157600080fd5b81516200196d8162002123565b60008060008060008060008060c0898b03121562001bfb57600080fd5b883562001c088162002123565b975060208901356006811062001c1d57600080fd5b965060408901356001600160401b038082111562001c3a57600080fd5b62001c488c838d0162001904565b909850965060608b013591508082111562001c6257600080fd5b5062001c718b828c0162001904565b999c989b5096999598969760808701359660a0013595509350505050565b60006020828403121562001ca257600080fd5b5035919050565b6000806040838503121562001cbd57600080fd5b82359150620019a360208401620018e7565b60008060006060848603121562001ce557600080fd5b833592506020840135915062001a6f60408501620018e7565b6006811062001d115762001d11620020e1565b9052565b6003811062001d115762001d11620020e1565b6002811062001d115762001d11620020e1565b81835281816020850137506000828201602090810191909152601f909101601f19169091010190565b6001600160a01b0388811682528781166020830152861660408201526060810185905263ffffffff8416608082015260a0810183905260e0810162000d1060c083018462001d28565b6001600160a01b0393841681526020810192909252909116604082015260600190565b6001600160a01b039390931683526020830191909152604082015260600190565b602080825282518282018190526000919060409081850190868401855b8281101562001e8a57815180516001600160a01b039081168652878201518116888701528682015116868601526060808201519086015260808082015163ffffffff169086015260a0808201519086015260c0908101519062001e748187018362001d28565b505060e093909301929085019060010162001e0e565b5091979650505050505050565b821515815260006020604081840152835180604085015260005b8181101562001ecf5785810183015185820160600152820162001eb1565b8181111562001ee2576000606083870101525b50601f01601f191692909201606001949350505050565b60a08152600062001f0f60a08301888a62001d3b565b905062001f20602083018762001d15565b62001f2f604083018662001cfe565b606082019390935260800152949350505050565b6020808252601290820152714e6f7420656e6f7567682062616c616e636560701b604082015260600190565b6020808252818101527f4f776e61626c653a2063616c6c6572206973206e6f7420746865206f776e6572604082015260600190565b60208082526010908201526f2a3930b739b332b9103330b4b632b21760811b604082015260600190565b8a81526001600160a01b038a166020820152600061010062001ff4604084018c62001d15565b62002003606084018b62001cfe565b80608084015262002018818401898b62001d3b565b905082810360a08401526200202f81878962001d3b565b60c0840195909552505060e0015298975050505050505050565b600082198211156200205f576200205f620020cb565b500190565b600063ffffffff808316818516818304811182151516156200208a576200208a620020cb565b02949350505050565b600082821015620020a857620020a8620020cb565b500390565b6000600019821415620020c457620020c4620020cb565b5060010190565b634e487b7160e01b600052601160045260246000fd5b634e487b7160e01b600052602160045260246000fd5b634e487b7160e01b600052603260045260246000fd5b634e487b7160e01b600052604160045260246000fd5b60038110620013b057600080fdfe6101606040523480156200001257600080fd5b5060405162001c0f38038062001c0f8339810160408190526200003591620002b5565b60808890526001600160601b0319606088901b1660a052856002811115620000615762000061620003bf565b60c0816002811115620000785762000078620003bf565b60f81b905250846005811115620000935762000093620003bf565b60e0816005811115620000aa57620000aa620003bf565b60f81b9052508351620000c590600390602087019062000133565b5060008054600181018255908052835162000108917f290decd9548b62a8d60345a988386fc84ba6bc95484008f6362f93160ef3e5630190602086019062000133565b503360601b61014052610100919091526101205250506004805460ff1916905550620003eb92505050565b828054620001419062000382565b90600052602060002090601f016020900481019282620001655760008555620001b0565b82601f106200018057805160ff1916838001178555620001b0565b82800160010185558215620001b0579182015b82811115620001b057825182559160200191906001019062000193565b50620001be929150620001c2565b5090565b5b80821115620001be5760008155600101620001c3565b805160068110620001e957600080fd5b919050565b805160038110620001e957600080fd5b600082601f8301126200021057600080fd5b81516001600160401b03808211156200022d576200022d620003d5565b604051601f8301601f19908116603f01168101908282118183101715620002585762000258620003d5565b816040528381526020925086838588010111156200027557600080fd5b600091505b838210156200029957858201830151818301840152908201906200027a565b83821115620002ab5760008385830101525b9695505050505050565b600080600080600080600080610100898b031215620002d357600080fd5b885160208a01519098506001600160a01b0381168114620002f357600080fd5b96506200030360408a01620001ee565b95506200031360608a01620001d9565b60808a01519095506001600160401b03808211156200033157600080fd5b6200033f8c838d01620001fe565b955060a08b01519150808211156200035657600080fd5b50620003658b828c01620001fe565b60c08b015160e0909b0151999c989b509699959894979350505050565b600181811c908216806200039757607f821691505b60208210811415620003b957634e487b7160e01b600052602260045260246000fd5b50919050565b634e487b7160e01b600052602160045260246000fd5b634e487b7160e01b600052604160045260246000fd5b60805160a05160601c60c05160f81c60e05160f81c61010051610120516101405160601c611762620004ad6000396000610f1b0152600081816102b701528181610b6e01528181610ef00152610fcd01526000818161017c0152610b4d01526000818161041c0152610b2c0152600081816101dd0152610b0b0152600081816103d001528181610527015281816108ee0152818161098b01528181610a3701528181610aea0152610e2f0152600081816102830152610ac901526117626000f3fe6080604052600436106100ef5760003560e01c80631ca5872c146100f45780632a57854214610124578063369268661461016a57806343394df41461019e578063554abf52146101cb5780636680ba7d1461020c578063744bfe611461022c57806374e781b31461024e578063779fa30f14610271578063853a6866146102a55780638e828143146102d9578063ab32eb69146102f9578063bba1964f14610326578063bf9f4aab1461033b578063c699db511461035b578063ca2b72201461037b578063ccc5d7d414610391578063dba6335f146103be578063f950e69c1461040a578063ff2e100c1461044b575b600080fd5b34801561010057600080fd5b5060045461010e9060ff1681565b60405161011b91906114ac565b60405180910390f35b34801561013057600080fd5b5061015c61013f366004611220565b600660209081526000928352604080842090915290825290205481565b60405190815260200161011b565b34801561017657600080fd5b5061015c7f000000000000000000000000000000000000000000000000000000000000000081565b3480156101aa57600080fd5b506101be6101b9366004611337565b610460565b60405161011b91906114c8565b3480156101d757600080fd5b506101ff7f000000000000000000000000000000000000000000000000000000000000000081565b60405161011b91906114ba565b34801561021857600080fd5b506101be610227366004611337565b61050c565b34801561023857600080fd5b5061024c610247366004611350565b61051c565b005b61026161025c366004611259565b610774565b604051901515815260200161011b565b34801561027d57600080fd5b5061015c7f000000000000000000000000000000000000000000000000000000000000000081565b3480156102b157600080fd5b5061015c7f000000000000000000000000000000000000000000000000000000000000000081565b3480156102e557600080fd5b5061024c6102f4366004611337565b6108e3565b34801561030557600080fd5b5061015c6103143660046111fc565b60056020526000908152604090205481565b34801561033257600080fd5b506101be610973565b34801561034757600080fd5b5061024c6103563660046112ec565b610980565b34801561036757600080fd5b5061024c6103763660046112b8565b610a2c565b34801561038757600080fd5b5061015c60025481565b34801561039d57600080fd5b506103a6610ab4565b60405161011b9c9b9a99989796959493929190611542565b3480156103ca57600080fd5b506103f27f000000000000000000000000000000000000000000000000000000000000000081565b6040516001600160a01b03909116815260200161011b565b34801561041657600080fd5b5061043e7f000000000000000000000000000000000000000000000000000000000000000081565b60405161011b919061149e565b34801561045757600080fd5b5061024c610e24565b6001818154811061047057600080fd5b90600052602060002001600091509050805461048b9061165a565b80601f01602080910402602001604051908101604052809291908181526020018280546104b79061165a565b80156105045780601f106104d957610100808354040283529160200191610504565b820191906000526020600020905b8154815290600101906020018083116104e757829003601f168201915b505050505081565b6000818154811061047057600080fd5b336001600160a01b037f0000000000000000000000000000000000000000000000000000000000000000161461056d5760405162461bcd60e51b8152600401610564906114db565b60405180910390fd5b600082116105b15760405162461bcd60e51b8152602060048201526011602482015270043616e6e6f74207769746864726177203607c1b6044820152606401610564565b60006004805460ff16908111156105ca576105ca6116ab565b141561061f5760405162461bcd60e51b815260206004820152603060248201526000805160206116ed83398151915260448201526f7220746861742069732061637469766560801b6064820152608401610564565b6001600160a01b038116600090815260056020526040902054808311156106a05760405162461bcd60e51b815260206004820152602f60248201527f536f7272792c2063616e2774207769746864726177206d6f7265207468616e2060448201526e746f74616c20646f6e6174696f6e7360881b6064820152608401610564565b6106aa8382611643565b6001600160a01b03831660008181526005602052604090209190915561075b57604051600090339085908381818185875af1925050503d806000811461070c576040519150601f19603f3d011682016040523d82523d6000602084013e610711565b606091505b50509050806107555760405162461bcd60e51b815260206004820152601060248201526f2a3930b739b332b9103330b4b632b21760811b6044820152606401610564565b50505050565b604051630cdeca0960e01b815260040160405180910390fd5b6000806004805460ff169081111561078e5761078e6116ab565b146107e65760405162461bcd60e51b815260206004820152603460248201526000805160206116ed833981519152604482015273722074686174206973206e6f742061637469766560601b6064820152608401610564565b600083116108295760405162461bcd60e51b815260206004820152601060248201526f043616e6e6f74206465706f73697420360841b6044820152606401610564565b6001600160a01b03821661075b5782341461084357600080fd5b6001600160a01b03841660009081526006602090815260408083208380529091529020546108729084906115ea565b6001600160a01b03851660009081526006602090815260408083208380528252909120919091556005905260008051602061170d833981519152546108b89084906115ea565b60008052600560205260008051602061170d833981519152556108d9610eee565b5060019392505050565b336001600160a01b037f0000000000000000000000000000000000000000000000000000000000000000161461092b5760405162461bcd60e51b8152600401610564906114db565b600154811061096e5760405162461bcd60e51b815260206004820152600f60248201526e125b5859d9481b9bdd08199bdd5b99608a1b6044820152606401610564565b600255565b6003805461048b9061165a565b336001600160a01b037f000000000000000000000000000000000000000000000000000000000000000016146109c85760405162461bcd60e51b8152600401610564906114db565b6001805480820182556000919091528251610a0a917fb10e2d527612073b26eecdfd717e6a320cf44b4afac2b0732d9fcbe2b7fa0cf6019060208501906110bb565b5060018115151415610a285760018054610a249190611643565b6002555b5050565b336001600160a01b037f00000000000000000000000000000000000000000000000000000000000000001614610a745760405162461bcd60e51b8152600401610564906114db565b600080546001810182559080528151610a28917f290decd9548b62a8d60345a988386fc84ba6bc95484008f6362f93160ef3e563019060208401906110bb565b600080600080600080606080600060606000807f00000000000000000000000000000000000000000000000000000000000000007f00000000000000000000000000000000000000000000000000000000000000007f00000000000000000000000000000000000000000000000000000000000000007f00000000000000000000000000000000000000000000000000000000000000007f00000000000000000000000000000000000000000000000000000000000000007f0000000000000000000000000000000000000000000000000000000000000000600060016002546003600460009054906101000a900460ff1660056000806001600160a01b03166001600160a01b031681526020019081526020016000205485805480602002602001604051908101604052809291908181526020016000905b82821015610c99578382906000526020600020018054610c0c9061165a565b80601f0160208091040260200160405190810160405280929190818152602001828054610c389061165a565b8015610c855780601f10610c5a57610100808354040283529160200191610c85565b820191906000526020600020905b815481529060010190602001808311610c6857829003601f168201915b505050505081526020019060010190610bed565b50505050955084805480602002602001604051908101604052809291908181526020016000905b82821015610d6c578382906000526020600020018054610cdf9061165a565b80601f0160208091040260200160405190810160405280929190818152602001828054610d0b9061165a565b8015610d585780601f10610d2d57610100808354040283529160200191610d58565b820191906000526020600020905b815481529060010190602001808311610d3b57829003601f168201915b505050505081526020019060010190610cc0565b505050509450828054610d7e9061165a565b80601f0160208091040260200160405190810160405280929190818152602001828054610daa9061165a565b8015610df75780601f10610dcc57610100808354040283529160200191610df7565b820191906000526020600020905b815481529060010190602001808311610dda57829003601f168201915b505050505092509b509b509b509b509b509b509b509b509b509b509b509b50909192939495969798999a9b565b336001600160a01b037f00000000000000000000000000000000000000000000000000000000000000001614610e6c5760405162461bcd60e51b8152600401610564906114db565b60006004805460ff1690811115610e8557610e856116ab565b14610ee05760405162461bcd60e51b815260206004820152602560248201527f596f752063616e206f6e6c7920636c6f7365206163746976652066756e647261604482015264697365727360d81b6064820152608401610564565b6004805460ff191681179055565b7f000000000000000000000000000000000000000000000000000000000000000015611002576000610fc97f00000000000000000000000000000000000000000000000000000000000000006001600160a01b0316630ec3b0276040518163ffffffff1660e01b815260040160206040518083038186803b158015610f7257600080fd5b505afa158015610f86573d6000803e3d6000fd5b505050506040513d601f19601f82011682018060405250810190610faa919061129b565b60008052600560205260008051602061170d8339815191525490611004565b90507f00000000000000000000000000000000000000000000000000000000000000008110611000576004805460ff191660011790555b505b565b6000806110108361103b565b905069d3c21bcecceda10000006110278583611624565b6110319190611602565b9150505b92915050565b600080826001600160a01b031663feaf968c6040518163ffffffff1660e01b815260040160a06040518083038186803b15801561107757600080fd5b505afa15801561108b573d6000803e3d6000fd5b505050506040513d601f19601f820116820180604052508101906110af9190611375565b50919695505050505050565b8280546110c79061165a565b90600052602060002090601f0160209004810192826110e9576000855561112f565b82601f1061110257805160ff191683800117855561112f565b8280016001018555821561112f579182015b8281111561112f578251825591602001919060010190611114565b5061113b92915061113f565b5090565b5b8082111561113b5760008155600101611140565b600082601f83011261116557600080fd5b81356001600160401b038082111561117f5761117f6116c1565b604051601f8301601f19908116603f011681019082821181831017156111a7576111a76116c1565b816040528381528660208588010111156111c057600080fd5b836020870160208301376000602085830101528094505050505092915050565b80516001600160501b03811681146111f757600080fd5b919050565b60006020828403121561120e57600080fd5b8135611219816116d7565b9392505050565b6000806040838503121561123357600080fd5b823561123e816116d7565b9150602083013561124e816116d7565b809150509250929050565b60008060006060848603121561126e57600080fd5b8335611279816116d7565b9250602084013591506040840135611290816116d7565b809150509250925092565b6000602082840312156112ad57600080fd5b8151611219816116d7565b6000602082840312156112ca57600080fd5b81356001600160401b038111156112e057600080fd5b61103184828501611154565b600080604083850312156112ff57600080fd5b82356001600160401b0381111561131557600080fd5b61132185828601611154565b9250506020830135801515811461124e57600080fd5b60006020828403121561134957600080fd5b5035919050565b6000806040838503121561136357600080fd5b82359150602083013561124e816116d7565b600080600080600060a0868803121561138d57600080fd5b611396866111e0565b94506020860151935060408601519250606086015191506113b9608087016111e0565b90509295509295909350565b600082825180855260208086019550808260051b84010181860160005b8481101561141057601f198684030189526113fe838351611451565b988401989250908301906001016113e2565b5090979650505050505050565b6006811061142d5761142d6116ab565b9052565b6005811061142d5761142d6116ab565b6003811061142d5761142d6116ab565b6000815180845260005b818110156114775760208185018101518683018201520161145b565b81811115611489576000602083870101525b50601f01601f19169290920160200192915050565b60208101611035828461141d565b602081016110358284611431565b602081016110358284611441565b6020815260006112196020830184611451565b60208082526041908201527f596f75206d75737420626520746865206f776e6572206f66207468652066756e60408201527f6472616973657220746f20706572666f726d2074686973206f7065726174696f6060820152603760f91b608082015260a00190565b8c81526001600160a01b038c1660208201526000610180611566604084018e611441565b611573606084018d61141d565b8a60808401528960a08401528060c08401526115918184018a6113c5565b905082810360e08401526115a581896113c5565b9050866101008401528281036101208401526115c18187611451565b9150506115d2610140830185611431565b826101608301529d9c50505050505050505050505050565b600082198211156115fd576115fd611695565b500190565b60008261161f57634e487b7160e01b600052601260045260246000fd5b500490565b600081600019048311821515161561163e5761163e611695565b500290565b60008282101561165557611655611695565b500390565b600181811c9082168061166e57607f821691505b6020821081141561168f57634e487b7160e01b600052602260045260246000fd5b50919050565b634e487b7160e01b600052601160045260246000fd5b634e487b7160e01b600052602160045260246000fd5b634e487b7160e01b600052604160045260246000fd5b6001600160a01b038116811461100057600080fdfe596f752063616e6e6f7420646f6e61746520746f20612066756e64726169736505b8ccbb9d4d8fb16ea74ce3c29a41f1b461fbdaff4714a0d9a8eb05499746bca264697066735822122007793c3ff98969d5638038342782b1a2716292bc4c85ada34034c44479bc5d2264736f6c63430008070033c74b13afc7ea4cc43b81bbda4c6db15d24751ccde1c9eae797e941d0510830cda2646970667358221220c4157cc4c543622039fa55c857eea7c3d074d809de01a353f626fea4dc1265c364736f6c63430008070033",
  "linkReferences": {},
  "deployedLinkReferences": {}
}