{
  "_format": "hh-sol-artifact-1",
  "contractName": "DeFundFactory",
  "sourceName": "contracts/DeFundFactory.sol",
  "abi": [
    {
      "inputs": [],
      "name": "DeFundFactory__deposit__less_than_declared",
      "type": "error"
    },
    {
      "inputs": [],
      "name": "DeFundFactory__deposit__token_not_allowed",
      "type": "error"
    },
    {
      "inputs": [],
      "name": "DeFundFactory__deposit__zero_deposit",
      "type": "error"
    },
    {
      "anonymous": false,
      "inputs": [
        {
          "indexed": true,
          "internalType": "address",
          "name": "previousOwner",
          "type": "address"
        },
        {
          "indexed": true,
          "internalType": "address",
          "name": "newOwner",
          "type": "address"
        }
      ],
      "name": "OwnershipTransferred",
      "type": "event"
    },
    {
      "inputs": [
        {
          "internalType": "address",
          "name": "_tokenAddress",
          "type": "address"
        }
      ],
      "name": "allowToken",
      "outputs": [],
      "stateMutability": "nonpayable",
      "type": "function"
    },
    {
      "inputs": [
        {
          "internalType": "enum DeFundFactory.FundraiserType",
          "name": "_type",
          "type": "uint8"
        },
        {
          "internalType": "enum DeFundFactory.FundraiserCategory",
          "name": "_category",
          "type": "uint8"
        },
        {
          "internalType": "string",
          "name": "_name",
          "type": "string"
        },
        {
          "internalType": "string",
          "name": "_description",
          "type": "string"
        },
        {
          "internalType": "uint256",
          "name": "_endDate",
          "type": "uint256"
        }
      ],
      "name": "createFundraiser",
      "outputs": [
        {
          "internalType": "uint256",
          "name": "fundraiserId",
          "type": "uint256"
        }
      ],
      "stateMutability": "nonpayable",
      "type": "function"
    },
    {
      "inputs": [
        {
          "internalType": "uint256",
          "name": "_amount",
          "type": "uint256"
        },
        {
          "internalType": "address",
          "name": "_tokenAddress",
          "type": "address"
        }
      ],
      "name": "depositFunds",
      "outputs": [],
      "stateMutability": "payable",
      "type": "function"
    },
    {
      "inputs": [
        {
          "internalType": "address",
          "name": "_tokenAddress",
          "type": "address"
        }
      ],
      "name": "isTokenAllowed",
      "outputs": [
        {
          "internalType": "bool",
          "name": "",
          "type": "bool"
        }
      ],
      "stateMutability": "view",
      "type": "function"
    },
    {
      "inputs": [],
      "name": "owner",
      "outputs": [
        {
          "internalType": "address",
          "name": "",
          "type": "address"
        }
      ],
      "stateMutability": "view",
      "type": "function"
    },
    {
      "inputs": [],
      "name": "renounceOwnership",
      "outputs": [],
      "stateMutability": "nonpayable",
      "type": "function"
    },
    {
      "inputs": [
        {
          "internalType": "uint256",
          "name": "",
          "type": "uint256"
        }
      ],
      "name": "s_allowedERC20Tokens",
      "outputs": [
        {
          "internalType": "address",
          "name": "",
          "type": "address"
        }
      ],
      "stateMutability": "view",
      "type": "function"
    },
    {
      "inputs": [
        {
          "internalType": "uint256",
          "name": "",
          "type": "uint256"
        }
      ],
      "name": "s_fundraisers",
      "outputs": [
        {
          "internalType": "address",
          "name": "",
          "type": "address"
        }
      ],
      "stateMutability": "view",
      "type": "function"
    },
    {
      "inputs": [
        {
          "internalType": "address",
          "name": "",
          "type": "address"
        },
        {
          "internalType": "uint256",
          "name": "",
          "type": "uint256"
        }
      ],
      "name": "s_fundraisersByOwner",
      "outputs": [
        {
          "internalType": "uint256",
          "name": "",
          "type": "uint256"
        }
      ],
      "stateMutability": "view",
      "type": "function"
    },
    {
      "inputs": [
        {
          "internalType": "address",
          "name": "",
          "type": "address"
        },
        {
          "internalType": "address",
          "name": "",
          "type": "address"
        }
      ],
      "name": "s_userBalances",
      "outputs": [
        {
          "internalType": "uint256",
          "name": "",
          "type": "uint256"
        }
      ],
      "stateMutability": "view",
      "type": "function"
    },
    {
      "inputs": [
        {
          "internalType": "address",
          "name": "newOwner",
          "type": "address"
        }
      ],
      "name": "transferOwnership",
      "outputs": [],
      "stateMutability": "nonpayable",
      "type": "function"
    },
    {
      "inputs": [
        {
          "internalType": "uint256",
          "name": "_amount",
          "type": "uint256"
        },
        {
          "internalType": "address",
          "name": "_tokenAddress",
          "type": "address"
        }
      ],
      "name": "withdrawFunds",
      "outputs": [],
      "stateMutability": "nonpayable",
      "type": "function"
    }
  ],
  "bytecode": "0x6080604052600060035534801561001557600080fd5b5061003261002761003760201b60201c565b61003f60201b60201c565b610103565b600033905090565b60008060009054906101000a900473ffffffffffffffffffffffffffffffffffffffff169050816000806101000a81548173ffffffffffffffffffffffffffffffffffffffff021916908373ffffffffffffffffffffffffffffffffffffffff1602179055508173ffffffffffffffffffffffffffffffffffffffff168173ffffffffffffffffffffffffffffffffffffffff167f8be0079c531659141344cd1fd0a4f28419497f9722a3daafe3b4186f6b6457e060405160405180910390a35050565b6134d5806101126000396000f3fe608060405260043610620000b65760003560e01c8063b0a6169c116200006d578063b0a6169c14620001ff578063b53472ef1462000243578063f2fde38b1462000271578063f785de23146200029f578063f9d03e4614620002bf578063f9eaee0d146200030357620000b6565b806321eb73f014620000bb57806343bfec3b14620000ff5780635a370cb41462000143578063715018a61462000187578063744bfe6114620001a15780638da5cb5b14620001cf575b600080fd5b348015620000c857600080fd5b50620000e76004803603810190620000e1919062001269565b62000347565b604051620000f6919062001406565b60405180910390f35b3480156200010c57600080fd5b506200012b60048036038101906200012591906200119a565b62000387565b6040516200013a919062001532565b60405180910390f35b3480156200015057600080fd5b506200016f600480360381019062000169919062001121565b620004b6565b6040516200017e919062001532565b60405180910390f35b3480156200019457600080fd5b506200019f620004e8565b005b348015620001ae57600080fd5b50620001cd6004803603810190620001c791906200129b565b62000579565b005b348015620001dc57600080fd5b50620001e762000832565b604051620001f6919062001406565b60405180910390f35b3480156200020c57600080fd5b506200022b6004803603810190620002259190620010da565b6200085b565b6040516200023a919062001532565b60405180910390f35b3480156200025057600080fd5b506200026f6004803603810190620002699190620010a8565b62000880565b005b3480156200027e57600080fd5b506200029d6004803603810190620002979190620010a8565b62000969565b005b620002bd6004803603810190620002b791906200129b565b62000a6d565b005b348015620002cc57600080fd5b50620002eb6004803603810190620002e5919062001269565b62000e11565b604051620002fa919062001406565b60405180910390f35b3480156200031057600080fd5b506200032f6004803603810190620003299190620010a8565b62000e44565b6040516200033e91906200148d565b60405180910390f35b600181815481106200035857600080fd5b906000526020600020016000915054906101000a900473ffffffffffffffffffffffffffffffffffffffff1681565b6000600354905060016003546200039f9190620015ef565b600381905550600081338a8a868b8b8b8b604051620003be9062000fc8565b620003d2999897969594939291906200154f565b604051809103906000f080158015620003ef573d6000803e3d6000fd5b509050806004600084815260200190815260200160002060006101000a81548173ffffffffffffffffffffffffffffffffffffffff021916908373ffffffffffffffffffffffffffffffffffffffff160217905550600560003373ffffffffffffffffffffffffffffffffffffffff1673ffffffffffffffffffffffffffffffffffffffff16815260200190815260200160002082908060018154018082558091505060019003906000526020600020016000909190919091505550979650505050505050565b60056020528160005260406000208181548110620004d357600080fd5b90600052602060002001600091509150505481565b620004f262000efc565b73ffffffffffffffffffffffffffffffffffffffff166200051262000832565b73ffffffffffffffffffffffffffffffffffffffff16146200056b576040517f08c379a0000000000000000000000000000000000000000000000000000000008152600401620005629062001510565b60405180910390fd5b62000577600062000f04565b565b60008211620005bf576040517f08c379a0000000000000000000000000000000000000000000000000000000008152600401620005b690620014ee565b60405180910390fd5b6000600260003373ffffffffffffffffffffffffffffffffffffffff1673ffffffffffffffffffffffffffffffffffffffff16815260200190815260200160002060008373ffffffffffffffffffffffffffffffffffffffff1673ffffffffffffffffffffffffffffffffffffffff1681526020019081526020016000205490508083111562000686576040517f08c379a00000000000000000000000000000000000000000000000000000000081526004016200067d90620014cc565b60405180910390fd5b82816200069491906200164c565b600260003373ffffffffffffffffffffffffffffffffffffffff1673ffffffffffffffffffffffffffffffffffffffff16815260200190815260200160002060008473ffffffffffffffffffffffffffffffffffffffff1673ffffffffffffffffffffffffffffffffffffffff16815260200190815260200160002081905550600073ffffffffffffffffffffffffffffffffffffffff168273ffffffffffffffffffffffffffffffffffffffff16141562000798573373ffffffffffffffffffffffffffffffffffffffff166108fc849081150290604051600060405180830381858888f1935050505015801562000791573d6000803e3d6000fd5b506200082d565b8173ffffffffffffffffffffffffffffffffffffffff1663a9059cbb33856040518363ffffffff1660e01b8152600401620007d592919062001460565b602060405180830381600087803b158015620007f057600080fd5b505af115801562000805573d6000803e3d6000fd5b505050506040513d601f19601f820116820180604052508101906200082b919062001168565b505b505050565b60008060009054906101000a900473ffffffffffffffffffffffffffffffffffffffff16905090565b6002602052816000526040600020602052806000526040600020600091509150505481565b6200088a62000efc565b73ffffffffffffffffffffffffffffffffffffffff16620008aa62000832565b73ffffffffffffffffffffffffffffffffffffffff161462000903576040517f08c379a0000000000000000000000000000000000000000000000000000000008152600401620008fa9062001510565b60405180910390fd5b6001819080600181540180825580915050600190039060005260206000200160009091909190916101000a81548173ffffffffffffffffffffffffffffffffffffffff021916908373ffffffffffffffffffffffffffffffffffffffff16021790555050565b6200097362000efc565b73ffffffffffffffffffffffffffffffffffffffff166200099362000832565b73ffffffffffffffffffffffffffffffffffffffff1614620009ec576040517f08c379a0000000000000000000000000000000000000000000000000000000008152600401620009e39062001510565b60405180910390fd5b600073ffffffffffffffffffffffffffffffffffffffff168173ffffffffffffffffffffffffffffffffffffffff16141562000a5f576040517f08c379a000000000000000000000000000000000000000000000000000000000815260040162000a5690620014aa565b60405180910390fd5b62000a6a8162000f04565b50565b600082141562000aa9576040517fa5964f3f00000000000000000000000000000000000000000000000000000000815260040160405180910390fd5b600073ffffffffffffffffffffffffffffffffffffffff168173ffffffffffffffffffffffffffffffffffffffff16141562000c2a578134101562000b1a576040517ff60529c400000000000000000000000000000000000000000000000000000000815260040160405180910390fd5b81600260003373ffffffffffffffffffffffffffffffffffffffff1673ffffffffffffffffffffffffffffffffffffffff16815260200190815260200160002060008073ffffffffffffffffffffffffffffffffffffffff1673ffffffffffffffffffffffffffffffffffffffff1681526020019081526020016000205462000ba49190620015ef565b600260003373ffffffffffffffffffffffffffffffffffffffff1673ffffffffffffffffffffffffffffffffffffffff16815260200190815260200160002060008073ffffffffffffffffffffffffffffffffffffffff1673ffffffffffffffffffffffffffffffffffffffff1681526020019081526020016000208190555062000e0d565b62000c358162000e44565b62000c6c576040517f4324405d00000000000000000000000000000000000000000000000000000000815260040160405180910390fd5b8073ffffffffffffffffffffffffffffffffffffffff166323b872dd3330856040518463ffffffff1660e01b815260040162000cab9392919062001423565b602060405180830381600087803b15801562000cc657600080fd5b505af115801562000cdb573d6000803e3d6000fd5b505050506040513d601f19601f8201168201806040525081019062000d01919062001168565b5081600260003373ffffffffffffffffffffffffffffffffffffffff1673ffffffffffffffffffffffffffffffffffffffff16815260200190815260200160002060008373ffffffffffffffffffffffffffffffffffffffff1673ffffffffffffffffffffffffffffffffffffffff1681526020019081526020016000205462000d8c9190620015ef565b600260003373ffffffffffffffffffffffffffffffffffffffff1673ffffffffffffffffffffffffffffffffffffffff16815260200190815260200160002060008373ffffffffffffffffffffffffffffffffffffffff1673ffffffffffffffffffffffffffffffffffffffff168152602001908152602001600020819055505b5050565b60046020528060005260406000206000915054906101000a900473ffffffffffffffffffffffffffffffffffffffff1681565b600080600090505b60018054905081101562000ef1578273ffffffffffffffffffffffffffffffffffffffff166001828154811062000e885762000e87620017de565b5b9060005260206000200160009054906101000a900473ffffffffffffffffffffffffffffffffffffffff1673ffffffffffffffffffffffffffffffffffffffff16141562000edb57600191505062000ef7565b808062000ee89062001732565b91505062000e4c565b50600090505b919050565b600033905090565b60008060009054906101000a900473ffffffffffffffffffffffffffffffffffffffff169050816000806101000a81548173ffffffffffffffffffffffffffffffffffffffff021916908373ffffffffffffffffffffffffffffffffffffffff1602179055508173ffffffffffffffffffffffffffffffffffffffff168173ffffffffffffffffffffffffffffffffffffffff167f8be0079c531659141344cd1fd0a4f28419497f9722a3daafe3b4186f6b6457e060405160405180910390a35050565b611ada80620019c683390190565b60008135905062000fe78162001955565b92915050565b60008151905062000ffe816200196f565b92915050565b600081359050620010158162001989565b92915050565b6000813590506200102c816200199a565b92915050565b60008083601f8401126200104b576200104a62001812565b5b8235905067ffffffffffffffff8111156200106b576200106a6200180d565b5b6020830191508360018202830111156200108a576200108962001817565b5b9250929050565b600081359050620010a281620019ab565b92915050565b600060208284031215620010c157620010c062001821565b5b6000620010d18482850162000fd6565b91505092915050565b60008060408385031215620010f457620010f362001821565b5b6000620011048582860162000fd6565b9250506020620011178582860162000fd6565b9150509250929050565b600080604083850312156200113b576200113a62001821565b5b60006200114b8582860162000fd6565b92505060206200115e8582860162001091565b9150509250929050565b60006020828403121562001181576200118062001821565b5b6000620011918482850162000fed565b91505092915050565b600080600080600080600060a0888a031215620011bc57620011bb62001821565b5b6000620011cc8a828b016200101b565b9750506020620011df8a828b0162001004565b965050604088013567ffffffffffffffff8111156200120357620012026200181c565b5b620012118a828b0162001032565b9550955050606088013567ffffffffffffffff8111156200123757620012366200181c565b5b620012458a828b0162001032565b935093505060806200125a8a828b0162001091565b91505092959891949750929550565b60006020828403121562001282576200128162001821565b5b6000620012928482850162001091565b91505092915050565b60008060408385031215620012b557620012b462001821565b5b6000620012c58582860162001091565b9250506020620012d88582860162000fd6565b9150509250929050565b620012ed8162001687565b82525050565b620012fe816200169b565b82525050565b6200130f81620016fb565b82525050565b62001320816200170f565b82525050565b6000620013348385620015de565b93506200134383858462001723565b6200134e8362001826565b840190509392505050565b600062001368602683620015de565b9150620013758262001837565b604082019050919050565b60006200138f603b83620015de565b91506200139c8262001886565b604082019050919050565b6000620013b6601183620015de565b9150620013c382620018d5565b602082019050919050565b6000620013dd602083620015de565b9150620013ea82620018fe565b602082019050919050565b6200140081620016f1565b82525050565b60006020820190506200141d6000830184620012e2565b92915050565b60006060820190506200143a6000830186620012e2565b620014496020830185620012e2565b620014586040830184620013f5565b949350505050565b6000604082019050620014776000830185620012e2565b620014866020830184620013f5565b9392505050565b6000602082019050620014a46000830184620012f3565b92915050565b60006020820190508181036000830152620014c58162001359565b9050919050565b60006020820190508181036000830152620014e78162001380565b9050919050565b600060208201905081810360008301526200150981620013a7565b9050919050565b600060208201905081810360008301526200152b81620013ce565b9050919050565b6000602082019050620015496000830184620013f5565b92915050565b600060e08201905062001566600083018c620013f5565b62001575602083018b620012e2565b62001584604083018a62001315565b62001593606083018962001304565b620015a26080830188620013f5565b81810360a0830152620015b781868862001326565b905081810360c0830152620015ce81848662001326565b90509a9950505050505050505050565b600082825260208201905092915050565b6000620015fc82620016f1565b91506200160983620016f1565b9250827fffffffffffffffffffffffffffffffffffffffffffffffffffffffffffffffff0382111562001641576200164062001780565b5b828201905092915050565b60006200165982620016f1565b91506200166683620016f1565b9250828210156200167c576200167b62001780565b5b828203905092915050565b60006200169482620016d1565b9050919050565b60008115159050919050565b6000819050620016b78262001927565b919050565b6000819050620016cc826200193e565b919050565b600073ffffffffffffffffffffffffffffffffffffffff82169050919050565b6000819050919050565b60006200170882620016a7565b9050919050565b60006200171c82620016bc565b9050919050565b82818337600083830152505050565b60006200173f82620016f1565b91507fffffffffffffffffffffffffffffffffffffffffffffffffffffffffffffffff82141562001775576200177462001780565b5b600182019050919050565b7f4e487b7100000000000000000000000000000000000000000000000000000000600052601160045260246000fd5b7f4e487b7100000000000000000000000000000000000000000000000000000000600052602160045260246000fd5b7f4e487b7100000000000000000000000000000000000000000000000000000000600052603260045260246000fd5b600080fd5b600080fd5b600080fd5b600080fd5b600080fd5b6000601f19601f8301169050919050565b7f4f776e61626c653a206e6577206f776e657220697320746865207a65726f206160008201527f6464726573730000000000000000000000000000000000000000000000000000602082015250565b7f536f7272792c2063616e2774207769746864726177206d6f7265207468616e2060008201527f796f75206861766520696e20796f7572206163636f756e74203a290000000000602082015250565b7f43616e6e6f742077697468647261772030000000000000000000000000000000600082015250565b7f4f776e61626c653a2063616c6c6572206973206e6f7420746865206f776e6572600082015250565b600681106200193b576200193a620017af565b5b50565b60038110620019525762001951620017af565b5b50565b620019608162001687565b81146200196c57600080fd5b50565b6200197a816200169b565b81146200198657600080fd5b50565b600681106200199757600080fd5b50565b60038110620019a857600080fd5b50565b620019b681620016f1565b8114620019c257600080fd5b5056fe6101406040523480156200001257600080fd5b5060405162001ada38038062001ada83398181016040528101906200003891906200033e565b86608081815250508573ffffffffffffffffffffffffffffffffffffffff1660a08173ffffffffffffffffffffffffffffffffffffffff1660601b815250508460028111156200008d576200008c6200056e565b5b60c0816002811115620000a557620000a46200056e565b5b60f81b81525050836005811115620000c257620000c16200056e565b5b60e0816005811115620000da57620000d96200056e565b5b60f81b81525050826101008181525050816001908051906020019062000102929190620001b4565b5060008190806001815401808255809150506001900390600052602060002001600090919091909150908051906020019062000140929190620001b4565b503373ffffffffffffffffffffffffffffffffffffffff166101208173ffffffffffffffffffffffffffffffffffffffff1660601b815250506000600260006101000a81548160ff02191690836004811115620001a257620001a16200056e565b5b02179055505050505050505062000676565b828054620001c29062000502565b90600052602060002090601f016020900481019282620001e6576000855562000232565b82601f106200020157805160ff191683800117855562000232565b8280016001018555821562000232579182015b828111156200023157825182559160200191906001019062000214565b5b50905062000241919062000245565b5090565b5b808211156200026057600081600090555060010162000246565b5090565b60006200027b620002758462000458565b6200042f565b9050828152602081018484840111156200029a576200029962000600565b5b620002a7848285620004cc565b509392505050565b600081519050620002c08162000620565b92915050565b600081519050620002d7816200063a565b92915050565b600081519050620002ee816200064b565b92915050565b600082601f8301126200030c576200030b620005fb565b5b81516200031e84826020860162000264565b91505092915050565b60008151905062000338816200065c565b92915050565b600080600080600080600060e0888a03121562000360576200035f6200060a565b5b6000620003708a828b0162000327565b9750506020620003838a828b01620002af565b9650506040620003968a828b01620002dd565b9550506060620003a98a828b01620002c6565b9450506080620003bc8a828b0162000327565b93505060a088015167ffffffffffffffff811115620003e057620003df62000605565b5b620003ee8a828b01620002f4565b92505060c088015167ffffffffffffffff81111562000412576200041162000605565b5b620004208a828b01620002f4565b91505092959891949750929550565b60006200043b6200044e565b905062000449828262000538565b919050565b6000604051905090565b600067ffffffffffffffff821115620004765762000475620005cc565b5b62000481826200060f565b9050602081019050919050565b60006200049b82620004a2565b9050919050565b600073ffffffffffffffffffffffffffffffffffffffff82169050919050565b6000819050919050565b60005b83811015620004ec578082015181840152602081019050620004cf565b83811115620004fc576000848401525b50505050565b600060028204905060018216806200051b57607f821691505b602082108114156200053257620005316200059d565b5b50919050565b62000543826200060f565b810181811067ffffffffffffffff82111715620005655762000564620005cc565b5b80604052505050565b7f4e487b7100000000000000000000000000000000000000000000000000000000600052602160045260246000fd5b7f4e487b7100000000000000000000000000000000000000000000000000000000600052602260045260246000fd5b7f4e487b7100000000000000000000000000000000000000000000000000000000600052604160045260246000fd5b600080fd5b600080fd5b600080fd5b600080fd5b6000601f19601f8301169050919050565b6200062b816200048e565b81146200063757600080fd5b50565b600681106200064857600080fd5b50565b600381106200065957600080fd5b50565b6200066781620004c2565b81146200067357600080fd5b50565b60805160a05160601c60c05160f81c60e05160f81c610100516101205160601c611404620006d660003960005050600061030f01526000610bf7015260006103330152600081816104030152610bd3015260006106bf01526114046000f3fe6080604052600436106100a75760003560e01c8063779fa30f11610064578063779fa30f146101d0578063ab32eb69146101fb578063b22c70de14610238578063bba1964f14610254578063dba6335f1461027f578063f950e69c146102aa576100a7565b80631ca5872c146100ac5780632a578542146100d75780633692686614610114578063554abf521461013f5780636680ba7d1461016a578063744bfe61146101a7575b600080fd5b3480156100b857600080fd5b506100c16102d5565b6040516100ce9190610f05565b60405180910390f35b3480156100e357600080fd5b506100fe60048036038101906100f99190610c85565b6102e8565b60405161010b9190610fdd565b60405180910390f35b34801561012057600080fd5b5061012961030d565b6040516101369190610fdd565b60405180910390f35b34801561014b57600080fd5b50610154610331565b6040516101619190610f20565b60405180910390f35b34801561017657600080fd5b50610191600480360381019061018c9190610cf2565b610355565b60405161019e9190610f3b565b60405180910390f35b3480156101b357600080fd5b506101ce60048036038101906101c99190610d1f565b610401565b005b3480156101dc57600080fd5b506101e56106bd565b6040516101f29190610fdd565b60405180910390f35b34801561020757600080fd5b50610222600480360381019061021d9190610c58565b6106e1565b60405161022f9190610fdd565b60405180910390f35b610252600480360381019061024d9190610d1f565b6106f9565b005b34801561026057600080fd5b50610269610b43565b6040516102769190610f3b565b60405180910390f35b34801561028b57600080fd5b50610294610bd1565b6040516102a19190610e6f565b60405180910390f35b3480156102b657600080fd5b506102bf610bf5565b6040516102cc9190610eea565b60405180910390f35b600260009054906101000a900460ff1681565b6004602052816000526040600020602052806000526040600020600091509150505481565b7f000000000000000000000000000000000000000000000000000000000000000081565b7f000000000000000000000000000000000000000000000000000000000000000081565b6000818154811061036557600080fd5b90600052602060002001600091509050805461038090611188565b80601f01602080910402602001604051908101604052809291908181526020018280546103ac90611188565b80156103f95780601f106103ce576101008083540402835291602001916103f9565b820191906000526020600020905b8154815290600101906020018083116103dc57829003601f168201915b505050505081565b7f000000000000000000000000000000000000000000000000000000000000000073ffffffffffffffffffffffffffffffffffffffff163373ffffffffffffffffffffffffffffffffffffffff161461048f576040517f08c379a000000000000000000000000000000000000000000000000000000000815260040161048690610f5d565b60405180910390fd5b600082116104d2576040517f08c379a00000000000000000000000000000000000000000000000000000000081526004016104c990610fbd565b60405180910390fd5b6000600360008373ffffffffffffffffffffffffffffffffffffffff1673ffffffffffffffffffffffffffffffffffffffff16815260200190815260200160002054905080831115610559576040517f08c379a000000000000000000000000000000000000000000000000000000000815260040161055090610f9d565b60405180910390fd5b8281610565919061106a565b600360008473ffffffffffffffffffffffffffffffffffffffff1673ffffffffffffffffffffffffffffffffffffffff16815260200190815260200160002081905550600073ffffffffffffffffffffffffffffffffffffffff168273ffffffffffffffffffffffffffffffffffffffff161415610629573373ffffffffffffffffffffffffffffffffffffffff166108fc849081150290604051600060405180830381858888f19350505050158015610623573d6000803e3d6000fd5b506106b8565b8173ffffffffffffffffffffffffffffffffffffffff1663a9059cbb33856040518363ffffffff1660e01b8152600401610664929190610ec1565b602060405180830381600087803b15801561067e57600080fd5b505af1158015610692573d6000803e3d6000fd5b505050506040513d601f19601f820116820180604052508101906106b69190610cc5565b505b505050565b7f000000000000000000000000000000000000000000000000000000000000000081565b60036020528060005260406000206000915090505481565b6000821161073c576040517f08c379a000000000000000000000000000000000000000000000000000000000815260040161073390610f7d565b60405180910390fd5b600073ffffffffffffffffffffffffffffffffffffffff168173ffffffffffffffffffffffffffffffffffffffff1614156109185781341461077d57600080fd5b81600460003373ffffffffffffffffffffffffffffffffffffffff1673ffffffffffffffffffffffffffffffffffffffff16815260200190815260200160002060008073ffffffffffffffffffffffffffffffffffffffff1673ffffffffffffffffffffffffffffffffffffffff168152602001908152602001600020546108059190611014565b600460003373ffffffffffffffffffffffffffffffffffffffff1673ffffffffffffffffffffffffffffffffffffffff16815260200190815260200160002060008073ffffffffffffffffffffffffffffffffffffffff1673ffffffffffffffffffffffffffffffffffffffff1681526020019081526020016000208190555081600360008073ffffffffffffffffffffffffffffffffffffffff1673ffffffffffffffffffffffffffffffffffffffff168152602001908152602001600020546108d09190611014565b600360008073ffffffffffffffffffffffffffffffffffffffff1673ffffffffffffffffffffffffffffffffffffffff16815260200190815260200160002081905550610b3f565b8073ffffffffffffffffffffffffffffffffffffffff166323b872dd3330856040518463ffffffff1660e01b815260040161095593929190610e8a565b602060405180830381600087803b15801561096f57600080fd5b505af1158015610983573d6000803e3d6000fd5b505050506040513d601f19601f820116820180604052508101906109a79190610cc5565b5081600460003373ffffffffffffffffffffffffffffffffffffffff1673ffffffffffffffffffffffffffffffffffffffff16815260200190815260200160002060008373ffffffffffffffffffffffffffffffffffffffff1673ffffffffffffffffffffffffffffffffffffffff16815260200190815260200160002054610a309190611014565b600460003373ffffffffffffffffffffffffffffffffffffffff1673ffffffffffffffffffffffffffffffffffffffff16815260200190815260200160002060008373ffffffffffffffffffffffffffffffffffffffff1673ffffffffffffffffffffffffffffffffffffffff1681526020019081526020016000208190555081600360008373ffffffffffffffffffffffffffffffffffffffff1673ffffffffffffffffffffffffffffffffffffffff16815260200190815260200160002054610afb9190611014565b600360008373ffffffffffffffffffffffffffffffffffffffff1673ffffffffffffffffffffffffffffffffffffffff168152602001908152602001600020819055505b5050565b60018054610b5090611188565b80601f0160208091040260200160405190810160405280929190818152602001828054610b7c90611188565b8015610bc95780601f10610b9e57610100808354040283529160200191610bc9565b820191906000526020600020905b815481529060010190602001808311610bac57829003601f168201915b505050505081565b7f000000000000000000000000000000000000000000000000000000000000000081565b7f000000000000000000000000000000000000000000000000000000000000000081565b600081359050610c2881611389565b92915050565b600081519050610c3d816113a0565b92915050565b600081359050610c52816113b7565b92915050565b600060208284031215610c6e57610c6d611247565b5b6000610c7c84828501610c19565b91505092915050565b60008060408385031215610c9c57610c9b611247565b5b6000610caa85828601610c19565b9250506020610cbb85828601610c19565b9150509250929050565b600060208284031215610cdb57610cda611247565b5b6000610ce984828501610c2e565b91505092915050565b600060208284031215610d0857610d07611247565b5b6000610d1684828501610c43565b91505092915050565b60008060408385031215610d3657610d35611247565b5b6000610d4485828601610c43565b9250506020610d5585828601610c19565b9150509250929050565b610d688161109e565b82525050565b610d778161111f565b82525050565b610d8681611131565b82525050565b610d9581611143565b82525050565b6000610da682610ff8565b610db08185611003565b9350610dc0818560208601611155565b610dc98161124c565b840191505092915050565b6000610de1603383611003565b9150610dec8261125d565b604082019050919050565b6000610e04601083611003565b9150610e0f826112ac565b602082019050919050565b6000610e27602f83611003565b9150610e32826112d5565b604082019050919050565b6000610e4a601183611003565b9150610e5582611324565b602082019050919050565b610e6981611115565b82525050565b6000602082019050610e846000830184610d5f565b92915050565b6000606082019050610e9f6000830186610d5f565b610eac6020830185610d5f565b610eb96040830184610e60565b949350505050565b6000604082019050610ed66000830185610d5f565b610ee36020830184610e60565b9392505050565b6000602082019050610eff6000830184610d6e565b92915050565b6000602082019050610f1a6000830184610d7d565b92915050565b6000602082019050610f356000830184610d8c565b92915050565b60006020820190508181036000830152610f558184610d9b565b905092915050565b60006020820190508181036000830152610f7681610dd4565b9050919050565b60006020820190508181036000830152610f9681610df7565b9050919050565b60006020820190508181036000830152610fb681610e1a565b9050919050565b60006020820190508181036000830152610fd681610e3d565b9050919050565b6000602082019050610ff26000830184610e60565b92915050565b600081519050919050565b600082825260208201905092915050565b600061101f82611115565b915061102a83611115565b9250827fffffffffffffffffffffffffffffffffffffffffffffffffffffffffffffffff0382111561105f5761105e6111ba565b5b828201905092915050565b600061107582611115565b915061108083611115565b925082821015611093576110926111ba565b5b828203905092915050565b60006110a9826110f5565b9050919050565b60008115159050919050565b60008190506110ca8261134d565b919050565b60008190506110dd82611361565b919050565b60008190506110f082611375565b919050565b600073ffffffffffffffffffffffffffffffffffffffff82169050919050565b6000819050919050565b600061112a826110bc565b9050919050565b600061113c826110cf565b9050919050565b600061114e826110e2565b9050919050565b60005b83811015611173578082015181840152602081019050611158565b83811115611182576000848401525b50505050565b600060028204905060018216806111a057607f821691505b602082108114156111b4576111b3611218565b5b50919050565b7f4e487b7100000000000000000000000000000000000000000000000000000000600052601160045260246000fd5b7f4e487b7100000000000000000000000000000000000000000000000000000000600052602160045260246000fd5b7f4e487b7100000000000000000000000000000000000000000000000000000000600052602260045260246000fd5b600080fd5b6000601f19601f8301169050919050565b7f596f75206d75737420626520746865206f776e6572206f66207468652066756e60008201527f6472616973657220746f20776974686472617700000000000000000000000000602082015250565b7f43616e6e6f74206465706f736974203000000000000000000000000000000000600082015250565b7f536f7272792c2063616e2774207769746864726177206d6f7265207468616e2060008201527f746f74616c20646f6e6174696f6e730000000000000000000000000000000000602082015250565b7f43616e6e6f742077697468647261772030000000000000000000000000000000600082015250565b6006811061135e5761135d6111e9565b5b50565b60058110611372576113716111e9565b5b50565b60038110611386576113856111e9565b5b50565b6113928161109e565b811461139d57600080fd5b50565b6113a9816110b0565b81146113b457600080fd5b50565b6113c081611115565b81146113cb57600080fd5b5056fea2646970667358221220499bf4025d627d258bc39e29aa05d62e89b5ceb6f3a77bad455c757600f9c08964736f6c63430008070033a264697066735822122004b7a2178c3e29fa70f7958f65a81d598384afbfdece8f1f178f5e32e2c710e964736f6c63430008070033",
  "linkReferences": {},
  "deployedLinkReferences": {}
}