{
  "_format": "hh-sol-artifact-1",
  "contractName": "DeFundFactory",
  "sourceName": "contracts/DeFundFactory.sol",
  "abi": [
    {
      "inputs": [],
      "stateMutability": "nonpayable",
      "type": "constructor"
    },
    {
      "inputs": [],
      "name": "DeFundFactory__deposit__less_than_declared",
      "type": "error"
    },
    {
      "inputs": [],
      "name": "DeFundFactory__deposit__token_not_allowed",
      "type": "error"
    },
    {
      "inputs": [],
      "name": "DeFundFactory__deposit__zero_deposit",
      "type": "error"
    },
    {
      "inputs": [],
      "name": "DeFundFactory__not_implemented",
      "type": "error"
    },
    {
      "anonymous": false,
      "inputs": [
        {
          "indexed": true,
          "internalType": "uint256",
          "name": "fundraiserId",
          "type": "uint256"
        },
        {
          "indexed": true,
          "internalType": "address",
          "name": "creator",
          "type": "address"
        },
        {
          "indexed": false,
          "internalType": "string",
          "name": "title",
          "type": "string"
        },
        {
          "indexed": false,
          "internalType": "enum DeFundFactory.FundraiserType",
          "name": "fundraiserType",
          "type": "uint8"
        },
        {
          "indexed": false,
          "internalType": "enum DeFundFactory.FundraiserCategory",
          "name": "category",
          "type": "uint8"
        },
        {
          "indexed": false,
          "internalType": "uint256",
          "name": "endDate",
          "type": "uint256"
        },
        {
          "indexed": false,
          "internalType": "uint256",
          "name": "goalAmount",
          "type": "uint256"
        }
      ],
      "name": "FundraiserCreated",
      "type": "event"
    },
    {
      "anonymous": false,
      "inputs": [
        {
          "indexed": true,
          "internalType": "address",
          "name": "previousOwner",
          "type": "address"
        },
        {
          "indexed": true,
          "internalType": "address",
          "name": "newOwner",
          "type": "address"
        }
      ],
      "name": "OwnershipTransferred",
      "type": "event"
    },
    {
      "anonymous": false,
      "inputs": [
        {
          "indexed": true,
          "internalType": "address",
          "name": "creator",
          "type": "address"
        },
        {
          "indexed": false,
          "internalType": "address",
          "name": "tokenAddress",
          "type": "address"
        },
        {
          "indexed": false,
          "internalType": "uint256",
          "name": "previousBalance",
          "type": "uint256"
        },
        {
          "indexed": false,
          "internalType": "uint256",
          "name": "newBalance",
          "type": "uint256"
        }
      ],
      "name": "UserBalanceChanged",
      "type": "event"
    },
    {
      "inputs": [
        {
          "internalType": "address",
          "name": "_tokenAddress",
          "type": "address"
        }
      ],
      "name": "allowToken",
      "outputs": [],
      "stateMutability": "nonpayable",
      "type": "function"
    },
    {
      "inputs": [
        {
          "internalType": "enum DeFundFactory.FundraiserType",
          "name": "_type",
          "type": "uint8"
        },
        {
          "internalType": "enum DeFundFactory.FundraiserCategory",
          "name": "_category",
          "type": "uint8"
        },
        {
          "internalType": "string",
          "name": "_name",
          "type": "string"
        },
        {
          "internalType": "string",
          "name": "_description",
          "type": "string"
        },
        {
          "internalType": "uint256",
          "name": "_endDate",
          "type": "uint256"
        },
        {
          "internalType": "uint256",
          "name": "_goalAmount",
          "type": "uint256"
        }
      ],
      "name": "createFundraiser",
      "outputs": [
        {
          "internalType": "uint256",
          "name": "fundraiserId",
          "type": "uint256"
        }
      ],
      "stateMutability": "nonpayable",
      "type": "function"
    },
    {
      "inputs": [
        {
          "internalType": "uint256",
          "name": "_amount",
          "type": "uint256"
        },
        {
          "internalType": "address",
          "name": "_tokenAddress",
          "type": "address"
        }
      ],
      "name": "depositFunds",
      "outputs": [],
      "stateMutability": "payable",
      "type": "function"
    },
    {
      "inputs": [
        {
          "internalType": "address",
          "name": "_fundraiserAddress",
          "type": "address"
        },
        {
          "internalType": "uint256",
          "name": "_amount",
          "type": "uint256"
        },
        {
          "internalType": "address",
          "name": "_tokenAddress",
          "type": "address"
        }
      ],
      "name": "donateByAddress",
      "outputs": [],
      "stateMutability": "nonpayable",
      "type": "function"
    },
    {
      "inputs": [
        {
          "internalType": "uint256",
          "name": "_fundraiserId",
          "type": "uint256"
        },
        {
          "internalType": "uint256",
          "name": "_amount",
          "type": "uint256"
        },
        {
          "internalType": "address",
          "name": "_tokenAddress",
          "type": "address"
        }
      ],
      "name": "donateById",
      "outputs": [],
      "stateMutability": "nonpayable",
      "type": "function"
    },
    {
      "inputs": [
        {
          "internalType": "address",
          "name": "_token",
          "type": "address"
        }
      ],
      "name": "getMyBalance",
      "outputs": [
        {
          "internalType": "uint256",
          "name": "balance",
          "type": "uint256"
        }
      ],
      "stateMutability": "view",
      "type": "function"
    },
    {
      "inputs": [
        {
          "internalType": "address",
          "name": "_tokenAddress",
          "type": "address"
        }
      ],
      "name": "isTokenAllowed",
      "outputs": [
        {
          "internalType": "bool",
          "name": "",
          "type": "bool"
        }
      ],
      "stateMutability": "view",
      "type": "function"
    },
    {
      "inputs": [],
      "name": "owner",
      "outputs": [
        {
          "internalType": "address",
          "name": "",
          "type": "address"
        }
      ],
      "stateMutability": "view",
      "type": "function"
    },
    {
      "inputs": [],
      "name": "renounceOwnership",
      "outputs": [],
      "stateMutability": "nonpayable",
      "type": "function"
    },
    {
      "inputs": [
        {
          "internalType": "uint256",
          "name": "",
          "type": "uint256"
        }
      ],
      "name": "s_allowedERC20Tokens",
      "outputs": [
        {
          "internalType": "address",
          "name": "",
          "type": "address"
        }
      ],
      "stateMutability": "view",
      "type": "function"
    },
    {
      "inputs": [
        {
          "internalType": "uint256",
          "name": "",
          "type": "uint256"
        }
      ],
      "name": "s_fundraisers",
      "outputs": [
        {
          "internalType": "address",
          "name": "",
          "type": "address"
        }
      ],
      "stateMutability": "view",
      "type": "function"
    },
    {
      "inputs": [
        {
          "internalType": "address",
          "name": "",
          "type": "address"
        },
        {
          "internalType": "uint256",
          "name": "",
          "type": "uint256"
        }
      ],
      "name": "s_fundraisersByOwner",
      "outputs": [
        {
          "internalType": "uint256",
          "name": "",
          "type": "uint256"
        }
      ],
      "stateMutability": "view",
      "type": "function"
    },
    {
      "inputs": [],
      "name": "s_priceFeed",
      "outputs": [
        {
          "internalType": "contract AggregatorV3Interface",
          "name": "",
          "type": "address"
        }
      ],
      "stateMutability": "view",
      "type": "function"
    },
    {
      "inputs": [
        {
          "internalType": "address",
          "name": "",
          "type": "address"
        },
        {
          "internalType": "address",
          "name": "",
          "type": "address"
        }
      ],
      "name": "s_userBalances",
      "outputs": [
        {
          "internalType": "uint256",
          "name": "",
          "type": "uint256"
        }
      ],
      "stateMutability": "view",
      "type": "function"
    },
    {
      "inputs": [
        {
          "internalType": "address",
          "name": "newOwner",
          "type": "address"
        }
      ],
      "name": "transferOwnership",
      "outputs": [],
      "stateMutability": "nonpayable",
      "type": "function"
    },
    {
      "inputs": [
        {
          "internalType": "uint256",
          "name": "_amount",
          "type": "uint256"
        },
        {
          "internalType": "address",
          "name": "_tokenAddress",
          "type": "address"
        }
      ],
      "name": "withdrawFunds",
      "outputs": [],
      "stateMutability": "nonpayable",
      "type": "function"
    }
  ],
  "bytecode": "0x6080604052600060035534801561001557600080fd5b5061003261002761008c60201b60201c565b61009460201b60201c565b739326bfa02add2366b30bacb125260af641031331600660006101000a81548173ffffffffffffffffffffffffffffffffffffffff021916908373ffffffffffffffffffffffffffffffffffffffff160217905550610158565b600033905090565b60008060009054906101000a900473ffffffffffffffffffffffffffffffffffffffff169050816000806101000a81548173ffffffffffffffffffffffffffffffffffffffff021916908373ffffffffffffffffffffffffffffffffffffffff1602179055508173ffffffffffffffffffffffffffffffffffffffff168173ffffffffffffffffffffffffffffffffffffffff167f8be0079c531659141344cd1fd0a4f28419497f9722a3daafe3b4186f6b6457e060405160405180910390a35050565b6153e680620001686000396000f3fe6080604052600436106200010a5760003560e01c80637e3ef7cd1162000097578063f2fde38b1162000061578063f2fde38b1462000395578063f785de2314620003c3578063f9d03e4614620003e3578063f9eaee0d1462000427576200010a565b80637e3ef7cd14620002af5780638da5cb5b14620002f3578063b0a6169c1462000323578063b53472ef1462000367576200010a565b806357f93b7111620000d957806357f93b7114620001df5780635a370cb41462000223578063715018a61462000267578063744bfe611462000281576200010a565b80630ec3b027146200010f57806321eb73f0146200013f5780632c186fcf146200018357806340decd3a14620001b1575b600080fd5b3480156200011c57600080fd5b50620001276200046b565b60405162000136919062001c74565b60405180910390f35b3480156200014c57600080fd5b506200016b600480360381019062000165919062001903565b62000491565b6040516200017a919062001bc0565b60405180910390f35b3480156200019057600080fd5b50620001af6004803603810190620001a991906200197c565b620004d1565b005b348015620001be57600080fd5b50620001dd6004803603810190620001d7919062001791565b62000516565b005b348015620001ec57600080fd5b506200020b60048036038101906200020591906200181f565b62000803565b6040516200021a919062001de5565b60405180910390f35b3480156200023057600080fd5b506200024f60048036038101906200024991906200174a565b62000990565b6040516200025e919062001de5565b60405180910390f35b3480156200027457600080fd5b506200027f620009c2565b005b3480156200028e57600080fd5b50620002ad6004803603810190620002a7919062001935565b62000a53565b005b348015620002bc57600080fd5b50620002db6004803603810190620002d59190620016d1565b62000df2565b604051620002ea919062001de5565b60405180910390f35b3480156200030057600080fd5b506200030b62000e78565b6040516200031a919062001bc0565b60405180910390f35b3480156200033057600080fd5b506200034f600480360381019062000349919062001703565b62000ea1565b6040516200035e919062001de5565b60405180910390f35b3480156200037457600080fd5b506200039360048036038101906200038d9190620016d1565b62000ec6565b005b348015620003a257600080fd5b50620003c16004803603810190620003bb9190620016d1565b62000faf565b005b620003e16004803603810190620003db919062001935565b620010b3565b005b348015620003f057600080fd5b506200040f600480360381019062000409919062001903565b6200143a565b6040516200041e919062001bc0565b60405180910390f35b3480156200043457600080fd5b506200045360048036038101906200044d9190620016d1565b6200146d565b60405162000462919062001c57565b60405180910390f35b600660009054906101000a900473ffffffffffffffffffffffffffffffffffffffff1681565b60018181548110620004a257600080fd5b906000526020600020016000915054906101000a900473ffffffffffffffffffffffffffffffffffffffff1681565b620005116004600085815260200190815260200160002060009054906101000a900473ffffffffffffffffffffffffffffffffffffffff16838362000516565b505050565b600082116200055c576040517f08c379a0000000000000000000000000000000000000000000000000000000008152600401620005539062001dc3565b60405180910390fd5b6000600260003373ffffffffffffffffffffffffffffffffffffffff1673ffffffffffffffffffffffffffffffffffffffff16815260200190815260200160002060008373ffffffffffffffffffffffffffffffffffffffff1673ffffffffffffffffffffffffffffffffffffffff1681526020019081526020016000205490508083111562000623576040517f08c379a00000000000000000000000000000000000000000000000000000000081526004016200061a9062001cf7565b60405180910390fd5b828162000631919062001f1b565b600260003373ffffffffffffffffffffffffffffffffffffffff1673ffffffffffffffffffffffffffffffffffffffff16815260200190815260200160002060008473ffffffffffffffffffffffffffffffffffffffff1673ffffffffffffffffffffffffffffffffffffffff16815260200190815260200160002081905550600073ffffffffffffffffffffffffffffffffffffffff168273ffffffffffffffffffffffffffffffffffffffff161415620007cb5760008473ffffffffffffffffffffffffffffffffffffffff166374e781b3853387876040518563ffffffff1660e01b8152600401620007299392919062001bdd565b6020604051808303818588803b1580156200074357600080fd5b505af115801562000758573d6000803e3d6000fd5b50505050506040513d601f19601f820116820180604052508101906200077f9190620017ed565b905080620007c4576040517f08c379a0000000000000000000000000000000000000000000000000000000008152600401620007bb9062001da1565b60405180910390fd5b50620007fd565b6040517fe61acd3e00000000000000000000000000000000000000000000000000000000815260040160405180910390fd5b50505050565b6000600354905060016003546200081b919062001ebe565b600381905550600081338b8b8b8b8b8b8b8b6040516200083b90620015f1565b620008509a9998979695949392919062001e02565b604051809103906000f0801580156200086d573d6000803e3d6000fd5b509050806004600084815260200190815260200160002060006101000a81548173ffffffffffffffffffffffffffffffffffffffff021916908373ffffffffffffffffffffffffffffffffffffffff160217905550600560003373ffffffffffffffffffffffffffffffffffffffff1673ffffffffffffffffffffffffffffffffffffffff1681526020019081526020016000208290806001815401808255809150506001900390600052602060002001600090919091909150553373ffffffffffffffffffffffffffffffffffffffff16827f2a3720f62d1e85b04f6fdde0ad0f608f61ce672e8bd70c9f4f887b6a9febcf778a8a8e8e8a8a6040516200097b9695949392919062001c91565b60405180910390a35098975050505050505050565b60056020528160005260406000208181548110620009ad57600080fd5b90600052602060002001600091509150505481565b620009cc62001525565b73ffffffffffffffffffffffffffffffffffffffff16620009ec62000e78565b73ffffffffffffffffffffffffffffffffffffffff161462000a45576040517f08c379a000000000000000000000000000000000000000000000000000000000815260040162000a3c9062001d7f565b60405180910390fd5b62000a5160006200152d565b565b6000821162000a99576040517f08c379a000000000000000000000000000000000000000000000000000000000815260040162000a909062001d5d565b60405180910390fd5b6000600260003373ffffffffffffffffffffffffffffffffffffffff1673ffffffffffffffffffffffffffffffffffffffff16815260200190815260200160002060008373ffffffffffffffffffffffffffffffffffffffff1673ffffffffffffffffffffffffffffffffffffffff1681526020019081526020016000205490508083111562000b60576040517f08c379a000000000000000000000000000000000000000000000000000000000815260040162000b579062001d3b565b60405180910390fd5b828162000b6e919062001f1b565b600260003373ffffffffffffffffffffffffffffffffffffffff1673ffffffffffffffffffffffffffffffffffffffff16815260200190815260200160002060008473ffffffffffffffffffffffffffffffffffffffff1673ffffffffffffffffffffffffffffffffffffffff16815260200190815260200160002081905550600073ffffffffffffffffffffffffffffffffffffffff168273ffffffffffffffffffffffffffffffffffffffff16141562000cde5760003373ffffffffffffffffffffffffffffffffffffffff168460405162000c4c9062001ba9565b60006040518083038185875af1925050503d806000811462000c8b576040519150601f19603f3d011682016040523d82523d6000602084013e62000c90565b606091505b505090508062000cd7576040517f08c379a000000000000000000000000000000000000000000000000000000000815260040162000cce9062001da1565b60405180910390fd5b5062000d10565b6040517fe61acd3e00000000000000000000000000000000000000000000000000000000815260040160405180910390fd5b3373ffffffffffffffffffffffffffffffffffffffff167fc74b13afc7ea4cc43b81bbda4c6db15d24751ccde1c9eae797e941d0510830cd83600260003373ffffffffffffffffffffffffffffffffffffffff1673ffffffffffffffffffffffffffffffffffffffff16815260200190815260200160002060008673ffffffffffffffffffffffffffffffffffffffff1673ffffffffffffffffffffffffffffffffffffffff16815260200190815260200160002054868562000dd4919062001f1b565b60405162000de59392919062001c1a565b60405180910390a2505050565b6000600260003373ffffffffffffffffffffffffffffffffffffffff1673ffffffffffffffffffffffffffffffffffffffff16815260200190815260200160002060008373ffffffffffffffffffffffffffffffffffffffff1673ffffffffffffffffffffffffffffffffffffffff168152602001908152602001600020549050919050565b60008060009054906101000a900473ffffffffffffffffffffffffffffffffffffffff16905090565b6002602052816000526040600020602052806000526040600020600091509150505481565b62000ed062001525565b73ffffffffffffffffffffffffffffffffffffffff1662000ef062000e78565b73ffffffffffffffffffffffffffffffffffffffff161462000f49576040517f08c379a000000000000000000000000000000000000000000000000000000000815260040162000f409062001d7f565b60405180910390fd5b6001819080600181540180825580915050600190039060005260206000200160009091909190916101000a81548173ffffffffffffffffffffffffffffffffffffffff021916908373ffffffffffffffffffffffffffffffffffffffff16021790555050565b62000fb962001525565b73ffffffffffffffffffffffffffffffffffffffff1662000fd962000e78565b73ffffffffffffffffffffffffffffffffffffffff161462001032576040517f08c379a0000000000000000000000000000000000000000000000000000000008152600401620010299062001d7f565b60405180910390fd5b600073ffffffffffffffffffffffffffffffffffffffff168173ffffffffffffffffffffffffffffffffffffffff161415620010a5576040517f08c379a00000000000000000000000000000000000000000000000000000000081526004016200109c9062001d19565b60405180910390fd5b620010b0816200152d565b50565b6000821415620010ef576040517fa5964f3f00000000000000000000000000000000000000000000000000000000815260040160405180910390fd5b6000600260003373ffffffffffffffffffffffffffffffffffffffff1673ffffffffffffffffffffffffffffffffffffffff16815260200190815260200160002060008373ffffffffffffffffffffffffffffffffffffffff1673ffffffffffffffffffffffffffffffffffffffff168152602001908152602001600020549050600073ffffffffffffffffffffffffffffffffffffffff168273ffffffffffffffffffffffffffffffffffffffff161415620012f15782341015620011e1576040517ff60529c400000000000000000000000000000000000000000000000000000000815260040160405180910390fd5b82600260003373ffffffffffffffffffffffffffffffffffffffff1673ffffffffffffffffffffffffffffffffffffffff16815260200190815260200160002060008073ffffffffffffffffffffffffffffffffffffffff1673ffffffffffffffffffffffffffffffffffffffff168152602001908152602001600020546200126b919062001ebe565b600260003373ffffffffffffffffffffffffffffffffffffffff1673ffffffffffffffffffffffffffffffffffffffff16815260200190815260200160002060008073ffffffffffffffffffffffffffffffffffffffff1673ffffffffffffffffffffffffffffffffffffffff1681526020019081526020016000208190555062001365565b620012fc826200146d565b62001333576040517f4324405d00000000000000000000000000000000000000000000000000000000815260040160405180910390fd5b6040517fe61acd3e00000000000000000000000000000000000000000000000000000000815260040160405180910390fd5b3373ffffffffffffffffffffffffffffffffffffffff167fc74b13afc7ea4cc43b81bbda4c6db15d24751ccde1c9eae797e941d0510830cd8383600260003373ffffffffffffffffffffffffffffffffffffffff1673ffffffffffffffffffffffffffffffffffffffff16815260200190815260200160002060008773ffffffffffffffffffffffffffffffffffffffff1673ffffffffffffffffffffffffffffffffffffffff168152602001908152602001600020546040516200142d9392919062001c1a565b60405180910390a2505050565b60046020528060005260406000206000915054906101000a900473ffffffffffffffffffffffffffffffffffffffff1681565b600080600090505b6001805490508110156200151a578273ffffffffffffffffffffffffffffffffffffffff1660018281548110620014b157620014b0620020e9565b5b9060005260206000200160009054906101000a900473ffffffffffffffffffffffffffffffffffffffff1673ffffffffffffffffffffffffffffffffffffffff1614156200150457600191505062001520565b808062001511906200203d565b91505062001475565b50600090505b919050565b600033905090565b60008060009054906101000a900473ffffffffffffffffffffffffffffffffffffffff169050816000806101000a81548173ffffffffffffffffffffffffffffffffffffffff021916908373ffffffffffffffffffffffffffffffffffffffff1602179055508173ffffffffffffffffffffffffffffffffffffffff168173ffffffffffffffffffffffffffffffffffffffff167f8be0079c531659141344cd1fd0a4f28419497f9722a3daafe3b4186f6b6457e060405160405180910390a35050565b61303c806200237583390190565b600081359050620016108162002304565b92915050565b60008151905062001627816200231e565b92915050565b6000813590506200163e8162002338565b92915050565b600081359050620016558162002349565b92915050565b60008083601f8401126200167457620016736200211d565b5b8235905067ffffffffffffffff81111562001694576200169362002118565b5b602083019150836001820283011115620016b357620016b262002122565b5b9250929050565b600081359050620016cb816200235a565b92915050565b600060208284031215620016ea57620016e96200212c565b5b6000620016fa84828501620015ff565b91505092915050565b600080604083850312156200171d576200171c6200212c565b5b60006200172d85828601620015ff565b92505060206200174085828601620015ff565b9150509250929050565b600080604083850312156200176457620017636200212c565b5b60006200177485828601620015ff565b92505060206200178785828601620016ba565b9150509250929050565b600080600060608486031215620017ad57620017ac6200212c565b5b6000620017bd86828701620015ff565b9350506020620017d086828701620016ba565b9250506040620017e386828701620015ff565b9150509250925092565b6000602082840312156200180657620018056200212c565b5b6000620018168482850162001616565b91505092915050565b60008060008060008060008060c0898b0312156200184257620018416200212c565b5b6000620018528b828c0162001644565b9850506020620018658b828c016200162d565b975050604089013567ffffffffffffffff81111562001889576200188862002127565b5b620018978b828c016200165b565b9650965050606089013567ffffffffffffffff811115620018bd57620018bc62002127565b5b620018cb8b828c016200165b565b94509450506080620018e08b828c01620016ba565b92505060a0620018f38b828c01620016ba565b9150509295985092959890939650565b6000602082840312156200191c576200191b6200212c565b5b60006200192c84828501620016ba565b91505092915050565b600080604083850312156200194f576200194e6200212c565b5b60006200195f85828601620016ba565b92505060206200197285828601620015ff565b9150509250929050565b6000806000606084860312156200199857620019976200212c565b5b6000620019a886828701620016ba565b9350506020620019bb86828701620016ba565b9250506040620019ce86828701620015ff565b9150509250925092565b620019e38162001f56565b82525050565b620019f48162001f6a565b82525050565b62001a058162001fca565b82525050565b62001a168162001fde565b82525050565b62001a278162001ff2565b82525050565b600062001a3b838562001ead565b935062001a4a8385846200202e565b62001a558362002131565b840190509392505050565b600062001a6f60398362001ead565b915062001a7c8262002142565b604082019050919050565b600062001a9660268362001ead565b915062001aa38262002191565b604082019050919050565b600062001abd603b8362001ead565b915062001aca82620021e0565b604082019050919050565b600062001ae460118362001ead565b915062001af1826200222f565b602082019050919050565b600062001b0b60208362001ead565b915062001b188262002258565b602082019050919050565b600062001b3260008362001ea2565b915062001b3f8262002281565b600082019050919050565b600062001b5960108362001ead565b915062001b668262002284565b602082019050919050565b600062001b80600f8362001ead565b915062001b8d82620022ad565b602082019050919050565b62001ba38162001fc0565b82525050565b600062001bb68262001b23565b9150819050919050565b600060208201905062001bd76000830184620019d8565b92915050565b600060608201905062001bf46000830186620019d8565b62001c03602083018562001b98565b62001c126040830184620019d8565b949350505050565b600060608201905062001c316000830186620019d8565b62001c40602083018562001b98565b62001c4f604083018462001b98565b949350505050565b600060208201905062001c6e6000830184620019e9565b92915050565b600060208201905062001c8b6000830184620019fa565b92915050565b600060a082019050818103600083015262001cae81888a62001a2d565b905062001cbf602083018762001a1c565b62001cce604083018662001a0b565b62001cdd606083018562001b98565b62001cec608083018462001b98565b979650505050505050565b6000602082019050818103600083015262001d128162001a60565b9050919050565b6000602082019050818103600083015262001d348162001a87565b9050919050565b6000602082019050818103600083015262001d568162001aae565b9050919050565b6000602082019050818103600083015262001d788162001ad5565b9050919050565b6000602082019050818103600083015262001d9a8162001afc565b9050919050565b6000602082019050818103600083015262001dbc8162001b4a565b9050919050565b6000602082019050818103600083015262001dde8162001b71565b9050919050565b600060208201905062001dfc600083018462001b98565b92915050565b60006101008201905062001e1a600083018d62001b98565b62001e29602083018c620019d8565b62001e38604083018b62001a1c565b62001e47606083018a62001a0b565b818103608083015262001e5c81888a62001a2d565b905081810360a083015262001e7381868862001a2d565b905062001e8460c083018562001b98565b62001e9360e083018462001b98565b9b9a5050505050505050505050565b600081905092915050565b600082825260208201905092915050565b600062001ecb8262001fc0565b915062001ed88362001fc0565b9250827fffffffffffffffffffffffffffffffffffffffffffffffffffffffffffffffff0382111562001f105762001f0f6200208b565b5b828201905092915050565b600062001f288262001fc0565b915062001f358362001fc0565b92508282101562001f4b5762001f4a6200208b565b5b828203905092915050565b600062001f638262001fa0565b9050919050565b60008115159050919050565b600081905062001f8682620022d6565b919050565b600081905062001f9b82620022ed565b919050565b600073ffffffffffffffffffffffffffffffffffffffff82169050919050565b6000819050919050565b600062001fd78262002006565b9050919050565b600062001feb8262001f76565b9050919050565b600062001fff8262001f8b565b9050919050565b600062002013826200201a565b9050919050565b6000620020278262001fa0565b9050919050565b82818337600083830152505050565b60006200204a8262001fc0565b91507fffffffffffffffffffffffffffffffffffffffffffffffffffffffffffffffff82141562002080576200207f6200208b565b5b600182019050919050565b7f4e487b7100000000000000000000000000000000000000000000000000000000600052601160045260246000fd5b7f4e487b7100000000000000000000000000000000000000000000000000000000600052602160045260246000fd5b7f4e487b7100000000000000000000000000000000000000000000000000000000600052603260045260246000fd5b600080fd5b600080fd5b600080fd5b600080fd5b600080fd5b6000601f19601f8301169050919050565b7f536f7272792c2063616e277420646f6e617465206d6f7265207468616e20796f60008201527f75206861766520696e20796f7572206163636f756e74203a2900000000000000602082015250565b7f4f776e61626c653a206e6577206f776e657220697320746865207a65726f206160008201527f6464726573730000000000000000000000000000000000000000000000000000602082015250565b7f536f7272792c2063616e2774207769746864726177206d6f7265207468616e2060008201527f796f75206861766520696e20796f7572206163636f756e74203a290000000000602082015250565b7f43616e6e6f742077697468647261772030000000000000000000000000000000600082015250565b7f4f776e61626c653a2063616c6c6572206973206e6f7420746865206f776e6572600082015250565b50565b7f5472616e73666572206661696c65642e00000000000000000000000000000000600082015250565b7f43616e6e6f7420646f6e61746520300000000000000000000000000000000000600082015250565b60068110620022ea57620022e9620020ba565b5b50565b60038110620023015762002300620020ba565b5b50565b6200230f8162001f56565b81146200231b57600080fd5b50565b620023298162001f6a565b81146200233557600080fd5b50565b600681106200234657600080fd5b50565b600381106200235757600080fd5b50565b620023658162001fc0565b81146200237157600080fd5b5056fe6101606040523480156200001257600080fd5b506040516200303c3803806200303c833981810160405281019062000038919062000348565b87608081815250508673ffffffffffffffffffffffffffffffffffffffff1660a08173ffffffffffffffffffffffffffffffffffffffff1660601b815250508560028111156200008d576200008c6200058e565b5b60c0816002811115620000a557620000a46200058e565b5b60f81b81525050846005811115620000c257620000c16200058e565b5b60e0816005811115620000da57620000d96200058e565b5b60f81b815250508360039080519060200190620000f9929190620001be565b5060008390806001815401808255809150506001900390600052602060002001600090919091909150908051906020019062000137929190620001be565b503373ffffffffffffffffffffffffffffffffffffffff166101408173ffffffffffffffffffffffffffffffffffffffff1660601b815250508161010081815250508061012081815250506000600460006101000a81548160ff02191690836004811115620001ab57620001aa6200058e565b5b0217905550505050505050505062000696565b828054620001cc9062000522565b90600052602060002090601f016020900481019282620001f057600085556200023c565b82601f106200020b57805160ff19168380011785556200023c565b828001600101855582156200023c579182015b828111156200023b5782518255916020019190600101906200021e565b5b5090506200024b91906200024f565b5090565b5b808211156200026a57600081600090555060010162000250565b5090565b6000620002856200027f8462000478565b6200044f565b905082815260208101848484011115620002a457620002a362000620565b5b620002b1848285620004ec565b509392505050565b600081519050620002ca8162000640565b92915050565b600081519050620002e1816200065a565b92915050565b600081519050620002f8816200066b565b92915050565b600082601f8301126200031657620003156200061b565b5b8151620003288482602086016200026e565b91505092915050565b60008151905062000342816200067c565b92915050565b600080600080600080600080610100898b0312156200036c576200036b6200062a565b5b60006200037c8b828c0162000331565b98505060206200038f8b828c01620002b9565b9750506040620003a28b828c01620002e7565b9650506060620003b58b828c01620002d0565b955050608089015167ffffffffffffffff811115620003d957620003d862000625565b5b620003e78b828c01620002fe565b94505060a089015167ffffffffffffffff8111156200040b576200040a62000625565b5b620004198b828c01620002fe565b93505060c06200042c8b828c0162000331565b92505060e06200043f8b828c0162000331565b9150509295985092959890939650565b60006200045b6200046e565b905062000469828262000558565b919050565b6000604051905090565b600067ffffffffffffffff821115620004965762000495620005ec565b5b620004a1826200062f565b9050602081019050919050565b6000620004bb82620004c2565b9050919050565b600073ffffffffffffffffffffffffffffffffffffffff82169050919050565b6000819050919050565b60005b838110156200050c578082015181840152602081019050620004ef565b838111156200051c576000848401525b50505050565b600060028204905060018216806200053b57607f821691505b60208210811415620005525762000551620005bd565b5b50919050565b62000563826200062f565b810181811067ffffffffffffffff82111715620005855762000584620005ec565b5b80604052505050565b7f4e487b7100000000000000000000000000000000000000000000000000000000600052602160045260246000fd5b7f4e487b7100000000000000000000000000000000000000000000000000000000600052602260045260246000fd5b7f4e487b7100000000000000000000000000000000000000000000000000000000600052604160045260246000fd5b600080fd5b600080fd5b600080fd5b600080fd5b6000601f19601f8301169050919050565b6200064b81620004ae565b81146200065757600080fd5b50565b600681106200066857600080fd5b50565b600381106200067957600080fd5b50565b6200068781620004e2565b81146200069357600080fd5b50565b60805160a05160601c60c05160f81c60e05160f81c61010051610120516101405160601c6128e4620007586000396000611570015260008181610cd1015281816110f801528181611544015261165e0152600081816104f601526110d70152600081816110b601526113ee0152600081816105c6015261109501526000818161069601528181610cf501528181610e7a01528181610f6d01528181611074015281816113ca0152611412015260008181610cad015261105301526128e46000f3fe60806040526004361061011f5760003560e01c80638e828143116100a0578063ca2b722011610064578063ca2b7220146103ee578063ccc5d7d414610419578063dba6335f1461044f578063f950e69c1461047a578063ff2e100c146104a55761011f565b80638e8281431461030b578063ab32eb6914610334578063bba1964f14610371578063bf9f4aab1461039c578063c699db51146103c55761011f565b80636680ba7d116100e75780636680ba7d1461021f578063744bfe611461025c57806374e781b314610285578063779fa30f146102b5578063853a6866146102e05761011f565b80631ca5872c146101245780632a5785421461014f578063369268661461018c57806343394df4146101b7578063554abf52146101f4575b600080fd5b34801561013057600080fd5b506101396104bc565b6040516101469190611eb4565b60405180910390f35b34801561015b57600080fd5b506101766004803603810190610171919061194e565b6104cf565b604051610183919061202c565b60405180910390f35b34801561019857600080fd5b506101a16104f4565b6040516101ae919061202c565b60405180910390f35b3480156101c357600080fd5b506101de60048036038101906101d99190611ab3565b610518565b6040516101eb9190611eea565b60405180910390f35b34801561020057600080fd5b506102096105c4565b6040516102169190611ecf565b60405180910390f35b34801561022b57600080fd5b5061024660048036038101906102419190611ab3565b6105e8565b6040516102539190611eea565b60405180910390f35b34801561026857600080fd5b50610283600480360381019061027e9190611ae0565b610694565b005b61029f600480360381019061029a919061198e565b6109d0565b6040516102ac9190611e7e565b60405180910390f35b3480156102c157600080fd5b506102ca610cab565b6040516102d7919061202c565b60405180910390f35b3480156102ec57600080fd5b506102f5610ccf565b604051610302919061202c565b60405180910390f35b34801561031757600080fd5b50610332600480360381019061032d9190611ab3565b610cf3565b005b34801561034057600080fd5b5061035b60048036038101906103569190611921565b610dd2565b604051610368919061202c565b60405180910390f35b34801561037d57600080fd5b50610386610dea565b6040516103939190611eea565b60405180910390f35b3480156103a857600080fd5b506103c360048036038101906103be9190611a57565b610e78565b005b3480156103d157600080fd5b506103ec60048036038101906103e79190611a0e565b610f6b565b005b3480156103fa57600080fd5b50610403611038565b604051610410919061202c565b60405180910390f35b34801561042557600080fd5b5061042e61103e565b6040516104469c9b9a99989796959493929190612047565b60405180910390f35b34801561045b57600080fd5b506104646113c8565b6040516104719190611e63565b60405180910390f35b34801561048657600080fd5b5061048f6113ec565b60405161049c9190611e99565b60405180910390f35b3480156104b157600080fd5b506104ba611410565b005b600460009054906101000a900460ff1681565b6006602052816000526040600020602052806000526040600020600091509150505481565b7f000000000000000000000000000000000000000000000000000000000000000081565b6001818154811061052857600080fd5b9060005260206000200160009150905080546105439061241d565b80601f016020809104026020016040519081016040528092919081815260200182805461056f9061241d565b80156105bc5780601f10610591576101008083540402835291602001916105bc565b820191906000526020600020905b81548152906001019060200180831161059f57829003601f168201915b505050505081565b7f000000000000000000000000000000000000000000000000000000000000000081565b600081815481106105f857600080fd5b9060005260206000200160009150905080546106139061241d565b80601f016020809104026020016040519081016040528092919081815260200182805461063f9061241d565b801561068c5780601f106106615761010080835404028352916020019161068c565b820191906000526020600020905b81548152906001019060200180831161066f57829003601f168201915b505050505081565b7f000000000000000000000000000000000000000000000000000000000000000073ffffffffffffffffffffffffffffffffffffffff163373ffffffffffffffffffffffffffffffffffffffff1614610722576040517f08c379a000000000000000000000000000000000000000000000000000000000815260040161071990611f4c565b60405180910390fd5b60008211610765576040517f08c379a000000000000000000000000000000000000000000000000000000000815260040161075c90611f6c565b60405180910390fd5b60006004811115610779576107786124de565b5b600460009054906101000a900460ff16600481111561079b5761079a6124de565b5b14156107dc576040517f08c379a00000000000000000000000000000000000000000000000000000000081526004016107d390611fac565b60405180910390fd5b6000600560008373ffffffffffffffffffffffffffffffffffffffff1673ffffffffffffffffffffffffffffffffffffffff16815260200190815260200160002054905080831115610863576040517f08c379a000000000000000000000000000000000000000000000000000000000815260040161085a90611f2c565b60405180910390fd5b828161086f91906122be565b600560008473ffffffffffffffffffffffffffffffffffffffff1673ffffffffffffffffffffffffffffffffffffffff16815260200190815260200160002081905550600073ffffffffffffffffffffffffffffffffffffffff168273ffffffffffffffffffffffffffffffffffffffff1614156109995760003373ffffffffffffffffffffffffffffffffffffffff168460405161090d90611e4e565b60006040518083038185875af1925050503d806000811461094a576040519150601f19603f3d011682016040523d82523d6000602084013e61094f565b606091505b5050905080610993576040517f08c379a000000000000000000000000000000000000000000000000000000000815260040161098a90611fcc565b60405180910390fd5b506109cb565b6040517f0cdeca0900000000000000000000000000000000000000000000000000000000815260040160405180910390fd5b505050565b60008060048111156109e5576109e46124de565b5b600460009054906101000a900460ff166004811115610a0757610a066124de565b5b14610a47576040517f08c379a0000000000000000000000000000000000000000000000000000000008152600401610a3e9061200c565b60405180910390fd5b60008311610a8a576040517f08c379a0000000000000000000000000000000000000000000000000000000008152600401610a8190611f0c565b60405180910390fd5b600073ffffffffffffffffffffffffffffffffffffffff168273ffffffffffffffffffffffffffffffffffffffff161415610c6657823414610acb57600080fd5b82600660008673ffffffffffffffffffffffffffffffffffffffff1673ffffffffffffffffffffffffffffffffffffffff16815260200190815260200160002060008073ffffffffffffffffffffffffffffffffffffffff1673ffffffffffffffffffffffffffffffffffffffff16815260200190815260200160002054610b5391906121dd565b600660008673ffffffffffffffffffffffffffffffffffffffff1673ffffffffffffffffffffffffffffffffffffffff16815260200190815260200160002060008073ffffffffffffffffffffffffffffffffffffffff1673ffffffffffffffffffffffffffffffffffffffff1681526020019081526020016000208190555082600560008073ffffffffffffffffffffffffffffffffffffffff1673ffffffffffffffffffffffffffffffffffffffff16815260200190815260200160002054610c1e91906121dd565b600560008073ffffffffffffffffffffffffffffffffffffffff1673ffffffffffffffffffffffffffffffffffffffff16815260200190815260200160002081905550610c98565b6040517f0cdeca0900000000000000000000000000000000000000000000000000000000815260040160405180910390fd5b610ca0611540565b600190509392505050565b7f000000000000000000000000000000000000000000000000000000000000000081565b7f000000000000000000000000000000000000000000000000000000000000000081565b7f000000000000000000000000000000000000000000000000000000000000000073ffffffffffffffffffffffffffffffffffffffff163373ffffffffffffffffffffffffffffffffffffffff1614610d81576040517f08c379a0000000000000000000000000000000000000000000000000000000008152600401610d7890611f4c565b60405180910390fd5b6001805490508110610dc8576040517f08c379a0000000000000000000000000000000000000000000000000000000008152600401610dbf90611fec565b60405180910390fd5b8060028190555050565b60056020528060005260406000206000915090505481565b60038054610df79061241d565b80601f0160208091040260200160405190810160405280929190818152602001828054610e239061241d565b8015610e705780601f10610e4557610100808354040283529160200191610e70565b820191906000526020600020905b815481529060010190602001808311610e5357829003601f168201915b505050505081565b7f000000000000000000000000000000000000000000000000000000000000000073ffffffffffffffffffffffffffffffffffffffff163373ffffffffffffffffffffffffffffffffffffffff1614610f06576040517f08c379a0000000000000000000000000000000000000000000000000000000008152600401610efd90611f4c565b60405180910390fd5b600182908060018154018082558091505060019003906000526020600020016000909190919091509080519060200190610f4192919061177b565b50600115158115151415610f675760018080549050610f6091906122be565b6002819055505b5050565b7f000000000000000000000000000000000000000000000000000000000000000073ffffffffffffffffffffffffffffffffffffffff163373ffffffffffffffffffffffffffffffffffffffff1614610ff9576040517f08c379a0000000000000000000000000000000000000000000000000000000008152600401610ff090611f4c565b60405180910390fd5b60008190806001815401808255809150506001900390600052602060002001600090919091909150908051906020019061103492919061177b565b5050565b60025481565b600080600080600080606080600060606000807f00000000000000000000000000000000000000000000000000000000000000007f00000000000000000000000000000000000000000000000000000000000000007f00000000000000000000000000000000000000000000000000000000000000007f00000000000000000000000000000000000000000000000000000000000000007f00000000000000000000000000000000000000000000000000000000000000007f0000000000000000000000000000000000000000000000000000000000000000600060016002546003600460009054906101000a900460ff16600560008073ffffffffffffffffffffffffffffffffffffffff1673ffffffffffffffffffffffffffffffffffffffff1681526020019081526020016000205485805480602002602001604051908101604052809291908181526020016000905b8282101561123d5783829060005260206000200180546111b09061241d565b80601f01602080910402602001604051908101604052809291908181526020018280546111dc9061241d565b80156112295780601f106111fe57610100808354040283529160200191611229565b820191906000526020600020905b81548152906001019060200180831161120c57829003601f168201915b505050505081526020019060010190611191565b50505050955084805480602002602001604051908101604052809291908181526020016000905b828210156113105783829060005260206000200180546112839061241d565b80601f01602080910402602001604051908101604052809291908181526020018280546112af9061241d565b80156112fc5780601f106112d1576101008083540402835291602001916112fc565b820191906000526020600020905b8154815290600101906020018083116112df57829003601f168201915b505050505081526020019060010190611264565b5050505094508280546113229061241d565b80601f016020809104026020016040519081016040528092919081815260200182805461134e9061241d565b801561139b5780601f106113705761010080835404028352916020019161139b565b820191906000526020600020905b81548152906001019060200180831161137e57829003601f168201915b505050505092509b509b509b509b509b509b509b509b509b509b509b509b50909192939495969798999a9b565b7f000000000000000000000000000000000000000000000000000000000000000081565b7f000000000000000000000000000000000000000000000000000000000000000081565b7f000000000000000000000000000000000000000000000000000000000000000073ffffffffffffffffffffffffffffffffffffffff163373ffffffffffffffffffffffffffffffffffffffff161461149e576040517f08c379a000000000000000000000000000000000000000000000000000000000815260040161149590611f4c565b60405180910390fd5b600060048111156114b2576114b16124de565b5b600460009054906101000a900460ff1660048111156114d4576114d36124de565b5b14611514576040517f08c379a000000000000000000000000000000000000000000000000000000000815260040161150b90611f8c565b60405180910390fd5b60048060006101000a81548160ff02191690836004811115611539576115386124de565b5b0217905550565b60007f000000000000000000000000000000000000000000000000000000000000000011156116b157600061165a7f000000000000000000000000000000000000000000000000000000000000000073ffffffffffffffffffffffffffffffffffffffff16630ec3b0276040518163ffffffff1660e01b815260040160206040518083038186803b1580156115d457600080fd5b505afa1580156115e8573d6000803e3d6000fd5b505050506040513d601f19601f8201168201806040525081019061160c91906119e1565b600560008073ffffffffffffffffffffffffffffffffffffffff1673ffffffffffffffffffffffffffffffffffffffff168152602001908152602001600020546116b390919063ffffffff16565b90507f000000000000000000000000000000000000000000000000000000000000000081106116af576001600460006101000a81548160ff021916908360048111156116a9576116a86124de565b5b02179055505b505b565b6000806116bf836116eb565b905069d3c21bcecceda100000084826116d89190612264565b6116e29190612233565b91505092915050565b6000808273ffffffffffffffffffffffffffffffffffffffff1663feaf968c6040518163ffffffff1660e01b815260040160a06040518083038186803b15801561173457600080fd5b505afa158015611748573d6000803e3d6000fd5b505050506040513d601f19601f8201168201806040525081019061176c9190611b20565b50505091505080915050919050565b8280546117879061241d565b90600052602060002090601f0160209004810192826117a957600085556117f0565b82601f106117c257805160ff19168380011785556117f0565b828001600101855582156117f0579182015b828111156117ef5782518255916020019190600101906117d4565b5b5090506117fd9190611801565b5090565b5b8082111561181a576000816000905550600101611802565b5090565b600061183161182c8461213b565b612116565b90508281526020810184848401111561184d5761184c612570565b5b6118588482856123db565b509392505050565b60008135905061186f81612824565b92915050565b6000813590506118848161283b565b92915050565b60008151905061189981612852565b92915050565b6000815190506118ae81612869565b92915050565b600082601f8301126118c9576118c861256b565b5b81356118d984826020860161181e565b91505092915050565b6000813590506118f181612880565b92915050565b60008151905061190681612880565b92915050565b60008151905061191b81612897565b92915050565b6000602082840312156119375761193661257a565b5b600061194584828501611860565b91505092915050565b600080604083850312156119655761196461257a565b5b600061197385828601611860565b925050602061198485828601611860565b9150509250929050565b6000806000606084860312156119a7576119a661257a565b5b60006119b586828701611860565b93505060206119c6868287016118e2565b92505060406119d786828701611860565b9150509250925092565b6000602082840312156119f7576119f661257a565b5b6000611a058482850161188a565b91505092915050565b600060208284031215611a2457611a2361257a565b5b600082013567ffffffffffffffff811115611a4257611a41612575565b5b611a4e848285016118b4565b91505092915050565b60008060408385031215611a6e57611a6d61257a565b5b600083013567ffffffffffffffff811115611a8c57611a8b612575565b5b611a98858286016118b4565b9250506020611aa985828601611875565b9150509250929050565b600060208284031215611ac957611ac861257a565b5b6000611ad7848285016118e2565b91505092915050565b60008060408385031215611af757611af661257a565b5b6000611b05858286016118e2565b9250506020611b1685828601611860565b9150509250929050565b600080600080600060a08688031215611b3c57611b3b61257a565b5b6000611b4a8882890161190c565b9550506020611b5b8882890161189f565b9450506040611b6c888289016118f7565b9350506060611b7d888289016118f7565b9250506080611b8e8882890161190c565b9150509295509295909350565b6000611ba78383611c6f565b905092915050565b611bb8816122f2565b82525050565b6000611bc98261217c565b611bd3818561219f565b935083602082028501611be58561216c565b8060005b85811015611c215784840389528151611c028582611b9b565b9450611c0d83612192565b925060208a01995050600181019050611be9565b50829750879550505050505092915050565b611c3c81612304565b82525050565b611c4b816123a5565b82525050565b611c5a816123b7565b82525050565b611c69816123c9565b82525050565b6000611c7a82612187565b611c8481856121bb565b9350611c948185602086016123ea565b611c9d8161257f565b840191505092915050565b6000611cb382612187565b611cbd81856121cc565b9350611ccd8185602086016123ea565b611cd68161257f565b840191505092915050565b6000611cee6010836121cc565b9150611cf982612590565b602082019050919050565b6000611d11602f836121cc565b9150611d1c826125b9565b604082019050919050565b6000611d346041836121cc565b9150611d3f82612608565b606082019050919050565b6000611d576011836121cc565b9150611d628261267d565b602082019050919050565b6000611d7a6025836121cc565b9150611d85826126a6565b604082019050919050565b6000611d9d6000836121b0565b9150611da8826126f5565b600082019050919050565b6000611dc06030836121cc565b9150611dcb826126f8565b604082019050919050565b6000611de36010836121cc565b9150611dee82612747565b602082019050919050565b6000611e06600f836121cc565b9150611e1182612770565b602082019050919050565b6000611e296034836121cc565b9150611e3482612799565b604082019050919050565b611e4881612385565b82525050565b6000611e5982611d90565b9150819050919050565b6000602082019050611e786000830184611baf565b92915050565b6000602082019050611e936000830184611c33565b92915050565b6000602082019050611eae6000830184611c42565b92915050565b6000602082019050611ec96000830184611c51565b92915050565b6000602082019050611ee46000830184611c60565b92915050565b60006020820190508181036000830152611f048184611ca8565b905092915050565b60006020820190508181036000830152611f2581611ce1565b9050919050565b60006020820190508181036000830152611f4581611d04565b9050919050565b60006020820190508181036000830152611f6581611d27565b9050919050565b60006020820190508181036000830152611f8581611d4a565b9050919050565b60006020820190508181036000830152611fa581611d6d565b9050919050565b60006020820190508181036000830152611fc581611db3565b9050919050565b60006020820190508181036000830152611fe581611dd6565b9050919050565b6000602082019050818103600083015261200581611df9565b9050919050565b6000602082019050818103600083015261202581611e1c565b9050919050565b60006020820190506120416000830184611e3f565b92915050565b60006101808201905061205d600083018f611e3f565b61206a602083018e611baf565b612077604083018d611c60565b612084606083018c611c42565b612091608083018b611e3f565b61209e60a083018a611e3f565b81810360c08301526120b08189611bbe565b905081810360e08301526120c48188611bbe565b90506120d4610100830187611e3f565b8181036101208301526120e78186611ca8565b90506120f7610140830185611c51565b612105610160830184611e3f565b9d9c50505050505050505050505050565b6000612120612131565b905061212c828261244f565b919050565b6000604051905090565b600067ffffffffffffffff8211156121565761215561253c565b5b61215f8261257f565b9050602081019050919050565b6000819050602082019050919050565b600081519050919050565b600081519050919050565b6000602082019050919050565b600082825260208201905092915050565b600081905092915050565b600082825260208201905092915050565b600082825260208201905092915050565b60006121e882612385565b91506121f383612385565b9250827fffffffffffffffffffffffffffffffffffffffffffffffffffffffffffffffff0382111561222857612227612480565b5b828201905092915050565b600061223e82612385565b915061224983612385565b925082612259576122586124af565b5b828204905092915050565b600061226f82612385565b915061227a83612385565b9250817fffffffffffffffffffffffffffffffffffffffffffffffffffffffffffffffff04831182151516156122b3576122b2612480565b5b828202905092915050565b60006122c982612385565b91506122d483612385565b9250828210156122e7576122e6612480565b5b828203905092915050565b60006122fd82612365565b9050919050565b60008115159050919050565b600061231b826122f2565b9050919050565b6000819050612330826127e8565b919050565b6000819050612343826127fc565b919050565b600081905061235682612810565b919050565b6000819050919050565b600073ffffffffffffffffffffffffffffffffffffffff82169050919050565b6000819050919050565b600069ffffffffffffffffffff82169050919050565b60006123b082612322565b9050919050565b60006123c282612335565b9050919050565b60006123d482612348565b9050919050565b82818337600083830152505050565b60005b838110156124085780820151818401526020810190506123ed565b83811115612417576000848401525b50505050565b6000600282049050600182168061243557607f821691505b602082108114156124495761244861250d565b5b50919050565b6124588261257f565b810181811067ffffffffffffffff821117156124775761247661253c565b5b80604052505050565b7f4e487b7100000000000000000000000000000000000000000000000000000000600052601160045260246000fd5b7f4e487b7100000000000000000000000000000000000000000000000000000000600052601260045260246000fd5b7f4e487b7100000000000000000000000000000000000000000000000000000000600052602160045260246000fd5b7f4e487b7100000000000000000000000000000000000000000000000000000000600052602260045260246000fd5b7f4e487b7100000000000000000000000000000000000000000000000000000000600052604160045260246000fd5b600080fd5b600080fd5b600080fd5b600080fd5b6000601f19601f8301169050919050565b7f43616e6e6f74206465706f736974203000000000000000000000000000000000600082015250565b7f536f7272792c2063616e2774207769746864726177206d6f7265207468616e2060008201527f746f74616c20646f6e6174696f6e730000000000000000000000000000000000602082015250565b7f596f75206d75737420626520746865206f776e6572206f66207468652066756e60008201527f6472616973657220746f20706572666f726d2074686973206f7065726174696f60208201527f6e00000000000000000000000000000000000000000000000000000000000000604082015250565b7f43616e6e6f742077697468647261772030000000000000000000000000000000600082015250565b7f596f752063616e206f6e6c7920636c6f7365206163746976652066756e64726160008201527f6973657273000000000000000000000000000000000000000000000000000000602082015250565b50565b7f596f752063616e6e6f7420646f6e61746520746f20612066756e64726169736560008201527f7220746861742069732061637469766500000000000000000000000000000000602082015250565b7f5472616e73666572206661696c65642e00000000000000000000000000000000600082015250565b7f496d616765206e6f7420666f756e640000000000000000000000000000000000600082015250565b7f596f752063616e6e6f7420646f6e61746520746f20612066756e64726169736560008201527f722074686174206973206e6f7420616374697665000000000000000000000000602082015250565b600681106127f9576127f86124de565b5b50565b6005811061280d5761280c6124de565b5b50565b60038110612821576128206124de565b5b50565b61282d816122f2565b811461283857600080fd5b50565b61284481612304565b811461284f57600080fd5b50565b61285b81612310565b811461286657600080fd5b50565b6128728161235b565b811461287d57600080fd5b50565b61288981612385565b811461289457600080fd5b50565b6128a08161238f565b81146128ab57600080fd5b5056fea26469706673582212202f1b43e2d8c980c9f11f8e41198a31634e45fd5773c17d9a70aebe7d12e82e5364736f6c63430008070033a2646970667358221220b01e64b7e92e7dc67a14bb40d7313603ca0d712db887cea0c56c24763db831c764736f6c63430008070033",
  "linkReferences": {},
  "deployedLinkReferences": {}
}