{
  "_format": "hh-sol-artifact-1",
  "contractName": "DeFundFactory",
  "sourceName": "contracts/DeFundFactory.sol",
  "abi": [
    {
      "inputs": [],
      "name": "DeFundFactory__deposit__less_than_declared",
      "type": "error"
    },
    {
      "inputs": [],
      "name": "DeFundFactory__deposit__token_not_allowed",
      "type": "error"
    },
    {
      "inputs": [],
      "name": "DeFundFactory__deposit__zero_deposit",
      "type": "error"
    },
    {
      "anonymous": false,
      "inputs": [
        {
          "indexed": true,
          "internalType": "uint256",
          "name": "fundraiserId",
          "type": "uint256"
        },
        {
          "indexed": true,
          "internalType": "address",
          "name": "creator",
          "type": "address"
        },
        {
          "indexed": false,
          "internalType": "string",
          "name": "title",
          "type": "string"
        },
        {
          "indexed": false,
          "internalType": "enum DeFundFactory.FundraiserType",
          "name": "fundraiserType",
          "type": "uint8"
        },
        {
          "indexed": false,
          "internalType": "enum DeFundFactory.FundraiserCategory",
          "name": "category",
          "type": "uint8"
        },
        {
          "indexed": false,
          "internalType": "uint256",
          "name": "endDate",
          "type": "uint256"
        },
        {
          "indexed": false,
          "internalType": "uint8",
          "name": "goalAmount",
          "type": "uint8"
        }
      ],
      "name": "FundraiserCreated",
      "type": "event"
    },
    {
      "anonymous": false,
      "inputs": [
        {
          "indexed": true,
          "internalType": "address",
          "name": "previousOwner",
          "type": "address"
        },
        {
          "indexed": true,
          "internalType": "address",
          "name": "newOwner",
          "type": "address"
        }
      ],
      "name": "OwnershipTransferred",
      "type": "event"
    },
    {
      "inputs": [
        {
          "internalType": "address",
          "name": "_tokenAddress",
          "type": "address"
        }
      ],
      "name": "allowToken",
      "outputs": [],
      "stateMutability": "nonpayable",
      "type": "function"
    },
    {
      "inputs": [
        {
          "internalType": "enum DeFundFactory.FundraiserType",
          "name": "_type",
          "type": "uint8"
        },
        {
          "internalType": "enum DeFundFactory.FundraiserCategory",
          "name": "_category",
          "type": "uint8"
        },
        {
          "internalType": "string",
          "name": "_name",
          "type": "string"
        },
        {
          "internalType": "string",
          "name": "_description",
          "type": "string"
        },
        {
          "internalType": "uint256",
          "name": "_endDate",
          "type": "uint256"
        },
        {
          "internalType": "uint8",
          "name": "_goalAmount",
          "type": "uint8"
        }
      ],
      "name": "createFundraiser",
      "outputs": [
        {
          "internalType": "uint256",
          "name": "fundraiserId",
          "type": "uint256"
        }
      ],
      "stateMutability": "nonpayable",
      "type": "function"
    },
    {
      "inputs": [
        {
          "internalType": "uint256",
          "name": "_amount",
          "type": "uint256"
        },
        {
          "internalType": "address",
          "name": "_tokenAddress",
          "type": "address"
        }
      ],
      "name": "depositFunds",
      "outputs": [],
      "stateMutability": "payable",
      "type": "function"
    },
    {
      "inputs": [
        {
          "internalType": "address",
          "name": "_token",
          "type": "address"
        }
      ],
      "name": "getMyBalance",
      "outputs": [
        {
          "internalType": "uint256",
          "name": "balance",
          "type": "uint256"
        }
      ],
      "stateMutability": "view",
      "type": "function"
    },
    {
      "inputs": [
        {
          "internalType": "address",
          "name": "_tokenAddress",
          "type": "address"
        }
      ],
      "name": "isTokenAllowed",
      "outputs": [
        {
          "internalType": "bool",
          "name": "",
          "type": "bool"
        }
      ],
      "stateMutability": "view",
      "type": "function"
    },
    {
      "inputs": [],
      "name": "owner",
      "outputs": [
        {
          "internalType": "address",
          "name": "",
          "type": "address"
        }
      ],
      "stateMutability": "view",
      "type": "function"
    },
    {
      "inputs": [],
      "name": "renounceOwnership",
      "outputs": [],
      "stateMutability": "nonpayable",
      "type": "function"
    },
    {
      "inputs": [
        {
          "internalType": "uint256",
          "name": "",
          "type": "uint256"
        }
      ],
      "name": "s_allowedERC20Tokens",
      "outputs": [
        {
          "internalType": "address",
          "name": "",
          "type": "address"
        }
      ],
      "stateMutability": "view",
      "type": "function"
    },
    {
      "inputs": [
        {
          "internalType": "uint256",
          "name": "",
          "type": "uint256"
        }
      ],
      "name": "s_fundraisers",
      "outputs": [
        {
          "internalType": "address",
          "name": "",
          "type": "address"
        }
      ],
      "stateMutability": "view",
      "type": "function"
    },
    {
      "inputs": [
        {
          "internalType": "address",
          "name": "",
          "type": "address"
        },
        {
          "internalType": "uint256",
          "name": "",
          "type": "uint256"
        }
      ],
      "name": "s_fundraisersByOwner",
      "outputs": [
        {
          "internalType": "uint256",
          "name": "",
          "type": "uint256"
        }
      ],
      "stateMutability": "view",
      "type": "function"
    },
    {
      "inputs": [
        {
          "internalType": "address",
          "name": "",
          "type": "address"
        },
        {
          "internalType": "address",
          "name": "",
          "type": "address"
        }
      ],
      "name": "s_userBalances",
      "outputs": [
        {
          "internalType": "uint256",
          "name": "",
          "type": "uint256"
        }
      ],
      "stateMutability": "view",
      "type": "function"
    },
    {
      "inputs": [
        {
          "internalType": "address",
          "name": "newOwner",
          "type": "address"
        }
      ],
      "name": "transferOwnership",
      "outputs": [],
      "stateMutability": "nonpayable",
      "type": "function"
    },
    {
      "inputs": [
        {
          "internalType": "uint256",
          "name": "_amount",
          "type": "uint256"
        },
        {
          "internalType": "address",
          "name": "_tokenAddress",
          "type": "address"
        }
      ],
      "name": "withdrawFunds",
      "outputs": [],
      "stateMutability": "nonpayable",
      "type": "function"
    }
  ],
  "bytecode": "0x6080604052600060035534801561001557600080fd5b5061003261002761003760201b60201c565b61003f60201b60201c565b610103565b600033905090565b60008060009054906101000a900473ffffffffffffffffffffffffffffffffffffffff169050816000806101000a81548173ffffffffffffffffffffffffffffffffffffffff021916908373ffffffffffffffffffffffffffffffffffffffff1602179055508173ffffffffffffffffffffffffffffffffffffffff168173ffffffffffffffffffffffffffffffffffffffff167f8be0079c531659141344cd1fd0a4f28419497f9722a3daafe3b4186f6b6457e060405160405180910390a35050565b61487480620001136000396000f3fe608060405260043610620000d45760003560e01c80638da5cb5b116200008b578063f2fde38b1162000061578063f2fde38b14620002d3578063f785de231462000301578063f9d03e461462000321578063f9eaee0d146200036557620000d4565b80638da5cb5b1462000231578063b0a6169c1462000261578063b53472ef14620002a557620000d4565b806321eb73f014620000d957806330f78ef8146200011d5780635a370cb41462000161578063715018a614620001a5578063744bfe6114620001bf5780637e3ef7cd14620001ed575b600080fd5b348015620000e657600080fd5b50620001056004803603810190620000ff919062001447565b620003a9565b6040516200011491906200165a565b60405180910390f35b3480156200012a57600080fd5b5062000149600480360381019062000143919062001363565b620003e9565b6040516200015891906200180e565b60405180910390f35b3480156200016e57600080fd5b506200018d6004803603810190620001879190620012ea565b62000576565b6040516200019c91906200180e565b60405180910390f35b348015620001b257600080fd5b50620001bd620005a8565b005b348015620001cc57600080fd5b50620001eb6004803603810190620001e5919062001479565b62000639565b005b348015620001fa57600080fd5b5062000219600480360381019062000213919062001271565b6200095e565b6040516200022891906200180e565b60405180910390f35b3480156200023e57600080fd5b5062000249620009e4565b6040516200025891906200165a565b60405180910390f35b3480156200026e57600080fd5b506200028d6004803603810190620002879190620012a3565b62000a0d565b6040516200029c91906200180e565b60405180910390f35b348015620002b257600080fd5b50620002d16004803603810190620002cb919062001271565b62000a32565b005b348015620002e057600080fd5b50620002ff6004803603810190620002f9919062001271565b62000b1b565b005b6200031f600480360381019062000319919062001479565b62000c1f565b005b3480156200032e57600080fd5b506200034d600480360381019062000347919062001447565b62000fc3565b6040516200035c91906200165a565b60405180910390f35b3480156200037257600080fd5b506200039160048036038101906200038b919062001271565b62000ff6565b604051620003a09190620016e1565b60405180910390f35b60018181548110620003ba57600080fd5b906000526020600020016000915054906101000a900473ffffffffffffffffffffffffffffffffffffffff1681565b600060035490506001600354620004019190620018e7565b600381905550600081338b8b8b8b8b8b8b8b60405162000421906200117a565b620004369a999897969594939291906200182b565b604051809103906000f08015801562000453573d6000803e3d6000fd5b509050806004600084815260200190815260200160002060006101000a81548173ffffffffffffffffffffffffffffffffffffffff021916908373ffffffffffffffffffffffffffffffffffffffff160217905550600560003373ffffffffffffffffffffffffffffffffffffffff1673ffffffffffffffffffffffffffffffffffffffff1681526020019081526020016000208290806001815401808255809150506001900390600052602060002001600090919091909150553373ffffffffffffffffffffffffffffffffffffffff16827f269f778088e6d42aab28dd5b80b994ef235b5e1bc3ba691395a4cc18f3a2877a8a8a8e8e8a8a6040516200056196959493929190620016fe565b60405180910390a35098975050505050505050565b600560205281600052604060002081815481106200059357600080fd5b90600052602060002001600091509150505481565b620005b2620010ae565b73ffffffffffffffffffffffffffffffffffffffff16620005d2620009e4565b73ffffffffffffffffffffffffffffffffffffffff16146200062b576040517f08c379a00000000000000000000000000000000000000000000000000000000081526004016200062290620017ca565b60405180910390fd5b620006376000620010b6565b565b600082116200067f576040517f08c379a00000000000000000000000000000000000000000000000000000000081526004016200067690620017a8565b60405180910390fd5b6000600260003373ffffffffffffffffffffffffffffffffffffffff1673ffffffffffffffffffffffffffffffffffffffff16815260200190815260200160002060008373ffffffffffffffffffffffffffffffffffffffff1673ffffffffffffffffffffffffffffffffffffffff1681526020019081526020016000205490508083111562000746576040517f08c379a00000000000000000000000000000000000000000000000000000000081526004016200073d9062001786565b60405180910390fd5b828162000754919062001944565b600260003373ffffffffffffffffffffffffffffffffffffffff1673ffffffffffffffffffffffffffffffffffffffff16815260200190815260200160002060008473ffffffffffffffffffffffffffffffffffffffff1673ffffffffffffffffffffffffffffffffffffffff16815260200190815260200160002081905550600073ffffffffffffffffffffffffffffffffffffffff168273ffffffffffffffffffffffffffffffffffffffff161415620008c45760003373ffffffffffffffffffffffffffffffffffffffff1684604051620008329062001643565b60006040518083038185875af1925050503d806000811462000871576040519150601f19603f3d011682016040523d82523d6000602084013e62000876565b606091505b5050905080620008bd576040517f08c379a0000000000000000000000000000000000000000000000000000000008152600401620008b490620017ec565b60405180910390fd5b5062000959565b8173ffffffffffffffffffffffffffffffffffffffff1663a9059cbb33856040518363ffffffff1660e01b815260040162000901929190620016b4565b602060405180830381600087803b1580156200091c57600080fd5b505af115801562000931573d6000803e3d6000fd5b505050506040513d601f19601f8201168201806040525081019062000957919062001331565b505b505050565b6000600260003373ffffffffffffffffffffffffffffffffffffffff1673ffffffffffffffffffffffffffffffffffffffff16815260200190815260200160002060008373ffffffffffffffffffffffffffffffffffffffff1673ffffffffffffffffffffffffffffffffffffffff168152602001908152602001600020549050919050565b60008060009054906101000a900473ffffffffffffffffffffffffffffffffffffffff16905090565b6002602052816000526040600020602052806000526040600020600091509150505481565b62000a3c620010ae565b73ffffffffffffffffffffffffffffffffffffffff1662000a5c620009e4565b73ffffffffffffffffffffffffffffffffffffffff161462000ab5576040517f08c379a000000000000000000000000000000000000000000000000000000000815260040162000aac90620017ca565b60405180910390fd5b6001819080600181540180825580915050600190039060005260206000200160009091909190916101000a81548173ffffffffffffffffffffffffffffffffffffffff021916908373ffffffffffffffffffffffffffffffffffffffff16021790555050565b62000b25620010ae565b73ffffffffffffffffffffffffffffffffffffffff1662000b45620009e4565b73ffffffffffffffffffffffffffffffffffffffff161462000b9e576040517f08c379a000000000000000000000000000000000000000000000000000000000815260040162000b9590620017ca565b60405180910390fd5b600073ffffffffffffffffffffffffffffffffffffffff168173ffffffffffffffffffffffffffffffffffffffff16141562000c11576040517f08c379a000000000000000000000000000000000000000000000000000000000815260040162000c089062001764565b60405180910390fd5b62000c1c81620010b6565b50565b600082141562000c5b576040517fa5964f3f00000000000000000000000000000000000000000000000000000000815260040160405180910390fd5b600073ffffffffffffffffffffffffffffffffffffffff168173ffffffffffffffffffffffffffffffffffffffff16141562000ddc578134101562000ccc576040517ff60529c400000000000000000000000000000000000000000000000000000000815260040160405180910390fd5b81600260003373ffffffffffffffffffffffffffffffffffffffff1673ffffffffffffffffffffffffffffffffffffffff16815260200190815260200160002060008073ffffffffffffffffffffffffffffffffffffffff1673ffffffffffffffffffffffffffffffffffffffff1681526020019081526020016000205462000d569190620018e7565b600260003373ffffffffffffffffffffffffffffffffffffffff1673ffffffffffffffffffffffffffffffffffffffff16815260200190815260200160002060008073ffffffffffffffffffffffffffffffffffffffff1673ffffffffffffffffffffffffffffffffffffffff1681526020019081526020016000208190555062000fbf565b62000de78162000ff6565b62000e1e576040517f4324405d00000000000000000000000000000000000000000000000000000000815260040160405180910390fd5b8073ffffffffffffffffffffffffffffffffffffffff166323b872dd3330856040518463ffffffff1660e01b815260040162000e5d9392919062001677565b602060405180830381600087803b15801562000e7857600080fd5b505af115801562000e8d573d6000803e3d6000fd5b505050506040513d601f19601f8201168201806040525081019062000eb3919062001331565b5081600260003373ffffffffffffffffffffffffffffffffffffffff1673ffffffffffffffffffffffffffffffffffffffff16815260200190815260200160002060008373ffffffffffffffffffffffffffffffffffffffff1673ffffffffffffffffffffffffffffffffffffffff1681526020019081526020016000205462000f3e9190620018e7565b600260003373ffffffffffffffffffffffffffffffffffffffff1673ffffffffffffffffffffffffffffffffffffffff16815260200190815260200160002060008373ffffffffffffffffffffffffffffffffffffffff1673ffffffffffffffffffffffffffffffffffffffff168152602001908152602001600020819055505b5050565b60046020528060005260406000206000915054906101000a900473ffffffffffffffffffffffffffffffffffffffff1681565b600080600090505b600180549050811015620010a3578273ffffffffffffffffffffffffffffffffffffffff16600182815481106200103a576200103962001ae3565b5b9060005260206000200160009054906101000a900473ffffffffffffffffffffffffffffffffffffffff1673ffffffffffffffffffffffffffffffffffffffff1614156200108d576001915050620010a9565b80806200109a9062001a37565b91505062000ffe565b50600090505b919050565b600033905090565b60008060009054906101000a900473ffffffffffffffffffffffffffffffffffffffff169050816000806101000a81548173ffffffffffffffffffffffffffffffffffffffff021916908373ffffffffffffffffffffffffffffffffffffffff1602179055508173ffffffffffffffffffffffffffffffffffffffff168173ffffffffffffffffffffffffffffffffffffffff167f8be0079c531659141344cd1fd0a4f28419497f9722a3daafe3b4186f6b6457e060405160405180910390a35050565b612b2e8062001d1183390190565b600081359050620011998162001c86565b92915050565b600081519050620011b08162001ca0565b92915050565b600081359050620011c78162001cba565b92915050565b600081359050620011de8162001ccb565b92915050565b60008083601f840112620011fd57620011fc62001b17565b5b8235905067ffffffffffffffff8111156200121d576200121c62001b12565b5b6020830191508360018202830111156200123c576200123b62001b1c565b5b9250929050565b600081359050620012548162001cdc565b92915050565b6000813590506200126b8162001cf6565b92915050565b6000602082840312156200128a576200128962001b26565b5b60006200129a8482850162001188565b91505092915050565b60008060408385031215620012bd57620012bc62001b26565b5b6000620012cd8582860162001188565b9250506020620012e08582860162001188565b9150509250929050565b6000806040838503121562001304576200130362001b26565b5b6000620013148582860162001188565b9250506020620013278582860162001243565b9150509250929050565b6000602082840312156200134a576200134962001b26565b5b60006200135a848285016200119f565b91505092915050565b60008060008060008060008060c0898b03121562001386576200138562001b26565b5b6000620013968b828c01620011cd565b9850506020620013a98b828c01620011b6565b975050604089013567ffffffffffffffff811115620013cd57620013cc62001b21565b5b620013db8b828c01620011e4565b9650965050606089013567ffffffffffffffff81111562001401576200140062001b21565b5b6200140f8b828c01620011e4565b94509450506080620014248b828c0162001243565b92505060a0620014378b828c016200125a565b9150509295985092959890939650565b60006020828403121562001460576200145f62001b26565b5b6000620014708482850162001243565b91505092915050565b6000806040838503121562001493576200149262001b26565b5b6000620014a38582860162001243565b9250506020620014b68582860162001188565b9150509250929050565b620014cb816200197f565b82525050565b620014dc8162001993565b82525050565b620014ed8162001a00565b82525050565b620014fe8162001a14565b82525050565b6000620015128385620018d6565b93506200152183858462001a28565b6200152c8362001b2b565b840190509392505050565b600062001546602683620018d6565b9150620015538262001b3c565b604082019050919050565b60006200156d603b83620018d6565b91506200157a8262001b8b565b604082019050919050565b600062001594601183620018d6565b9150620015a18262001bda565b602082019050919050565b6000620015bb602083620018d6565b9150620015c88262001c03565b602082019050919050565b6000620015e2600083620018cb565b9150620015ef8262001c2c565b600082019050919050565b600062001609601083620018d6565b9150620016168262001c2f565b602082019050919050565b6200162c81620019e9565b82525050565b6200163d81620019f3565b82525050565b60006200165082620015d3565b9150819050919050565b6000602082019050620016716000830184620014c0565b92915050565b60006060820190506200168e6000830186620014c0565b6200169d6020830185620014c0565b620016ac604083018462001621565b949350505050565b6000604082019050620016cb6000830185620014c0565b620016da602083018462001621565b9392505050565b6000602082019050620016f86000830184620014d1565b92915050565b600060a08201905081810360008301526200171b81888a62001504565b90506200172c6020830187620014f3565b6200173b6040830186620014e2565b6200174a606083018562001621565b62001759608083018462001632565b979650505050505050565b600060208201905081810360008301526200177f8162001537565b9050919050565b60006020820190508181036000830152620017a1816200155e565b9050919050565b60006020820190508181036000830152620017c38162001585565b9050919050565b60006020820190508181036000830152620017e581620015ac565b9050919050565b600060208201905081810360008301526200180781620015fa565b9050919050565b600060208201905062001825600083018462001621565b92915050565b60006101008201905062001843600083018d62001621565b62001852602083018c620014c0565b62001861604083018b620014f3565b62001870606083018a620014e2565b81810360808301526200188581888a62001504565b905081810360a08301526200189c81868862001504565b9050620018ad60c083018562001621565b620018bc60e083018462001632565b9b9a5050505050505050505050565b600081905092915050565b600082825260208201905092915050565b6000620018f482620019e9565b91506200190183620019e9565b9250827fffffffffffffffffffffffffffffffffffffffffffffffffffffffffffffffff0382111562001939576200193862001a85565b5b828201905092915050565b60006200195182620019e9565b91506200195e83620019e9565b92508282101562001974576200197362001a85565b5b828203905092915050565b60006200198c82620019c9565b9050919050565b60008115159050919050565b6000819050620019af8262001c58565b919050565b6000819050620019c48262001c6f565b919050565b600073ffffffffffffffffffffffffffffffffffffffff82169050919050565b6000819050919050565b600060ff82169050919050565b600062001a0d826200199f565b9050919050565b600062001a2182620019b4565b9050919050565b82818337600083830152505050565b600062001a4482620019e9565b91507fffffffffffffffffffffffffffffffffffffffffffffffffffffffffffffffff82141562001a7a5762001a7962001a85565b5b600182019050919050565b7f4e487b7100000000000000000000000000000000000000000000000000000000600052601160045260246000fd5b7f4e487b7100000000000000000000000000000000000000000000000000000000600052602160045260246000fd5b7f4e487b7100000000000000000000000000000000000000000000000000000000600052603260045260246000fd5b600080fd5b600080fd5b600080fd5b600080fd5b600080fd5b6000601f19601f8301169050919050565b7f4f776e61626c653a206e6577206f776e657220697320746865207a65726f206160008201527f6464726573730000000000000000000000000000000000000000000000000000602082015250565b7f536f7272792c2063616e2774207769746864726177206d6f7265207468616e2060008201527f796f75206861766520696e20796f7572206163636f756e74203a290000000000602082015250565b7f43616e6e6f742077697468647261772030000000000000000000000000000000600082015250565b7f4f776e61626c653a2063616c6c6572206973206e6f7420746865206f776e6572600082015250565b50565b7f5472616e73666572206661696c65642e00000000000000000000000000000000600082015250565b6006811062001c6c5762001c6b62001ab4565b5b50565b6003811062001c835762001c8262001ab4565b5b50565b62001c91816200197f565b811462001c9d57600080fd5b50565b62001cab8162001993565b811462001cb757600080fd5b50565b6006811062001cc857600080fd5b50565b6003811062001cd957600080fd5b50565b62001ce781620019e9565b811462001cf357600080fd5b50565b62001d0181620019f3565b811462001d0d57600080fd5b5056fe6101606040523480156200001257600080fd5b5060405162002b2e38038062002b2e833981810160405281019062000038919062000362565b87608081815250508673ffffffffffffffffffffffffffffffffffffffff1660a08173ffffffffffffffffffffffffffffffffffffffff1660601b815250508560028111156200008d576200008c620005b5565b5b60c0816002811115620000a557620000a4620005b5565b5b60f81b81525050846005811115620000c257620000c1620005b5565b5b60e0816005811115620000da57620000d9620005b5565b5b60f81b815250508360039080519060200190620000f9929190620001c1565b5060008390806001815401808255809150506001900390600052602060002001600090919091909150908051906020019062000137929190620001c1565b503373ffffffffffffffffffffffffffffffffffffffff166101408173ffffffffffffffffffffffffffffffffffffffff1660601b815250508161010081815250508060ff1661012081815250506000600460006101000a81548160ff02191690836004811115620001ae57620001ad620005b5565b5b02179055505050505050505050620006d7565b828054620001cf9062000549565b90600052602060002090601f016020900481019282620001f357600085556200023f565b82601f106200020e57805160ff19168380011785556200023f565b828001600101855582156200023f579182015b828111156200023e57825182559160200191906001019062000221565b5b5090506200024e919062000252565b5090565b5b808211156200026d57600081600090555060010162000253565b5090565b600062000288620002828462000492565b62000469565b905082815260208101848484011115620002a757620002a662000647565b5b620002b484828562000513565b509392505050565b600081519050620002cd8162000667565b92915050565b600081519050620002e48162000681565b92915050565b600081519050620002fb8162000692565b92915050565b600082601f83011262000319576200031862000642565b5b81516200032b84826020860162000271565b91505092915050565b6000815190506200034581620006a3565b92915050565b6000815190506200035c81620006bd565b92915050565b600080600080600080600080610100898b03121562000386576200038562000651565b5b6000620003968b828c0162000334565b9850506020620003a98b828c01620002bc565b9750506040620003bc8b828c01620002ea565b9650506060620003cf8b828c01620002d3565b955050608089015167ffffffffffffffff811115620003f357620003f26200064c565b5b620004018b828c0162000301565b94505060a089015167ffffffffffffffff8111156200042557620004246200064c565b5b620004338b828c0162000301565b93505060c0620004468b828c0162000334565b92505060e0620004598b828c016200034b565b9150509295985092959890939650565b60006200047562000488565b90506200048382826200057f565b919050565b6000604051905090565b600067ffffffffffffffff821115620004b057620004af62000613565b5b620004bb8262000656565b9050602081019050919050565b6000620004d582620004dc565b9050919050565b600073ffffffffffffffffffffffffffffffffffffffff82169050919050565b6000819050919050565b600060ff82169050919050565b60005b838110156200053357808201518184015260208101905062000516565b8381111562000543576000848401525b50505050565b600060028204905060018216806200056257607f821691505b60208210811415620005795762000578620005e4565b5b50919050565b6200058a8262000656565b810181811067ffffffffffffffff82111715620005ac57620005ab62000613565b5b80604052505050565b7f4e487b7100000000000000000000000000000000000000000000000000000000600052602160045260246000fd5b7f4e487b7100000000000000000000000000000000000000000000000000000000600052602260045260246000fd5b7f4e487b7100000000000000000000000000000000000000000000000000000000600052604160045260246000fd5b600080fd5b600080fd5b600080fd5b600080fd5b6000601f19601f8301169050919050565b6200067281620004c8565b81146200067e57600080fd5b50565b600681106200068f57600080fd5b50565b60038110620006a057600080fd5b50565b620006ae81620004fc565b8114620006ba57600080fd5b50565b620006c88162000506565b8114620006d457600080fd5b50565b60805160a05160601c60c05160f81c60e05160f81c61010051610120516101405160601c6123a662000788600039600050506000818161096201526111d30152600081816104e201526111b201526000818161119101526114c90152600081816105b201526111700152600081816106820152818161098601528181610f55015281816110480152818161114f015281816114a501526114ed01526000818161093e015261112e01526123a66000f3fe60806040526004361061011f5760003560e01c8063ab32eb69116100a0578063ca2b722011610064578063ca2b7220146103da578063ccc5d7d414610405578063dba6335f1461043b578063f950e69c14610466578063ff2e100c146104915761011f565b8063ab32eb6914610304578063b22c70de14610341578063bba1964f1461035d578063bf9f4aab14610388578063c699db51146103b15761011f565b80636680ba7d116100e75780636680ba7d1461021f578063744bfe611461025c578063779fa30f14610285578063853a6866146102b05780638e828143146102db5761011f565b80631ca5872c146101245780632a5785421461014f578063369268661461018c57806343394df4146101b7578063554abf52146101f4575b600080fd5b34801561013057600080fd5b506101396104a8565b6040516101469190611bdc565b60405180910390f35b34801561015b57600080fd5b50610176600480360381019061017191906117af565b6104bb565b6040516101839190611cf4565b60405180910390f35b34801561019857600080fd5b506101a16104e0565b6040516101ae9190611cf4565b60405180910390f35b3480156101c357600080fd5b506101de60048036038101906101d991906118c1565b610504565b6040516101eb9190611c12565b60405180910390f35b34801561020057600080fd5b506102096105b0565b6040516102169190611bf7565b60405180910390f35b34801561022b57600080fd5b50610246600480360381019061024191906118c1565b6105d4565b6040516102539190611c12565b60405180910390f35b34801561026857600080fd5b50610283600480360381019061027e91906118ee565b610680565b005b34801561029157600080fd5b5061029a61093c565b6040516102a79190611cf4565b60405180910390f35b3480156102bc57600080fd5b506102c5610960565b6040516102d29190611cf4565b60405180910390f35b3480156102e757600080fd5b5061030260048036038101906102fd91906118c1565b610984565b005b34801561031057600080fd5b5061032b60048036038101906103269190611782565b610a63565b6040516103389190611cf4565b60405180910390f35b61035b600480360381019061035691906118ee565b610a7b565b005b34801561036957600080fd5b50610372610ec5565b60405161037f9190611c12565b60405180910390f35b34801561039457600080fd5b506103af60048036038101906103aa9190611865565b610f53565b005b3480156103bd57600080fd5b506103d860048036038101906103d3919061181c565b611046565b005b3480156103e657600080fd5b506103ef611113565b6040516103fc9190611cf4565b60405180910390f35b34801561041157600080fd5b5061041a611119565b6040516104329c9b9a99989796959493929190611d0f565b60405180910390f35b34801561044757600080fd5b506104506114a3565b60405161045d9190611b46565b60405180910390f35b34801561047257600080fd5b5061047b6114c7565b6040516104889190611bc1565b60405180910390f35b34801561049d57600080fd5b506104a66114eb565b005b600460009054906101000a900460ff1681565b6006602052816000526040600020602052806000526040600020600091509150505481565b7f000000000000000000000000000000000000000000000000000000000000000081565b6001818154811061051457600080fd5b90600052602060002001600091509050805461052f9061201d565b80601f016020809104026020016040519081016040528092919081815260200182805461055b9061201d565b80156105a85780601f1061057d576101008083540402835291602001916105a8565b820191906000526020600020905b81548152906001019060200180831161058b57829003601f168201915b505050505081565b7f000000000000000000000000000000000000000000000000000000000000000081565b600081815481106105e457600080fd5b9060005260206000200160009150905080546105ff9061201d565b80601f016020809104026020016040519081016040528092919081815260200182805461062b9061201d565b80156106785780601f1061064d57610100808354040283529160200191610678565b820191906000526020600020905b81548152906001019060200180831161065b57829003601f168201915b505050505081565b7f000000000000000000000000000000000000000000000000000000000000000073ffffffffffffffffffffffffffffffffffffffff163373ffffffffffffffffffffffffffffffffffffffff161461070e576040517f08c379a000000000000000000000000000000000000000000000000000000000815260040161070590611c74565b60405180910390fd5b60008211610751576040517f08c379a000000000000000000000000000000000000000000000000000000000815260040161074890611c94565b60405180910390fd5b6000600560008373ffffffffffffffffffffffffffffffffffffffff1673ffffffffffffffffffffffffffffffffffffffff168152602001908152602001600020549050808311156107d8576040517f08c379a00000000000000000000000000000000000000000000000000000000081526004016107cf90611c54565b60405180910390fd5b82816107e49190611ef0565b600560008473ffffffffffffffffffffffffffffffffffffffff1673ffffffffffffffffffffffffffffffffffffffff16815260200190815260200160002081905550600073ffffffffffffffffffffffffffffffffffffffff168273ffffffffffffffffffffffffffffffffffffffff1614156108a8573373ffffffffffffffffffffffffffffffffffffffff166108fc849081150290604051600060405180830381858888f193505050501580156108a2573d6000803e3d6000fd5b50610937565b8173ffffffffffffffffffffffffffffffffffffffff1663a9059cbb33856040518363ffffffff1660e01b81526004016108e3929190611b98565b602060405180830381600087803b1580156108fd57600080fd5b505af1158015610911573d6000803e3d6000fd5b505050506040513d601f19601f8201168201806040525081019061093591906117ef565b505b505050565b7f000000000000000000000000000000000000000000000000000000000000000081565b7f000000000000000000000000000000000000000000000000000000000000000081565b7f000000000000000000000000000000000000000000000000000000000000000073ffffffffffffffffffffffffffffffffffffffff163373ffffffffffffffffffffffffffffffffffffffff1614610a12576040517f08c379a0000000000000000000000000000000000000000000000000000000008152600401610a0990611c74565b60405180910390fd5b6001805490508110610a59576040517f08c379a0000000000000000000000000000000000000000000000000000000008152600401610a5090611cd4565b60405180910390fd5b8060028190555050565b60056020528060005260406000206000915090505481565b60008211610abe576040517f08c379a0000000000000000000000000000000000000000000000000000000008152600401610ab590611c34565b60405180910390fd5b600073ffffffffffffffffffffffffffffffffffffffff168173ffffffffffffffffffffffffffffffffffffffff161415610c9a57813414610aff57600080fd5b81600660003373ffffffffffffffffffffffffffffffffffffffff1673ffffffffffffffffffffffffffffffffffffffff16815260200190815260200160002060008073ffffffffffffffffffffffffffffffffffffffff1673ffffffffffffffffffffffffffffffffffffffff16815260200190815260200160002054610b879190611e9a565b600660003373ffffffffffffffffffffffffffffffffffffffff1673ffffffffffffffffffffffffffffffffffffffff16815260200190815260200160002060008073ffffffffffffffffffffffffffffffffffffffff1673ffffffffffffffffffffffffffffffffffffffff1681526020019081526020016000208190555081600560008073ffffffffffffffffffffffffffffffffffffffff1673ffffffffffffffffffffffffffffffffffffffff16815260200190815260200160002054610c529190611e9a565b600560008073ffffffffffffffffffffffffffffffffffffffff1673ffffffffffffffffffffffffffffffffffffffff16815260200190815260200160002081905550610ec1565b8073ffffffffffffffffffffffffffffffffffffffff166323b872dd3330856040518463ffffffff1660e01b8152600401610cd793929190611b61565b602060405180830381600087803b158015610cf157600080fd5b505af1158015610d05573d6000803e3d6000fd5b505050506040513d601f19601f82011682018060405250810190610d2991906117ef565b5081600660003373ffffffffffffffffffffffffffffffffffffffff1673ffffffffffffffffffffffffffffffffffffffff16815260200190815260200160002060008373ffffffffffffffffffffffffffffffffffffffff1673ffffffffffffffffffffffffffffffffffffffff16815260200190815260200160002054610db29190611e9a565b600660003373ffffffffffffffffffffffffffffffffffffffff1673ffffffffffffffffffffffffffffffffffffffff16815260200190815260200160002060008373ffffffffffffffffffffffffffffffffffffffff1673ffffffffffffffffffffffffffffffffffffffff1681526020019081526020016000208190555081600560008373ffffffffffffffffffffffffffffffffffffffff1673ffffffffffffffffffffffffffffffffffffffff16815260200190815260200160002054610e7d9190611e9a565b600560008373ffffffffffffffffffffffffffffffffffffffff1673ffffffffffffffffffffffffffffffffffffffff168152602001908152602001600020819055505b5050565b60038054610ed29061201d565b80601f0160208091040260200160405190810160405280929190818152602001828054610efe9061201d565b8015610f4b5780601f10610f2057610100808354040283529160200191610f4b565b820191906000526020600020905b815481529060010190602001808311610f2e57829003601f168201915b505050505081565b7f000000000000000000000000000000000000000000000000000000000000000073ffffffffffffffffffffffffffffffffffffffff163373ffffffffffffffffffffffffffffffffffffffff1614610fe1576040517f08c379a0000000000000000000000000000000000000000000000000000000008152600401610fd890611c74565b60405180910390fd5b60018290806001815401808255809150506001900390600052602060002001600090919091909150908051906020019061101c92919061161b565b50600115158115151415611042576001808054905061103b9190611ef0565b6002819055505b5050565b7f000000000000000000000000000000000000000000000000000000000000000073ffffffffffffffffffffffffffffffffffffffff163373ffffffffffffffffffffffffffffffffffffffff16146110d4576040517f08c379a00000000000000000000000000000000000000000000000000000000081526004016110cb90611c74565b60405180910390fd5b60008190806001815401808255809150506001900390600052602060002001600090919091909150908051906020019061110f92919061161b565b5050565b60025481565b600080600080600080606080600060606000807f00000000000000000000000000000000000000000000000000000000000000007f00000000000000000000000000000000000000000000000000000000000000007f00000000000000000000000000000000000000000000000000000000000000007f00000000000000000000000000000000000000000000000000000000000000007f00000000000000000000000000000000000000000000000000000000000000007f0000000000000000000000000000000000000000000000000000000000000000600060016002546003600460009054906101000a900460ff16600560008073ffffffffffffffffffffffffffffffffffffffff1673ffffffffffffffffffffffffffffffffffffffff1681526020019081526020016000205485805480602002602001604051908101604052809291908181526020016000905b8282101561131857838290600052602060002001805461128b9061201d565b80601f01602080910402602001604051908101604052809291908181526020018280546112b79061201d565b80156113045780601f106112d957610100808354040283529160200191611304565b820191906000526020600020905b8154815290600101906020018083116112e757829003601f168201915b50505050508152602001906001019061126c565b50505050955084805480602002602001604051908101604052809291908181526020016000905b828210156113eb57838290600052602060002001805461135e9061201d565b80601f016020809104026020016040519081016040528092919081815260200182805461138a9061201d565b80156113d75780601f106113ac576101008083540402835291602001916113d7565b820191906000526020600020905b8154815290600101906020018083116113ba57829003601f168201915b50505050508152602001906001019061133f565b5050505094508280546113fd9061201d565b80601f01602080910402602001604051908101604052809291908181526020018280546114299061201d565b80156114765780601f1061144b57610100808354040283529160200191611476565b820191906000526020600020905b81548152906001019060200180831161145957829003601f168201915b505050505092509b509b509b509b509b509b509b509b509b509b509b509b50909192939495969798999a9b565b7f000000000000000000000000000000000000000000000000000000000000000081565b7f000000000000000000000000000000000000000000000000000000000000000081565b7f000000000000000000000000000000000000000000000000000000000000000073ffffffffffffffffffffffffffffffffffffffff163373ffffffffffffffffffffffffffffffffffffffff1614611579576040517f08c379a000000000000000000000000000000000000000000000000000000000815260040161157090611c74565b60405180910390fd5b6000600481111561158d5761158c6120af565b5b600460009054906101000a900460ff1660048111156115af576115ae6120af565b5b146115ef576040517f08c379a00000000000000000000000000000000000000000000000000000000081526004016115e690611cb4565b60405180910390fd5b60048060006101000a81548160ff02191690836004811115611614576116136120af565b5b0217905550565b8280546116279061201d565b90600052602060002090601f0160209004810192826116495760008555611690565b82601f1061166257805160ff1916838001178555611690565b82800160010185558215611690579182015b8281111561168f578251825591602001919060010190611674565b5b50905061169d91906116a1565b5090565b5b808211156116ba5760008160009055506001016116a2565b5090565b60006116d16116cc84611e03565b611dde565b9050828152602081018484840111156116ed576116ec612141565b5b6116f8848285611fdb565b509392505050565b60008135905061170f8161232b565b92915050565b60008135905061172481612342565b92915050565b60008151905061173981612342565b92915050565b600082601f8301126117545761175361213c565b5b81356117648482602086016116be565b91505092915050565b60008135905061177c81612359565b92915050565b6000602082840312156117985761179761214b565b5b60006117a684828501611700565b91505092915050565b600080604083850312156117c6576117c561214b565b5b60006117d485828601611700565b92505060206117e585828601611700565b9150509250929050565b6000602082840312156118055761180461214b565b5b60006118138482850161172a565b91505092915050565b6000602082840312156118325761183161214b565b5b600082013567ffffffffffffffff8111156118505761184f612146565b5b61185c8482850161173f565b91505092915050565b6000806040838503121561187c5761187b61214b565b5b600083013567ffffffffffffffff81111561189a57611899612146565b5b6118a68582860161173f565b92505060206118b785828601611715565b9150509250929050565b6000602082840312156118d7576118d661214b565b5b60006118e58482850161176d565b91505092915050565b600080604083850312156119055761190461214b565b5b60006119138582860161176d565b925050602061192485828601611700565b9150509250929050565b600061193a83836119f3565b905092915050565b61194b81611f24565b82525050565b600061195c82611e44565b6119668185611e67565b93508360208202850161197885611e34565b8060005b858110156119b45784840389528151611995858261192e565b94506119a083611e5a565b925060208a0199505060018101905061197c565b50829750879550505050505092915050565b6119cf81611fa5565b82525050565b6119de81611fb7565b82525050565b6119ed81611fc9565b82525050565b60006119fe82611e4f565b611a088185611e78565b9350611a18818560208601611fea565b611a2181612150565b840191505092915050565b6000611a3782611e4f565b611a418185611e89565b9350611a51818560208601611fea565b611a5a81612150565b840191505092915050565b6000611a72601083611e89565b9150611a7d82612161565b602082019050919050565b6000611a95602f83611e89565b9150611aa08261218a565b604082019050919050565b6000611ab8604183611e89565b9150611ac3826121d9565b606082019050919050565b6000611adb601183611e89565b9150611ae68261224e565b602082019050919050565b6000611afe602583611e89565b9150611b0982612277565b604082019050919050565b6000611b21600f83611e89565b9150611b2c826122c6565b602082019050919050565b611b4081611f9b565b82525050565b6000602082019050611b5b6000830184611942565b92915050565b6000606082019050611b766000830186611942565b611b836020830185611942565b611b906040830184611b37565b949350505050565b6000604082019050611bad6000830185611942565b611bba6020830184611b37565b9392505050565b6000602082019050611bd660008301846119c6565b92915050565b6000602082019050611bf160008301846119d5565b92915050565b6000602082019050611c0c60008301846119e4565b92915050565b60006020820190508181036000830152611c2c8184611a2c565b905092915050565b60006020820190508181036000830152611c4d81611a65565b9050919050565b60006020820190508181036000830152611c6d81611a88565b9050919050565b60006020820190508181036000830152611c8d81611aab565b9050919050565b60006020820190508181036000830152611cad81611ace565b9050919050565b60006020820190508181036000830152611ccd81611af1565b9050919050565b60006020820190508181036000830152611ced81611b14565b9050919050565b6000602082019050611d096000830184611b37565b92915050565b600061018082019050611d25600083018f611b37565b611d32602083018e611942565b611d3f604083018d6119e4565b611d4c606083018c6119c6565b611d59608083018b611b37565b611d6660a083018a611b37565b81810360c0830152611d788189611951565b905081810360e0830152611d8c8188611951565b9050611d9c610100830187611b37565b818103610120830152611daf8186611a2c565b9050611dbf6101408301856119d5565b611dcd610160830184611b37565b9d9c50505050505050505050505050565b6000611de8611df9565b9050611df4828261204f565b919050565b6000604051905090565b600067ffffffffffffffff821115611e1e57611e1d61210d565b5b611e2782612150565b9050602081019050919050565b6000819050602082019050919050565b600081519050919050565b600081519050919050565b6000602082019050919050565b600082825260208201905092915050565b600082825260208201905092915050565b600082825260208201905092915050565b6000611ea582611f9b565b9150611eb083611f9b565b9250827fffffffffffffffffffffffffffffffffffffffffffffffffffffffffffffffff03821115611ee557611ee4612080565b5b828201905092915050565b6000611efb82611f9b565b9150611f0683611f9b565b925082821015611f1957611f18612080565b5b828203905092915050565b6000611f2f82611f7b565b9050919050565b60008115159050919050565b6000819050611f50826122ef565b919050565b6000819050611f6382612303565b919050565b6000819050611f7682612317565b919050565b600073ffffffffffffffffffffffffffffffffffffffff82169050919050565b6000819050919050565b6000611fb082611f42565b9050919050565b6000611fc282611f55565b9050919050565b6000611fd482611f68565b9050919050565b82818337600083830152505050565b60005b83811015612008578082015181840152602081019050611fed565b83811115612017576000848401525b50505050565b6000600282049050600182168061203557607f821691505b60208210811415612049576120486120de565b5b50919050565b61205882612150565b810181811067ffffffffffffffff821117156120775761207661210d565b5b80604052505050565b7f4e487b7100000000000000000000000000000000000000000000000000000000600052601160045260246000fd5b7f4e487b7100000000000000000000000000000000000000000000000000000000600052602160045260246000fd5b7f4e487b7100000000000000000000000000000000000000000000000000000000600052602260045260246000fd5b7f4e487b7100000000000000000000000000000000000000000000000000000000600052604160045260246000fd5b600080fd5b600080fd5b600080fd5b600080fd5b6000601f19601f8301169050919050565b7f43616e6e6f74206465706f736974203000000000000000000000000000000000600082015250565b7f536f7272792c2063616e2774207769746864726177206d6f7265207468616e2060008201527f746f74616c20646f6e6174696f6e730000000000000000000000000000000000602082015250565b7f596f75206d75737420626520746865206f776e6572206f66207468652066756e60008201527f6472616973657220746f20706572666f726d2074686973206f7065726174696f60208201527f6e00000000000000000000000000000000000000000000000000000000000000604082015250565b7f43616e6e6f742077697468647261772030000000000000000000000000000000600082015250565b7f596f752063616e206f6e6c7920636c6f7365206163746976652066756e64726160008201527f6973657273000000000000000000000000000000000000000000000000000000602082015250565b7f496d616765206e6f7420666f756e640000000000000000000000000000000000600082015250565b60068110612300576122ff6120af565b5b50565b60058110612314576123136120af565b5b50565b60038110612328576123276120af565b5b50565b61233481611f24565b811461233f57600080fd5b50565b61234b81611f36565b811461235657600080fd5b50565b61236281611f9b565b811461236d57600080fd5b5056fea264697066735822122097571e778225560de3d87c85baef93047a827035fa9c9ec69eedaa452a30d57e64736f6c63430008070033a26469706673582212204a099545e6480f2782a3c3b218d813b165f2fee62638054c796a3793c3d200a864736f6c63430008070033",
  "linkReferences": {},
  "deployedLinkReferences": {}
}