{
  "_format": "hh-sol-artifact-1",
  "contractName": "DeFundFactory",
  "sourceName": "contracts/DeFundFactory.sol",
  "abi": [
    {
      "inputs": [],
      "stateMutability": "nonpayable",
      "type": "constructor"
    },
    {
      "inputs": [],
      "name": "DeFundFactory__deposit__less_than_declared",
      "type": "error"
    },
    {
      "inputs": [],
      "name": "DeFundFactory__deposit__token_not_allowed",
      "type": "error"
    },
    {
      "inputs": [],
      "name": "DeFundFactory__deposit__zero_deposit",
      "type": "error"
    },
    {
      "inputs": [],
      "name": "DeFundFactory__not_implemented",
      "type": "error"
    },
    {
      "anonymous": false,
      "inputs": [
        {
          "indexed": true,
          "internalType": "uint256",
          "name": "fundraiserId",
          "type": "uint256"
        },
        {
          "indexed": true,
          "internalType": "address",
          "name": "creator",
          "type": "address"
        },
        {
          "indexed": false,
          "internalType": "string",
          "name": "title",
          "type": "string"
        },
        {
          "indexed": false,
          "internalType": "enum DeFundModel.FundraiserType",
          "name": "fundraiserType",
          "type": "uint8"
        },
        {
          "indexed": false,
          "internalType": "enum DeFundModel.FundraiserCategory",
          "name": "category",
          "type": "uint8"
        },
        {
          "indexed": false,
          "internalType": "uint256",
          "name": "endDate",
          "type": "uint256"
        },
        {
          "indexed": false,
          "internalType": "uint256",
          "name": "goalAmount",
          "type": "uint256"
        }
      ],
      "name": "FundraiserCreated",
      "type": "event"
    },
    {
      "anonymous": false,
      "inputs": [
        {
          "indexed": true,
          "internalType": "address",
          "name": "previousOwner",
          "type": "address"
        },
        {
          "indexed": true,
          "internalType": "address",
          "name": "newOwner",
          "type": "address"
        }
      ],
      "name": "OwnershipTransferred",
      "type": "event"
    },
    {
      "anonymous": false,
      "inputs": [
        {
          "indexed": true,
          "internalType": "address",
          "name": "creator",
          "type": "address"
        },
        {
          "indexed": false,
          "internalType": "address",
          "name": "tokenAddress",
          "type": "address"
        },
        {
          "indexed": false,
          "internalType": "uint256",
          "name": "previousBalance",
          "type": "uint256"
        },
        {
          "indexed": false,
          "internalType": "uint256",
          "name": "newBalance",
          "type": "uint256"
        }
      ],
      "name": "UserBalanceChanged",
      "type": "event"
    },
    {
      "inputs": [
        {
          "internalType": "address",
          "name": "_tokenAddress",
          "type": "address"
        }
      ],
      "name": "allowToken",
      "outputs": [],
      "stateMutability": "nonpayable",
      "type": "function"
    },
    {
      "inputs": [
        {
          "internalType": "uint256",
          "name": "_id",
          "type": "uint256"
        }
      ],
      "name": "cancelRecurringPayment",
      "outputs": [],
      "stateMutability": "nonpayable",
      "type": "function"
    },
    {
      "inputs": [
        {
          "internalType": "bytes",
          "name": "",
          "type": "bytes"
        }
      ],
      "name": "checkUpkeep",
      "outputs": [
        {
          "internalType": "bool",
          "name": "upkeepNeeded",
          "type": "bool"
        },
        {
          "internalType": "bytes",
          "name": "",
          "type": "bytes"
        }
      ],
      "stateMutability": "view",
      "type": "function"
    },
    {
      "inputs": [
        {
          "internalType": "enum DeFundModel.FundraiserType",
          "name": "_type",
          "type": "uint8"
        },
        {
          "internalType": "enum DeFundModel.FundraiserCategory",
          "name": "_category",
          "type": "uint8"
        },
        {
          "internalType": "string",
          "name": "_name",
          "type": "string"
        },
        {
          "internalType": "string",
          "name": "_description",
          "type": "string"
        },
        {
          "internalType": "uint256",
          "name": "_endDate",
          "type": "uint256"
        },
        {
          "internalType": "uint256",
          "name": "_goalAmount",
          "type": "uint256"
        }
      ],
      "name": "createFundraiser",
      "outputs": [
        {
          "internalType": "uint256",
          "name": "fundraiserId",
          "type": "uint256"
        }
      ],
      "stateMutability": "nonpayable",
      "type": "function"
    },
    {
      "inputs": [
        {
          "internalType": "address",
          "name": "_targetFundraiser",
          "type": "address"
        },
        {
          "internalType": "address",
          "name": "_tokenAddress",
          "type": "address"
        },
        {
          "internalType": "uint256",
          "name": "_amount",
          "type": "uint256"
        },
        {
          "internalType": "uint32",
          "name": "_intervalHours",
          "type": "uint32"
        }
      ],
      "name": "createRecurringPayment",
      "outputs": [
        {
          "internalType": "uint256",
          "name": "recurringPaymentId",
          "type": "uint256"
        }
      ],
      "stateMutability": "nonpayable",
      "type": "function"
    },
    {
      "inputs": [
        {
          "internalType": "uint256",
          "name": "_amount",
          "type": "uint256"
        },
        {
          "internalType": "address",
          "name": "_tokenAddress",
          "type": "address"
        }
      ],
      "name": "depositFunds",
      "outputs": [],
      "stateMutability": "payable",
      "type": "function"
    },
    {
      "inputs": [
        {
          "internalType": "address",
          "name": "_fundraiserAddress",
          "type": "address"
        },
        {
          "internalType": "uint256",
          "name": "_amount",
          "type": "uint256"
        },
        {
          "internalType": "address",
          "name": "_tokenAddress",
          "type": "address"
        }
      ],
      "name": "donateByAddress",
      "outputs": [],
      "stateMutability": "nonpayable",
      "type": "function"
    },
    {
      "inputs": [
        {
          "internalType": "uint256",
          "name": "_fundraiserId",
          "type": "uint256"
        },
        {
          "internalType": "uint256",
          "name": "_amount",
          "type": "uint256"
        },
        {
          "internalType": "address",
          "name": "_tokenAddress",
          "type": "address"
        }
      ],
      "name": "donateById",
      "outputs": [],
      "stateMutability": "nonpayable",
      "type": "function"
    },
    {
      "inputs": [
        {
          "internalType": "address",
          "name": "_token",
          "type": "address"
        }
      ],
      "name": "getMyBalance",
      "outputs": [
        {
          "internalType": "uint256",
          "name": "balance",
          "type": "uint256"
        }
      ],
      "stateMutability": "view",
      "type": "function"
    },
    {
      "inputs": [],
      "name": "getMyRecurringPayments",
      "outputs": [
        {
          "components": [
            {
              "internalType": "uint256",
              "name": "id",
              "type": "uint256"
            },
            {
              "internalType": "address",
              "name": "owner",
              "type": "address"
            },
            {
              "internalType": "address",
              "name": "target",
              "type": "address"
            },
            {
              "internalType": "address",
              "name": "tokenAddress",
              "type": "address"
            },
            {
              "internalType": "uint256",
              "name": "amount",
              "type": "uint256"
            },
            {
              "internalType": "uint32",
              "name": "intervalHours",
              "type": "uint32"
            },
            {
              "internalType": "uint256",
              "name": "lastExecution",
              "type": "uint256"
            },
            {
              "internalType": "enum DeFundModel.RecurringPaymentStatus",
              "name": "status",
              "type": "uint8"
            }
          ],
          "internalType": "struct DeFundModel.RecurringPaymentDisposition[]",
          "name": "recurringPayments",
          "type": "tuple[]"
        }
      ],
      "stateMutability": "view",
      "type": "function"
    },
    {
      "inputs": [
        {
          "internalType": "address",
          "name": "_tokenAddress",
          "type": "address"
        }
      ],
      "name": "isTokenAllowed",
      "outputs": [
        {
          "internalType": "bool",
          "name": "",
          "type": "bool"
        }
      ],
      "stateMutability": "view",
      "type": "function"
    },
    {
      "inputs": [
        {
          "internalType": "enum DeFundModel.FundraiserStatus",
          "name": "_status",
          "type": "uint8"
        }
      ],
      "name": "listFundraisersByStatus",
      "outputs": [
        {
          "components": [
            {
              "internalType": "uint256",
              "name": "id",
              "type": "uint256"
            },
            {
              "internalType": "address",
              "name": "owner",
              "type": "address"
            },
            {
              "internalType": "enum DeFundModel.FundraiserType",
              "name": "fType",
              "type": "uint8"
            },
            {
              "internalType": "enum DeFundModel.FundraiserCategory",
              "name": "category",
              "type": "uint8"
            },
            {
              "internalType": "uint256",
              "name": "endDate",
              "type": "uint256"
            },
            {
              "internalType": "uint256",
              "name": "goalAmount",
              "type": "uint256"
            },
            {
              "internalType": "string",
              "name": "description",
              "type": "string"
            },
            {
              "internalType": "string",
              "name": "defaultImage",
              "type": "string"
            },
            {
              "internalType": "string",
              "name": "name",
              "type": "string"
            },
            {
              "internalType": "enum DeFundModel.FundraiserStatus",
              "name": "status",
              "type": "uint8"
            }
          ],
          "internalType": "struct DeFundModel.FundraiserItem[]",
          "name": "fundraisersByStatus",
          "type": "tuple[]"
        }
      ],
      "stateMutability": "view",
      "type": "function"
    },
    {
      "inputs": [],
      "name": "owner",
      "outputs": [
        {
          "internalType": "address",
          "name": "",
          "type": "address"
        }
      ],
      "stateMutability": "view",
      "type": "function"
    },
    {
      "inputs": [
        {
          "internalType": "bytes",
          "name": "",
          "type": "bytes"
        }
      ],
      "name": "performUpkeep",
      "outputs": [],
      "stateMutability": "nonpayable",
      "type": "function"
    },
    {
      "inputs": [],
      "name": "renounceOwnership",
      "outputs": [],
      "stateMutability": "nonpayable",
      "type": "function"
    },
    {
      "inputs": [
        {
          "internalType": "uint256",
          "name": "",
          "type": "uint256"
        }
      ],
      "name": "s_allowedERC20Tokens",
      "outputs": [
        {
          "internalType": "address",
          "name": "",
          "type": "address"
        }
      ],
      "stateMutability": "view",
      "type": "function"
    },
    {
      "inputs": [
        {
          "internalType": "uint256",
          "name": "",
          "type": "uint256"
        }
      ],
      "name": "s_fundraisers",
      "outputs": [
        {
          "internalType": "address",
          "name": "",
          "type": "address"
        }
      ],
      "stateMutability": "view",
      "type": "function"
    },
    {
      "inputs": [
        {
          "internalType": "address",
          "name": "",
          "type": "address"
        },
        {
          "internalType": "uint256",
          "name": "",
          "type": "uint256"
        }
      ],
      "name": "s_fundraisersByOwner",
      "outputs": [
        {
          "internalType": "uint256",
          "name": "",
          "type": "uint256"
        }
      ],
      "stateMutability": "view",
      "type": "function"
    },
    {
      "inputs": [],
      "name": "s_lastTimeStamp",
      "outputs": [
        {
          "internalType": "uint256",
          "name": "",
          "type": "uint256"
        }
      ],
      "stateMutability": "view",
      "type": "function"
    },
    {
      "inputs": [],
      "name": "s_priceFeed",
      "outputs": [
        {
          "internalType": "contract AggregatorV3Interface",
          "name": "",
          "type": "address"
        }
      ],
      "stateMutability": "view",
      "type": "function"
    },
    {
      "inputs": [
        {
          "internalType": "uint256",
          "name": "",
          "type": "uint256"
        }
      ],
      "name": "s_recurringPayments",
      "outputs": [
        {
          "internalType": "uint256",
          "name": "id",
          "type": "uint256"
        },
        {
          "internalType": "address",
          "name": "owner",
          "type": "address"
        },
        {
          "internalType": "address",
          "name": "target",
          "type": "address"
        },
        {
          "internalType": "address",
          "name": "tokenAddress",
          "type": "address"
        },
        {
          "internalType": "uint256",
          "name": "amount",
          "type": "uint256"
        },
        {
          "internalType": "uint32",
          "name": "intervalHours",
          "type": "uint32"
        },
        {
          "internalType": "uint256",
          "name": "lastExecution",
          "type": "uint256"
        },
        {
          "internalType": "enum DeFundModel.RecurringPaymentStatus",
          "name": "status",
          "type": "uint8"
        }
      ],
      "stateMutability": "view",
      "type": "function"
    },
    {
      "inputs": [
        {
          "internalType": "address",
          "name": "",
          "type": "address"
        },
        {
          "internalType": "uint256",
          "name": "",
          "type": "uint256"
        }
      ],
      "name": "s_recurringPaymentsByOwner",
      "outputs": [
        {
          "internalType": "uint256",
          "name": "",
          "type": "uint256"
        }
      ],
      "stateMutability": "view",
      "type": "function"
    },
    {
      "inputs": [
        {
          "internalType": "address",
          "name": "",
          "type": "address"
        },
        {
          "internalType": "address",
          "name": "",
          "type": "address"
        }
      ],
      "name": "s_userBalances",
      "outputs": [
        {
          "internalType": "uint256",
          "name": "",
          "type": "uint256"
        }
      ],
      "stateMutability": "view",
      "type": "function"
    },
    {
      "inputs": [
        {
          "internalType": "address",
          "name": "newOwner",
          "type": "address"
        }
      ],
      "name": "transferOwnership",
      "outputs": [],
      "stateMutability": "nonpayable",
      "type": "function"
    },
    {
      "inputs": [
        {
          "internalType": "uint256",
          "name": "_amount",
          "type": "uint256"
        },
        {
          "internalType": "address",
          "name": "_tokenAddress",
          "type": "address"
        }
      ],
      "name": "withdrawFunds",
      "outputs": [],
      "stateMutability": "nonpayable",
      "type": "function"
    }
  ],
  "bytecode": "0x608060405260006001556000600255610e10600b5534801561002057600080fd5b5061002a33610059565b600a80546001600160a01b031916739326bfa02add2366b30bacb125260af641031331179055426003556100a9565b600080546001600160a01b038381166001600160a01b0319831681178455604051919092169283917f8be0079c531659141344cd1fd0a4f28419497f9722a3daafe3b4186f6b6457e09190a35050565b614b8480620000b96000396000f3fe608060405260043610620001405760003560e01c80630d2952c214620001455780630ec3b02714620001825780631a94cb3314620001bd57806321eb73f0146200024d5780632c186fcf14620002725780633485404314620002995780633d958db714620002c05780633d96642914620002e557806340decd3a146200030c5780634585e33b146200033157806357f93b7114620003565780635a370cb4146200037b5780636e04ff0d14620003a0578063715018a614620003d5578063744bfe6114620003ed5780637e3ef7cd14620004125780638da5cb5b14620004595780638db9459f1462000471578063b0a6169c1462000496578063b53472ef14620004d2578063ce534c2d14620004f7578063f2fde38b146200051c578063f785de231462000541578063f9d03e461462000558578063f9eaee0d1462000592575b600080fd5b3480156200015257600080fd5b506200016a6200016436600462002694565b620005c8565b60405162000179919062002999565b60405180910390f35b3480156200018f57600080fd5b50600a54620001a4906001600160a01b031681565b6040516001600160a01b03909116815260200162000179565b348015620001ca57600080fd5b5062000237620001dc36600462002821565b6008602052600090815260409020805460018201546002830154600384015460048501546005860154600687015460079097015495966001600160a01b03958616969486169590931693919263ffffffff9091169160ff1688565b6040516200017998979695949392919062002c62565b3480156200025a57600080fd5b50620001a46200026c36600462002821565b62000fe1565b3480156200027f57600080fd5b5062000297620002913660046200287d565b6200100c565b005b348015620002a657600080fd5b50620002b160035481565b60405190815260200162000179565b348015620002cd57600080fd5b50620002b1620002df3660046200250e565b62001036565b348015620002f257600080fd5b50620002fd62001068565b60405162000179919062002abd565b3480156200031957600080fd5b50620002976200032b3660046200253d565b6200124b565b3480156200033e57600080fd5b506200029762000350366004620025a8565b620013e6565b3480156200036357600080fd5b50620002b162000375366004620026f4565b6200164e565b3480156200038857600080fd5b50620002b16200039a3660046200250e565b62001794565b348015620003ad57600080fd5b50620003c5620003bf366004620025ed565b620017b1565b6040516200017992919062002b70565b348015620003e257600080fd5b506200029762001a7f565b348015620003fa57600080fd5b50620002976200040c36600462002855565b62001ac1565b3480156200041f57600080fd5b50620002b16200043136600462002427565b3360009081526005602090815260408083206001600160a01b03949094168352929052205490565b3480156200046657600080fd5b50620001a462001c56565b3480156200047e57600080fd5b50620002b162000490366004620024ac565b62001c65565b348015620004a357600080fd5b50620002b1620004b53660046200246e565b600560209081526000928352604080842090915290825290205481565b348015620004df57600080fd5b5062000297620004f136600462002427565b62001d26565b3480156200050457600080fd5b50620002976200051636600462002821565b62001dac565b3480156200052957600080fd5b50620002976200053b36600462002427565b62001e37565b620002976200055236600462002855565b62001edd565b3480156200056557600080fd5b50620001a46200057736600462002821565b6006602052600090815260409020546001600160a01b031681565b3480156200059f57600080fd5b50620005b7620005b136600462002427565b62002003565b604051901515815260200162000179565b60606000805b600154811015620006b957836004811115620005ee57620005ee62002e5e565b60008281526006602090815260409182902054825163072961cb60e21b815292516001600160a01b0390911692631ca5872c926004808301939192829003018186803b1580156200063e57600080fd5b505afa15801562000653573d6000803e3d6000fd5b505050506040513d601f19601f82011682018060405250810190620006799190620026b4565b60048111156200068d576200068d62002e5e565b1415620006a45781620006a08162002e2a565b9250505b80620006b08162002e2a565b915050620005ce565b506000816001600160401b03811115620006d757620006d762002e8a565b6040519080825280602002602001820160405280156200071457816020015b6200070062002368565b815260200190600190039081620006f65790505b5090508162000724579392505050565b60005b8281101562000fd9576000818152600660205260409020546001600160a01b03168560048111156200075d576200075d62002e5e565b816001600160a01b0316631ca5872c6040518163ffffffff1660e01b815260040160206040518083038186803b1580156200079757600080fd5b505afa158015620007ac573d6000803e3d6000fd5b505050506040513d601f19601f82011682018060405250810190620007d29190620026b4565b6004811115620007e657620007e662002e5e565b141562000fc357806001600160a01b031663779fa30f6040518163ffffffff1660e01b815260040160206040518083038186803b1580156200082757600080fd5b505afa1580156200083c573d6000803e3d6000fd5b505050506040513d601f19601f820116820180604052508101906200086291906200283b565b83838151811062000877576200087762002e74565b60200260200101516000018181525050806001600160a01b031663dba6335f6040518163ffffffff1660e01b815260040160206040518083038186803b158015620008c157600080fd5b505afa158015620008d6573d6000803e3d6000fd5b505050506040513d601f19601f82011682018060405250810190620008fc91906200244e565b83838151811062000911576200091162002e74565b6020026020010151602001906001600160a01b031690816001600160a01b031681525050806001600160a01b031663554abf526040518163ffffffff1660e01b815260040160206040518083038186803b1580156200096f57600080fd5b505afa15801562000984573d6000803e3d6000fd5b505050506040513d601f19601f82011682018060405250810190620009aa9190620026d4565b838381518110620009bf57620009bf62002e74565b6020026020010151604001906002811115620009df57620009df62002e5e565b90816002811115620009f557620009f562002e5e565b81525050806001600160a01b031663f950e69c6040518163ffffffff1660e01b815260040160206040518083038186803b15801562000a3357600080fd5b505afa15801562000a48573d6000803e3d6000fd5b505050506040513d601f19601f8201168201806040525081019062000a6e919062002674565b83838151811062000a835762000a8362002e74565b602002602001015160600190600581111562000aa35762000aa362002e5e565b9081600581111562000ab95762000ab962002e5e565b81525050806001600160a01b031663bba1964f6040518163ffffffff1660e01b815260040160006040518083038186803b15801562000af757600080fd5b505afa15801562000b0c573d6000803e3d6000fd5b505050506040513d6000823e601f3d908101601f1916820160405262000b369190810190620027a2565b83838151811062000b4b5762000b4b62002e74565b602002602001015161010001819052506000816001600160a01b03166352ddf8626040518163ffffffff1660e01b815260040160206040518083038186803b15801562000b9757600080fd5b505afa15801562000bac573d6000803e3d6000fd5b505050506040513d601f19601f8201168201806040525081019062000bd291906200283b565b111562000c7e57604051636680ba7d60e01b8152600060048201526001600160a01b03821690636680ba7d9060240160006040518083038186803b15801562000c1a57600080fd5b505afa15801562000c2f573d6000803e3d6000fd5b505050506040513d6000823e601f3d908101601f1916820160405262000c599190810190620027a2565b83838151811062000c6e5762000c6e62002e74565b602002602001015160c001819052505b806001600160a01b031663369268666040518163ffffffff1660e01b815260040160206040518083038186803b15801562000cb857600080fd5b505afa15801562000ccd573d6000803e3d6000fd5b505050506040513d601f19601f8201168201806040525081019062000cf391906200283b565b83838151811062000d085762000d0862002e74565b60200260200101516080018181525050806001600160a01b031663853a68666040518163ffffffff1660e01b815260040160206040518083038186803b15801562000d5257600080fd5b505afa15801562000d67573d6000803e3d6000fd5b505050506040513d601f19601f8201168201806040525081019062000d8d91906200283b565b83838151811062000da25762000da262002e74565b602002602001015160a0018181525050806001600160a01b031663ca2b72206040518163ffffffff1660e01b815260040160206040518083038186803b15801562000dec57600080fd5b505afa15801562000e01573d6000803e3d6000fd5b505050506040513d601f19601f8201168201806040525081019062000e2791906200283b565b816001600160a01b0316638742993d6040518163ffffffff1660e01b815260040160206040518083038186803b15801562000e6157600080fd5b505afa15801562000e76573d6000803e3d6000fd5b505050506040513d601f19601f8201168201806040525081019062000e9c91906200283b565b111562000fc357806001600160a01b03166343394df4826001600160a01b031663ca2b72206040518163ffffffff1660e01b815260040160206040518083038186803b15801562000eec57600080fd5b505afa15801562000f01573d6000803e3d6000fd5b505050506040513d601f19601f8201168201806040525081019062000f2791906200283b565b6040518263ffffffff1660e01b815260040162000f4691815260200190565b60006040518083038186803b15801562000f5f57600080fd5b505afa15801562000f74573d6000803e3d6000fd5b505050506040513d6000823e601f3d908101601f1916820160405262000f9e9190810190620027a2565b83838151811062000fb35762000fb362002e74565b602002602001015160e001819052505b508062000fd08162002e2a565b91505062000727565b509392505050565b6004818154811062000ff257600080fd5b6000918252602090912001546001600160a01b0316905081565b60008381526006602052604090205462001031906001600160a01b031683836200124b565b505050565b600960205281600052604060002081815481106200105357600080fd5b90600052602060002001600091509150505481565b336000908152600960205260409020546060906001600160401b0381111562001095576200109562002e8a565b6040519080825280602002602001820160405280156200110e57816020015b620010fa6040805161010081018252600080825260208201819052918101829052606081018290526080810182905260a0810182905260c081018290529060e082015290565b815260200190600190039081620010b45790505b50905060005b336000908152600960205260409020548110156200124757336000908152600960205260408120805460089291908490811062001155576200115562002e74565b600091825260208083209091015483528281019390935260409182019020815161010081018352815481526001808301546001600160a01b039081169583019590955260028301548516938201939093526003820154909316606084015260048101546080840152600581015463ffffffff1660a0840152600681015460c08401526007810154909160e084019160ff1690811115620011f957620011f962002e5e565b60018111156200120d576200120d62002e5e565b8152505082828151811062001226576200122662002e74565b602002602001018190525080806200123e9062002e2a565b91505062001114565b5090565b60008211620012935760405162461bcd60e51b815260206004820152600f60248201526e043616e6e6f7420646f6e617465203608c1b60448201526064015b60405180910390fd5b3360009081526005602090815260408083206001600160a01b038516845290915290205480831115620012da5760405162461bcd60e51b81526004016200128a9062002bd7565b620012e6838262002de1565b3360009081526005602090815260408083206001600160a01b038716808552925290912091909155620013c7576000846001600160a01b03166374e781b3853387876040518563ffffffff1660e01b8152600401620013489392919062002955565b6020604051808303818588803b1580156200136257600080fd5b505af115801562001377573d6000803e3d6000fd5b50505050506040513d601f19601f820116820180604052508101906200139e919062002584565b905080620013c05760405162461bcd60e51b81526004016200128a9062002c38565b50620013e0565b60405163730d669f60e11b815260040160405180910390fd5b50505050565b60005b600254811015620010315760008181526008602052604081206007015460ff1660018111156200141d576200141d62002e5e565b14620014295762001639565b6001600082815260086020908152604091829020600201548251632aa55fa960e11b815292516001600160a01b039091169263554abf52926004808301939192829003018186803b1580156200147e57600080fd5b505afa15801562001493573d6000803e3d6000fd5b505050506040513d601f19601f82011682018060405250810190620014b99190620026d4565b6002811115620014cd57620014cd62002e5e565b14620014d95762001639565b600081815260086020908152604080832060020154815163072961cb60e21b815291516001600160a01b0390911692631ca5872c9260048082019391829003018186803b1580156200152a57600080fd5b505afa1580156200153f573d6000803e3d6000fd5b505050506040513d601f19601f82011682018060405250810190620015659190620026b4565b600481111562001579576200157962002e5e565b14620015855762001639565b6000818152600860209081526040808320600481015460018201546001600160a01b039081168652600585528386206003909301541685529252909120541015620015d05762001639565b600081815260086020526040902060050154620015f59063ffffffff16603c62002db2565b6200160290603c62002db2565b600082815260086020526040902060060154620016269163ffffffff169062002d97565b4211156200163957620016398162002075565b80620016458162002e2a565b915050620013e9565b60018054906200166090829062002d97565b600181905550600081338b8b8b8b8b8b8b8b6040516200168090620023ce565b620016959a9998979695949392919062002cbf565b604051809103906000f080158015620016b2573d6000803e3d6000fd5b509050806006600084815260200190815260200160002060006101000a8154816001600160a01b0302191690836001600160a01b0316021790555060076000336001600160a01b03166001600160a01b03168152602001908152602001600020829080600181540180825580915050600190039060005260206000200160009091909190915055336001600160a01b0316827f2a3720f62d1e85b04f6fdde0ad0f608f61ce672e8bd70c9f4f887b6a9febcf778a8a8e8e8a8a6040516200177f9695949392919062002b8d565b60405180910390a35098975050505050505050565b600760205281600052604060002081815481106200105357600080fd5b600060606000600b5460035442620017ca919062002de1565b119050600080600154118015620017e357506000600254115b90506000805b60025481101562001a4d5760008181526008602052604081206007015460ff1660018111156200181d576200181d62002e5e565b14620018295762001a38565b6001600082815260086020908152604091829020600201548251632aa55fa960e11b815292516001600160a01b039091169263554abf52926004808301939192829003018186803b1580156200187e57600080fd5b505afa15801562001893573d6000803e3d6000fd5b505050506040513d601f19601f82011682018060405250810190620018b99190620026d4565b6002811115620018cd57620018cd62002e5e565b14620018d95762001a38565b600081815260086020908152604080832060020154815163072961cb60e21b815291516001600160a01b0390911692631ca5872c9260048082019391829003018186803b1580156200192a57600080fd5b505afa1580156200193f573d6000803e3d6000fd5b505050506040513d601f19601f82011682018060405250810190620019659190620026b4565b600481111562001979576200197962002e5e565b14620019855762001a38565b6000818152600860209081526040808320600481015460018201546001600160a01b039081168652600585528386206003909301541685529252909120541015620019d05762001a38565b600081815260086020526040902060050154620019f59063ffffffff16603c62002db2565b62001a0290603c62002db2565b60008281526008602052604090206006015462001a269163ffffffff169062002d97565b42111562001a38576001915062001a4d565b8062001a448162002e2a565b915050620017e9565b5082801562001a595750815b801562001a635750805b6040805160208101909152600081529097909650945050505050565b3362001a8a62001c56565b6001600160a01b03161462001ab35760405162461bcd60e51b81526004016200128a9062002c03565b62001abf600062002318565b565b6000821162001b075760405162461bcd60e51b8152602060048201526011602482015270043616e6e6f74207769746864726177203607c1b60448201526064016200128a565b3360009081526005602090815260408083206001600160a01b03851684529091529020548083111562001b4e5760405162461bcd60e51b81526004016200128a9062002bd7565b62001b5a838262002de1565b3360009081526005602090815260408083206001600160a01b038716808552925290912091909155620013c757604051600090339085908381818185875af1925050503d806000811462001bcb576040519150601f19603f3d011682016040523d82523d6000602084013e62001bd0565b606091505b505090508062001bf45760405162461bcd60e51b81526004016200128a9062002c38565b503360008181526005602090815260408083206001600160a01b038716845290915290205460008051602062004b2f83398151915290849062001c38878662002de1565b60405162001c499392919062002978565b60405180910390a2505050565b6000546001600160a01b031690565b60025462001c7581600162002d97565b6002908155600082815260086020908152604080832085815560018082018054336001600160a01b03199182168117909255968301805488166001600160a01b038e811691909117909155600384018054909816908c16179096556004820189905560058201805463ffffffff191663ffffffff8a161790556007909101805460ff1916905593835260098252822080549384018155825290200181905562001d1e8162002075565b949350505050565b3362001d3162001c56565b6001600160a01b03161462001d5a5760405162461bcd60e51b81526004016200128a9062002c03565b600480546001810182556000919091527f8a35acfbc15ff81a39ae7d344fd709f28e8600b4aa8c65c6b64bfe7fe36bd19b0180546001600160a01b0319166001600160a01b0392909216919091179055565b6000818152600860205260409020600101546001600160a01b0316331462001de757604051634324405d60e01b815260040160405180910390fd5b60008181526008602052604081206007015460ff16600181111562001e105762001e1062002e5e565b141562001e34576000818152600860205260409020600701805460ff191660011790555b50565b3362001e4262001c56565b6001600160a01b03161462001e6b5760405162461bcd60e51b81526004016200128a9062002c03565b6001600160a01b03811662001ed25760405162461bcd60e51b815260206004820152602660248201527f4f776e61626c653a206e6577206f776e657220697320746865207a65726f206160448201526564647265737360d01b60648201526084016200128a565b62001e348162002318565b8162001efc5760405163a5964f3f60e01b815260040160405180910390fd5b3360009081526005602090815260408083206001600160a01b0385168085529252909120549062001f92578234101562001f4957604051633d814a7160e21b815260040160405180910390fd5b33600090815260056020908152604080832083805290915290205462001f7190849062002d97565b33600090815260056020908152604080832083805290915290205562001fbb565b62001f9d8262002003565b620013c757604051634324405d60e01b815260040160405180910390fd5b3360008181526005602090815260408083206001600160a01b03871684529091529081902054905160008051602062004b2f8339815191529162001c49918691869162002978565b6000805b6004548110156200206c57826001600160a01b03166004828154811062002032576200203262002e74565b6000918252602090912001546001600160a01b03161415620020575750600192915050565b80620020638162002e2a565b91505062002007565b50600092915050565b600081815260086020818152604080842060018101546001600160a01b0390811686526005845282862060038301549091168652835290842054938590529190526004015481106200230057600082815260086020526040902060040154620020df908262002de1565b600083815260086020818152604080842060018101546001600160a01b0390811686526005845282862060038301548216875284529185209590955586845291905260029092015490911690816001600160a01b0316631ca5872c6040518163ffffffff1660e01b815260040160206040518083038186803b1580156200216557600080fd5b505afa1580156200217a573d6000803e3d6000fd5b505050506040513d601f19601f82011682018060405250810190620021a09190620026b4565b6004811115620021b457620021b462002e5e565b1480156200224a57506001816001600160a01b031663554abf526040518163ffffffff1660e01b815260040160206040518083038186803b158015620021f957600080fd5b505afa1580156200220e573d6000803e3d6000fd5b505050506040513d601f19601f82011682018060405250810190620022349190620026d4565b600281111562002248576200224862002e5e565b145b15620022fe5760008381526008602052604090819020600480820154600183015460039093015493516374e781b360e01b81526001600160a01b03868116956374e781b3959394620022a6948316938693909216910162002955565b6020604051808303818588803b158015620022c057600080fd5b505af1158015620022d5573d6000803e3d6000fd5b50505050506040513d601f19601f82011682018060405250810190620022fc919062002584565b505b505b50600090815260086020526040902042600690910155565b600080546001600160a01b038381166001600160a01b0319831681178455604051919092169283917f8be0079c531659141344cd1fd0a4f28419497f9722a3daafe3b4186f6b6457e09190a35050565b60408051610140810182526000808252602082018190529091820190815260200160008152602001600081526020016000815260200160608152602001606081526020016060815260200160006004811115620023c957620023c962002e5e565b905290565b611c4e8062002ee183390190565b60008083601f840112620023ef57600080fd5b5081356001600160401b038111156200240757600080fd5b6020830191508360208285010111156200242057600080fd5b9250929050565b6000602082840312156200243a57600080fd5b8135620024478162002ea0565b9392505050565b6000602082840312156200246157600080fd5b8151620024478162002ea0565b600080604083850312156200248257600080fd5b82356200248f8162002ea0565b91506020830135620024a18162002ea0565b809150509250929050565b60008060008060808587031215620024c357600080fd5b8435620024d08162002ea0565b93506020850135620024e28162002ea0565b925060408501359150606085013563ffffffff811681146200250357600080fd5b939692955090935050565b600080604083850312156200252257600080fd5b82356200252f8162002ea0565b946020939093013593505050565b6000806000606084860312156200255357600080fd5b8335620025608162002ea0565b9250602084013591506040840135620025798162002ea0565b809150509250925092565b6000602082840312156200259757600080fd5b815180151581146200244757600080fd5b60008060208385031215620025bc57600080fd5b82356001600160401b03811115620025d357600080fd5b620025e185828601620023dc565b90969095509350505050565b6000602082840312156200260057600080fd5b81356001600160401b038111156200261757600080fd5b8201601f810184136200262957600080fd5b8035620026406200263a8262002d6d565b62002d3a565b8181528560208385010111156200265657600080fd5b81602084016020830137600091810160200191909152949350505050565b6000602082840312156200268757600080fd5b8151620024478162002eb6565b600060208284031215620026a757600080fd5b8135620024478162002ec4565b600060208284031215620026c757600080fd5b8151620024478162002ec4565b600060208284031215620026e757600080fd5b8151620024478162002ed2565b60008060008060008060008060c0898b0312156200271157600080fd5b88356200271e8162002ed2565b97506020890135620027308162002eb6565b965060408901356001600160401b03808211156200274d57600080fd5b6200275b8c838d01620023dc565b909850965060608b01359150808211156200277557600080fd5b50620027848b828c01620023dc565b999c989b5096999598969760808701359660a0013595509350505050565b600060208284031215620027b557600080fd5b81516001600160401b03811115620027cc57600080fd5b8201601f81018413620027de57600080fd5b8051620027ef6200263a8262002d6d565b8181528560208385010111156200280557600080fd5b6200281882602083016020860162002dfb565b95945050505050565b6000602082840312156200283457600080fd5b5035919050565b6000602082840312156200284e57600080fd5b5051919050565b600080604083850312156200286957600080fd5b823591506020830135620024a18162002ea0565b6000806000606084860312156200289357600080fd5b83359250602084013591506040840135620025798162002ea0565b60008151808452620028c881602086016020860162002dfb565b601f01601f19169290920160200192915050565b60068110620028ef57620028ef62002e5e565b9052565b60058110620028ef57620028ef62002e5e565b60038110620028ef57620028ef62002e5e565b60028110620028ef57620028ef62002e5e565b81835281816020850137506000828201602090810191909152601f909101601f19169091010190565b6001600160a01b0393841681526020810192909252909116604082015260600190565b6001600160a01b039390931683526020830191909152604082015260600190565b60006020808301818452808551808352604092508286019150828160051b87010184880160005b8381101562002aaf57603f19898403018552815180518452878101516001600160a01b0316888501528681015161014090620029ff8987018262002906565b5060608083015162002a1482880182620028dc565b50506080828101519086015260a0808301519086015260c08083015181870183905262002a4483880182620028ae565b9250505060e0808301518683038288015262002a618382620028ae565b92505050610100808301518683038288015262002a7f8382620028ae565b9250505061012080830151925062002a9a81870184620028f3565b509588019593505090860190600101620029c0565b509098975050505050505050565b602080825282518282018190526000919060409081850190868401855b8281101562002b6357815180518552868101516001600160a01b039081168887015286820151811687870152606080830151909116908601526080808201519086015260a08082015163ffffffff169086015260c0808201519086015260e0908101519062002b4c8187018362002919565b505061010093909301929085019060010162002ada565b5091979650505050505050565b821515815260406020820152600062001d1e6040830184620028ae565b60a08152600062002ba360a08301888a6200292c565b905062002bb4602083018762002906565b62002bc36040830186620028dc565b606082019390935260800152949350505050565b6020808252601290820152714e6f7420656e6f7567682062616c616e636560701b604082015260600190565b6020808252818101527f4f776e61626c653a2063616c6c6572206973206e6f7420746865206f776e6572604082015260600190565b60208082526010908201526f2a3930b739b332b9103330b4b632b21760811b604082015260600190565b8881526001600160a01b0388811660208301528781166040830152861660608201526080810185905263ffffffff841660a082015260c08101839052610100810162002cb260e083018462002919565b9998505050505050505050565b8a81526001600160a01b038a166020820152600061010062002ce5604084018c62002906565b62002cf4606084018b620028dc565b80608084015262002d09818401898b6200292c565b905082810360a084015262002d208187896200292c565b60c0840195909552505060e0015298975050505050505050565b604051601f8201601f191681016001600160401b038111828210171562002d655762002d6562002e8a565b604052919050565b60006001600160401b0382111562002d895762002d8962002e8a565b50601f01601f191660200190565b6000821982111562002dad5762002dad62002e48565b500190565b600063ffffffff8083168185168183048111821515161562002dd85762002dd862002e48565b02949350505050565b60008282101562002df65762002df662002e48565b500390565b60005b8381101562002e1857818101518382015260200162002dfe565b83811115620013e05750506000910152565b600060001982141562002e415762002e4162002e48565b5060010190565b634e487b7160e01b600052601160045260246000fd5b634e487b7160e01b600052602160045260246000fd5b634e487b7160e01b600052603260045260246000fd5b634e487b7160e01b600052604160045260246000fd5b6001600160a01b038116811462001e3457600080fd5b6006811062001e3457600080fd5b6005811062001e3457600080fd5b6003811062001e3457600080fdfe6101606040523480156200001257600080fd5b5060405162001c4e38038062001c4e8339810160408190526200003591620002b5565b60808890526001600160601b0319606088901b1660a052856002811115620000615762000061620003bf565b60c0816002811115620000785762000078620003bf565b60f81b905250846005811115620000935762000093620003bf565b60e0816005811115620000aa57620000aa620003bf565b60f81b9052508351620000c590600390602087019062000133565b5060008054600181018255908052835162000108917f290decd9548b62a8d60345a988386fc84ba6bc95484008f6362f93160ef3e5630190602086019062000133565b503360601b61014052610100919091526101205250506004805460ff1916905550620003eb92505050565b828054620001419062000382565b90600052602060002090601f016020900481019282620001655760008555620001b0565b82601f106200018057805160ff1916838001178555620001b0565b82800160010185558215620001b0579182015b82811115620001b057825182559160200191906001019062000193565b50620001be929150620001c2565b5090565b5b80821115620001be5760008155600101620001c3565b805160068110620001e957600080fd5b919050565b805160038110620001e957600080fd5b600082601f8301126200021057600080fd5b81516001600160401b03808211156200022d576200022d620003d5565b604051601f8301601f19908116603f01168101908282118183101715620002585762000258620003d5565b816040528381526020925086838588010111156200027557600080fd5b600091505b838210156200029957858201830151818301840152908201906200027a565b83821115620002ab5760008385830101525b9695505050505050565b600080600080600080600080610100898b031215620002d357600080fd5b885160208a01519098506001600160a01b0381168114620002f357600080fd5b96506200030360408a01620001ee565b95506200031360608a01620001d9565b60808a01519095506001600160401b03808211156200033157600080fd5b6200033f8c838d01620001fe565b955060a08b01519150808211156200035657600080fd5b50620003658b828c01620001fe565b60c08b015160e0909b0151999c989b509699959894979350505050565b600181811c908216806200039757607f821691505b60208210811415620003b957634e487b7160e01b600052602260045260246000fd5b50919050565b634e487b7160e01b600052602160045260246000fd5b634e487b7160e01b600052604160045260246000fd5b60805160a05160601c60c05160f81c60e05160f81c61010051610120516101405160601c611793620004bb6000396000610f6c0152600081816102e201528181610bbf01528181610f41015261101e015260008181610192015281816108110152818161083a0152610b9e01526000818161045c0152610b7d0152600081816102080152610b5c015260008181610410015281816105670152818161093f015281816109dc01528181610a8801528181610b3b0152610e800152600081816102ae0152610b1a01526117936000f3fe6080604052600436106101055760003560e01c80631ca5872c1461010a5780632a5785421461013a578063369268661461018057806343394df4146101b457806352ddf862146101e1578063554abf52146101f65780636680ba7d14610237578063744bfe611461025757806374e781b314610279578063779fa30f1461029c578063853a6866146102d05780638742993d146103045780638e82814314610319578063ab32eb6914610339578063bba1964f14610366578063bf9f4aab1461037b578063c699db511461039b578063ca2b7220146103bb578063ccc5d7d4146103d1578063dba6335f146103fe578063f950e69c1461044a578063ff2e100c1461048b575b600080fd5b34801561011657600080fd5b506004546101249060ff1681565b60405161013191906114fd565b60405180910390f35b34801561014657600080fd5b50610172610155366004611271565b600660209081526000928352604080842090915290825290205481565b604051908152602001610131565b34801561018c57600080fd5b506101727f000000000000000000000000000000000000000000000000000000000000000081565b3480156101c057600080fd5b506101d46101cf366004611388565b6104a0565b6040516101319190611519565b3480156101ed57600080fd5b50600054610172565b34801561020257600080fd5b5061022a7f000000000000000000000000000000000000000000000000000000000000000081565b604051610131919061150b565b34801561024357600080fd5b506101d4610252366004611388565b61054c565b34801561026357600080fd5b506102776102723660046113a1565b61055c565b005b61028c6102873660046112aa565b610746565b6040519015158152602001610131565b3480156102a857600080fd5b506101727f000000000000000000000000000000000000000000000000000000000000000081565b3480156102dc57600080fd5b506101727f000000000000000000000000000000000000000000000000000000000000000081565b34801561031057600080fd5b50600154610172565b34801561032557600080fd5b50610277610334366004611388565b610934565b34801561034557600080fd5b5061017261035436600461124d565b60056020526000908152604090205481565b34801561037257600080fd5b506101d46109c4565b34801561038757600080fd5b5061027761039636600461133d565b6109d1565b3480156103a757600080fd5b506102776103b6366004611309565b610a7d565b3480156103c757600080fd5b5061017260025481565b3480156103dd57600080fd5b506103e6610b05565b6040516101319c9b9a99989796959493929190611593565b34801561040a57600080fd5b506104327f000000000000000000000000000000000000000000000000000000000000000081565b6040516001600160a01b039091168152602001610131565b34801561045657600080fd5b5061047e7f000000000000000000000000000000000000000000000000000000000000000081565b60405161013191906114ef565b34801561049757600080fd5b50610277610e75565b600181815481106104b057600080fd5b9060005260206000200160009150905080546104cb906116ab565b80601f01602080910402602001604051908101604052809291908181526020018280546104f7906116ab565b80156105445780601f1061051957610100808354040283529160200191610544565b820191906000526020600020905b81548152906001019060200180831161052757829003601f168201915b505050505081565b600081815481106104b057600080fd5b336001600160a01b037f000000000000000000000000000000000000000000000000000000000000000016146105ad5760405162461bcd60e51b81526004016105a49061152c565b60405180910390fd5b600082116105f15760405162461bcd60e51b8152602060048201526011602482015270043616e6e6f74207769746864726177203607c1b60448201526064016105a4565b6001600160a01b038116600090815260056020526040902054808311156106725760405162461bcd60e51b815260206004820152602f60248201527f536f7272792c2063616e2774207769746864726177206d6f7265207468616e2060448201526e746f74616c20646f6e6174696f6e7360881b60648201526084016105a4565b61067c8382611694565b6001600160a01b03831660008181526005602052604090209190915561072d57604051600090339085908381818185875af1925050503d80600081146106de576040519150601f19603f3d011682016040523d82523d6000602084013e6106e3565b606091505b50509050806107275760405162461bcd60e51b815260206004820152601060248201526f2a3930b739b332b9103330b4b632b21760811b60448201526064016105a4565b50505050565b604051630cdeca0960e01b815260040160405180910390fd5b6000806004805460ff1690811115610760576107606116fc565b146107ca5760405162461bcd60e51b815260206004820152603460248201527f596f752063616e6e6f7420646f6e61746520746f20612066756e647261697365604482015273722074686174206973206e6f742061637469766560601b60648201526084016105a4565b6000831161080d5760405162461bcd60e51b815260206004820152601060248201526f043616e6e6f74206465706f73697420360841b60448201526064016105a4565b60007f000000000000000000000000000000000000000000000000000000000000000011801561085c57507f000000000000000000000000000000000000000000000000000000000000000042115b1561087a5760405163601b6f4760e11b815260040160405180910390fd5b6001600160a01b03821661072d5782341461089457600080fd5b6001600160a01b03841660009081526006602090815260408083208380529091529020546108c390849061163b565b6001600160a01b03851660009081526006602090815260408083208380528252909120919091556005905260008051602061173e8339815191525461090990849061163b565b60008052600560205260008051602061173e8339815191525561092a610f3f565b5060019392505050565b336001600160a01b037f0000000000000000000000000000000000000000000000000000000000000000161461097c5760405162461bcd60e51b81526004016105a49061152c565b60015481106109bf5760405162461bcd60e51b815260206004820152600f60248201526e125b5859d9481b9bdd08199bdd5b99608a1b60448201526064016105a4565b600255565b600380546104cb906116ab565b336001600160a01b037f00000000000000000000000000000000000000000000000000000000000000001614610a195760405162461bcd60e51b81526004016105a49061152c565b6001805480820182556000919091528251610a5b917fb10e2d527612073b26eecdfd717e6a320cf44b4afac2b0732d9fcbe2b7fa0cf60190602085019061110c565b5060018115151415610a795760018054610a759190611694565b6002555b5050565b336001600160a01b037f00000000000000000000000000000000000000000000000000000000000000001614610ac55760405162461bcd60e51b81526004016105a49061152c565b600080546001810182559080528151610a79917f290decd9548b62a8d60345a988386fc84ba6bc95484008f6362f93160ef3e5630190602084019061110c565b600080600080600080606080600060606000807f00000000000000000000000000000000000000000000000000000000000000007f00000000000000000000000000000000000000000000000000000000000000007f00000000000000000000000000000000000000000000000000000000000000007f00000000000000000000000000000000000000000000000000000000000000007f00000000000000000000000000000000000000000000000000000000000000007f0000000000000000000000000000000000000000000000000000000000000000600060016002546003600460009054906101000a900460ff1660056000806001600160a01b03166001600160a01b031681526020019081526020016000205485805480602002602001604051908101604052809291908181526020016000905b82821015610cea578382906000526020600020018054610c5d906116ab565b80601f0160208091040260200160405190810160405280929190818152602001828054610c89906116ab565b8015610cd65780601f10610cab57610100808354040283529160200191610cd6565b820191906000526020600020905b815481529060010190602001808311610cb957829003601f168201915b505050505081526020019060010190610c3e565b50505050955084805480602002602001604051908101604052809291908181526020016000905b82821015610dbd578382906000526020600020018054610d30906116ab565b80601f0160208091040260200160405190810160405280929190818152602001828054610d5c906116ab565b8015610da95780601f10610d7e57610100808354040283529160200191610da9565b820191906000526020600020905b815481529060010190602001808311610d8c57829003601f168201915b505050505081526020019060010190610d11565b505050509450828054610dcf906116ab565b80601f0160208091040260200160405190810160405280929190818152602001828054610dfb906116ab565b8015610e485780601f10610e1d57610100808354040283529160200191610e48565b820191906000526020600020905b815481529060010190602001808311610e2b57829003601f168201915b505050505092509b509b509b509b509b509b509b509b509b509b509b509b50909192939495969798999a9b565b336001600160a01b037f00000000000000000000000000000000000000000000000000000000000000001614610ebd5760405162461bcd60e51b81526004016105a49061152c565b60006004805460ff1690811115610ed657610ed66116fc565b14610f315760405162461bcd60e51b815260206004820152602560248201527f596f752063616e206f6e6c7920636c6f7365206163746976652066756e647261604482015264697365727360d81b60648201526084016105a4565b6004805460ff191681179055565b7f00000000000000000000000000000000000000000000000000000000000000001561105357600061101a7f00000000000000000000000000000000000000000000000000000000000000006001600160a01b0316630ec3b0276040518163ffffffff1660e01b815260040160206040518083038186803b158015610fc357600080fd5b505afa158015610fd7573d6000803e3d6000fd5b505050506040513d601f19601f82011682018060405250810190610ffb91906112ec565b60008052600560205260008051602061173e8339815191525490611055565b90507f00000000000000000000000000000000000000000000000000000000000000008110611051576004805460ff191660011790555b505b565b6000806110618361108c565b905069d3c21bcecceda10000006110788583611675565b6110829190611653565b9150505b92915050565b600080826001600160a01b031663feaf968c6040518163ffffffff1660e01b815260040160a06040518083038186803b1580156110c857600080fd5b505afa1580156110dc573d6000803e3d6000fd5b505050506040513d601f19601f8201168201806040525081019061110091906113c6565b50919695505050505050565b828054611118906116ab565b90600052602060002090601f01602090048101928261113a5760008555611180565b82601f1061115357805160ff1916838001178555611180565b82800160010185558215611180579182015b82811115611180578251825591602001919060010190611165565b5061118c929150611190565b5090565b5b8082111561118c5760008155600101611191565b600082601f8301126111b657600080fd5b81356001600160401b03808211156111d0576111d0611712565b604051601f8301601f19908116603f011681019082821181831017156111f8576111f8611712565b8160405283815286602085880101111561121157600080fd5b836020870160208301376000602085830101528094505050505092915050565b80516001600160501b038116811461124857600080fd5b919050565b60006020828403121561125f57600080fd5b813561126a81611728565b9392505050565b6000806040838503121561128457600080fd5b823561128f81611728565b9150602083013561129f81611728565b809150509250929050565b6000806000606084860312156112bf57600080fd5b83356112ca81611728565b92506020840135915060408401356112e181611728565b809150509250925092565b6000602082840312156112fe57600080fd5b815161126a81611728565b60006020828403121561131b57600080fd5b81356001600160401b0381111561133157600080fd5b611082848285016111a5565b6000806040838503121561135057600080fd5b82356001600160401b0381111561136657600080fd5b611372858286016111a5565b9250506020830135801515811461129f57600080fd5b60006020828403121561139a57600080fd5b5035919050565b600080604083850312156113b457600080fd5b82359150602083013561129f81611728565b600080600080600060a086880312156113de57600080fd5b6113e786611231565b945060208601519350604086015192506060860151915061140a60808701611231565b90509295509295909350565b600082825180855260208086019550808260051b84010181860160005b8481101561146157601f1986840301895261144f8383516114a2565b98840198925090830190600101611433565b5090979650505050505050565b6006811061147e5761147e6116fc565b9052565b6005811061147e5761147e6116fc565b6003811061147e5761147e6116fc565b6000815180845260005b818110156114c8576020818501810151868301820152016114ac565b818111156114da576000602083870101525b50601f01601f19169290920160200192915050565b60208101611086828461146e565b602081016110868284611482565b602081016110868284611492565b60208152600061126a60208301846114a2565b60208082526041908201527f596f75206d75737420626520746865206f776e6572206f66207468652066756e60408201527f6472616973657220746f20706572666f726d2074686973206f7065726174696f6060820152603760f91b608082015260a00190565b8c81526001600160a01b038c16602082015260006101806115b7604084018e611492565b6115c4606084018d61146e565b8a60808401528960a08401528060c08401526115e28184018a611416565b905082810360e08401526115f68189611416565b90508661010084015282810361012084015261161281876114a2565b915050611623610140830185611482565b826101608301529d9c50505050505050505050505050565b6000821982111561164e5761164e6116e6565b500190565b60008261167057634e487b7160e01b600052601260045260246000fd5b500490565b600081600019048311821515161561168f5761168f6116e6565b500290565b6000828210156116a6576116a66116e6565b500390565b600181811c908216806116bf57607f821691505b602082108114156116e057634e487b7160e01b600052602260045260246000fd5b50919050565b634e487b7160e01b600052601160045260246000fd5b634e487b7160e01b600052602160045260246000fd5b634e487b7160e01b600052604160045260246000fd5b6001600160a01b038116811461105157600080fdfe05b8ccbb9d4d8fb16ea74ce3c29a41f1b461fbdaff4714a0d9a8eb05499746bca264697066735822122059ffc0f69e4a92ffcb7fdb5c3397294e41e66b2f32f37763a3931c44e9692f0c64736f6c63430008070033c74b13afc7ea4cc43b81bbda4c6db15d24751ccde1c9eae797e941d0510830cda26469706673582212206b3122fa375dfd5f91873446743d63a9ddcfb08991f183c015262c5ffd08c17d64736f6c63430008070033",
  "linkReferences": {},
  "deployedLinkReferences": {}
}